:020000040000FA
:04000000024E9632E4
:01000B0032C2
:0100130032BA
:01001B0032B2
:0100230032AA
:03002B0002134974
:01003300329A
:01003B003292
:0300430002373E43
:03004B0002147F1D
:01005300327A
:01005B003272
:01006300326A
:20006B0002113E0202DAC082C083E5812404F5817C007D00C374C89C74808DF063F0809550
:20008B00F0500B7490C39CFA74019DFB80048C028D03E58124FBF886078F82C007C005C097
:2000AB0004C003C002787379877A011211DCD002D003D004D005D007E58124FDF8E4F608C1
:2000CB00F6E58124FDF8C3E69A08E664808BF063F08095F0501DE58124FDF8A98119E6F7AC
:2000EB000809E6F7E58124FDF8740126F6E40836F680CE8F82C005C004C003C002788979F8
:20010B00877A011211DCD002D003D004D005E58124FDF8E4F608F674C8C39AFEE49BFFE534
:20012B008124FDF8C3E69E08E664808FF063F08095F0501DE58124FDF8A98119E6F708090D
:20014B00E6F7E58124FDF8740126F6E40836F680CE0CBC00010DC3EC9490ED648094815062
:20016B000302007FE58124FAF58122E5812408F5817E0C7F78E58124F9FD7C07EC2DF98EA8
:20018B00828F83E0FBA3AE82AF83A7031CEC30E7EB74072DF987077E0074062DF987048CC8
:2001AB0003E44207EB420689047B007A40C007C006C0057402C0E0E4C0E0C004C003C002DA
:2001CB009002EF75F000784079537A001211DCE58124FBF581907925E493FAA3E493FBA3DF
:2001EB00E493FCC004C003C00274F5C0E0C4C0E0C002C003C004900002D002D001D000126B
:20020B0011DC15811581D002D003D004D005D006D007907925E493FAA3E493FBA3E493FCF5
:20022B00C005C004C003C002C007C006C002C003C004900003D002D001D0001211DC158134
:20024B001581D002D003D004D005907925E493FCA3E493FEA3E493FFC007C006C005C004C7
:20026B007419C0E0E4C0E0C004C006C007900001D002D001D0001211DC15811581D004D09E
:20028B0005D006D00790792BE493FCA3E493FEA3E493FF7B007A40C007C006C0047408C007
:2002AB00E0E4C0E0C005C003C002C004C006C00790000BD002D001D0001211DCE58124FBA2
:2002CB00F581D004D006D007E58124F8F58122788079127A001211DC78B279287A0012119E
:2002EB00DC78B779877A011211DC781979877A011211DC758207788979877A011211DC905A
:20030B00000112007178A179937A011211DC78B979C37A011211DC789779C07A011211DC06
:20032B00908B9D75F00178C979117A001211DC78CE798D7A011211DC90000212007190776E
:20034B009A75F080786679AB7A011211DC9077B775F080786679AB7A011211DC90624AE05C
:20036B00FFBF8D028042BF9502802CBFA5028005BFB54480119077C875F080786679AB7AFD
:20038B00011211DC80319077CF75F080786679AB7A011211DC80209077D675F080786679B1
:2003AB00AB7A011211DC800F9077DD75F080786679AB7A011211DC9077E475F08078667912
:2003CB00AB7A011211DC906277E0FF0F8F8278A079AB7A011211DC9077EC75F080786679A0
:2003EB00AB7A011211DC78DA79867A011211DC900000785179287A001211DCE4C0E0C0E06B
:20040B00C0E0900AA675F000781D798E7A011211DC158115811581789D79C87A011211DCE4
:20042B00788F79AC7A011211DC120176E4C0E0C0E0C0E0900AC675F000781D798E7A0112D0
:20044B0011DC1581158115819078A4E493FDA3E493FEA3E493FFC007C006C0057401C0E02A
:20046B00E4C0E0C005C006C007900081D002D001D0001211DC15811581D005D006D00790DA
:20048B007894E493FDA3E493FEA3E493FFC007C006C0057401C0E0E4C0E0C005C006C00763
:2004AB00900081D002D001D0001211DC15811581D005D006D00778F479117A001211DC9001
:2004CB00866375F080780079BB7A011211DC78E079867A011211DC90000412007178E6795E
:2004EB00867A011211DC9002F4E0605778FE790E7A001211DCE5828583F045F06040781C96
:20050B00790F7A001211DCAE82AF83C007C006786579127A001211DCAC82AD83D006D007F4
:20052B00EEC39CFEEF9DFF1EBEFF011FC374FF9E747F9F500978E4790B7A001211DC900235
:20054B00F4E4F078DE79957A011211DCAE82AF83EE708A907919E493FDA3E493FEA3E493D8
:20056B00FFC007C005C006C007D002D001D0001211DCAD82AE83D0078D088E09E508450948
:20058B0070030204E8783579A57A011211DC907910E493FDA3E493FEA3E493FFC007C0065F
:2005AB00C00578D479A87A011211DCAA82AB83ACF0D005D006D007C0077480C0E0E4C0E02D
:2005CB00C005C006C0078A828B838CF0D002D001D0001211DCAD82AE8315811581D0078DC6
:2005EB00088E09E508450970030204E885088285098378C679A87A011211DC907976E493C6
:20060B00FDA3E493FEA3E493FFC007C006C005C005C006C007D002D001D0001211DCD005B6
:20062B00D006D0070204E8E5812409F58190002FE0F5F0A3E045F0700A900032E4F0A3F02C
:20064B0002079F786579127A001211DCAE82AF83E58124FCF8A60608A60790002FE0FBA388
:20066B00E0FCA3E0FD8B828C838DF0E58124F8F8125624F6A312562408F674022BFAE43C96
:20068B00FE8D078A828E838FF0125624FAA3125624FEE58124F8F8EA26FAEE0836FEE5815A
:2006AB0024FCF8EAC396FAEE0896FEE58124FAF8A60208A60674042BFBE43CFC8B828C83A2
:2006CB008DF0A8811818125624F6A312562408F6A312562408F6A8811818E608467003025B
:1506EB000789A881181886820886830886F0125624FFA31256E4
:2007000024FAA8811818740226FDE40836FC0886068D828C838EF0125624FDA3125624FEC5
:20072000ED2FFBEE3AFCE58124FCF8EBC396FBEC0896FCE58124FAF8C3EB96EC0896501D84
:20074000ED2FFFEE3AFAE58124FCF8EFC396FFEA0896FAE58124FAF8A60708A602A88118FB
:2007600018740426FFE40836FE0886058F828E838DF0A8811818125624F6A312562408F66A
:20078000A312562408F60206E1E58124FCF8E58124FAF9900032E726F009E70836A3F0E5E3
:2007A0008124F7F5810211EEE581240FF581AD82AE83AFF07C01125624FAA3125624FBBA31
:2007C0000005BB0002800BBA5905BB0002801E020BCA90002FE4F0A3F0A3F07C008D828EB0
:2007E000838FF07459125029A3E4125029EC7006758201020BDBE58124EEF8B68702800319
:200800000209ACE58124EBF8A9811919E6F70809E6F70809E6F790002FE0FAA3E0FBA3E005
:20082000FCEA4B6078C005C006C00774072AFDE43BFE8C078D828E838FF0125624FDA3122E
:200840005624FEA3125624FFE58124FBF8C005C006C00786820886830886F01228BD1581FF
:20086000158115816008D007D006D005802FD007D006D00574042AFAE43BFB8A828B838CD5
:20088000F0125624FAA3125624FBA3125624FC90002FEAF0EBA3F0ECA3F002081690002F18
:2008A000E0FAA3E0FBA3E0FC90002FE0F5F0A3E045F070030207DBE58124F2F874042AF6C2
:2008C000E43B08F608A604E58124F2F886820886830886F0E58124F5F9125624F7A3125638
:2008E0002409F7A312562409F7E58124F5F8E6084670030207DBC005C006C007E58124F2D5
:20090000F8740726FDE40836FE0886078D828E838FF0125624FDA3125624FEA3125624FF09
:20092000E58124FBF8C005C006C00786820886830886F01228BD1581158115816008D00759
:20094000D006D0058048E58124F2F8740426FDE40836FE0886078D828E838FF0125624FD38
:20096000A3125624FEA3125624FFE58124EFF886820886830886F0ED125029A3EE12502980
:20098000A3EF125029D007D006D0050208B7E58124F2F886820886830886F0125624FAA3C3
:2009A000125624FBA3125624FC0208B7E58124EEF8B6820280030207DBE58124FBF8E4F65C
:2009C00008F608760090002FE0FAA3E0FBA3E0FCE58124F8F8A60208A60308A604E58124F6
:2009E000F8F8E6084670030207DBE58124F8F886820886830886F0C007C006C005781E790A
:200A0000AE7A011211DCE5828583F0D005D006D00745F07003020B88C005C006C007E581D8
:200A200024F5F88605088606088607E58124F5F8E58124F2F9740726F7E4083609F708093A
:200A4000E6F7E58124F2F886820886830886F0125624FAA3125624FBA3125624FCC005C04E
:200A600005C006C0077488C0E08A828B838CF0782A79967A011211DCAE82AF83E58124FC9F
:200A8000F581D005EE4FD007D006D0056003020B73E58124F5F886820886830886F0E41265
:200AA0005029A3125029A3125029E58124FBF8E608466056C005C006C007E58124F8F874BA
:200AC0000426FAE40836FB088604E58124F5F8740426FDE40836FE0886078D828E838FF0DD
:200AE000125624FDA3125624FEA3125624FF8A828B838CF0ED125029A3EE125029A3EF1244
:200B00005029D007D006D005802FE58124F8F8740426FAE40836FB0886048A828B838CF0D4
:200B2000125624FAA3125624FBA3125624FC90002FEAF0EBA3F0ECA3F0E58124F8F8740452
:200B400026FAE40836FB0886048A828B838CF0E4125029A3125029A3125029C007C006C018
:200B600005783279067A001211DCD005D006D0070209B9C007C006C00578E4790B7A0012CA
:200B800011DCD005D006D007E58124F8F8E58124FBF9E6F70809E6F70809E6F7E58124F8B3
:200BA000F8740426FAE40836FB0886048A828B838CF0E58124F8F8125624F6A3125624082D
:200BC000F6A312562408F60209DD8D828E838FF0E4125029A3125029758203E58124F1F564
:200BE000810211EE900AA675F00078F279967A011211DC0211EEC082C083C0F00581058199
:200C0000058178E4790B7A001211DCE58124FBF8A9811919740726F7E4083609F70809E66B
:200C2000F7A881181886820886830886F0125624FDA3125624FEA3125624FFED4E70030239
:200C40000CC190002FE0FDA3E0FEA3E0FFED4E6070E58124FBF8C005C006C00786820886B8
:200C6000830886F01228BD15811581158160028031900ABDE0FAA3E0FBA3E0FCA881181820
:200C800086820886830886F0EA125029A3EB125029A3EC125029783279067A001211DC0271
:200CA0000D3074042DFAE43EFB8F048A828B838CF0125624FDA3125624FEA3125624FF80AE
:200CC0008C900ABDE0FDA3E0FEA3E0FFA881181886820886830886F0ED125029A3EE1250F6
:200CE00029A3EF125029E58124FBF8740426FDE40836FE08860790002FE0FAA3E0FBA3E047
:200D0000FC8D828E838FF0EA125029A3EB125029A3EC125029E58124FBF890002FE6F00876
:200D2000E6A3F008E6A3F0783279067A001211DCE58124FAF5810211EEAD82AE83AFF0C05D
:200D400007C006C005E58124F9F8E6C0E008E6C0E08D828E838FF0785F79AD7A011211DC5C
:200D600015811581D005D006D0078D828E838FF078F6790B7A001211DC0211EEAD82AE835A
:200D8000AFF0C007C006C00578AE79AD7A011211DCD005D006D00774022DFAE43EFB8F04CD
:200DA0008A828B838CF0E58124FCF8E6125029A308E61250298D828E838FF078F6790B7A87
:200DC000001211DC0211EEAD82AE83AFF0C007C006C00578AE79AD7A011211DCD005D00651
:200DE000D0078D828E838FF078F6790B7A001211DC0211EEAD82AE83AFF0C007C006C005C0
:200E000078ED79AD7A011211DCD005D006D0078D828E838FF078F6790B7A001211DC02112E
:200E2000EEC082C083C0F0A881181886820886830886F0125624FBA3125624FCE58124F96A
:200E4000F88602088607EA2BFBEF3CFCA881181886820886830886F0EB125029A3EC1250EF
:200E600029783279067A001211DC1581158115810211EEAD82AE83AFF074072DFDE43EFE20
:200E80008D828E838FF0125624FDA3125624FEA3125624FFE4C0E0C0E0C0E08D828E838F5C
:200EA000F01228BD1581158115817003048001E4FD7F008D828F830211EEAD82AE83AFF010
:200EC000125624FBA3125624FC74022DFDE43EFE8D828E838FF0125624FDA3125624FEED5E
:200EE0002BFBEE3CFC8B828C830211EEAFF0125624FDA3125624FE8D828E830211EE900083
:200F00002FE0FDA3E0FEA3E0ED4EB40100B39200E433FE7F008E828F830211EE78FE790ED8
:200F20007A001211DCE5828583F045F0600A900032E0FEA3E0FF80047E007F008E828F8375
:200F40000211EEC082C083C0F090002FE0FAA3E0FBA3E0FCA8811818C002C003C00486821B
:200F60000886830886F01228BD1581158115816002803474042AFDE43BFE8C078D828E83A4
:200F80008FF0125624FDA3125624FEA3125624FF90002FEDF0EEA3F0EFA3F0783279067AAC
:200FA000001211DC021038EA4B604274042AFDE43BFE8C078D828E838FF0125624FDA312E5
:200FC0005624FEA3125624FFA8811818C005C006C00786820886830886F01228BD15811587
:200FE00081158160088D028E038F0480BAEA4B604774042AFAE43BFBA8811818740426FDFF
:20100000E40836FE0886078D828E838FF0125624FDA3125624FEA3125624FF8A828B838CF2
:20102000F0ED125029A3EE125029A3EF125029783279067A001211DCA8811818740426FD79
:20104000E40836FE0886078D828E838FF0E4125029A3125029A3125029A881181874072677
:20106000FDE40836FE0886078D828E838FF0E4125029A3125029A312502915811581158192
:201080000211EE20811B90000A75F040781E79AE7A011211DCAE82AF83EE4F6004C20080D8
:2010A00002D200A200E433FE7F008E828F830211EEAE82AF83BE8105BF00028006BE8210C6
:2010C000BF000D740255ABFF7E008F828E8380039000000211EEAE82AF83BE8005BF0002B5
:2010E0008008BE8153BF00508011438F02538CFE53F3FD53FDFD9000018040E58124FCF826
:20110000E608466029E5AB20E129E4C0E0C0E090000A75F040785F79AD7A011211DC1581E8
:2011200015815389FDC2C543AB02D2BD800553ABFDC2BD90000180039000000211EEC020B6
:20114000C0E0C0F0C082C083C007C006C005C004C003C002C001C000C0D075D000C2AFE573
:201160008930E14190000A75F040781E79AE7A011211DCE5828583F045F060297410C0E0DD
:20118000E4C0E090000A75F040785F79AD7A011211DC1581158190789E75F08078EA7999EA
:2011A0007A011211DC5389FDC2C5D2AFD0D0D000D001D002D003D004D005D006D007D08345
:2011C000D082D0F0D0E0D02032AFF0AE83E582900034F0EEA3F0EFA3F00211EEC09FC8C055
:2011E000E0E9C0E0EA540F539FF0429FC822D09F220211EE0211EE900000E4F5F00211EE9F
:201200000211EEAE82AF83C2AF8E048F051EBEFF011FEC4D60030080F0D2AF0211EEAE821B
:20122000AF83C007C006786579127A001211DCAC82AD83D006D007C007C006C005C0047875
:201240006579127A001211DCAA82AB83D004D005D006D007EAC39CFAEB9DFBC3EA9EEB9FDA
:2012600040D50211EE850F828510830211EEAC11AD127E007F008C828D838EF0EF0211EE24
:2012800075C6C053C6BFE59E20E6FB43C630E5C6B59EFB900000E595F0E4A3F0A3F0A3F02E
:2012A000AC967D007E008E078D068C057C00900000E0F8A3E0F9A3E0FAA3E0FB900000EC61
:2012C00028F0ED39A3F0EE3AA3F0EF3BA3F0AC977D008D078C067C007D00900000E0F8A3DB
:2012E000E0F9A3E0FAA3E0FB900000EC28F0ED39A3F0EE3AA3F0EF3BA3F0900000E0FCA346
:20130000E0FDA3E0FEA3E0FF900000ECF074012DA3F0E43EA3F0E43FA3F0900000E0A3E0EE
:20132000A3E0FEA3E08E97900000E0A3E0FDA3E0A3E08D96900000E0FCA3E0FDA3E0FEA35B
:20134000E0FF8C95D2AD0211EEC0E0C082C083C007C006C005C004C003C002C001C000C00C
:20136000D075D000C2AF900000E595F0E4A3F0A3F0A3F0AC967D007E008E078D068C057CDE
:2013800000900000E0F8A3E0F9A3E0FAA3E0FB900000EC28F0ED39A3F0EE3AA3F0EF3BA399
:2013A000F0AC977D008D078C067C007D00900000E0F8A3E0F9A3E0FAA3E0FB900000EC28DB
:2013C000F0ED39A3F0EE3AA3F0EF3BA3F0900000E0FCA3E0FDA3E0FEA3E0FF900000ECF091
:2013E00074012DA3F0E43EA3F0E43FA3F0900000E0A3E0A3E0FEA3E08E97900000E0A3E03E
:20140000FDA3E0A3E08D96900000E0FCA3E0A3E0A3E08C957401250FF50FE43510F510AE07
:201420000FAF10EE547F6002800B74012511F511E43512F5129002F47401F0C2C7D2AFD088
:20144000D0D000D001D002D003D004D005D006D007D083D082D0E03275E40975AF0075E6B8
:2014600044C2DED2B90211EEAE82AF8353E6FB8EDC8FDD43E60475AF0043E6400211EEC015
:2014800020C0E0C0F0C082C083C007C006C005C004C003C002C001C000C0D075D000C2B9EB
:2014A00053AFFD53E6BF787779887A011211DCD2B9D0D0D000D001D002D003D004D005D0E1
:2014C00006D007D083D082D0F0D0E0D02032C082C083C0F0900B03E0FAA3E0FBA3E0FC8AC4
:2014E000828B838CF078F6799D7A011211DCAA82AB83ACF0EA4B606D74032AFDE43BFE8CA3
:2015000007C004C003C002E58124FBF8E6C0E008E6C0E008E6C0E08D828E838FF07891793B
:20152000BA7A011211DCAE82AF83158115811581D002D003D004EE4F60088A828B838CF09F
:2015400080298A058B068C078D828E838FF0788F79A37A011211DCAD82AE83AFF08D028ED7
:20156000038F04808F90000075F0001581158115810211EE90797FE493FDA3E493FEA3E473
:2015800093FFC007C005C006C007D002D001D0001211DCAD82AE83D0078D048E07ED4E7026
:2015A000037C01FF8C828F830211EE058105810581AD82AE83AFF0ED4E700302165C742044
:2015C0002DFAE43EFB8F048A828B838CF0125624FAA3125624FBA3125624FC8A828B838C1D
:2015E000F0C007C006C00578F6799D7A011211DCAA82AB83ACF0D005D006D007A8811818DA
:20160000A60208A60308A604A8811818E60846604B907973E493FAA3E493FBA3E493FCC0AF
:2016200004C003C002E58124FBF8E6C0E008E6C0E008E6C0E0C005C006C007C002C003C06B
:2016400004901E4475F000D002D001D0001211DCE58124FAF581D002D003D004158115811E
:2016600015810211EE05810581AD82AE83AFF0741C2DFAE43EFB8F048A828B838CF0125663
:2016800024FCBC040050068C037C0080047B047C00C005C006C0078BF005F07B017C008050
:2016A00006EB2BFBEC33FCD5F0F71BBBFF011CC006C005C004C003787479157A001211DC45
:2016C000AA82AF83D003D004D005D006C005C002C0078B828C83125044AE82AF831581153D
:2016E00081D005E58124FCF8A60608A607D007D006D005A88118E60846603CC007C006C0D5
:2017000005783979287A001211DCAB82AC83E58124FCF8E6C0E008E6C0E08B828C83125687
:20172000DBAB82AC8315811581D005D006D007A88118A60308A6048D028E038F0474052DCF
:20174000FDE43EFEC002C003C00474ABC0E07415C0E07400C0E0E58124F9F8E6C0E008E638
:20176000C0E08D828E838FF078DB79C87A011211DCE58124F8F581158115810211EEC082B5
:20178000C083C0F0058105810581E58124F5F8E6084670030219C0E58124F5F8A9811919F8
:2017A000E6F70809E6F70809E6F7E58124FBF8742026FDE40836FE0886078D828E838FF0E8
:2017C000125624FAA3125624FBA3125624FCC007C006C005E58124FBF8E6C0E008E6C0E04B
:2017E00008E6C0E08A828B838CF0785D79A17A011211DC158115811581D005D006D007E533
:201800008124F5F8A9811919E6F70809E6F70809E6F7A8811818740326FAE40836FB088686
:20182000048A828B838CF0125624FAA3125624FBA3125624FC8A828B838CF0C007C006C050
:201840000578B579E27A011211DCD005D006D007A8811818740626FAE40836FB0886048AD3
:20186000828B838CF0125624FAA3125624FBA3125624FCC007C006C005C002C003C0049056
:201880000AF675F00078B879DC7A011211DC158115811581D005D006D007E58124F5F886A3
:2018A00002088603088604C007C006C005C002C003C004900AEC75F00078B879DC7A01126B
:2018C00011DC158115811581D005D006D0078D828E838FF0125624FDA3125624FEA3125677
:2018E00024FF8D828E838FF078F6799D7A011211DCAD82AE83ED4E604DE58124FBF8741BD4
:2019000026FDE40836FE0886078D828E838FF0E4125029E58124FBF8741C26FDE40836FE91
:201920000886078D828E838FF0E4125029E58124FBF886820886830886F0786579167A000A
:201940001211DC0219C0E58124FBF8740526FDE40836FE0886078D828E838FF078A479CBE0
:201960007A011211DCE58124FBF88605088606088607900B03E0FAA3E0FBA3E0FCC005C0C2
:2019800006C0078A828B838CF0785D79A17A011211DC158115811581E58124FBF8860508A9
:2019A0008606088607C005C006C007900AE275F00078B879DC7A011211DC15811581158112
:2019C000E58124FAF5810211EEC082C083E5812409F58124F0F8860308860408860574064A
:2019E0002BFAE43CFE8D078A828E838FF0125624FAA3125624FEA3125624FF8A828E838FE7
:201A0000F0E58124FBF8125624F6A312562408F6A312562408F674032AFAE43EFE8A828E28
:201A2000838FF0A8811818125624F6A312562408F6A312562408F6E58124EDF8E58124F87E
:201A4000F9E6F70809E6F70809E6F7E58124F8F8741B26FAE40836FE0886078A828E838F4A
:201A6000F0125624FAC002E58124F5F8E6C0E008E6C0E0C003C004C005E58124F2F88682DB
:201A80000886830886F0787E79177A001211DCE58124FBF5817F00C007E58124F4F8E6C05B
:201AA000E008E6C0E0E58124FAF8E6C0E008E6C0E008E6C0E0E58124F4F886820886830803
:201AC00086F0784179C57A011211DCE58124F924F5F5810211EEAD82AE83AFF0E58124FB88
:201AE000F886820886830886F0C007C006C005786579167A001211DCD005D006D007740327
:201B00002DFDE43EFE8D828E838FF0125624FDA3125624FEA3125624FF8D828E838FF078E1
:201B2000CC79E17A011211DC0211EEC082C083C0F0E5812406F58124F8F8740626FAE4082F
:201B400036FB0886048A828B838CF0125624FAA3125624FBA3125624FCA8811818A6020848
:201B6000A60308A604E58124F2F88602088603088604E58124FBF8741C2AF6E43B08F60899
:201B8000A604E58124FBF886820886830886F0125624FFE58124F0F8E62FFEE58124FBF8FA
:201BA00086820886830886F0EE125029E58124FBF886820886830886F012562424FA503BCC
:201BC000E58124FBF886820886830886F0E4125029741B2AFDE43BFE8C07C002C003C004D3
:201BE0008D828E838FF0125624FC0C8D828E838FF0EC125029D004D003D002741B2AFDE489
:201C00003BFE8C078D828E838FF0125624FDC002C003C004E58124FBF8740626FCE408364C
:201C2000FE0886078C828E838FF0125624FCC3ED9CD004D003D002402AC002C003C004E58E
:201C40008124F5F8E6C0E008E6C0E008E6C0E090000178C979197A001211DCE58124FAF5FA
:201C6000818022C002C003C004E58124F5F886820886830886F078D6791A7A001211DC157B
:201C80008115811581E58124F7F5810211EEC082C083C0F0E5812406F58124F8F8740626B0
:201CA000FAE40836FB0886048A828B838CF0125624FAA3125624FBA3125624FCA8811818B1
:201CC000A60208A60308A604E58124F2F88602088603088604741C2AFDE43BFE8C078D8264
:201CE0008E838FF0E4125029E58124FBF8741B2AF6E43B08F608A604E58124FBF88682085D
:201D000086830886F0125624FFE58124F0F8E62FFEE58124FBF886820886830886F0EE1218
:201D20005029E58124FBF886820886830886F0E58124FBF9125624F7A8811818740626FD1F
:201D4000E40836FE0886078D828E838FF0125624FDE58124FBF8C3E69D402AC002C003C034
:201D600004E58124F5F8E6C0E008E6C0E008E6C0E090000278C979197A001211DCE58124DE
:201D8000FAF5818022C002C003C004E58124F5F886820886830886F078D6791A7A0012115C
:201DA000DC158115811581E58124F7F5810211EEC082C083C0F0058105810581E58124F547
:201DC000F88602088603088604741C2AFDE43BFE8C078D828E838FF0E4125029A881181892
:201DE000741B2AF6E43B08F608A604A881181886820886830886F0125624FFE58124F3F875
:201E0000E62FFEA881181886820886830886F0EE125029C002C003C004E58124F8F8E6C0DD
:201E2000E008E6C0E008E6C0E090000078C979197A001211DCE58124FAF581E58124FAF557
:201E4000810211EE058105810581AD82AE83AFF0ED4E700302209174202DFAE43EFB8F04A3
:201E60008A828B838CF0125624FAA3125624FBA3125624FC8A828B838CF0C007C006C00509
:201E800078F6799D7A011211DCAA82AB83ACF0D005D006D007A8811818A60208A60308A66C
:201EA00004A8811818E608467003021F5EC005C006C007E58124FBF8740326FDE40836FE16
:201EC0000886078D828E838FF0125624FDA3125624FEA3125624FFC005740AC0E08D828E6A
:201EE000838FF078E779E47A011211DCAE82AF831581D00575820AC007C00678C679AA7A74
:201F0000011211DCAC82AD83D006D007EEB5040CEFB50508D007D006D0058042D007D00661
:201F2000D005A881181886020886030886048A828B838CF0C007C006C005788F79A37A0142
:201F40001211DCAA82AB83ACF0D005D006D007A8811818A60208A60308A604021EA1A881BC
:201F60001818E608467003022091A8811818740626FAE40836FB0886048A828B838CF0128D
:201F80005624FAA3125624FBA3125624FCEA4B7003022091E58124F9F8B6000608B6000226
:201FA000802FE58124F9F8B6010708B60003022032E58124F9F8B6020608B600028043E583
:201FC0008124F9F8B6030708B60003022091022062E58124F7F8E6C0E008E6C0E0C005C0A1
:201FE00006C007E58124F9F886820886830886F078B0791D7A001211DCE58124FBF58102CE
:202000002091E58124F7F8E6C0E008E6C0E0C005C006C007E58124F9F8868208868308860E
:20202000F0788E791C7A001211DCE58124FBF581805FE58124F7F8E6C0E008E6C0E0C00570
:20204000C006C007E58124F9F886820886830886F0782B791B7A001211DCE58124FBF58136
:20206000802FC005C006C007E58124FBF8E6C0E008E6C0E008E6C0E0E58124F3F8868208BB
:20208000868378C979197A001211DCE58124FAF5811581158115810211EEC082C083C0F0F9
:2020A000E5812412F58175821B781F79AB7A011211DCAA82AB83ACF0E58124FBF8A60208A4
:2020C000A60308A6049003E4E0701C9003E47401F0783979287A001211DCE5828583F0902C
:2020E00003E5F0E5F0A3F09003E5E0FBA3E0FC9003E5E0F5F0A3E045F0700B9003E5740171
:202100002BF0E43CA3F09003E5E0FBA3E0FC9003E574012BF0E43CA3F0C003C00475820ADC
:2021200078A479AA7A011211DC15811581E58124FBF886820886830886F078CE79147A0059
:202140001211DCAA82AB83ACF0E58124F8F8A60208A60308A604E58124F8F8E608466003F4
:20216000022283900AE275F000786A79DB7A011211DCAD82AE83AFF0E58124F8F8A60508FB
:20218000A60608A607E58124F8F8E608467003022283E58124F8F8740326FDE40836FE08DA
:2021A0008607E58124FBF8E6C0E008E6C0E008E6C0E08D828E838FF0785979BA7A01121132
:2021C000DC158115811581E58124F8F8741B26FDE40836FE0886078D828E838FF0E412509B
:2021E00029E58124F8F8741C26FDE40836FE0886078D828E838FF0E4125029E58124F8F84C
:20220000742026FDE40836FE088607E58124F8F8741D26FAE40836FB0886048D828E838FC9
:20222000F0EA125029A3EB125029A3EC1250298A828B838CF0E4125029A3125029A31250CE
:20224000298A828B838CF078E1799D7A011211DCE58124F8F88602088603088604900B0313
:20226000E0FDA3E0FEA3E0FFC002C003C0048D828E838FF0788D799E7A011211DC15811555
:20228000811581E58124F8F8E608467003022705E58124F8F8742026FAE40836FB088604FB
:2022A0008A828B838CF0125624FDA3125624FEA3125624FF8D828E838FF0C004C003C002BC
:2022C00078A279A27A011211DCAE82AF83D002D003D004C3EE9408EF6480948040030227D4
:2022E00005900AEC75F000C004C003C002786A79DB7A011211DCAD82AE83AFF0D002D00351
:20230000D004E58124F5F8A60508A60608A607E58124F5F8E60846700302267EE58124F51B
:20232000F8E58124EFF9740626F7E4083609F70809E6F7900AF675F000C004C003C00278D6
:202340006A79DB7A011211DCAD82AE83AFF0D002D003D004E58124EFF886820886830886B5
:20236000F0ED125029A3EE125029A3EF125029ED4E700302264AE58124F5F8E58124F2F9B0
:20238000740326F7E4083609F70809E6F7C004C003C002786579E07A011211DCAD82AE8340
:2023A000AFF0D002D003D004E58124F2F886820886830886F0ED125029A3EE125029A3EFD4
:2023C000125029ED4E7003022608E58124EFF886820886830886F0125624FDA3125624FED6
:2023E000A3125624FFA8811818A60508A60608A607758209C004C003C00278C679AA7A011D
:202400001211DCE5828583F0D002D003D00445F07029C002C003C004E58124FBF8740626B1
:20242000FAE40836FB0886048A828B838CF07408125029D004D003D0028044C002C003C0D4
:2024400004E58124FBF8740626FDE40836FE088607758209C007C006C005C00278C679AA34
:202460007A011211DCAB82D002D005D006D0078D828E838FF0EB125029D004D003D002A82B
:2024800081181886820886830886F0E58124ECF9E7125029A309E7125029A309E7125029D7
:2024A000A8811818740326FDE40836FE0886078D828E838FF0E58124E6F8E6125029A30851
:2024C000E6125029A308E612502975820DC004C003C00278C679AA7A011211DCAE82AF83E5
:2024E000D002D003D004BE015EBF005BE58124F5F8E58124F2F9E6F70809E6F70809E6F787
:202500008A828B838CF0125624FDA3125624FEA3125624FFC004C003C002E58124EFF8E6A1
:20252000C0E008E6C0E008E6C0E08D828E838FF07872799F7A011211DC158115811581D032
:2025400002D003D0048059E58124F5F8E58124F2F9E6F70809E6F70809E6F78A828B838CAE
:20256000F0125624FDA3125624FEA3125624FFC004C003C002E58124EFF8E6C0E008E6C099
:20258000E008E6C0E08D828E838FF0788D799E7A011211DC158115811581D002D003D0045D
:2025A0008A828B838CF0125624FDA3125624FEA3125624FF8D828E838FF078F6799D7A0103
:2025C0001211DCAC82AB83AAF0E58124F5F88605088606088607C005C006C0078C828B836D
:2025E0008AF01228BD15811581158160028016E58124F8F886820886830886F07865791633
:202600007A001211DC02273FE58124EFF886820886830886F0125624FDA3125624FEA31266
:202620005624FFC004C003C002C005C006C007900AF675F00078B879DC7A011211DC1581FC
:2026400015811581D002D003D004E58124F5F88605088606088607C004C003C002C005C0DC
:2026600006C007900AEC75F00078B879DC7A011211DC158115811581D002D003D0048A825C
:202680008B838CF0125624FAA3125624FBA3125624FC8A828B838CF078A279A27A0112116C
:2026A000DCE5828583F045F0705BE58124F8F88602088603088604900B03E0FDA3E0FEA31B
:2026C000E0FFC002C003C0048D828E838FF0785D79A17A011211DC158115811581E581247E
:2026E000F8F88602088603088604C002C003C004900AE275F00078B879DC7A011211DC1501
:2027000081158115817401C0E0E4C0E07404C0E0E4C0E0E58124E2F8E6C0E008E6C0E00857
:20272000E6C0E0E58124E5F886820886830886F0784179C57A011211DCE58124F9F581E5C6
:202740008124EBF5810211EE907993E493FDA3E493FEA3E493FFC007C006C005C005C00654
:20276000C007D002D001D0001211DCD005D006D0070211EE907979E493FDA3E493FEA3E408
:2027800093FFC007C005C006C007D002D001D0001211DCAD82AE83D0078D828E830211EEC4
:2027A000AE82AF8390797CE493FBA3E493FCA3E493FDC005C003C004C0058E828F83D0028E
:2027C000D001D0001211DCAB82AC83D0058B828C830211EE90797FE493FDA3E493FEA3E470
:2027E00093FFED4E601DC007C005C006C007D002D001D0001211DCAD82AE83D0078D828E30
:202800008380039000000211EE900AEC75F000786479DA7A011211DC900AF675F0007864BC
:2028200079DA7A011211DC900AE275F000786479DA7A011211DC0211EE43B404AFBD7E005B
:20284000ACBC7D00EC4206ED42078E828F830211EEAE82AF8353B4F39061897408F075E16E
:20286000E3906199E030E0F97C007D00C3EC9410ED64809480400EEE4F600A8E028F03BA00
:202880000326BB8023EE2EFAEF33FB9061A7E0F85300017900E84202E94203EA2AFEEB33B7
:2028A000FF0CBC00C70D80C48FBC8EBC75E1EF0211EE9062707404F0D2AF0211EEE5812488
:2028C000FCC3C8C0E0C082E608467006E5824583601218E58296F58208E58396428208E501
:2028E000F0964582D082C8D0E0C822AD82AE83AFF0E58124FCF886048D828E838FF0EC1233
:2029000050290DBD00010EE58124FCF80886048D828E838FF0EC1250290211EEAD82AE83DE
:20292000AFF074012DFAE43EFB8F048A828B838CF0125624FC7A008D828E838FF0125624E9
:20294000FD7F004202EF42048A828C830211EEAD82AE83AFF0125624FB7C000DBD00010E8B
:202960008D828E838FF0125624FD7F004204EF4203E58124FCF886078FF005F08006EC2C19
:20298000FCEB33FBD5F0F78B047B00E58124FAF8E62458F58208E63479F583E4937E0052AD
:2029A00004EE5203E58124FAF886077408C39FFF8FF005F08007C3EB13FBEC13FCD5F0F67D
:2029C0008C820211EEC082C083C0F0E5812407F58124EDF8C3E6940808E6648094805048E0
:2029E000E58124EDF8E6C0E008E6C0E0E58124EDF8E6C0E008E6C0E0E58124EDF886820852
:202A000086830886F0784F79297A001211DCAC82E58124FCF58124F7F88682088683088669
:202A2000F0EC125029022C84E58124EFF8E608466003022B417408C0E0E4C0E0E58124EBF2
:202A4000F8868208868312575AAB82AC8315811581E58124FDF8E4F608F6E58124FDF8C381
:202A6000E69B08E664808CF063F08095F05052C003C004E58124F5F8E58124FBF9E726FC08
:202A800009E70836FD088606E58124EFF8E58124FBF9E726FA09E70836FB0886078A828B2C
:202AA000838FF0125624FA8C828D838EF0125029E58124FBF806B600020806D004D00380F7
:202AC00099E58124EDF8740756FE7F004F7003022C84E58124F7F8E58124FDF9E726C0E086
:202AE00009E70836C0E008E6C0E0E58124F9F8D0E0F618D0E0F618D0E0F6E58124F1F8E585
:202B00008124FDF9E726FA09E70836FC088605C006C007E4C0E0C0E08A828C838DF0784F46
:202B200079297A001211DCAF82E58124FCF58124FAF886820886830886F0EF125029022CF8
:202B4000847408C0E0E4C0E0E58124EBF8868208868312575AAE82AF8315811581E58124F0
:202B6000FDF8E4F608F6E58124FDF8C3E69E08E664808FF063F08095F04003022BFEC006E5
:202B8000C007E58124F5F8E58124FBF9E726FA09E70836FB088607E58124EFF8E58124FBBE
:202BA000F9E726FC09E70836FD088606C007C003C0027408C0E0E4C0E0E58124E8F8E6C058
:202BC000E008E6C0E08C828D838EF0784F79297A001211DCAE82E58124FCF581D002D00338
:202BE000D0078A828B838FF0EE125029E58124FBF806B600020806D007D006022B66E581FD
:202C000024EDF8A98119740756F7097700A88118E60846606FE58124F7F8E58124FDF9E7FC
:202C200026FB09E70836FC088605E58124F1F8E58124FDF9E726FA09E70836FE088607C03B
:202C400005C004C003E58124FCF8E6C0E008E6C0E0E58124EAF8E6C0E008E6C0E08A828E3C
:202C6000838FF0784F79297A001211DCAF82E58124FCF581D003D004D0058B828C838DF02E
:202C8000EF125029E58124F6F5810211EE05810581AD82AE83AFF0A88118E4F608F68D8290
:202CA0008E838FF0125624602874012DFAE43EFB8F048A828B838CF0125624FA7C00A88163
:202CC00018EA26F6EC0836F674022DFDE43EFE80CDA881188682088683158115810211EE22
:202CE000C082C083C0F0E58124F8F886037C00E58124F9F886027410C39AFAE58124F6F8CA
:202D00008607EAC39FFA8AF005F08006EB2BFBEC33FCD5F0F7A88118188682088683088603
:202D2000F0125624FF8C06EE4207A881181886820886830886F0EF125029A8811818740117
:202D400026FDE40836FE0886078D828E838FF0125624FAEB42028D828E838FF0EA12502933
:202D60001581158115810211EEC082C083C0F0E5812404F58124F0F8C3E6940808E6648034
:202D800094805050E58124F2F886020886030886048A828B838CF0125624FAE58124F0F8D2
:202DA000E6C0E008E6C0E0C002E58124F2F8E6C0E008E6C0E0E58124F5F88682088683081D
:202DC00086F078E0792C7A001211DCE58124FBF58102300CE58124F5F8E608466003022E90
:202DE000E87408C0E0E4C0E0E58124EEF8868208868312575AAB82AC8315811581E58124ED
:202E0000FDF8E4F608F6E58124FDF8C3E69B08E664808CF063F08095F05052C003C004E56E
:202E20008124F8F8E58124FBF9E726FC09E70836FD088606E58124F0F8E58124FBF9E726BA
:202E4000FA09E70836FB0886078A828B838FF0125624FA8C828D838EF0125029E58124FBEF
:202E6000F806B600020806D004D0038099E58124F0F8740756FE7F004F700302300CE581A8
:202E800024F2F8E58124FDF9E726FB09E70836FC0886058B828C838DF0125624FB8E0574B8
:202EA00008C39DF5F005F0EB8002C313D5F0FBFBE58124FAF8E58124FDF9E726FA09E708D7
:202EC00036FC088605C006C007C003E4C0E0C0E08A828C838DF078E0792C7A001211DCE5C6
:202EE0008124FBF58102300C7408C0E0E4C0E0E58124EEF8868208868312575AAE82AF8330
:202F0000158115817C007D00C3EC9EED64808FF063F08095F05072C006C007E58124F0F8D6
:202F2000EC26FAED0836FB0886078A828B838FF0125624FAE58124F8F8EC26FBED0836FEFB
:202F4000088607C007C006C005C0047408C0E0E4C0E0C002E58124ECF8E6C0E008E6C0E0E2
:202F60008B828E838FF078E0792C7A001211DCE58124FBF581D004D005D006D0070CBC0025
:202F8000010DD007D006022F08E58124F0F8A98119740756F7097700A88118E60846606CFF
:202FA000E58124F2F8EC26FAED0836FB0886078A828B838FF0125624FAA88118860674086E
:202FC000C39EFEE58124F5F8E62EF5F005F0EA8002C313D5F0FBFAE58124FAF8EC26FCEDBA
:202FE0000836FD088607A88118E6C0E008E6C0E0C002E4C0E0C0E08C828D838FF078E07958
:203000002C7A001211DCE58124FBF581E58124F9F5810211EEC082C083C0F0E5812418F54A
:203020008124E6F8740826FAE40836FB0886048A828B838CF0125624FA7C00C004C0027430
:2030400008C0E0E4C0E08A828C8312575AAF82AE8315811581D002D0045302077C00EA4C24
:203060007004FBFC80047B017C00EB2FFBEC3EFCE58124F1F8A60308A604E58124F1F87479
:203080000226FAE40836FF8A828F8378B079A77A011211DCE5828583F045F0700690000073
:2030A0000233BF78FB79A87A011211DCAA82AB83ACF0E58124FCF8A60208A60308A604E5AA
:2030C0008124E6F8740326FDE40836FE0886078D828E838FF0125624FCE58124FCF8868271
:2030E0000886830886F0EC125029E58124FCF8740126FAE40836FB0886048D828E838FF069
:20310000125624A31256248A828B838CF012502978FB79A87A011211DCAD82AE83AFF0E5E1
:203120008124F9F874022DF6E43E08F608A607E58124F9F88602088603088604E58124F1EA
:20314000F8E6C0E008E6C0E0E4C0E08A828B838CF078D579537A001211DC158115811581F5
:20316000E58124F5F8E4F608F6E58124E6F8740526FAE40836FE0886078A828E838FF0129C
:203180005624FDA3125624FEA3125624FFAA811AE58124E9F8A6028D828E838FF0E58124DC
:2031A000EBF8125624F6E58124EBF8E670030233BCC00274012DFAE43EFB8F048A828B83CB
:2031C0008CF0125624FAE58124F6F8A602087600C007C006C005C0027408C0E0E4C0E0E5B6
:2031E0008124EEF8868208868312575AAB82AC8315811581D002D005D006D007E58124F210
:20320000F8A60308A604E58124EAF8B61A00D00250030232BEC002E58124EAF88682C0070B
:20322000C006C005781F79AB7A011211DCAA82AB83ACF0D005D006D007E58124EBF8A60241
:2032400008A60308A604E58124F4F8E58124EEF9740756F7097700E58124F8F8E58124F2E6
:20326000F9E726FA09E70836FB088604C007C006C005C002E58124F2F8E6C0E008E6C0E0F7
:20328000E58124E5F8E6C0E008E6C0E008E6C0E0E58124E5F8E6C0E008E6C0E08A828B8390
:2032A0008CF07869792D7A001211DCE58124F9F581D002D005D006D007D0020233A0C005D9
:2032C000C006C007E58124E8F88682C007C006C005C00278C679AA7A011211DCAB82AC83A4
:2032E000D002D005D006D0078A057E007F40C007C006C005C002C003C0048D828E838FF074
:2033000078EB79287A001211DC15811581D002D005D006D007E58124E6F8E58124E9F9E6F6
:20332000F7097700097740E58124F2F8E58124ECF9740756F7097700E58124F6F8E5812429
:20334000F0F9E726FB09E70836FC088607C007C006C005C002E58124F0F8E6C0E008E6C003
:20336000E0E58124E3F8E6C0E008E6C0E008E6C0E0E58124E3F8E6C0E008E6C0E08B828C54
:20338000838FF07869792D7A001211DCE58124F9F581D002D005D006D007D007D006D0055C
:2033A000E58124F5F8E58124F7F9E726F609E70836F674022DFDE43EFE023197900001E5F5
:2033C0008124E5F5810211EEE5812414F58178D479A87A011211DCAD82AE83AFF090000260
:2033E000C007C006C005788379A87A011211DCE5828583F0D005D006D00745F070089000C7
:2034000000F5F002373374012DFAE43EFB8F048A828B838CF0125624FC7A008D828E838FC8
:20342000F01256247F002AFAEF3CFC8A828C83786379987A011211DCAD82AE83AFF0E58160
:2034400024FCF8A60508A60608A607E58124FCF8E608467008900000F5F002373378D47970
:20346000A87A011211DCAA82AB83ACF0E58124F9F8A60208A60308A604E58124FCF87408B4
:2034800026FDE40836FE0886078D828E838FF0125624FD7F00C007C0057408C0E0E4C0E081
:2034A0008D828F8312575AAC82AB8315811581D005D0075305077F00ED4F7004FEFF8004E5
:2034C0007E017F00EE2CFEEF3BFF8E828F83788379A87A011211DCE5828583F045F07008E9
:2034E000900000F5F0023733E4FEFFE58124FCF8740526FBE40836FC0886058B828C838D98
:20350000F0E58124EFF8125624F6A312562408F6A312562408F6E58124EDF8A68116E5815C
:2035200024EDF8E58124F2F9E6F7E58124EFF886820886830886F0125624FD7003023726CD
:20354000E58124EFF8740126FAE40836FB0886048A828B838CF0125624FAE58124F7F8A67B
:2035600002087600C007C006C0057408C0E0E4C0E08E828F8312575AAB82AC83158115816C
:20358000D005D006D007E58124F5F8A60308A604BD1A005003023647E58124F3F874075EE0
:2035A000F6087600C006C007E58124F7F8E58124F3F9E726FA09E70836FB088607E58124CC
:2035C000EBF886068E047D007E40C007C006E58124F3F8E6C0E008E6C0E0E58124EDF8E644
:2035E000C0E008E6C0E0C002C003C0078C828D838EF078C579297A001211DCE58124F9F5E5
:2036000081D006D007E58124F0F886057E007F40E58124EDF886820886830886F0125624B0
:20362000FCC007C006C005C006C0078C8278E279AA7A011211DC158115811581D006D0073B
:20364000D007D00602370AA981197700E904F87600E58124F3F874075EF6087600C006C01D
:2036600007E58124F7F8C001E58124F2F9E726FA09E70836FB088607D00189068E047D0060
:203680007E40C007C006C001E58124F2F8E6C0E008E6C0E0E58124ECF8E6C0E008E6C0E014
:2036A000C002C003C0078C828D838EF078C579297A001211DCE58124F9F581D001D006D05A
:2036C0000789077E007D408F828E838DF0781C79297A001211DCAE82AF83E58124EDF88673
:2036E000820886830886F0125624FDC007C006C006C0078D8278A479AA7A011211DC1581B8
:203700001581D006D007D007D006E58124F7F8E62EFE08E63FFFE58124EFF8740226F6E41B
:203720000836F602352AE58124FCF886820886830886F0C8E58124ECF581C80211EEC02082
:20374000C0E0C0F0C082C083C007C006C005C004C003C002C001C000C0D075D000C2AFC270
:20376000C07F008FF005F07D017E008006ED2DFDEE33FED5F0F7ABD17C00EB5205EC5206A4
:20378000ED4E60408F068EF005F07401800225E0D5F0FBF4F5D1EF75F003A42405F58274C1
:2037A0000335F0F583E0FCA3E0FDA3E0FEEC4D60138C828D838EF0C00778F279967A011277
:2037C00011DCD0070FBF02004099D2AFD0D0D000D001D002D003D004D005D006D007D0836C
:2037E000D082D0F0D0E0D02032AF82BF02028005BF030C80057582028008758208800375A1
:2038000082000211EE900B31E0FEA3E0FF8E828F830211EEAF83E582900B31F0EFA3F002FD
:2038200011EEC082C083C0F0058105810581A88118E4F608F6E4FAFCE58124FBF8E608461E
:203840007003023BCFC002C004E58124F9F8740826FAE40836FB0886048A828B838CF012F5
:203860005624FABA02028007D004D002023B06E58124F9F8740726FAE40836FB0886048A57
:20388000828B838CF0E58124FCF8125624F6D004D002A8811818E6704FC002C004E5812468
:2038A000F9F8740926FAE40836FB0886048A828B838CF0125624D004D002702CC002C004E1
:2038C000E58124F9F8740426FAE40836FB0886048A828B838CF0125624FABA0107D004D0A4
:2038E000020239E5D004D002A8811818E66049C002C004E58124F9F8740926FAE40836FB5D
:203900000886048A828B838CF0125624D004D0027026C002C004E58124F9F8740426FAE43A
:203920000836FB0886048A828B838CF0125624D004D00270030239E5A8811818B60348C047
:2039400002C004E58124F9F8740926FAE40836FB0886048A828B838CF0125624FABA0302FF
:203960008006D004D002801FE58124F9F8740426FAE40836FB0886048A828B838CF01256BC
:2039800024D004D002605EA8811818B60223C002C004E58124F9F8740926FAE40836FB08A8
:2039A00086048A828B838CF0125624D004D0027034A8811818E66031C002C004E58124F938
:2039C000F8740926FAE40836FB0886048A828B838CF0125624FABA02028006D004D002801D
:2039E00008D004D0027A017C00C002C004E58124F9F8740426FAE40836FB0886048A828B43
:203A0000838CF0125624D004D0026003023B7FA8811818E6702CC002C004E58124F9F87406
:203A20000926FAE40836FB0886048A828B838CF0125624FABA0307D004D002023AFCD0041C
:203A4000D002A8811818E6702CC002C004E58124F9F8740926FAE40836FB0886048A828BD5
:203A6000838CF0125624FABA0207D004D002023AFCD004D002A8811818E4B6020104FB6025
:203A80002BC002C004E58124F9F8740926FAE40836FC0886078A828C838FF0125624FABAD0
:203AA0000206D004D0028054D004D002EB601FE58124FBF8740926FDE40836FE0886078D15
:203AC000828E838FF0125624FDBD0302802EA8811818B603028003023B7FE58124FBF87497
:203AE0000926FDE40836FE0886078D828E838FF0125624FDBD02028003023B7FA881187606
:203B0000010876008079E58124FBF886820886830886F0125624FFBF02028063E58124FB63
:203B2000F8740426FDE40836FE0886078D828E838FF01256247026E58124FBF8740926FD5F
:203B4000E40836FE0886078D828E838FF0125624FD54036008A881187601087600E5812409
:203B6000FBF8740726FDE40836FE0886078D828E838FF0125624FD540360047A017C00E540
:203B80008124F5F8E608466020E58124F5F886050886060886078D828E838FF0A88118E6EE
:203BA000125029A308E6125029E58124F2F8E60846601CE58124F2F8860508860608860712
:203BC0008D828E838FF0EA125029A3EC125029E58124FAF5810211EEC082C083C0F0E58121
:203BE0002404F581A88118E4F608F6E58124FAF8E608467006900000023CA9AC811C7B00AD
:203C00007A40E58124FAF8741026FDE40836FE088607C004C003C002E4C0E0C0E0C0E08D78
:203C2000828E838FF0782279387A001211DCE58124FAF581A88118E60846606AE58124FAF1
:203C4000F8741B26FDE40836FE0886078D828E838FF0E58124FDF8125624F6A3125624082E
:203C6000F6C007C006C005780579387A001211DCAA82AC83D005D006D007E58124FDF8E613
:203C8000B5020708E6B50402801C8D828E838FF0125624FDA3125624FEBDFF05BEFF0280CC
:203CA000059000008003900001E58124F9F5810211EEAF82BF02067E027F0080047E087FE1
:203CC00000C3E49E74808FF063F08095F050281EBEFF011FE58124FBF8EE26FBEF0836FCAC
:203CE0000886058B828C838DF0125624FBBBFF0280CF90000080039000010211EEC082C05F
:203D000083C0F0058105810581E58124FBF8E608467006900000023F23E58124FBF87410C2
:203D200026FAE40836FB08860474092AFDE43BFE8C078D828E838FF0A8811818125624F6E6
:203D4000A8811818E66013A8811818B602067E027F00800A7E087F0080047E007F00A88162
:203D600018A60608A607EE4F6040E58124FBF8740826FDE40836FE088607C004C003C002D3
:203D8000C005C006C007E58124F8F8868278B2793C7A001211DCAE82AF83158115811581D3
:203DA000D002D003D004EE4F6043E58124F5F8E608467003023E47C004C003C002742EC05A
:203DC000E07479C0E07480C0E0E58124EFF886820886830886F0785979BA7A011211DC1547
:203DE0008115811581D002D003D004805AA88118B6020608B600028006900000023F23E5A5
:203E00008124F5F8E60846603EE58124FBF8740826FDE40836FE088607C004C003C002C064
:203E200005C006C007E58124EFF886820886830886F0785979BA7A011211DC158115811529
:203E400081D002D003D00474072AFAE43BFB8A828B838CF0125624FF600FBF02067D027E5B
:203E600000800A7D087E0080047D007E008D038E04ED4E6031C004C003E58124F9F8E6C0A0
:203E8000E008E6C0E008E6C0E08F8278B2793C7A001211DCAE82AF83158115811581D003C6
:203EA000D004EE4F6034E58124F2F8E608466070742EC0E07479C0E07480C0E0E58124EF09
:203EC000F886820886830886F0785979BA7A011211DC1581158115818046BB0205BC0002CD
:203EE0008005900000803CE58124F2F8E60846602FE58124FBF88605088606088607C005C4
:203F0000C006C007E58124EFF886820886830886F0785979BA7A011211DC158115811581CC
:203F2000900001E58124FAF5810211EEC082C083C0F0E581240AF58124EEF8860208860393
:203F40000886047406C0E0E4C0E0C0E08A828B838CF078D579537A001211DC158115811528
:203F600081E58124F4F8741026FAE40836FB08860474052AFDE43BFE8C078D828E838FF008
:203F800012562420E018E58124EEF886050886060886078D828E838FF0740112502974083E
:203FA0002AFDE43BFE8C078D828E838FF0125624FDBD0200400302406F74072AFDE43BFE90
:203FC0008C078D828E838FF0125624FD5403700302405C74092AFDE43BFE8C078D828E834A
:203FE0008FF0125624FD54036072C002C003C004E58124F1F8741D26FDE40836FE0886076B
:204000008D828E838FF0125624FDA3125624FEE58124F1F8741B26FBE40836FC0886078BEA
:20402000828C838FF0125624FBA3125624FCEDB50306EEB504028008D004D003D002801CCD
:20404000D004D003D00274042AFDE43BFE8C078D828E838FF07401125029801374042AFDC7
:20406000E43BFE8C078D828E838FF0E4125029AF811FE58124F7F8A607087600087640E5EC
:204080008124FDFF7E007D40C004C003C002E58124F4F8E6C0E008E6C0E008E6C0E0C0071C
:2040A000C006C0058A828B838CF0782279387A001211DCE58124FAF581D002D003D004E5C3
:2040C0008124FDF8E60846601FE58124EEF8860508860608860774032DFDE43EFE8D828E11
:2040E000838FF07402125029A88118E60846601DE58124EEF886050886060886070DBD00DD
:20410000010E8D828E838FF07402125029E58124EEF8E58124F7F9E6F70809E6F70809E644
:20412000F7E58124F7F8E58124FAF9740226F7E4083609F70809E6F774072AFDE43BFE8CA4
:20414000078D828E838FF0125624FD5305038D82C004C003C00278E979377A001211DCAF44
:2041600082D002D003D004E58124FAF886820886830886F0EF125029E58124F7F8740426A0
:20418000FDE40836FE08860774092AFAE43BFB8A828B838CF0125624FA5302038A82C0076B
:2041A000C006C00578E979377A001211DCAC82D005D006D0078D828E838FF0EC125029E53F
:2041C0008124F3F5810211EEE5812406F581AD82AE83AFF0E58124FBF9FA7B007C40C0015B
:2041E000C002C003C0048D828E838FF0782C793F7A001211DC158115811581D00187077E63
:204200000074022FFFE43EFEE904F886057C00ED2FFFEC3EFE740229F886057C00ED2FFFF2
:20422000EC3EFE740329F886057C00ED2FFFEC3EFE740429F886057C00ED2FFFEC3EFE741D
:204240000529F987057C00ED2FFFEC3EFE8F828E83E58124FAF5810211EEC082C083C0F09A
:204260000581E58124F7F88602088603088604E58124FDF886820886830886F0125624FFF3
:20428000A88174075FF6E58124FDF8740126FDE40836FE0886078D828E838FF012562454DA
:2042A00001C40354F8A88146F6E58124FDF8740226FDE40836FE0886078D828E838FF01207
:2042C00056245401C454F0A88146F6E58124FDF8740326FDE40836FE0886078D828E838F25
:2042E000F01256245401C42354E0A88146F6E58124FDF8740426FDE40836FE0886078D828F
:204300008E838FF01256245401030354C0FDA881E642058A828B838CF0ED1250290ABA00ED
:20432000010BE58124FDF8740526FDE40836FE0886078D828E838FF0125624FDA8817401DB
:204340005DF6E58124FDF8740626FDE40836FE0886078D828E838FF0125624540125E0A80C
:204360008146F6E58124FDF8740726FDE40836FE0886078D828E838FF0125624540325E027
:2043800025E0A88146F6E58124FDF8740826FDE40836FE0886078D828E838FF01256245461
:2043A00003C454F0A88146F6E58124FDF8740926FDE40836FE0886078D828E838FF01256B2
:2043C000245403030354C0FDA881E642058A828B838CF0ED125029E58124FCF5810211EEEA
:2043E000C082C083C0F0E581240CF58124FBF9FA7B007C40C001C002C003C004E58124EEB1
:20440000F886820886830886F0782C793F7A001211DC158115811581D001E58124F2F874BD
:204420001026FAE40836FB088604C001E58124EBF8E6C0E008E6C0E008E6C0E08A828B83B3
:204440008CF0785A79427A001211DC158115811581D0017C028703BB014CC0017C03E58191
:2044600024EBF8C001E58124F3F9740226F7E4083609F70809E6F7D001E58124F1F8741A89
:2044800026FDE40836FE0886078D828E838FF0125624FDE58124F4F886820886830886F00F
:2044A000ED125029D001E904F88607BF02028002807BC001EC04FFE58124EBF8EC26FEE4F0
:2044C0000836FD088602E58124F1F8C001E58124F6F9741B26F7E4083609F70809E6F7D0D8
:2044E00001E58124F7F886820886830886F01256248E828D838AF0125029EF04FCE5812481
:20450000EBF8EF26FBE40836FE088607E58124F7F886820886830886F0125624A312562428
:20452000FDFA8B828E838FF0125029D001740229F886078F067F008C05C3E49E74808FF00A
:2045400063F08095F05053C001E58124EBF8C001E58124F6F9ED26F7E4083609F70809E6D5
:20456000F7D0010D8E041CE58124F1F8EC26FCE40836FB0886028C828B838AF0125624FC6C
:20458000E58124F7F886820886830886F0EC1250291EBEFF011FD001809FE58124F8F8A689
:2045A00005740329F88606BE0202800302462CC001ED04FFE58124EBF8C001E58124F6F9C1
:2045C000ED26F7E4083609F70809E6F7D001E58124F1F8741D26FAE40836FD0886068A820D
:2045E0008D838EF0125624FCE58124F7F886820886830886F0EC1250298F04E58124F7F812
:20460000EF04F6E58124EBF8EC26FBE40836FC0886078A828D838EF0125624A3125624FD32
:20462000FA8B828C838FF0125029D001E92404F987078F067F00E58124F2F8E58124F5F9F1
:20464000740826F7E4083609F70809E6F7E58124F8F88602C3E49E74808FF063F08095F09F
:20466000504CE58124ECF8E58124F8F9EA26F7E4083609F70809E6F70A8E05ED14C8E581D2
:2046800024F5C826FB08E436FC0886058B828C838DF0125624FBE58124F8F88682088683B4
:2046A0000886F0EB1250291EBEFF011F80A67F008A828F83E58124F1F5810211EEE58124CC
:2046C0000AF581AD82AE83AFF0E58124F7F98D828E838FF0125624FC74075CF7E58124F76B
:2046E000FC04F98D828E838FF0125624A2E3E433F774022CF98D828E838FF0125624C45425
:2047000001F774032CF98D828E838FF0125624A2E5E433F774042CF98D828E838FF01256A1
:204720002423235401F774052CF90DBD00010E8D828E838FF0125624FB74015BF774062CB9
:20474000F98D828E838FF0125624035401F774072CF98D828E838FF01256240303543FFB87
:2047600074035BF774082CF98D828E838FF0125624C4540FFB74035BF774092CF98D828E7A
:20478000838FF012562423235403FD74035DF77F007E40E58124F1F88602088603088605CA
:2047A000740AC0E0E4C0E0C004C007C0068A828B838DF0784079537A001211DCE58124FBED
:2047C000F581E58124F6F5810211EEC082C083C0F0E581241CF58124DDF8C3E6940208E6F5
:2047E000648094805006900000024E8DE58124F1FCFA7B007F40C004C002C003C007E581DD
:2048000024DEF886820886830886F078BD79467A001211DC158115811581D0048C07E5810B
:2048200024E8F8A607087600087640E58124DAF8E58124E5F9E6F70809E6F70809E6F7E529
:204840008124E5F8741026FAE40836FB088607C004740AC0E0E4C0E0E58124E5F8E6C0E02D
:2048600008E6C0E008E6C0E08A828B838FF0784079537A001211DCE58124FBF581D004E5D2
:204880008124E2F8E58124EEF9740226F7E4083609F70809E6F774052CF9E77037C004E5B0
:2048A0008124E4F8741A26FAE40836FB088604E58124EDF886820886830886F0125624FF89
:2048C000A31818A68208A6838A828B838CF0EF125029D004AF811FE58124E8F8A6070876E4
:2048E00000087640E58124FDFBE58124EBF8A6030876000876408C068E057E007F40C00400
:20490000E58124E7F8E6C0E008E6C0E008E6C0E0E58124E7F8E6C0E008E6C0E008E6C0E081
:204920008D828E838FF0782279387A001211DCE58124FAF581D00474072CF9E77003024BFF
:2049400006A88118E6084670030249C3C001E58124E4F8C001E58124E6F9741B26F7E40872
:204960003609F70809E6F7D001E58124EDF886820886830886F0125624FE7D00E58124EDBE
:20498000F8740126FAE40836FB0886078A828B838FF0125624FFE42EFAEF3DFFE58124E70C
:2049A000F886820886830886F0EA125029A3EF125029E58124EDF8740226F6E40836F6D0ED
:2049C00001801EE58124E5F8741B26FDE40836FE0886078D828E838FF0E4125029A3125057
:2049E000298707BF02028003024A82E58124E5F88603088605088606C004742EC0E07479E2
:204A0000C0E07480C0E08B828D838EF0785979BA7A011211DC158115811581D004E5812429
:204A2000EEF8740126FBE40836FD0886068B828D838EF0125624FBE58124E5F88682088628
:204A4000830886F0EB125029E58124E5F8740126FBE40836FD088606E58124EEF8868208AF
:204A600086830886F0125624FA8B828D838EF0125029E58124EEF8740226F6E40836F602E7
:204A80004B56BF03028003024B56E58124FBF8E4F608F6C004E58124E4F8E58124FAF9E7A8
:204AA00026FA09E70836FB088605E58124FAF87407C396FCE40896FFE58124EDF8EC26FCD0
:204AC000EF0836FF0886068C828F838EF01256248A828B838DF0125029E58124FAF806B692
:204AE00000020806E58124FAF8C3E6940808E664809480D004409CE58124EEF8740826F647
:204B0000E40836F68050E58124E5F88605088606088607C004742EC0E07479C0E07480C04B
:204B2000E08D828E838FF0785979BA7A011211DC158115811581D004E58124E5F8741B26C6
:204B4000FDE40836FE0886078D828E838FF0E4125029A312502974092CF9E77003024D9F7D
:204B6000E58124FDF8E608467003024C18C001E58124E4F8741D26FDE40836FE088607E534
:204B80008124EDF886820886830886F0125624FCE58124EAF8A604087600E58124EDF874F5
:204BA0000126FAE40836FB0886048A828B838CF0125624FC7A00E58124EAF8EA26FAEC0823
:204BC00036FC8D828E838FF0EA125029A3EC125029E58124EDF8740226F6E40836F6D0018B
:204BE000A88118E60846706EE58124E5F8741B26FAE40836FB0886048D828E838FF0125696
:204C000024FDA3125624FE8A828B838CF0ED125029A3EE125029803EE58124E5F8741D2640
:204C2000FDE40836FE088607E58124E5F8741B26FAE40836FB0886048A828B838CF01256FF
:204C400024FAA3125624FB8D828E838FF0EA125029A3EB1250298707BF02028003024D0AB2
:204C6000E58124E5F8E58124EBF9740826F7E4083609F70809E6F7E58124EBF88602088633
:204C800003088606742EC0E07479C0E07480C0E08A828B838EF0785979BA7A011211DC15EF
:204CA0008115811581E58124EEF8740126FCE40836FD0886068C828D838EF0125624FCE584
:204CC0008124EBF886820886830886F0EC125029E58124E5F8740926FCE40836FD08860685
:204CE000E58124EEF886820886830886F0125624FB8C828D838EF0125029E58124EEF8741B
:204D00000226F6E40836F6024DEEBF03028003024DEEE58124E5F8740826FDE40836FE086E
:204D20008607E58124FBF8E4F608F6E58124FBF8E62DFA08E63EFB8F04C005C006C007E516
:204D40008124F8F87407C396FEE40896FFE58124EBF8EE26FEEF0836FF0886058E828F830B
:204D60008DF01256248A828B838CF0125029E58124F8F806B600020806E58124F8F8C3E6A0
:204D8000940808E664809480D007D006D005409BE58124EEF8740826F6E40836F6804FE560
:204DA0008124E5F8740826FAE40836FB088604742EC0E07479C0E07480C0E08A828B838C1D
:204DC000F0785979BA7A011211DC158115811581E58124E5F8741D26FAE40836FB088604DC
:204DE0008A828B838CF0E4125029A3125029E58124EEF8E58124E2F9E6C397FB08E60997E2
:204E0000FC8B078C06E58124E5F8E58124EBF9743426F7E4083609F70809E6F7E58124DD61
:204E2000F8E6C39FFC08E69EFBE58124EBF886820886830886F0EC125029A3EB125029E536
:204E40008124E5F8743126FAE40836FB0886048A828B838CF0E58124EEF8E6125029A3083A
:204E6000E6125029A308E6125029E58124DDF8C3E69F08E664808EF063F08095F050067B85
:204E8000007C0080048F038E048B828C83E58124E1F5810211EE7581201258BDE5826003E9
:204EA00002006E7997E94400601B7A019079AD789C75930AE493F2A308B800020593D9F440
:204EC000DAF27593FFE478FFF6D8FD7800E84400600A7900759300E4F309D8FC7898E8445A
:204EE0000A600C790B900004E4F0A3D8FCD9FA900022E4F0A3F0A3F0A3F09000C1E4F0E4BE
:204F0000F50FF510F511F512900000F0A3F0A3F0A3F09003E4E4F002006EA8811818C6B2B6
:204F2000E7C60251D7124FC8BC0003025462EF60FA30D502B2D1E583B4FF03025478E582D4
:204F4000B4FF03025478258340072482400B0254622483145003025478F582EA8DF0A4A82F
:204F6000F0EA8EF0A428F8E435F0F9EB8DF0A428E935F0F9E433CA8FF0A429F9EA35F0FAA9
:204F8000EBF88EF0A429F9EA35F0FAE433FBEC8DF0A429F9EA35F0FAE43BFBE88FF0A42A48
:204FA000FAEB35F0FBE433CCFD8EF0A42AFAEB35F0FBE43CFCED8FF0A42BFBEC35F0FC203C
:204FC000E703124FF6025441AA82AB83A2F73392D1F5826002D2F7ACF0E58124F9F8E6FDD4
:204FE00008E6FE0886F008E6A2F73392D5F5836002D2F7AFF0227804EC7011E58224F85006
:205000000AF582E4C9CACBFCD8EF22EC7820058220E713D5820122C3E933F9EA33FAEB333C
:20502000FBEC33FCD8EA15822220F71130F6138883A88220F509F6A8837583002280FEF280
:2050400080F5F022C013858113C082C083E5812405F581AF130FE5132403F8A60708760040
:20506000087640E51324FCFD7E007F40E5132406F9A813088604E51324FCF886038CF0EBB8
:20508000A4F709A7F0E513240604F98704A81308860374012DFAE43EFE8A828E838FF01275
:2050A00056248BF0A4FBE5132403F8740126FDE40836FE0886078D828E838FF0125624FDD0
:2050C000E51324FCF886078DF0EFA42B2CF7E5132406F987060987078E828F83851381D08B
:2050E0001322C013E581F5132406F581AD82AE83AFF0E51324F8F8E6084670069000000253
:2051000051CFE51324F8F886030886041BBBFF011CEB4C700302519FC003C004A81308A6CA
:205120000508A60608A607A8130886820886830886F0125624FAE51324FAF8E5132404F9FA
:20514000E6F70809E6F70809E6F7E5132404F886820886830886F0125624FCEAB50402803A
:2051600006D004D0038038A81308740126FAE40836FB0886048A058B068C07E5132404F8F8
:20518000740126FAE40836FB088604E51324FAF8A60208A60308A604D004D00302510C8D1F
:2051A000828E838FF0125624FD7F00E51324FAF886030886040886068B828C838EF0125616
:2051C00024FB7E00EDC39BFDEF9EFF8D828F83851381D0130211EE124FC87900E583B582FF
:2051E00002800D500312552DE583C3958212581FE5D0C465D020E117EA2DFAEB3EFBEC3F48
:20520000FC5009740112581FEC4480FC025441C3EA9DFAEB9EFBEC9FFC500FC3E499F9E42D
:205220009AFAE49BFBE49CFCB2D1124FF6025441C013858113058105810581AD82AE83AFE6
:20524000F0E51324F8F8E6084670069000000252ECE51324FAF88602088603088604E51327
:2052600024F8F8A91309E6F70809E6F7A8130816B6FF020816A81308E60846604C8D828E9C
:20528000838FF0E5132403F8125624F6E5132403F8E66035C005C006C0078A828B838CF0F9
:2052A000125624FFE5132403F8E6B507028008D007D006D0058012D007D006D0050DBD00C0
:2052C000010E0ABA00A60B80A38D828E838FF0125624FD7F008A828B838CF0125624FA7EE6
:2052E00000EDC39AFDEF9EFF8D828F83851381D0130211EEAC83AB827A007900748E025614
:20530000B7125862700AE582458345F0700122E430D112F4700BE5F0F47006E58330E70174
:205320002290800022700AE5F07006E58320E70122907FFF227F8E12759AF58385F08222D3
:20534000C013E581F5132408F581AD82AE83AFF0E5132406F8A60508A60608A607E5132421
:20536000FAF8A91309E6F70809E6F70809E6F7E51324F8F8E5132404F9E6F70809E6F7E5E8
:20538000132404F88603088604E5132404F816B6FF020816EB4C6028A81308868208868321
:2053A0000886F0125624FCA31818A68208A6838D828E838FF0EC125029A3AD82AE8380BF63
:2053C000E5132406F886820886830886F0851381D0130211EEC013858113C082C083C0F0FE
:2053E00005810581A813088602088603088604E51324FAF8E5132404F9E6F70809E6F7E55C
:20540000132404F88606088607E5132404F816B6FF020816EE4F60168A828B838CF0E513F4
:2054200024FCF8E6125029A3AA82AB8380D1A8130886820886830886F0851381D01302112C
:20544000EEB98003EA13B34010EA2401FAE43BFBE43CFC50047C800582BC000EBB000BBAC2
:205460000008E4F5F0F583F58222A2D1E582138CF092F78B838A8222E4F583F58275F08064
:20548000F4A2D11322E4F583F58275F0C0747F22C0138581137E008E8378BF79BB7A0112F0
:2054A00011DCD0130211EEC013858113AD82AE83AFF0E51324FCF8E6C0E0C005C006C00748
:2054C000E4C0E0C0E0C0E090549075F00078AC79657A001211DCAE82AF83E58124F9F58159
:2054E0008E828F83D0130211EEC013E581F51324FAFFC007E51324FAF8E6C0E008E6C0E05F
:2055000008E6C0E0E4C0E0C0E0C0E090549075F00078AC79657A001211DCAE82AF83E5811D
:2055200024F9F5818E828F83D0130211EEE582C583F582A2D133A2D592D11392D5ECCFFCFB
:20554000EBCEFBEACDFA22AA82AB831256246003A380F8C3E5829AF582E5839BF583021197
:20556000EE124FC830D502B2D1BF0009BC0003025485025478BC0003025462E583B4FF0BBD
:20558000E582B4FF03025485025462E582B4FF03025478C395835007247F400B0254622474
:2055A00080145003025478F582C3ED9AEE9BEF9C40111582C3EA33F9EB33FAEC33FBE43357
:2055C000FC8005E4CCCBCAF9C08275F019C3E99DEA9EEB9FEC9400D5F002802D400EE99D29
:2055E000F9EA9EFAEB9FFBEC9400FCC3B3E833F8E58233F582E58333F583C3E933F9EA338D
:20560000FAEB33FBEC33FC80C4B3E4F938FAE43582FBE43583FCD082500405827C80124F9E
:20562000F602545920F71430F6148883A88220F507E6A88375830022E280F7E49322E022F0
:20564000C013858113AE82E583FF33E433FD6009C3E49EFBE49FFC80048E038F04E5132494
:20566000FCF808E630E70FE51324FCF8C3E496FE08E496FF800AE51324FCF886060886079B
:20568000C005C006C0078B828C831256DBAE82AF8315811581D005ED600DC3E49EFCE49FD8
:2056A000FD8C828D8380048E828F83D01322FCABF0AA83A982749EF582C2D1EC30E716D22E
:2056C000D1E9F42401F9EAF43400FAEBF43400FBECF43400FC124FF6025441C013858113FA
:2056E000AE82AF837D007C00E51324FCF808E6235401FB702FE51324FCF8E626F608E6330C
:20570000F6E51324FCF8C3EE96EF08965011E51324FCF808E618C313C613C608F680050C34
:205720008C0580C4E51324FCF8C3EE96EF0896400DE51324FCF8EEC396FEEF0896FFE5138A
:2057400024FCF808E618C313C613C608F68D041DEC70D18E828F83D01322C013858113AE1C
:2057600082E583FF33E433FD6009C3E49EFBE49FFC80048E038F04E51324FCF808E633E414
:2057800033FF600FE51324FCF8C3E496FA08E496FE800AE51324FCF88602088606C007C064
:2057A00005C002C0068B828C831257D0AC82AE8315811581D005D007EF6D600DC3E49CFDC7
:2057C000E49EFF8D828F8380048C828E83D01322C013858113AE82AF837C007D007B10EFBE
:2057E000235401FAEE2EFEEF33FFEC2CFCED33FDEA6003430401E51324FCF8C3EC96ED08EC
:20580000964010E51324FCF8ECC396FCED0896FD430601EB14FB70C78E828F83D0132260C7
:2058200040F82582500274FFF582E824F8501ECCCBCAF9E4CC24F85014CBCAF9E4CB24F8F8
:20584000500BCAF9E4CA24F8500379002224086010F8C3EC13FCEB13FBEA13FAE913F9D863
:20586000F1221258C1C3749E95824039790012581F30D126E9F42401F582EAF43400F58359
:20588000EBF43400F5F0ECF43400700AE582458345F0700122E430E70F22EC20E71489824D
:2058A0008A838BF02230D10AE4F582F583F5F074802274FFF582F583F5F0747F2275820012
:2058C00022AA82AB83A2F73392D1F5826002D2F7ACF022C013858113AF8274302FFF24C6E4
:2058E000501074072FFFE51324FCF8E6600474202FFFE51324F6F8E6C0E008E6C0E008E677
:20590000C0E0E51324F9F8E6C0E008E6C0E008E6C0E08F82D002D001D0001211DC1581150A
:20592000811581D0130211EEC013858113E582FFC4540FFEC007E51324F6F8E6C0E008E6B0
:20594000C0E008E6C0E0E51324F9F8E6C0E008E6C0E008E6C0E0E51324FCF8E6C0E08E82C4
:2059600078D379587A001211DCE58124F9F581D00753070FE51324F6F8E6C0E008E6C0E03B
:2059800008E6C0E0E51324F9F8E6C0E008E6C0E008E6C0E0E51324FCF8E6C0E08F8278D3D8
:2059A00079587A001211DCE58124F9F581D0130211EEC013858113A98287040987050987F9
:2059C00006098707191919740429F87B20C003E626FAEF235401FBEA4203A603EC2CFCEDA7
:2059E00033FDEE33FEEF33FFC000E51324FCF8C3EB96D000D00340148602C000E51324FCCC
:205A0000F8EAC396FAD000A602430401EB14FAFB70BBA70409A70509A70609A707D01302C0
:205A200011EEC013858113C8E5812428F581E5132407C8A68208A68308A6F008F67B00C26E
:205A400000E5132405F87680C003C020E4C0E0C0E0C0E0C0E0E5132407F8868208868308F4
:205A600086F008E61275BFAA82E58124FCF581D020D003EA6011D200E5132407F8E608E675
:205A800008E608E6B2E7F6C003C020E5132407F8E6C0E008E6C0E008E6C0E008E6C0E0901D
:205AA000FFFF75F07F744B1275BFAA82E58124FCF581D020D003EA7003025C5E7A00C003BE
:205AC000C002C020E4C0E0C0E07420C0E07441C0E0E5132407F886820886830886F008E6D7
:205AE0001275BFE58124FCF581D020D002D003E58224FF92014044C003C002C020E4C0E045
:205B0000C0E07420C0E07441C0E0E5132407F886820886830886F008E6125561C8E5132410
:205B200007C8A68208A68308A6F008F6E58124FCF581D020D002D0030A80838A07C007C0EB
:205B400003C020E4C0E0C0E07480C0E0743FC0E0E5132407F886820886830886F008E612A5
:205B600075BFAA82E58124FCF581D020D003D007EA6044C007C003C020E5132407F8E6C076
:205B8000E008E6C0E008E6C0E008E6C0E090000075F0207441124F25C8E5132407C8A68250
:205BA00008A68308A6F008F6E58124FCF581D020D003D0071F8086E5132405F8A607300067
:205BC0003AC020E51324F1F8E6C0E008E6C0E008E6C0E0E51324F4F8E6C0E008E6C0E008E0
:205BE000E6C0E075822DD002D001D0001211DC158115811581D0207B018040E51324F8F88F
:205C0000E66038C020E51324F1F8E6C0E008E6C0E008E6C0E0E51324F4F8E6C0E008E6C043
:205C2000E008E6C0E075822BD002D001D0001211DC158115811581D0207B01E51324FCF824
:205C40007600E51324FAF87600E51324F9F87600E51324F8F87600E51324F7F87600E513CC
:205C600024FBF8B6FF07E51324FBF87606E5132410F8E4F608F608F608763FE51324FBF800
:205C80008605ED604BC003C005C020E4C0E0C0E07420C0E07441C0E0E5132410F886820898
:205CA00086830886F008E6125561AA82AB83AEF0FFE58124FCF581D020D005E5132410F8CB
:205CC000A60208A60308A60608A6071DD00380B2C003C003C020E5132410F8E6C0E008E6E2
:205CE000C0E008E6C0E008E6C0E0E5132407F886820886830886F008E61251D7A81308A6A5
:205D00008208A68308A6F008F6E58124FCF581D020A8130886820886830886F008E6C02020
:205D2000127598C8E5132407C8A68208A68308A6F008F6D020D003E5132407F88682088628
:205D4000830886F008E6C020127787AA82AB83AEF0FFD020C003C020C002C003C006C007C8
:205D6000A8130886820886830886F008E6124F1AC8E513240BC8A68208A68308A6F008F6B4
:205D8000E58124FCF581D020D003E5132406F8E5132414F67A00D003E5132407F8E6084668
:205DA000084608467003025E278A070AE5132406F8EF26F9C003C002C001C020740AC0E046
:205DC000E4C0E0C0E0C0E0E5132407F886820886830886F008E6127638AC82E58124FCF5F6
:205DE00081D020D00174302CF7C020740AC0E0E4C0E0C0E0C0E0E5132407F88682088683A4
:205E00000886F008E61276FAC8E5132407C8A68208A68308A6F008F6E58124FCF581D02000
:205E2000D002D003025D98EAFF700DEA04FFE5132406F8EA26F87630E51324FBF8E5132480
:205E40000FF9E6F7E5132406F8E5132407F9E6F7E5132428F8A607E513240FF8E6700AE5F9
:205E600013240FF88602025F43C007C003C020E513240BF8E6C0E008E6C0E008E6C0E00885
:205E8000E6C0E090000075F0207441124F25AC82AD83AEF0FFE58124FCF581D020E5132429
:205EA00024F8A60408A60508A60608A607E5132424F886820886830886F008E6C0201275DC
:205EC00098AC82AD83AEF0FFD0208F02E5132407F8E5132428F9E726F9E5132428F8068C82
:205EE0000774302FF78C828D838EF0EAC020127787AC82AD83AEF0FFD020D003C007C00313
:205F0000C020C004C005C006C007E5132424F886820886830886F008E6124F1AC8E513246F
:205F20000BC8A68208A68308A6F008F6E58124FCF581D020D003D007E513240FF816D007F3
:205F4000025E578F06E51324FBF8E6600EE51324FBF8E604FC3395E0FD80047C007D00EC8F
:205F60002EFCFE200010E51324F8F8E67008E51324F7F8E660010EE51324FAF8E6600302A6
:205F80006211E51324FCF8C3EA964003026211E51324F9F8E670030260C8300042C007C0FA
:205FA00006C003E51324F1F8E6C0E008E6C0E008E6C0E0E51324F4F8E6C0E008E6C0E0084D
:205FC000E6C0E075822DD002D001D0001211DC158115811581D003D006D0070B02606FE5A2
:205FE0001324F8F8E66041C007C006C003E51324F1F8E6C0E008E6C0E008E6C0E0E51324E0
:20600000F4F8E6C0E008E6C0E008E6C0E075822BD002D001D0001211DC158115811581D0CC
:2060200003D006D0070B8047E51324F7F8E6603FC007C006C003E51324F1F8E6C0E008E685
:20604000C0E008E6C0E0E51324F4F8E6C0E008E6C0E008E6C0E0758220D002D001D00012CC
:2060600011DC158115811581D003D006D0070B8B05E51324FCF886048C021CC3EE9A400384
:206080000262E8C007C006C005C004E51324F1F8E6C0E008E6C0E008E6C0E0E51324F4F8EF
:2060A000E6C0E008E6C0E008E6C0E0758230D002D001D0001211DC158115811581D004D03F
:2060C00005D006D0070D80B08B02E51324FCF88605C0078D071DC3EE9FD0075049C007C0EA
:2060E00006C005C002C020E51324F1F8E6C0E008E6C0E008E6C0E0E51324F4F8E6C0E008F6
:20610000E6C0E008E6C0E0758220D002D001D0001211DC158115811581D020D002D005D0B9
:2061200006D0070A80AB8A03E51324FCF8A605300044C007C006C002E51324F1F8E6C0E0B7
:2061400008E6C0E008E6C0E0E51324F4F8E6C0E008E6C0E008E6C0E075822DD002D001D0E2
:20616000001211DC158115811581D002D006D007EA04FB0262F1E51324F8F8E66044C00744
:20618000C006C002E51324F1F8E6C0E008E6C0E008E6C0E0E51324F4F8E6C0E008E6C0E0B4
:2061A00008E6C0E075822BD002D001D0001211DC158115811581D002D006D007EA04FB0291
:2061C00062F1E51324F7F8E670030262F1C007C006C002E51324F1F8E6C0E008E6C0E00843
:2061E000E6C0E0E51324F4F8E6C0E008E6C0E008E6C0E0758220D002D001D0001211DC15D1
:206200008115811581D002D006D007EA04FB0262F1300042C007C006C003E51324F1F8E667
:20622000C0E008E6C0E008E6C0E0E51324F4F8E6C0E008E6C0E008E6C0E075822DD002D032
:2062400001D0001211DC158115811581D003D006D0070B0262F1E51324F8F8E66041C00772
:20626000C006C003E51324F1F8E6C0E008E6C0E008E6C0E0E51324F4F8E6C0E008E6C0E0D2
:2062800008E6C0E075822BD002D001D0001211DC158115811581D003D006D0070B8052E5D8
:2062A0001324F7F8E6604AC007C006C003E51324F1F8E6C0E008E6C0E008E6C0E0E5132415
:2062C000F4F8E6C0E008E6C0E008E6C0E0758220D002D001D0001211DC158115811581D015
:2062E00003D006D0070B80098D03E51324FCF8A6048F051DE5132406F88604E5132406F8A1
:20630000ED26F98702C007C006C005C004C003E51324F1F8E6C0E008E6C0E008E6C0E0E583
:206320001324F4F8E6C0E008E6C0E008E6C0E08A82D002D001D0001211DC15811581158158
:20634000D003D004D005D006D0070B8D021DEA70AA8B05E51324FBF8E67003026400C00734
:20636000C006C004C003E51324F1F8E6C0E008E6C0E008E6C0E0E51324F4F8E6C0E008E6AD
:20638000C0E008E6C0E075822ED002D001D0001211DC158115811581D003D004D006D00722
:2063A0000B8F05E51324FBF886028A071AEF604EED2CF90D8707C006C005C004C003C002DE
:2063C000E51324F1F8E6C0E008E6C0E008E6C0E0E51324F4F8E6C0E008E6C0E008E6C0E06C
:2063E0008F82D002D001D0001211DC158115811581D002D003D004D005D0060B80AC8B056D
:20640000E51324FAF8E6605CE51324FCF8C3EE9650528D07E51324FCF88604C3EE9C5042C6
:206420001CC007C006C004E51324F1F8E6C0E008E6C0E008E6C0E0E51324F4F8E6C0E008B2
:20644000E6C0E008E6C0E0758220D002D001D0001211DC158115811581D004D006D0070F4D
:2064600080B98F05E5132405F8B680030265A2C005E51324F1F8E6C0E008E6C0E008E6C068
:20648000E0E51324F4F8E6C0E008E6C0E008E6C0E0758265D002D001D0001211DC158115F9
:2064A000811581D005ED04FFE5132405F8E630E740C007E51324F1F8E6C0E008E6C0E008C2
:2064C000E6C0E0E51324F4F8E6C0E008E6C0E008E6C0E075822DD002D001D0001211DC15E1
:2064E0008115811581D0070FE5132405F8C3E496F6E5132405F8E6FA3395E0FEC007C00691
:20650000C002740AC0E0E4C0E08A828E8312575AAB821581158174302BFBE51324F1F8E629
:20652000C0E008E6C0E008E6C0E0E51324F4F8E6C0E008E6C0E008E6C0E08B82D002D00145
:20654000D0001211DC158115811581D002D006D0070FC007740AC0E0E4C0E08A828E831284
:206560005640AC821581158174302CFCE51324F1F8E6C0E008E6C0E008E6C0E0E51324F4A8
:20658000F8E6C0E008E6C0E008E6C0E08C82D002D001D0001211DC158115811581D007EF59
:2065A00004FD8D82851381D0130211EEC013858113C082C083C0F0E5812424F581E513246D
:2065C0000CF8E4F608F6E5132410F8E5132419F6E5132421C8E5132407C82405F6E5132465
:2065E00011F8E5132419F6E5132411F8E5132404F9740426F7E5132404F8E5132405F9E67C
:20660000F7E5132404F8E5132406F9E6F7E51324F7F886020886060886078A828E838FF01B
:20662000125624FDE51324F7F874012AF6E43E08F608A607EDFF7003027586BF2502800397
:20664000027549C200C201C202C203C204C205C206C207E513241EF8E4F6FDFEE513241F0C
:20666000F876FF0876FFE51324F7F8E5132408F9E6F70809E6F70809E6F7E5132408F886AD
:20668000820886830886F0E513240BF9125624F7A31818A68208A683E5132408F8E51324E2
:2066A000F7F9E6F70809E6F70809E6F7E513240BF8B62542E51324FAF8E6C0E008E6C0E0D3
:2066C00008E6C0E0A81308E6C0E008E6C0E008E6C0E0E513240BF88682D002D001D000121B
:2066E00011DC158115811581E513240CF806B60002080602660DE513240BF8B63000500332
:2067000002679AE513240BF8E624C6500302679AE513241FF8B6FF3C08B6FF38C020C00573
:20672000C00690000A125044AA82AF8315811581D020E513240BF886037C00EB2AFAEC3F7B
:20674000FFEA24D0FDEF34FFFE4D600302667AD20102667AC006C005C020E513241FF8E674
:20676000C0E008E6C0E090000A125044AC82AF8315811581D020D005D006E513240BF886DF
:20678000027B00EA2CFCEB3FFFE513241FF8EC24D0F6EF34FF08F602667AE513240BF8B661
:2067A0002E1DE513241FF8B6FF0608B6FF02800302667AE513241FF8E4F608F602667AE5AA
:2067C00013240BF8B66100401CE513240BF8E624854012E513240BF8E654DFF6E5132418AA
:2067E000F876018007E5132418F87600E513240BF8B620030268BEE513240BF8B62B0302DC
:2068000068B9E513240BF8B62D030268B4E513240BF8B642030268C3E513240BF8B64303D2
:206820000268CDE513240BF8B64403026E3BE513240BF8B64603026E61E513240BF8B6484E
:206840000302667AE513240BF8B64903026E3BE513240BF8B64A0302667AE513240BF8B6AE
:206860004C028064E513240BF8B64F03026E46E513240BF8B65003026BD7E513240BF8B6C8
:206880005303026942E513240BF8B6540302667AE513240BF8B65503026E4FE513240BF8DC
:2068A000B65803026E58E513240BF8B65A0302667A026E65D20002667AD20202667AD203D7
:2068C00002667AD20502667AD20602667A300515E51324F6F8E614FCE51324F6F8A604A8BD
:2068E0000486048014E51324F6F8E624FEFBE51324F6F8A603A8038604C006C005C020E531
:206900001324FAF8E6C0E008E6C0E008E6C0E0A81308E6C0E008E6C0E008E6C0E08C82D069
:2069200002D001D0001211DC158115811581D020D005D006E513240CF806B600020806026A
