:020000040000FA
:04000000024DC032BB
:01000B0032C2
:0100130032BA
:01001B0032B2
:0100230032AA
:03002B000221C6E9
:01003300329A
:01003B003292
:01004300328A
:03004B000222FC92
:01005300327A
:01005B003272
:01006300326A
:20006B00021FBB0202DAC082C083E5812404F5817C007D00C374C89C74808DF063F08095C5
:20008B00F0500B7490C39CFA74019DFB80048C028D03E58124FBF886078F82C007C005C097
:2000AB0004C003C002786479877A01122059D002D003D004D005D007E58124FDF8E4F60844
:2000CB00F6E58124FDF8C3E69A08E664808BF063F08095F0501DE58124FDF8A98119E6F7AC
:2000EB000809E6F7E58124FDF8740126F6E40836F680CE8F82C005C004C003C002787A7907
:20010B00877A01122059D002D003D004D005E58124FDF8E4F608F674C8C39AFEE49BFFE5A8
:20012B008124FDF8C3E69E08E664808FF063F08095F0501DE58124FDF8A98119E6F708090D
:20014B00E6F7E58124FDF8740126F6E40836F680CE0CBC00010DC3EC9490ED648094815062
:20016B000302007FE58124FAF58122E5812408F5817E0C7F78E58124F9FD7C07EC2DF98EA8
:20018B00828F83E0FBA3AE82AF83A7031CEC30E7EB74072DF987077E0074062DF987048CC8
:2001AB0003E44207EB420689047B007A40C007C006C0057402C0E0E4C0E0C004C003C002DA
:2001CB0090023675F000786A79527A00122059E58124FBF581907916E493FAA3E493FBA3F2
:2001EB00E493FCC004C003C00274F5C0E0C4C0E0C002C003C004900002D002D001D000126B
:20020B00205915811581D002D003D004D005D006D007907916E493FAA3E493FBA3E493FC78
:20022B00C005C004C003C002C007C006C002C003C004900003D002D001D0001220591581A8
:20024B001581D002D003D004D005907916E493FCA3E493FEA3E493FFC007C006C005C004D6
:20026B007419C0E0E4C0E0C004C006C007900001D002D001D00012205915811581D004D012
:20028B0005D006D00790791CE493FCA3E493FEA3E493FF7B007A40C007C006C0047408C016
:2002AB00E0E4C0E0C005C003C002C004C006C00790000BD002D001D000122059E58124FB16
:2002CB00F581D004D006D007E58124F8F5812278FD79207A00122059788579D77A011220F5
:2002EB005978A879877A01122059780A79877A01122059758207787A79877A011220599066
:20030B00000112007178C9799E7A01122059784B79237A001220599096C575F00178467904
:20032B00207A0012205978F679987A011220599000021200719076C475F080783279BA7AED
:20034B00011220599076E175F080783279BA7A0112205990624AE0FFBF8D028042BF9502D6
:20036B00802CBFA5028005BFB54480119076F275F080783279BA7A0112205980319076F922
:20038B0075F080783279BA7A01122059802090770075F080783279BA7A01122059800F90FC
:2003AB00770775F080783279BA7A0112205990770E75F080783279BA7A01122059906277A6
:2003CB00E0FF0F8F82786C79BA7A0112205990771675F080783279BA7A0112205978CB7955
:2003EB00867A0112205990000078D179D67A01122059E4C0E0C0E0C0E0900CA775F0007854
:20040B004579997A0112205915811581158178DB79B57A01122059785B79BB7A011220591E
:20042B00120176E4C0E0C0E0C0E0900CC775F000784579997A011220591581158115819075
:20044B007877E493FDA3E493FEA3E493FFC007C006C0057401C0E0E4C0E0C005C006C007C0
:20046B00900081D002D001D00012205915811581D005D006D007907865E493FDA3E493FEBB
:20048B00A3E493FFC007C006C0057401C0E0E4C0E0C005C006C007900081D002D001D00077
:2004AB0012205915811581D005D006D007787179207A001220599014A975F080782F79CE51
:2004CB007A0112205978D179867A0112205990000412007178D779867A01122059900503BA
:2004EB00E06057787B791D7A00122059E5828583F045F060407899791D7A00122059AE82BC
:20050B00AF83C007C00678E279207A00122059AC82AD83D006D007EEC39CFEEF9DFF1EBE5C
:20052B00FF011FC374FF9E747F9F50097861791A7A00122059900503E4F0780679A17A01E2
:20054B00122059AE82AF83EE708A90790AE493FDA3E493FEA3E493FFC007C005C006C007EA
:20056B00D002D001D000122059AD82AE83D0078D088E09E508450970030204DF78A179AC3E
:20058B007A01122059907901E493FDA3E493FEA3E493FFC007C006C005784079B07A0112DB
:2005AB002059AA82AB83ACF0D005D006D007C0077480C0E0E4C0E0C005C006C0078A828B77
:2005CB00838CF0D002D001D000122059AD82AE8315811581D0078D088E09E50845097003D6
:2005EB000204DF850882850983783279B07A01122059907965E493FDA3E493FEA3E493FFFF
:20060B00C007C006C005C005C006C007D002D001D000122059D005D006D0070204DFE58160
:20062B002406F581AF8224F6F8860508860674802EFEE58124FBF8A60508A60608E4F6FBD4
:20064B00740F5FC40354F8FE7A00E58124FBF8EA26FAEE0836FE088605A881A6C7C006C0C2
:20066B0005C0027410C0E0E4C0E08F828B83125684AB8215811581D002D005D006C2AFE5C9
:20068B00C754F84BF5C78A07E58124F3F8E58124FBF9E6F70809E6F70809E6F7E58124F17D
:2006AB00F8A9811919E6F70809E6F7A88118188603088604A881181816B6FF020816EB4C21
:2006CB00602A8F828E838DF012554EFCA3AF82AE83E58124FBF886820886830886F0EC121E
:1506EB004F53A31818A68208A68380BFA88186C7D2AFE581246C
:20070000FAF58102206BAE82AF83E58124FBF886040886058D04900004ECF0E58124FBF862
:20072000860590000575F000ED124F537C737D628D0490000675F000EC124F537D73900019
:200740000775F000ED124F5390000875F00012554EFD53051F90000875F000ED124F539038
:20076000000875F000ED124F53E58124F9F8E62625E0FC90000975F000EC124F535305E00D
:2007800090000875F000ED124F53E58124F9F88603088604EB2BFBEC33FCEB2BEC33FCFBCD
:2007A000EB420590000875F000ED124F5390000A75F00012554EFD53057F90000A75F000E2
:2007C000ED124F5390000A75F000ED124F5353059F90000A75F000ED124F5390000A75F042
:2007E00000ED124F535305E090000A75F000ED124F5343051290000A75F000ED124F5390F6
:20080000000B75F00012554EFD53053F90000B75F000ED124F5343054090000B75F000ED09
:20082000124F535305CF90000B75F000ED124F5390000B75F000ED124F535305F790000BB1
:2008400075F000ED124F5390000B75F000ED124F535305FB90000B75F000ED124F5390006D
:200860000B75F000ED124F535305FC90000B75F000ED124F5343050290000B75F000ED1229
:200880004F5375D1FE75D601906271EEF0906272EFF0906270E043E002F0906270E020E702
:2008A000F902206BAF82906272E0FEC2AF906270E020E7F9EF2FFF906272F0906270E04396
:2008C000E001F0906270E020E7F9D2AF906272EEF002206B058105810581AD82AE83AFF024
:2008E000A8811818A60508A60608A607A88118188602088603088604900C90E0FDA3E0FEFD
:20090000A3E0FFC002C003C0048D828E838FF0786779947A01122059158115811581A88190
:2009200018188605088606088607C005C006C007900C9375F00078C579827A01122059159A
:20094000811581158115811581158102206BE5812406F581900C90E0FDA3E0FEA3E0FF8DFC
:20096000828E838FF0780079917A01122059AD82AE83AFF0ED4E7003020A2274032DFAE480
:200980003EFB8F04C007C006C005C002C003C004E58124EFF886820886830886F0785C799B
:2009A000867A01122059AB82AC83158115811581D005D006D007EB4C6051E58124FBF8A600
:2009C0000508A60608A60774052DFAE43EFB8F04E58124FBF8E6C0E008E6C0E008E6C0E03A
:2009E00074D4C0E07408C0E07400C0E0E4C0E0741EC0E08A828B838CF0781979B67A011246
:200A00002059E58124F8F581020AFE8D828E838FF012554EFDA312554EFEA312554EFF025B
:200A20000974900C9375F000787779817A01122059AD82AE83AFF0A8811818A60508A606FF
:200A400008A607A8811818E608467003020AFEA8811818740326FAE40836FB088604E581D2
:200A600024F5F8E6C0E008E6C0E008E6C0E08A828B838CF0782479867A01122059158115E1
:200A8000811581A88118188602088603088604900C90E0FDA3E0FEA3E0FFC002C003C004E6
:200AA0008D828E838FF0789779917A01122059158115811581A881181886050886060886B0
:200AC00007A8811818740526FAE40836FB088604C005C006C00774D4C0E07408C0E07400A4
:200AE000C0E0E4C0E0741EC0E08A828B838CF0781979B67A01122059E58124F8F581E581E6
:200B000024FAF58102206B784079B07A01122059AD82AE83AFF0C005C006C007741FC0E049
:200B20007477C0E07480C0E0781379547A00122059E58124FAF58102206BE5812409F581A9
:200B4000900C90E0FDA3E0FEA3E0FF8D828E838FF078AC79957A01122059AE82AF83C3E4A9
:200B60009E74808FF063F08095F04003020D0478B979D67A01122059AE82AF83900C90E0C2
:200B8000FBA3E0FCA3E0FD8B828C838DF0C007C00678AC79957A01122059AC82AD83D006C9
:200BA000D007C004C0058E828F83125605AE82AF8315811581E58124FCF8A60608A6079049
:200BC0000C90E0FBA3E0FCA3E0FD8B828C838DF0780079917A01122059AB82AC83ADF0A8DD
:200BE000811818A60308A60408A6057A007F00A8811818E608466035E58124FCF8E6B50200
:200C00000708E6B5070280250ABA00010FA881181886820886830886F012554E1818F6A33A
:200C200012554E08F6A312554E08F680C2A8811818E608467003020D04758215783279B275
:200C40007A01122059AE82AF83A8811818740326FAE40836FC0886050ABA00010C8A828C22
:200C6000838DF012554EFAE58124F8F8A602087600A8811818740326FBE40836FC08860583
:200C80008B828C838DF012554EFB7D00900237E0FCE58124FAF8A604087600900236E0FCA1
:200CA0007A00C006C007E58124FAF8E6C0E008E6C0E0E58124F4F8E6C0E008E6C0E0C00350
:200CC000C005E58124F2F8E6C0E008E6C0E0C004C002743FC0E07477C0E07480C0E0781344
:200CE00079547A00122059E58124F1F581A8811818740326FDE40836FE0886078D828E8369
:200D00008FF08037900237E0FF7E00900236E0FD7C00C007C006C005C0047478C0E07477C9
:200D2000C0E07480C0E0781379547A00122059E58124F9F58190000075F000E58124F7F5BE
:200D40008102206B058105810581784079B07A01122059AD82AE83AFF0A8811818A6050801
:200D6000A60608A607E58124F8F8860208860308860474012AFDE43BFE8C078D828E838FF2
:200D8000F012554EFD7F008A828B838CF012554EFA7E00A8811818E6C0E008E6C0E008E614
:200DA000C0E0C005C007C002C00674A5C0E07477C0E07480C0E0781379547A00122059E565
:200DC0008124F6F58115811581158102206BE5812406F581AD82AE83AFF0E58124F7F8E451
:200DE000B6830104FC601F90020C75F000C007C006C005C004789A79907A01122059D0042C
:200E0000D005D006D007EC601B9001F775F000C007C006C00578FF798C7A01122059D00553
:200E2000D006D0077C018D828E838FF012554EFAA312554EFBBA0005BB0002800CBAB80667
:200E4000BB0003020F50021483C005C006C007C007C006C00574A3C0E07414C0E07480C0A3
:200E6000E004C0E0E4C0E090020C75F000781179907A01122059E58124FBF581900C937530
:200E8000F000787179807A01122059D005D006D007900C90E0FAA3E0FBA3E0FF8A828B83D8
:200EA0008FF0C007C006C00578EB79907A01122059749DC0E07414C0E07480C0E07487C0C7
:200EC000E0E4C0E09001F775F0007876798C7A01122059E58124FBF581744EC0E07409C02E
:200EE000E07400C0E07487C0E0E4C0E09001EC75F00078BE79BD7A01122059E58124FBF511
:200F000081E4C0E0C0E09001EC75F00078AE79BF7A0112205915811581E4C0E004C0E09002
:200F2000021B75F00078B6791B7A0012205915811581D005D006D007D007D006D0057C00BC
:200F40008D828E838FF074B8124F53A3E4124F53EC602490021B75F000C007C006C005788B
:200F6000F0791C7A00122059E5828583F0D005D006D00745F070067582010214949077D3DF
:200F800075F080C007C006C005784879A57A01122059AA82AB83ACF0D005D006D00790022C
:200FA00027EAF0EBA3F0ECA3F0EA4B7003021465C007C006C00574D7C0E07477C0E0748054
:200FC000C0E0781379547A00122059158115811581758202789279877A0112205990022790
:200FE000E0FAA3E0FBA3E0FC74032AFAE43BFB8A828B838CF012554EFAA312554EFBA31218
:20100000554EFCC002C002C003C004900000D002D001D000122059AC82AB83D002D005D0C5
:2010200006D007900225ECF0EBA3F0BCFF06BBFF030211DEC005C006C007EC2438FAEB34A0
:20104000FAFF8A828F83C004C00312521EAA82AD83AEF0FFE4C0E0C0E07490C0E07440C03B
:20106000E08A828D838EF0EF12548BAA82AD83AEF0FFE58124FCF581D003D004C007C006ED
:20108000C005C004C003E4C0E0C0E074C8C0E07441C0E08A828D838EF0EF125101C8E58194
:2010A00024EFC8A68208A68308A6F008F6E58124FCF581D003D004D005D006D007E58124B1
:2010C000F8F890022AE6F008E6A3F008E6A3F008E6A3F0E58124F8F886820886830886F0FA
:2010E00008E6C007C006C005C004C00312522BC8E58124F7C8A68208A683D003D004D005B4
:20110000D006D007E58124FCF890022EE6F008E6A3F0E58124FCF88682088683C004C0036F
:2011200012521EAA82AD83AEF0FFC002C005C006C007E58124F2F886820886830886F0080D
:20114000E6124E44AA82AD83AEF0FFE58124FCF581900230EAF0EDA3F0EEA3F0EFA3F0C031
:2011600002C005C006C00790000075F0C87442124E4FAA82AD83AEF0FFE58124FCF581D034
:2011800003D0048A828D838EF0EFC005C004C00312525FAE82AF83D003D004D005C007C07B
:2011A00006C005C004C003C006C007E58124F5F8E6C0E008E6C0E074ECC0E07477C0E074C6
:2011C00080C0E0781379547A00122059E58124F7F581D005D006D007D007D006D005900205
:2011E00027E0FAA3E0FBA3E0FC74032AFAE43BFB8A828B838CF012554EFAA312554EFBA301
:2012000012554EFCC007C006C005C002C002C003C004900004D002D001D000122059AC8200
:20122000AB83D002D005D006D007900225ECF0EBA3F0BCFF06BBFF030213EBC005C006C052
:20124000078C828B83C004C00312521EAA82AD83AEF0FFC002C005C006C00790000075F060
:20126000707440124E4FAA82AD83AEF0FFE58124FCF581D003D004C007C006C005C004C029
:2012800003E4C0E074E0C0E074FFC0E07444C0E08A828D838EF0EF12548BC8E58124EFC8E5
:2012A000A68208A68308A6F008F6E58124FCF581D003D004D005D006D007E58124F8F8900A
:2012C000022AE6F008E6A3F008E6A3F008E6A3F0E58124F8F886820886830886F008E6C0CA
:2012E00007C006C005C004C00312522BC8E58124F7C8A68208A683D003D004D005D006D0BA
:2013000007E58124FCF890022EE6F008E6A3F0E58124FCF88682088683C004C00312521E91
:20132000AA82AD83AEF0FFC002C005C006C007E58124F2F886820886830886F008E6124E47
:2013400044AA82AD83AEF0FFE58124FCF581900230EAF0EDA3F0EEA3F0EFA3F0C002C005AE
:20136000C006C00790000075F0C87442124E4FAA82AD83AEF0FFE58124FCF581D003D00422
:201380008A828D838EF0EFC005C004C00312525FAE82AF83D003D004D005C007C006C00585
:2013A000C004C003C006C007E58124F5F8E6C0E008E6C0E07404C0E07478C0E07480C0E056
:2013C000781379547A00122059E58124F7F581D005D006D007900225E0FEA3E0FF90022E60
:2013E000EEF0EFA3F0D007D006D005C007C006C0057422C0E0E4C0E090781C75F08078BEC0
:2014000079AC7A011220591581158190020C75F00078A679907A011220597421C0E0E4C06C
:20142000E090783E75F08078BE79AC7A01122059158115819002347401F0900235E4F074DA
:2014400034C0E07402C0E0E4C0E09001F775F000780B798D7A01122059158115811581D010
:2014600005D006D00790021B75F000C007C006C0057844791C7A00122059D005D006D0077E
:20148000020F3E8D828E838FF0E4124F53A3124F53758203E58124FAF58102206B070B00DC
:2014A0003A0B00440D000000009D0C00000000E5812409F581900239E0F5F0A3E045F0702C
:2014C0000A90023CE4F0A3F002161C78E279207A00122059AE82AF83E58124FCF8A606080D
:2014E000A607900239E0FBA3E0FCA3E0FD8B828C838DF0E58124F8F812554EF6A312554E84
:2015000008F674022BFAE43CFE8D078A828E838FF012554EFAA312554EFEE58124F8F8EA7B
:2015200026FAEE0836FEE58124FCF8EAC396FAEE0896FEE58124FAF8A60208A60674042BA1
:20154000FBE43CFC8B828C838DF0A881181812554EF6A312554E08F6A312554E08F6A88102
:201560001818E608467003021606A881181886820886830886F012554EFFA312554EFAA8D8
:20158000811818740226FDE40836FC0886068D828C838EF012554EFDA312554EFEED2FFB94
:2015A000EE3AFCE58124FCF8EBC396FBEC0896FCE58124FAF8C3EB96EC0896501DED2FFFF2
:2015C000EE3AFAE58124FCF8EFC396FFEA0896FAE58124FAF8A60708A602A88118187404F8
:2015E00026FFE40836FE0886058F828E838DF0A881181812554EF6A312554E08F6A3125510
:201600004E08F602155EE58124FCF8E58124FAF990023CE726F009E70836A3F0E58124F701
:20162000F58102206BE581240FF581AD82AE83AFF07C0112554EFAA312554EFBBA0005BBA0
:201640000002800BBA5905BB0002801E021A47900239E4F0A3F0A3F07C008D828E838FF047
:201660007459124F53A3E4124F53EC7006758201021A58E58124EEF8B6870280030218296B
:20168000E58124EBF8A9811919E6F70809E6F70809E6F7900239E0FAA3E0FBA3E0FCEA4BF1
:2016A0006078C005C006C00774072AFDE43BFE8C078D828E838FF012554EFDA312554EFE07
:2016C000A312554EFFE58124FBF8C005C006C00786820886830886F01236E51581158115DF
:2016E000816008D007D006D005802FD007D006D00574042AFAE43BFB8A828B838CF012559B
:201700004EFAA312554EFBA312554EFC900239EAF0EBA3F0ECA3F0021693900239E0FAA345
:20172000E0FBA3E0FC900239E0F5F0A3E045F07003021658E58124F2F874042AF6E43B08F1
:20174000F608A604E58124F2F886820886830886F0E58124F5F912554EF7A312554E09F75A
:20176000A312554E09F7E58124F5F8E608467003021658C005C006C007E58124F2F8740742
:2017800026FDE40836FE0886078D828E838FF012554EFDA312554EFEA312554EFFE58124E9
:2017A000FBF8C005C006C00786820886830886F01236E51581158115816008D007D006D079
:2017C000058048E58124F2F8740426FDE40836FE0886078D828E838FF012554EFDA312551D
:2017E0004EFEA312554EFFE58124EFF886820886830886F0ED124F53A3EE124F53A3EF12B4
:201800004F53D007D006D005021734E58124F2F886820886830886F012554EFAA312554E45
:20182000FBA312554EFC021734E58124EEF8B682028003021658E58124FBF8E4F608F60812
:201840007600900239E0FAA3E0FBA3E0FCE58124F8F8A60208A60308A604E58124F8F8E68B
:2018600008467003021658E58124F8F886820886830886F0C007C006C00578EA79BC7A01C2
:20188000122059E5828583F0D005D006D00745F07003021A05C005C006C007E58124F5F84A
:2018A0008605088606088607E58124F5F8E58124F2F9740726F7E4083609F70809E6F7E5FB
:2018C0008124F2F886820886830886F012554EFAA312554EFBA312554EFCC005C005C0063C
:2018E000C0077488C0E08A828B838CF0785279A17A01122059AE82AF83E58124FCF581D0D7
:2019000005EE4FD007D006D00560030219F0E58124F5F886820886830886F0E4124F53A34C
:20192000124F53A3124F53E58124FBF8E608466056C005C006C007E58124F8F8740426FAD1
:20194000E40836FB088604E58124F5F8740426FDE40836FE0886078D828E838FF012554EBD
:20196000FDA312554EFEA312554EFF8A828B838CF0ED124F53A3EE124F53A3EF124F53D02B
:2019800007D006D005802FE58124F8F8740426FAE40836FB0886048A828B838CF012554EDA
:2019A000FAA312554EFBA312554EFC900239EAF0EBA3F0ECA3F0E58124F8F8740426FAE4EE
:2019C0000836FB0886048A828B838CF0E4124F53A3124F53A3124F53C007C006C00578AFE7
:2019E00079147A00122059D005D006D007021836C007C006C0057861791A7A00122059D0F0
:201A000005D006D007E58124F8F8E58124FBF9E6F70809E6F70809E6F7E58124F8F8740471
:201A200026FAE40836FB0886048A828B838CF0E58124F8F812554EF6A312554E08F6A31211
:201A4000554E08F602185A8D828E838FF0E4124F53A3124F53758203E58124F1F5810220D6
:201A60006B900CA775F000781A79A27A0112205902206BC082C083C0F005810581058178D4
:201A800061791A7A00122059E58124FBF8A9811919740726F7E4083609F70809E6F7A881A3
:201AA000181886820886830886F012554EFDA312554EFEA312554EFFED4E7003021B3E9067
:201AC0000239E0FDA3E0FEA3E0FFED4E6070E58124FBF8C005C006C007868208868308866A
:201AE000F01236E515811581158160028031900CBEE0FAA3E0FBA3E0FCA88118188682085A
:201B000086830886F0EA124F53A3EB124F53A3EC124F5378AF79147A00122059021BAD7424
:201B2000042DFAE43EFB8F048A828B838CF012554EFDA312554EFEA312554EFF808C900C2D
:201B4000BEE0FDA3E0FEA3E0FFA881181886820886830886F0ED124F53A3EE124F53A3EF7F
:201B6000124F53E58124FBF8740426FDE40836FE088607900239E0FAA3E0FBA3E0FC8D8233
:201B80008E838FF0EA124F53A3EB124F53A3EC124F53E58124FBF8900239E6F008E6A3F0F3
:201BA00008E6A3F078AF79147A00122059E58124FAF58102206BAD82AE83AFF0C007C006D8
:201BC000C005E58124F9F8E6C0E008E6C0E08D828E838FF0782B79BC7A0112205915811589
:201BE00081D005D006D0078D828E838FF07873791A7A0012205902206BAD82AE83AFF0C074
:201C000007C006C005787A79BC7A01122059D005D006D00774022DFAE43EFB8F048A828B9F
:201C2000838CF0E58124FCF8E6124F53A308E6124F538D828E838FF07873791A7A0012207F
:201C40005902206BAD82AE83AFF0C007C006C005787A79BC7A01122059D005D006D0078D11
:201C6000828E838FF07873791A7A0012205902206BAD82AE83AFF0C007C006C00578B97947
:201C8000BC7A01122059D005D006D0078D828E838FF07873791A7A0012205902206BC0820F
:201CA000C083C0F0A881181886820886830886F012554EFBA312554EFCE58124F9F886023A
:201CC000088607EA2BFBEF3CFCA881181886820886830886F0EB124F53A3EC124F5378AF3F
:201CE00079147A0012205915811581158102206BAD82AE83AFF074072DFDE43EFE8D828EA2
:201D0000838FF012554EFDA312554EFEA312554EFFE4C0E0C0E0C0E08D828E838FF01236B7
:201D2000E51581158115817003048001E4FD7F008D828F8302206BAD82AE83AFF012554E42
:201D4000FBA312554EFC74022DFDE43EFE8D828E838FF012554EFDA312554EFEED2BFBEECC
:201D60003CFC8B828C8302206BAFF012554EFDA312554EFE8D828E8302206B900239E0FD86
:201D8000A3E0FEA3E0ED4EB40100B39200E433FE7F008E828F8302206B787B791D7A0012B2
:201DA0002059E5828583F045F0600A90023CE0FEA3E0FF80047E007F008E828F8302206B4E
:201DC000C082C083C0F0900239E0FAA3E0FBA3E0FCA8811818C002C003C004868208868371
:201DE0000886F01236E51581158115816002803474042AFDE43BFE8C078D828E838FF01260
:201E0000554EFDA312554EFEA312554EFF900239EDF0EEA3F0EFA3F078AF79147A0012206A
:201E200059021EB5EA4B604274042AFDE43BFE8C078D828E838FF012554EFDA312554EFEA7
:201E4000A312554EFFA8811818C005C006C00786820886830886F01236E5158115811581FA
:201E600060088D028E038F0480BAEA4B604774042AFAE43BFBA8811818740426FDE4083665
:201E8000FE0886078D828E838FF012554EFDA312554EFEA312554EFF8A828B838CF0ED121C
:201EA0004F53A3EE124F53A3EF124F5378AF79147A00122059A8811818740426FDE4083626
:201EC000FE0886078D828E838FF0E4124F53A3124F53A3124F53A8811818740726FDE408A7
:201EE00036FE0886078D828E838FF0E4124F53A3124F53A3124F5315811581158102206BE5
:201F000020811B90000A75F04078EA79BC7A01122059AE82AF83EE4F6004C2008002D20010
:201F2000A200E433FE7F008E828F8302206BAE82AF83BE8105BF00028006BE8210BF000DB3
:201F4000740255ABFF7E008F828E83800390000002206BAE82AF83BE8005BF00028008BE20
:201F60008153BF00508011438F02538CFE53F3FD53FDFD9000018040E58124FCF8E60846A9
:201F80006029E5AB20E129E4C0E0C0E090000A75F040782B79BC7A0112205915811581533E
:201FA00089FDC2C543AB02D2BD800553ABFDC2BD900001800390000002206BC020C0E0C025
:201FC000F0C082C083C007C006C005C004C003C002C001C000C0D075D000C2AFE58930E1AB
:201FE0004190000A75F04078EA79BC7A01122059E5828583F045F060297410C0E0E4C0E0FF
:2020000090000A75F040782B79BC7A011220591581158190787175F080781279A57A0112E4
:2020200020595389FDC2C5D2AFD0D0D000D001D002D003D004D005D006D007D083D082D095
:20204000F0D0E0D02032AFF0AE83E58290023EF0EEA3F0EFA3F002206BC09FC8C0E0E9C0C7
:20206000E0EA540F539FF0429FC822D09F2202206B02206B900000E4F5F002206B02206B68
:20208000AE82AF83C2AF8E048F051EBEFF011FEC4D60030080F0D2AF02206BAE82AF83C010
:2020A00007C00678E279207A00122059AC82AD83D006D007C007C006C005C00478E2792047
:2020C0007A00122059AA82AB83D004D005D006D007EAC39CFAEB9DFBC3EA9EEB9F40D50299
:2020E000206B850F8285108302206BAC11AD127E007F008C828D838EF0EF02206B75C6C00E
:2021000053C6BFE59E20E6FB43C630E5C6B59EFB900000E595F0E4A3F0A3F0A3F0AC967DDB
:20212000007E008E078D068C057C00900000E0F8A3E0F9A3E0FAA3E0FB900000EC28F0ED8C
:2021400039A3F0EE3AA3F0EF3BA3F0AC977D008D078C067C007D00900000E0F8A3E0F9A3D5
:20216000E0FAA3E0FB900000EC28F0ED39A3F0EE3AA3F0EF3BA3F0900000E0FCA3E0FDA3B3
:20218000E0FEA3E0FF900000ECF074012DA3F0E43EA3F0E43FA3F0900000E0A3E0A3E0FE5F
:2021A000A3E08E97900000E0A3E0FDA3E0A3E08D96900000E0FCA3E0FDA3E0FEA3E0FF8CE3
:2021C00095D2AD02206BC0E0C082C083C007C006C005C004C003C002C001C000C0D075D048
:2021E00000C2AF900000E595F0E4A3F0A3F0A3F0AC967D007E008E078D068C057C009000D5
:2022000000E0F8A3E0F9A3E0FAA3E0FB900000EC28F0ED39A3F0EE3AA3F0EF3BA3F0AC9767
:202220007D008D078C067C007D00900000E0F8A3E0F9A3E0FAA3E0FB900000EC28F0ED3969
:20224000A3F0EE3AA3F0EF3BA3F0900000E0FCA3E0FDA3E0FEA3E0FF900000ECF074012D76
:20226000A3F0E43EA3F0E43FA3F0900000E0A3E0A3E0FEA3E08E97900000E0A3E0FDA3E0D1
:20228000A3E08D96900000E0FCA3E0A3E0A3E08C957401250FF50FE43510F510AE0FAF102B
:2022A000EE547F6002800B74012511F511E43512F5129005037401F0C2C7D2AFD0D0D00016
:2022C000D001D002D003D004D005D006D007D083D082D0E03275E40975AF0075E644C2DEE6
:2022E000D2B902206BAE82AF8353E6FB8EDC8FDD43E60475AF0043E64002206BC020C0E093
:20230000C0F0C082C083C007C006C005C004C003C002C001C000C0D075D000C2B953AFFD1D
:2023200053E6BF786879887A01122059D2B9D0D0D000D001D002D003D004D005D006D007F7
:20234000D083D082D0F0D0E0D0203275C2D875C50B53F1FE43F30C5380DF43FD2853FDEB19
:2023600075C40275868043C48002206BAF82C2E98FC110E90280FB02206BC082C083C0F02F
:20238000900D1AE0FAA3E0FBA3E0FC8A828B838CF0780079917A01122059AA82AB83ACF09B
:2023A000EA4B606D74032AFDE43BFE8C07C004C003C002E58124FBF8E6C0E008E6C0E008EB
:2023C000E6C0E08D828E838FF0785C79867A01122059AE82AF83158115811581D002D00336
:2023E000D004EE4F60088A828B838CF080298A058B068C078D828E838FF0789979967A0138
:20240000122059AD82AE83AFF08D028E038F04808F90000075F00015811581158102206B2C
:2024200090796EE493FDA3E493FEA3E493FFC007C005C006C007D002D001D000122059ADBC
:2024400082AE83D0078D048E07ED4E70037C01FF8C828F8302206B058105810581AD82AE86
:2024600083AFF0ED4E700302250874202DFAE43EFB8F048A828B838CF012554EFAA31255A3
:202480004EFBA312554EFC8A828B838CF0C007C006C005780079917A01122059AA82AB83D5
:2024A000ACF0D005D006D007A8811818A60208A60308A604A8811818E60846604B907962F7
:2024C000E493FAA3E493FBA3E493FCC004C003C002E58124FBF8E6C0E008E6C0E008E6C0D8
:2024E000E0C005C006C007C002C003C004902CF075F000D002D001D000122059E58124FACE
:20250000F581D002D003D00415811581158102206B05810581AD82AE83AFF0741C2DFAE4D7
:202520003EFB8F048A828B838CF012554EFCBC040050068C037C0080047B047C00C005C063
:2025400006C0078BF005F07B017C008006EB2BFBEC33FCD5F0F71BBBFF011CC006C005C09B
:2025600004C003782079247A00122059AA82AF83D003D004D005D006C005C002C0078B824F
:202580008C83124F6EAE82AF8315811581D005E58124FCF8A60608A607D007D006D005A8F1
:2025A0008118E60846603CC007C006C00578B979D67A01122059AB82AC83E58124FCF8E61A
:2025C000C0E008E6C0E08B828C83125605AB82AC8315811581D005D006D007A88118A60350
:2025E00008A6048D028E038F0474052DFDE43EFEC002C003C0047457C0E07424C0E0740053
:20260000C0E0E58124F9F8E6C0E008E6C0E08D828E838FF0781979B67A01122059E581249C
:20262000F8F5811581158102206BC082C083C0F0058105810581E58124F5F8E6084670038E
:2026400002286CE58124F5F8A9811919E6F70809E6F70809E6F7E58124FBF8742026FDE440
:202660000836FE0886078D828E838FF012554EFAA312554EFBA312554EFCC007C006C00542
:20268000E58124FBF8E6C0E008E6C0E008E6C0E08A828B838CF0786779947A01122059157E
:2026A0008115811581D005D006D007E58124F5F8A9811919E6F70809E6F70809E6F7A88136
:2026C0001818740326FAE40836FB0886048A828B838CF012554EFAA312554EFBA312554E94
:2026E000FC8A828B838CF0C007C006C00578E779F07A01122059D005D006D007A88118184D
:20270000740626FAE40836FB0886048A828B838CF012554EFAA312554EFBA312554EFCC0C4
:2027200007C006C005C002C003C004900D0D75F00078C579827A01122059158115811581AF
:20274000D005D006D007E58124F5F88602088603088604C007C006C005C002C003C00490AA
:202760000D0375F00078C579827A01122059158115811581D005D006D0078D828E838FF0C3
:2027800012554EFDA312554EFEA312554EFF8D828E838FF0780079917A01122059AD82AED6
:2027A00083ED4E604DE58124FBF8741B26FDE40836FE0886078D828E838FF0E4124F53E5AE
:2027C0008124FBF8741C26FDE40836FE0886078D828E838FF0E4124F53E58124FBF886823D
:2027E0000886830886F0781179257A0012205902286CE58124FBF8740526FDE40836FE0847
:2028000086078D828E838FF078E279B87A01122059E58124FBF88605088606088607900D2D
:202820001AE0FAA3E0FBA3E0FCC005C006C0078A828B838CF0786779947A01122059158137
:2028400015811581E58124FBF88605088606088607C005C006C007900CF975F00078C57919
:20286000827A01122059158115811581E58124FAF58102206BC082C083E5812409F58124D5
:20288000F0F8860308860408860574062BFAE43CFE8D078A828E838FF012554EFAA31255FC
:2028A0004EFEA312554EFF8A828E838FF0A881181812554EF6A312554E08F6A312554E081F
:2028C000F674032AFAE43EFE8A828E838FF0E58124FBF812554EF6A312554E08F6A3125523
:2028E0004E08F6E58124EDF8E58124F8F9E6F70809E6F70809E6F7E58124F8F8741B26FAC0
:20290000E40836FE0886078A828E838FF012554EFAC002E58124F5F8E6C0E008E6C0E0C0AA
:2029200003C004C005E58124F2F886820886830886F0782A79267A00122059E58124FBF540
:20294000817F00C007E58124F4F8E6C0E008E6C0E0E58124F7F8E6C0E008E6C0E008E6C0EB
:20296000E0E58124F7F886820886830886F0783279D77A01122059E58124F924F5F5810253
:20298000206BAD82AE83AFF0E58124FBF886820886830886F0C007C006C005781179257AA6
:2029A00000122059D005D006D00774032DFDE43EFE8D828E838FF012554EFDA312554EFEA2
:2029C000A312554EFF8D828E838FF078FE79EF7A0112205902206BC082C083C0F0E58124D1
:2029E00006F58124F8F8740626FAE40836FB0886048A828B838CF012554EFAA312554EFB66
:202A0000A312554EFCA8811818A60208A60308A604E58124F2F88602088603088604E58179
:202A200024FBF8741C2AF6E43B08F608A604E58124FBF886820886830886F012554EFFE553
:202A40008124F0F8E62FFEE58124FBF886820886830886F0EE124F53E58124FBF886820893
:202A600086830886F012554E24FA503BE58124FBF886820886830886F0E4124F53741B2A0C
:202A8000FDE43BFE8C07C002C003C0048D828E838FF012554EFC0C8D828E838FF0EC124FF8
:202AA00053D004D003D002741B2AFDE43BFE8C078D828E838FF012554EFDC002C003C0044A
:202AC000E58124FBF8740626FCE40836FE0886078C828E838FF012554EFCC3ED9CD004D0E9
:202AE00003D002402AC002C003C004E58124F5F8E6C0E008E6C0E008E6C0E09000017875B7
:202B000079287A00122059E58124FAF5818022C002C003C004E58124F5F886820886830892
:202B200086F0788279297A00122059158115811581E58124F7F58102206BC082C083C0F003
:202B4000E5812406F58124F8F8740626FAE40836FB0886048A828B838CF012554EFAA31218
:202B6000554EFBA312554EFCA8811818A60208A60308A604E58124F2F886020886030886E4
:202B800004741C2AFDE43BFE8C078D828E838FF0E4124F53E58124FBF8741B2AF6E43B0840
:202BA000F608A604E58124FBF886820886830886F012554EFFE58124F0F8E62FFEE5812496
:202BC000FBF886820886830886F0EE124F53E58124FBF886820886830886F0E58124FBF937
:202BE00012554EF7A8811818740626FDE40836FE0886078D828E838FF012554EFDE58124A3
:202C0000FBF8C3E69D402AC002C003C004E58124F5F8E6C0E008E6C0E008E6C0E09000021D
:202C2000787579287A00122059E58124FAF5818022C002C003C004E58124F5F8868208860F
:202C4000830886F0788279297A00122059158115811581E58124F7F58102206BC082C08307
:202C6000C0F0058105810581E58124F5F88602088603088604741C2AFDE43BFE8C078D827A
:202C80008E838FF0E4124F53A8811818741B2AF6E43B08F608A604A88118188682088683C3
:202CA0000886F012554EFFE58124F3F8E62FFEA881181886820886830886F0EE124F53C008
:202CC00002C003C004E58124F8F8E6C0E008E6C0E008E6C0E0900000787579287A00122085
:202CE00059E58124FAF581E58124FAF58102206B058105810581AD82AE83AFF0ED4E7003BB
:202D0000022F3D74202DFAE43EFB8F048A828B838CF012554EFAA312554EFBA312554EFCEE
:202D20008A828B838CF0C007C006C005780079917A01122059AA82AB83ACF0D005D006D0B2
:202D400007A8811818A60208A60308A604A8811818E608467003022E0AC005C006C007E597
:202D60008124FBF8740326FDE40836FE0886078D828E838FF012554EFDA312554EFEA31210
:202D8000554EFFC005740AC0E08D828E838FF0781979F37A01122059AE82AF831581D0053F
:202DA00075820AC007C006783279B27A01122059AC82AD83D006D007EEB5040CEFB505083B
:202DC000D007D006D0058042D007D006D005A881181886020886030886048A828B838CF093
:202DE000C007C006C005789979967A01122059AA82AB83ACF0D005D006D007A8811818A6E4
:202E00000208A60308A604022D4DA8811818E608467003022F3DA8811818740626FAE40884
:202E200036FB0886048A828B838CF012554EFAA312554EFBA312554EFCEA4B7003022F3DCD
:202E4000E58124F9F8B6000608B60002802FE58124F9F8B6010708B60003022EDEE581243A
:202E6000F9F8B6020608B600028043E58124F9F8B6030708B60003022F3D022F0EE58124ED
:202E8000F7F8E6C0E008E6C0E0C005C006C007E58124F9F886820886830886F0785C792C52
:202EA0007A00122059E58124FBF581022F3DE58124F7F8E6C0E008E6C0E0C005C006C007C5
:202EC000E58124F9F886820886830886F0783A792B7A00122059E58124FBF581805FE58145
:202EE00024F7F8E6C0E008E6C0E0C005C006C007E58124F9F886820886830886F078D7797F
:202F0000297A00122059E58124FBF581802FC005C006C007E58124FBF8E6C0E008E6C0E0F6
:202F200008E6C0E0E58124F3F88682088683787579287A00122059E58124FAF5811581153D
:202F400081158102206BC082C083C0F0E5812412F58175821B788B79B27A01122059AA8214
:202F6000AB83ACF0E58124FBF8A60208A60308A6049005DCE0701C9005DC7401F078B979A2
:202F8000D67A01122059E5828583F09005DDF0E5F0A3F09005DDE0FBA3E0FC9005DDE0F519
:202FA000F0A3E045F0700B9005DD74012BF0E43CA3F09005DDE0FBA3E0FC9005DD74012B5B
:202FC000F0E43CA3F0C003C00475820A781079B27A0112205915811581E58124FBF886825C
:202FE0000886830886F0787A79237A00122059AA82AB83ACF0E58124F8F8A60208A60308DE
:20300000A604E58124F8F8E60846600302312F900CF975F000787779817A01122059AD827B
:20302000AE83AFF0E58124F8F8A60508A60608A607E58124F8F8E60846700302312FE58149
:2030400024F8F8740326FDE40836FE088607E58124FBF8E6C0E008E6C0E008E6C0E08D82DF
:203060008E838FF0782479867A01122059158115811581E58124F8F8741B26FDE40836FE11
:203080000886078D828E838FF0E4124F53E58124F8F8741C26FDE40836FE0886078D828EE5
:2030A000838FF0E4124F53E58124F8F8742026FDE40836FE088607E58124F8F8741D26FA65
:2030C000E40836FB0886048D828E838FF0EA124F53A3EB124F53A3EC124F538A828B838CD9
:2030E000F0E4124F53A3124F53A3124F538A828B838CF078EB79907A01122059E58124F810
:20310000F88602088603088604900D1AE0FDA3E0FEA3E0FFC002C003C0048D828E838FF08D
:20312000789779917A01122059158115811581E58124F8F8E6084670030235B1E58124F823
:20314000F8742026FAE40836FB0886048A828B838CF012554EFDA312554EFEA312554EFF1F
:203160008D828E838FF0C004C003C00278AC79957A01122059AE82AF83D002D003D004C391
:20318000EE9408EF6480948040030235B1900D0375F000C004C003C002787779817A0112CF
:2031A0002059AD82AE83AFF0D002D003D004E58124F5F8A60508A60608A607E58124F5F81C
:2031C000E60846700302352AE58124F5F8E58124EFF9740626F7E4083609F70809E6F790C7
:2031E0000D0D75F000C004C003C002787779817A01122059AD82AE83AFF0D002D003D004A0
:20320000E58124EFF886820886830886F0ED124F53A3EE124F53A3EF124F53ED4E700302CA
:2032200034F6E58124F5F8E58124F2F9740326F7E4083609F70809E6F7C004C003C0027813
:203240009779EE7A01122059AD82AE83AFF0D002D003D004E58124F2F886820886830886D7
:20326000F0ED124F53A3EE124F53A3EF124F53ED4E70030234B4E58124EFF8868208868310
:203280000886F012554EFDA312554EFEA312554EFFA8811818A60508A60608A607758209E4
:2032A000C004C003C002783279B27A01122059E5828583F0D002D003D00445F07029C00282
:2032C000C003C004E58124FBF8740626FAE40836FB0886048A828B838CF07408124F53D00B
:2032E00004D003D0028044C002C003C004E58124FBF8740626FDE40836FE08860775820949
:20330000C007C006C005C002783279B27A01122059AB82D002D005D006D0078D828E838F8E
:20332000F0EB124F53D004D003D002A881181886820886830886F0E58124ECF9E7124F538B
:20334000A309E7124F53A309E7124F53A8811818740326FDE40836FE0886078D828E838F88
:20336000F0E58124E6F8E6124F53A308E6124F53A308E6124F5375820DC004C003C002780C
:203380003279B27A01122059AE82AF83D002D003D004BE015EBF005BE58124F5F8E58124B7
:2033A000F2F9E6F70809E6F70809E6F78A828B838CF012554EFDA312554EFEA312554EFF74
:2033C000C004C003C002E58124EFF8E6C0E008E6C0E008E6C0E08D828E838FF0787C7992F3
:2033E0007A01122059158115811581D002D003D0048059E58124F5F8E58124F2F9E6F708E2
:2034000009E6F70809E6F78A828B838CF012554EFDA312554EFEA312554EFFC004C003C09C
:2034200002E58124EFF8E6C0E008E6C0E008E6C0E08D828E838FF0789779917A01122059B9
:20344000158115811581D002D003D0048A828B838CF012554EFDA312554EFEA312554EFF3C
:203460008D828E838FF0780079917A01122059AC82AB83AAF0E58124F5F886050886060891
:203480008607C005C006C0078C828B838AF01236E515811581158160028016E58124F8F856
:2034A00086820886830886F0781179257A001220590235EBE58124EFF8868208868308860F
:2034C000F012554EFDA312554EFEA312554EFFC004C003C002C005C006C007900D0D75F0F3
:2034E0000078C579827A01122059158115811581D002D003D004E58124F5F88605088606BD
:20350000088607C004C003C002C005C006C007900D0375F00078C579827A011220591581A2
:2035200015811581D002D003D0048A828B838CF012554EFAA312554EFBA312554EFC8A82EE
:203540008B838CF078AC79957A01122059E5828583F045F0705BE58124F8F88602088603B7
:20356000088604900D1AE0FDA3E0FEA3E0FFC002C003C0048D828E838FF0786779947A01D3
:20358000122059158115811581E58124F8F88602088603088604C002C003C004900CF97566
:2035A000F00078C579827A011220591581158115817401C0E0E4C0E07404C0E0E4C0E0E501
:2035C0008124E2F8E6C0E008E6C0E008E6C0E0E58124E5F886820886830886F0783279D7D2
:2035E0007A01122059E58124F9F581E58124EBF58102206B907982E493FDA3E493FEA3E4B6
:2036000093FFC007C006C005C005C006C007D002D001D000122059D005D006D00702206B67
:20362000907968E493FDA3E493FEA3E493FFC007C005C006C007D002D001D000122059ADB0
:2036400082AE83D0078D828E8302206BAE82AF8390796BE493FBA3E493FCA3E493FDC005F9
:20366000C003C004C0058E828F83D002D001D000122059AB82AC83D0058B828C8302206B04
:2036800090796EE493FDA3E493FEA3E493FFED4E601DC007C005C006C007D002D001D000CA
:2036A000122059AD82AE83D0078D828E83800390000002206B900D0375F000787179807A27
:2036C00001122059900D0D75F000787179807A01122059900CF975F000787179807A0112FE
:2036E000205902206BE58124FCC3C8C0E0C082E608467006E5824583601218E58296F582FA
:2037000008E58396428208E5F0964582D082C8D0E0C822AF82BF02028005BF030C800575B0
:2037200082028008758208800375820002206B900D32E0FEA3E0FF8E828F8302206BAF8367
:20374000E582900D32F0EFA3F002206BC082C083C0F0058105810581A88118E4F608F6E470
:20376000FAFCE58124FBF8E608467003023AF9C002C004E58124F9F8740826FAE40836FB40
:203780000886048A828B838CF012554EFABA02028007D004D002023A30E58124F9F8740705
:2037A00026FAE40836FB0886048A828B838CF0E58124FCF812554EF6D004D002A88118187C
:2037C000E6704FC002C004E58124F9F8740926FAE40836FB0886048A828B838CF012554EAC
:2037E000D004D002702CC002C004E58124F9F8740426FAE40836FB0886048A828B838CF0A9
:2038000012554EFABA0107D004D00202390FD004D002A8811818E66049C002C004E58124A9
:20382000F9F8740926FAE40836FB0886048A828B838CF012554ED004D0027026C002C0043E
:20384000E58124F9F8740426FAE40836FB0886048A828B838CF012554ED004D00270030240
:20386000390FA8811818B60348C002C004E58124F9F8740926FAE40836FB0886048A828BC2
:20388000838CF012554EFABA03028006D004D002801FE58124F9F8740426FAE40836FB08B8
:2038A00086048A828B838CF012554ED004D002605EA8811818B60223C002C004E58124F992
:2038C000F8740926FAE40836FB0886048A828B838CF012554ED004D0027034A8811818E6D0
:2038E0006031C002C004E58124F9F8740926FAE40836FB0886048A828B838CF012554EFAA5
:20390000BA02028006D004D0028008D004D0027A017C00C002C004E58124F9F8740426FAFF
:20392000E40836FB0886048A828B838CF012554ED004D0026003023AA9A8811818E6702CC4
:20394000C002C004E58124F9F8740926FAE40836FB0886048A828B838CF012554EFABA0318
:2039600007D004D002023A26D004D002A8811818E6702CC002C004E58124F9F8740926FA19
:20398000E40836FB0886048A828B838CF012554EFABA0207D004D002023A26D004D002A81A
:2039A000811818E4B6020104FB602BC002C004E58124F9F8740926FAE40836FC0886078A54
:2039C000828C838FF012554EFABA0206D004D0028054D004D002EB601FE58124FBF87409E2
:2039E00026FDE40836FE0886078D828E838FF012554EFDBD0302802EA8811818B60302809A
:203A000003023AA9E58124FBF8740926FDE40836FE0886078D828E838FF012554EFDBD02DC
:203A2000028003023AA9A8811876010876008079E58124FBF886820886830886F012554E24
:203A4000FFBF02028063E58124FBF8740426FDE40836FE0886078D828E838FF012554E7030
:203A600026E58124FBF8740926FDE40836FE0886078D828E838FF012554EFD54036008A896
:203A800081187601087600E58124FBF8740726FDE40836FE0886078D828E838FF012554E74
:203AA000FD540360047A017C00E58124F5F8E608466020E58124F5F8860508860608860701
:203AC0008D828E838FF0A88118E6124F53A308E6124F53E58124F2F8E60846601CE5812479
:203AE000F2F886050886060886078D828E838FF0EA124F53A3EC124F53E58124FAF58102AC
:203B0000206BC082C083C0F0E5812404F581A88118E4F608F6E58124FAF8E6084670069012
:203B20000000023BD3AC811C7B007A40E58124FAF8741026FDE40836FE088607C004C00398
:203B4000C002E4C0E0C0E0C0E08D828E838FF0784C79377A00122059E58124FAF581A881A4
:203B600018E60846606AE58124FAF8741B26FDE40836FE0886078D828E838FF0E58124FD26
:203B8000F812554EF6A312554E08F6C007C006C005782F79377A00122059AA82AC83D0054E
:203BA000D006D007E58124FDF8E6B5020708E6B50402801C8D828E838FF012554EFDA312EA
:203BC000554EFEBDFF05BEFF0280059000008003900001E58124F9F58102206BAF82BF0223
:203BE000067E027F0080047E087F00C3E49E74808FF063F08095F050281EBEFF011FE5814E
:203C000024FBF8EE26FBEF0836FC0886058B828C838DF012554EFBBBFF0280CF900000805E
:203C20000390000102206BC082C083C0F0058105810581E58124FBF8E608467006900000E5
:203C4000023E4DE58124FBF8741026FAE40836FB08860474092AFDE43BFE8C078D828E8393
:203C60008FF0A881181812554EF6A8811818E66013A8811818B602067E027F00800A7E08E9
:203C80007F0080047E007F00A88118A60608A607EE4F6040E58124FBF8740826FDE4083667
:203CA000FE088607C004C003C002C005C006C007E58124F8F8868278DC793B7A0012205947
:203CC000AE82AF83158115811581D002D003D004EE4F6043E58124F5F8E608467003023D0A
:203CE00071C004C003C002746FC0E07478C0E07480C0E0E58124EFF886820886830886F05F
:203D0000782479867A01122059158115811581D002D003D004805AA88118B6020608B60030
:203D2000028006900000023E4DE58124F5F8E60846603EE58124FBF8740826FDE40836FE59
:203D4000088607C004C003C002C005C006C007E58124EFF886820886830886F07824798690
:203D60007A01122059158115811581D002D003D00474072AFAE43BFB8A828B838CF012554C
:203D80004EFF600FBF02067D027E00800A7D087E0080047D007E008D038E04ED4E6031C0E9
:203DA00004C003E58124F9F8E6C0E008E6C0E008E6C0E08F8278DC793B7A00122059AE82D1
:203DC000AF83158115811581D003D004EE4F6034E58124F2F8E608466070746FC0E0747890
:203DE000C0E07480C0E0E58124EFF886820886830886F0782479867A0112205915811581BA
:203E000015818046BB0205BC00028005900000803CE58124F2F8E60846602FE58124FBF841
:203E20008605088606088607C005C006C007E58124EFF886820886830886F0782479867A5F
:203E400001122059158115811581900001E58124FAF58102206BC082C083C0F0E581240A33
:203E6000F58124EEF886020886030886047406C0E0E4C0E0C0E08A828B838CF078FF795201
:203E80007A00122059158115811581E58124F4F8741026FAE40836FB08860474052AFDE40E
:203EA0003BFE8C078D828E838FF012554E20E018E58124EEF886050886060886078D828E09
:203EC000838FF07401124F5374082AFDE43BFE8C078D828E838FF012554EFDBD0200400311
:203EE000023F9974072AFDE43BFE8C078D828E838FF012554EFD54037003023F8674092A0D
:203F0000FDE43BFE8C078D828E838FF012554EFD54036072C002C003C004E58124F1F8744A
:203F20001D26FDE40836FE0886078D828E838FF012554EFDA312554EFEE58124F1F8741BE3
:203F400026FBE40836FC0886078B828C838FF012554EFBA312554EFCEDB50306EEB504029A
:203F60008008D004D003D002801CD004D003D00274042AFDE43BFE8C078D828E838FF074C9
:203F800001124F53801374042AFDE43BFE8C078D828E838FF0E4124F53AF811FE58124F783
:203FA000F8A607087600087640E58124FDFF7E007D40C004C003C002E58124F4F8E6C0E01A
:203FC00008E6C0E008E6C0E0C007C006C0058A828B838CF0784C79377A00122059E58124DA
:203FE000FAF581D002D003D004E58124FDF8E60846601FE58124EEF8860508860608860782
:2040000074032DFDE43EFE8D828E838FF07402124F53A88118E60846601DE58124EEF8862E
:20402000050886060886070DBD00010E8D828E838FF07402124F53E58124EEF8E58124F7BF
:20404000F9E6F70809E6F70809E6F7E58124F7F8E58124FAF9740226F7E4083609F70809F2
:20406000E6F774072AFDE43BFE8C078D828E838FF012554EFD5305038D82C004C003C0020D
:20408000781379377A00122059AF82D002D003D004E58124FAF886820886830886F0EF1222
:2040A0004F53E58124F7F8740426FDE40836FE08860774092AFAE43BFB8A828B838CF01232
:2040C000554EFA5302038A82C007C006C005781379377A00122059AC82D005D006D0078D10
:2040E000828E838FF0EC124F53E58124F3F58102206BE5812406F581AD82AE83AFF0E58123
:2041000024FBF9FA7B007C40C001C002C003C0048D828E838FF07856793E7A00122059150E
:204120008115811581D00187077E0074022FFFE43EFEE904F886057C00ED2FFFEC3EFE748E
:204140000229F886057C00ED2FFFEC3EFE740329F886057C00ED2FFFEC3EFE740429F886F1
:20416000057C00ED2FFFEC3EFE740529F987057C00ED2FFFEC3EFE8F828E83E58124FAF5FA
:204180008102206BC082C083C0F00581E58124F7F88602088603088604E58124FDF88682AB
:2041A0000886830886F012554EFFA88174075FF6E58124FDF8740126FDE40836FE088607F7
:2041C0008D828E838FF012554E5401C40354F8A88146F6E58124FDF8740226FDE40836FE86
:2041E0000886078D828E838FF012554E5401C454F0A88146F6E58124FDF8740326FDE4080F
:2042000036FE0886078D828E838FF012554E5401C42354E0A88146F6E58124FDF87404268F
:20422000FDE40836FE0886078D828E838FF012554E5401030354C0FDA881E642058A828B1F
:20424000838CF0ED124F530ABA00010BE58124FDF8740526FDE40836FE0886078D828E83FE
:204260008FF012554EFDA88174015DF6E58124FDF8740626FDE40836FE0886078D828E832B
:204280008FF012554E540125E0A88146F6E58124FDF8740726FDE40836FE0886078D828EBC
:2042A000838FF012554E540325E025E0A88146F6E58124FDF8740826FDE40836FE088607AE
:2042C0008D828E838FF012554E5403C454F0A88146F6E58124FDF8740926FDE40836FE087F
:2042E00086078D828E838FF012554E5403030354C0FDA881E642058A828B838CF0ED124F35
:2043000053E58124FCF58102206BC082C083C0F0E581240CF58124FBF9FA7B007C40C00176
:20432000C002C003C004E58124EEF886820886830886F07856793E7A001220591581158177
:204340001581D001E58124F2F8741026FAE40836FB088604C001E58124EBF8E6C0E008E68D
:20436000C0E008E6C0E08A828B838CF0788479417A00122059158115811581D0017C028726
:2043800003BB014CC0017C03E58124EBF8C001E58124F3F9740226F7E4083609F70809E682
:2043A000F7D001E58124F1F8741A26FDE40836FE0886078D828E838FF012554EFDE5812481
:2043C000F4F886820886830886F0ED124F53D001E904F88607BF02028002807BC001EC0485
:2043E000FFE58124EBF8EC26FEE40836FD088602E58124F1F8C001E58124F6F9741B26F739
:20440000E4083609F70809E6F7D001E58124F7F886820886830886F012554E8E828D838A4C
:20442000F0124F53EF04FCE58124EBF8EF26FBE40836FE088607E58124F7F8868208868325
:204440000886F012554EA312554EFDFA8B828E838FF0124F53D001740229F886078F067F80
:20446000008C05C3E49E74808FF063F08095F05053C001E58124EBF8C001E58124F6F9EDA3
:2044800026F7E4083609F70809E6F7D0010D8E041CE58124F1F8EC26FCE40836FB08860235
:2044A0008C828B838AF012554EFCE58124F7F886820886830886F0EC124F531EBEFF011F0A
:2044C000D001809FE58124F8F8A605740329F88606BE02028003024556C001ED04FFE581AA
:2044E00024EBF8C001E58124F6F9ED26F7E4083609F70809E6F7D001E58124F1F8741D2666
:20450000FAE40836FD0886068A828D838EF012554EFCE58124F7F886820886830886F0ECA7
:20452000124F538F04E58124F7F8EF04F6E58124EBF8EC26FBE40836FC0886078A828D8389
:204540008EF012554EA312554EFDFA8B828C838FF0124F53D001E92404F987078F067F000D
:20456000E58124F2F8E58124F5F9740826F7E4083609F70809E6F7E58124F8F88602C3E4FD
:204580009E74808FF063F08095F0504CE58124ECF8E58124F8F9EA26F7E4083609F70809F3
:2045A000E6F70A8E05ED14C8E58124F5C826FB08E436FC0886058B828C838DF012554EFB56
:2045C000E58124F8F886820886830886F0EB124F531EBEFF011F80A67F008A828F83E58107
:2045E00024F1F58102206BE581240AF581AD82AE83AFF0E58124F7F98D828E838FF012551A
:204600004EFC74075CF7E58124F7FC04F98D828E838FF012554EA2E3E433F774022CF98DF9
:20462000828E838FF012554EC45401F774032CF98D828E838FF012554EA2E5E433F77404A6
:204640002CF98D828E838FF012554E23235401F774052CF90DBD00010E8D828E838FF01227
:20466000554EFB74015BF774062CF98D828E838FF012554E035401F774072CF98D828E83D3
:204680008FF012554E0303543FFB74035BF774082CF98D828E838FF012554EC4540FFB74FE
:2046A000035BF774092CF98D828E838FF012554E23235403FD74035DF77F007E40E5812483
:2046C000F1F88602088603088605740AC0E0E4C0E0C004C007C0068A828B838DF0786A7960
:2046E000527A00122059E58124FBF581E58124F6F58102206BC082C083C0F0E581241CF515
:204700008124DDF8C3E6940208E6648094805006900000024DB7E58124F1FCFA7B007F4063
:20472000C004C002C003C007E58124DEF886820886830886F078E779457A001220591581BA
:2047400015811581D0048C07E58124E8F8A607087600087640E58124DAF8E58124E5F9E6C9
:20476000F70809E6F70809E6F7E58124E5F8741026FAE40836FB088607C004740AC0E0E4E3
:20478000C0E0E58124E5F8E6C0E008E6C0E008E6C0E08A828B838FF0786A79527A0012207E
:2047A00059E58124FBF581D004E58124E2F8E58124EEF9740226F7E4083609F70809E6F759
:2047C00074052CF9E77037C004E58124E4F8741A26FAE40836FB088604E58124EDF88682AF
:2047E0000886830886F012554EFFA31818A68208A6838A828B838CF0EF124F53D004AF810D
:204800001FE58124E8F8A607087600087640E58124FDFBE58124EBF8A60308760008764052
:204820008C068E057E007F40C004E58124E7F8E6C0E008E6C0E008E6C0E0E58124E7F8E6F8
:20484000C0E008E6C0E008E6C0E08D828E838FF0784C79377A00122059E58124FAF581D0BA
:204860000474072CF9E77003024A30A88118E6084670030248EDC001E58124E4F8C001E5D2
:204880008124E6F9741B26F7E4083609F70809E6F7D001E58124EDF886820886830886F001
:2048A00012554EFE7D00E58124EDF8740126FAE40836FB0886078A828B838FF012554EFFC5
:2048C000E42EFAEF3DFFE58124E7F886820886830886F0EA124F53A3EF124F53E58124ED46
:2048E000F8740226F6E40836F6D001801EE58124E5F8741B26FDE40836FE0886078D828E3C
:20490000838FF0E4124F53A3124F538707BF020280030249ACE58124E5F886030886050850
:204920008606C004746FC0E07478C0E07480C0E08B828D838EF0782479867A011220591533
:204940008115811581D004E58124EEF8740126FBE40836FD0886068B828D838EF012554ECD
:20496000FBE58124E5F886820886830886F0EB124F53E58124E5F8740126FBE40836FD087B
:204980008606E58124EEF886820886830886F012554EFA8B828D838EF0124F53E58124EE0E
:2049A000F8740226F6E40836F6024A80BF03028003024A80E58124FBF8E4F608F6C004E578
:2049C0008124E4F8E58124FAF9E726FA09E70836FB088605E58124FAF87407C396FCE408DE
:2049E00096FFE58124EDF8EC26FCEF0836FF0886068C828F838EF012554E8A828B838DF0FB
:204A0000124F53E58124FAF806B600020806E58124FAF8C3E6940808E664809480D00440DF
:204A20009CE58124EEF8740826F6E40836F68050E58124E5F88605088606088607C0047497
:204A40006FC0E07478C0E07480C0E08D828E838FF0782479867A0112205915811581158125
:204A6000D004E58124E5F8741B26FDE40836FE0886078D828E838FF0E4124F53A3124F5306
:204A800074092CF9E77003024CC9E58124FDF8E608467003024B42C001E58124E4F8741D96
:204AA00026FDE40836FE088607E58124EDF886820886830886F012554EFCE58124EAF8A655
:204AC00004087600E58124EDF8740126FAE40836FB0886048A828B838CF012554EFC7A00E0
:204AE000E58124EAF8EA26FAEC0836FC8D828E838FF0EA124F53A3EC124F53E58124EDF82B
:204B0000740226F6E40836F6D001A88118E60846706EE58124E5F8741B26FAE40836FB088C
:204B200086048D828E838FF012554EFDA312554EFE8A828B838CF0ED124F53A3EE124F53C8
:204B4000803EE58124E5F8741D26FDE40836FE088607E58124E5F8741B26FAE40836FB088C
:204B600086048A828B838CF012554EFAA312554EFB8D828E838FF0EA124F53A3EB124F5394
:204B80008707BF02028003024C34E58124E5F8E58124EBF9740826F7E4083609F70809E638
:204BA000F7E58124EBF88602088603088606746FC0E07478C0E07480C0E08A828B838EF0A9
:204BC000782479867A01122059158115811581E58124EEF8740126FCE40836FD0886068C2C
:204BE000828D838EF012554EFCE58124EBF886820886830886F0EC124F53E58124E5F87475
:204C00000926FCE40836FD088606E58124EEF886820886830886F012554EFB8C828D838E53
:204C2000F0124F53E58124EEF8740226F6E40836F6024D18BF03028003024D18E58124E532
:204C4000F8740826FDE40836FE088607E58124FBF8E4F608F6E58124FBF8E62DFA08E63EFD
:204C6000FB8F04C005C006C007E58124F8F87407C396FEE40896FFE58124EBF8EE26FEEF19
:204C80000836FF0886058E828F838DF012554E8A828B838CF0124F53E58124F8F806B60070
:204CA000020806E58124F8F8C3E6940808E664809480D007D006D005409BE58124EEF874FE
:204CC0000826F6E40836F6804FE58124E5F8740826FAE40836FB088604746FC0E07478C0E8
:204CE000E07480C0E08A828B838CF0782479867A01122059158115811581E58124E5F8746C
:204D00001D26FAE40836FB0886048A828B838CF0E4124F53A3124F53E58124EEF8E5812428
:204D2000E2F9E6C397FB08E60997FC8B078C06E58124E5F8E58124EBF9743426F7E40836F3
:204D400009F70809E6F7E58124DDF8E6C39FFC08E69EFBE58124EBF886820886830886F037
:204D6000EC124F53A3EB124F53E58124E5F8743126FAE40836FB0886048A828B838CF0E5FB
:204D80008124EEF8E6124F53A308E6124F53A308E6124F53E58124DDF8C3E69F08E66480EB
:204DA0008EF063F08095F050067B007C0080048F038E048B828C83E58124E1F58102206B9E
:204DC0007581201257E7E582600302006E79A7E94400601B7A0190799C788D75930CE493BB
:204DE000F2A308B800020593D9F4DAF27593FFE478FFF6D8FD7800E84400600A790075936F
:204E000000E4F309D8FC7889E8440C600C790D900004E4F0A3D8FCD9FA90022AE4F0A3F0DE
:204E2000A3F0A3F09002CBE4F0E4F50FF510F511F512900000F0A3F0A3F0A3F09005DCE493
:204E4000F002006EA8811818C6B2E7C6025101124EF2BC000302538CEF60FA30D502B2D15B
:204E6000E583B4FF030253A2E582B4FF030253A2258340072482400B02538C24831450033A
:204E80000253A2F582EA8DF0A4A8F0EA8EF0A428F8E435F0F9EB8DF0A428E935F0F9E43381
:204EA000CA8FF0A429F9EA35F0FAEBF88EF0A429F9EA35F0FAE433FBEC8DF0A429F9EA354A
:204EC000F0FAE43BFBE88FF0A42AFAEB35F0FBE433CCFD8EF0A42AFAEB35F0FBE43CFCED5A
:204EE0008FF0A42BFBEC35F0FC20E703124F2002536BAA82AB83A2F73392D1F5826002D2DD
:204F0000F7ACF0E58124F9F8E6FD08E6FE0886F008E6A2F73392D5F5836002D2F7AFF022B1
:204F20007804EC7011E58224F8500AF582E4C9CACBFCD8EF22EC7820058220E713D5820190
:204F400022C3E933F9EA33FAEB33FBEC33FCD8EA15822220F71130F6138883A88220F509DD
:204F6000F6A8837583002280FEF280F5F022C013858113C082C083E5812405F581AF130FB8
:204F8000E5132403F8A607087600087640E51324FCFD7E007F40E5132406F9A81308860457
:204FA000E51324FCF886038CF0EBA4F709A7F0E513240604F98704A81308860374012DFA24
:204FC000E43EFE8A828E838FF012554E8BF0A4FBE5132403F8740126FDE40836FE088607E2
:204FE0008D828E838FF012554EFDE51324FCF886078DF0EFA42B2CF7E5132406F9870609B4
:2050000087078E828F83851381D01322C013E581F5132406F581AD82AE83AFF0E51324F8CE
:20502000F8E6084670069000000250F9E51324F8F886030886041BBBFF011CEB4C7003022E
:2050400050C9C003C004A81308A60508A60608A607A8130886820886830886F012554EFAD0
:20506000E51324FAF8E5132404F9E6F70809E6F70809E6F7E5132404F88682088683088691
:20508000F012554EFCEAB504028006D004D0038038A81308740126FAE40836FB0886048A54
:2050A000058B068C07E5132404F8740126FAE40836FB088604E51324FAF8A60208A60308FC
:2050C000A604D004D0030250368D828E838FF012554EFD7F00E51324FAF8860308860408F6
:2050E00086068B828C838EF012554EFB7E00EDC39BFDEF9EFF8D828F83851381D013022049
:205100006B124EF27900E583B58202800D5003125457E583C39582125749E5D0C465D02059
:20512000E117EA2DFAEB3EFBEC3FFC50097401125749EC4480FC02536BC3EA9DFAEB9EFB67
:20514000EC9FFC500FC3E499F9E49AFAE49BFBE49CFCB2D1124F2002536BC013858113050D
:205160008105810581AD82AE83AFF0E51324F8F8E608467006900000025216E51324FAF8E5
:205180008602088603088604E51324F8F8A91309E6F70809E6F7A8130816B6FF020816A872
:2051A0001308E60846604C8D828E838FF0E5132403F812554EF6E5132403F8E66035C0053C
:2051C000C006C0078A828B838CF012554EFFE5132403F8E6B507028008D007D006D00580B3
:2051E00012D007D006D0050DBD00010E0ABA00A60B80A38D828E838FF012554EFD7F008A50
:20520000828B838CF012554EFA7E00EDC39AFDEF9EFF8D828F83851381D01302206BAC83A9
:20522000AB827A007900748E0255E112578C700AE582458345F0700122E430D112F4700B48
:20524000E5F0F47006E58330E7012290800022700AE5F07006E58320E70122907FFF227F35
:205260008E1274C4F58385F08222C013E581F5132408F581AD82AE83AFF0E5132406F8A623
:205280000508A60608A607E51324FAF8A91309E6F70809E6F70809E6F7E51324F8F8E51310
:2052A0002404F9E6F70809E6F7E5132404F88603088604E5132404F816B6FF020816EB4C95
:2052C0006028A8130886820886830886F012554EFCA31818A68208A6838D828E838FF0EC84
:2052E000124F53A3AD82AE8380BFE5132406F886820886830886F0851381D01302206BC0BE
:2053000013858113C082C083C0F005810581A813088602088603088604E51324FAF8E513AC
:205320002404F9E6F70809E6F7E5132404F88606088607E5132404F816B6FF020816EE4F08
:2053400060168A828B838CF0E51324FCF8E6124F53A3AA82AB8380D1A8130886820886836D
:205360000886F0851381D01302206BB98003EA13B34010EA2401FAE43BFBE43CFC50047CDB
:20538000800582BC000EBB000BBA0008E4F5F0F583F58222A2D1E582138CF092F78B838A50
:2053A0008222E4F583F58275F080F4A2D11322E4F583F58275F0C0747F22C0138581137E7E
:2053C000008E8378EE79CE7A01122059D01302206BC013858113AD82AE83AFF0E51324FC96
:2053E000F8E6C0E0C005C006C007E4C0E0C0E0C0E09053BA75F00078D679647A00122059E7
:20540000AE82AF83E58124F9F5818E828F83D01302206BC013E581F51324FAFFC007E51382
:2054200024FAF8E6C0E008E6C0E008E6C0E0E4C0E0C0E0C0E09053BA75F00078D679647A49
:2054400000122059AE82AF83E58124F9F5818E828F83D01302206BE582C583F582A2D13308
:20546000A2D592D11392D5ECCFFCEBCEFBEACDFA22AA82AB8312554E6003A380F8C3E582E3
:205480009AF582E5839BF58302206B124EF230D502B2D1BF0009BC00030253AF0253A2BCD9
:2054A000000302538CE583B4FF0BE582B4FF030253AF02538CE582B4FF030253A2C39583F1
:2054C0005007247F400B02538C24801450030253A2F582C3ED9AEE9BEF9C40111582C3EA3A
:2054E00033F9EB33FAEC33FBE433FC8005E4CCCBCAF9C08275F019C3E99DEA9EEB9FEC94DD
:2055000000D5F002802D400EE99DF9EA9EFAEB9FFBEC9400FCC3B3E833F8E58233F582E548
:205520008333F583C3E933F9EA33FAEB33FBEC33FC80C4B3E4F938FAE43582FBE43583FCE6
:20554000D082500405827C80124F2002538320F71430F6148883A88220F507E6A88375830A
:205560000022E280F7E49322E022C013858113AE82E583FF33E433FD6009C3E49EFBE49F1F
:20558000FC80048E038F04E51324FCF808E630E70FE51324FCF8C3E496FE08E496FF800AED
:2055A000E51324FCF88606088607C005C006C0078B828C83125605AE82AF8315811581D081
:2055C00005ED600DC3E49EFCE49FFD8C828D8380048E828F83D01322FCABF0AA83A982747F
:2055E0009EF582C2D1EC30E716D2D1E9F42401F9EAF43400FAEBF43400FBECF43400FC1210
:205600004F2002536BC013858113AE82AF837D007C00E51324FCF808E6235401FB702FE51F
:205620001324FCF8E626F608E633F6E51324FCF8C3EE96EF08965011E51324FCF808E618CB
:20564000C313C613C608F680050C8C0580C4E51324FCF8C3EE96EF0896400DE51324FCF830
:20566000EEC396FEEF0896FFE51324FCF808E618C313C613C608F68D041DEC70D18E828F56
:2056800083D01322C013858113AE82E583FF33E433FD6009C3E49EFBE49FFC80048E038FEC
:2056A00004E51324FCF808E633E433FF600FE51324FCF8C3E496FA08E496FE800AE51324C3
:2056C000FCF88602088606C007C005C002C0068B828C831256FAAC82AE8315811581D005C8
:2056E000D007EF6D600DC3E49CFDE49EFF8D828F8380048C828E83D01322C013858113AEE6
:2057000082AF837C007D007B10EF235401FAEE2EFEEF33FFEC2CFCED33FDEA6003430401EF
:20572000E51324FCF8C3EC96ED08964010E51324FCF8ECC396FCED0896FD430601EB14FB1C
:2057400070C78E828F83D013226040F82582500274FFF582E824F8501ECCCBCAF9E4CC24D0
:20576000F85014CBCAF9E4CB24F8500BCAF9E4CA24F8500379002224086010F8C3EC13FC4C
:20578000EB13FBEA13FAE913F9D8F1221257EBC3749E95824039790012574930D126E9F451
:2057A0002401F582EAF43400F583EBF43400F5F0ECF43400700AE582458345F0700122E462
:2057C00030E70F22EC20E71489828A838BF02230D10AE4F582F583F5F074802274FFF58202
:2057E000F583F5F0747F2275820022AA82AB83A2F73392D1F5826002D2F7ACF022C01385DD
:205800008113AF8274302FFF24C6501074072FFFE51324FCF8E6600474202FFFE51324F6D0
:20582000F8E6C0E008E6C0E008E6C0E0E51324F9F8E6C0E008E6C0E008E6C0E08F82D0023C
:20584000D001D000122059158115811581D01302206BC013858113E582FFC4540FFEC007AC
:20586000E51324F6F8E6C0E008E6C0E008E6C0E0E51324F9F8E6C0E008E6C0E008E6C0E0CD
:20588000E51324FCF8E6C0E08E8278FD79577A00122059E58124F9F581D00753070FE513E7
:2058A00024F6F8E6C0E008E6C0E008E6C0E0E51324F9F8E6C0E008E6C0E008E6C0E0E5138D
:2058C00024FCF8E6C0E08F8278FD79577A00122059E58124F9F581D01302206BC01385818D
:2058E00013A9828704098705098706098707191919740429F87B20C003E626FAEF2354016E
:20590000FBEA4203A603EC2CFCED33FDEE33FEEF33FFC000E51324FCF8C3EB96D000D0038C
:2059200040148602C000E51324FCF8EAC396FAD000A602430401EB14FAFB70BBA70409A744
:205940000509A70609A707D01302206BC013858113C8E5812428F581E5132407C8A682086E
:20596000A68308A6F008F67B00C200E5132405F87680C003C020E4C0E0C0E0C0E0C0E0E52A
:20598000132407F886820886830886F008E61274E9AA82E58124FCF581D020D003EA601197
:2059A000D200E5132407F8E608E608E608E6B2E7F6C003C020E5132407F8E6C0E008E6C0C9
:2059C000E008E6C0E008E6C0E090FFFF75F07F744B1274E9AA82E58124FCF581D020D00340
:2059E000EA7003025B887A00C003C002C020E4C0E0C0E07420C0E07441C0E0E5132407F8BE
:205A000086820886830886F008E61274E9E58124FCF581D020D002D003E58224FF920140A4
:205A200044C003C002C020E4C0E0C0E07420C0E07441C0E0E5132407F8868208868308864E
:205A4000F008E612548BC8E5132407C8A68208A68308A6F008F6E58124FCF581D020D00211
:205A6000D0030A80838A07C007C003C020E4C0E0C0E07480C0E0743FC0E0E5132407F8869F
:205A8000820886830886F008E61274E9AA82E58124FCF581D020D003D007EA6044C007C0C1
:205AA00003C020E5132407F8E6C0E008E6C0E008E6C0E008E6C0E090000075F020744112DC
:205AC0004E4FC8E5132407C8A68208A68308A6F008F6E58124FCF581D020D003D0071F804C
:205AE00086E5132405F8A60730003AC020E51324F1F8E6C0E008E6C0E008E6C0E0E513244D
:205B0000F4F8E6C0E008E6C0E008E6C0E075822DD002D001D000122059158115811581D043
:205B2000207B018040E51324F8F8E66038C020E51324F1F8E6C0E008E6C0E008E6C0E0E513
:205B40001324F4F8E6C0E008E6C0E008E6C0E075822BD002D001D00012205915811581151F
:205B600081D0207B01E51324FCF87600E51324FAF87600E51324F9F87600E51324F8F87629
:205B800000E51324F7F87600E51324FBF8B6FF07E51324FBF87606E5132410F8E4F608F632
:205BA00008F608763FE51324FBF88605ED604BC003C005C020E4C0E0C0E07420C0E0744183
:205BC000C0E0E5132410F886820886830886F008E612548BAA82AB83AEF0FFE58124FCF519
:205BE00081D020D005E5132410F8A60208A60308A60608A6071DD00380B2C003C003C020F1
:205C0000E5132410F8E6C0E008E6C0E008E6C0E008E6C0E0E5132407F8868208868308866E
:205C2000F008E6125101A81308A68208A68308A6F008F6E58124FCF581D020A813088682B3
:205C40000886830886F008E6C0201274C2C8E5132407C8A68208A68308A6F008F6D020D037
:205C600003E5132407F886820886830886F008E6C0201276B1AA82AB83AEF0FFD020C003BE
:205C8000C020C002C003C006C007A8130886820886830886F008E6124E44C8E513240BC86F
:205CA000A68208A68308A6F008F6E58124FCF581D020D003E5132406F8E5132414F67A0076
:205CC000D003E5132407F8E60846084608467003025D518A070AE5132406F8EF26F9C0035D
:205CE000C002C001C020740AC0E0E4C0E0C0E0C0E0E5132407F886820886830886F008E6BF
:205D0000127562AC82E58124FCF581D020D00174302CF7C020740AC0E0E4C0E0C0E0C0E026
:205D2000E5132407F886820886830886F008E6127624C8E5132407C8A68208A68308A6F06D
:205D400008F6E58124FCF581D020D002D003025CC2EAFF700DEA04FFE5132406F8EA26F81F
:205D60007630E51324FBF8E513240FF9E6F7E5132406F8E5132407F9E6F7E5132428F8A678
:205D800007E513240FF8E6700AE513240FF88602025E6DC007C003C020E513240BF8E6C0D2
:205DA000E008E6C0E008E6C0E008E6C0E090000075F0207441124E4FAC82AD83AEF0FFE500
:205DC0008124FCF581D020E5132424F8A60408A60508A60608A607E5132424F886820886F0
:205DE000830886F008E6C0201274C2AC82AD83AEF0FFD0208F02E5132407F8E5132428F9B8
:205E0000E726F9E5132428F8068C0774302FF78C828D838EF0EAC0201276B1AC82AD83AE32
:205E2000F0FFD020D003C007C003C020C004C005C006C007E5132424F88682088683088651
:205E4000F008E6124E44C8E513240BC8A68208A68308A6F008F6E58124FCF581D020D00355
:205E6000D007E513240FF816D007025D818F06E51324FBF8E6600EE51324FBF8E604FC333B
:205E800095E0FD80047C007D00EC2EFCFE200010E51324F8F8E67008E51324F7F8E6600113
:205EA0000EE51324FAF8E6600302613BE51324FCF8C3EA96400302613BE51324F9F8E67048
:205EC00003025FF2300042C007C006C003E51324F1F8E6C0E008E6C0E008E6C0E0E51324E7
:205EE000F4F8E6C0E008E6C0E008E6C0E075822DD002D001D000122059158115811581D060
:205F000003D006D0070B025F99E51324F8F8E66041C007C006C003E51324F1F8E6C0E00856
:205F2000E6C0E008E6C0E0E51324F4F8E6C0E008E6C0E008E6C0E075822BD002D001D0000E
:205F4000122059158115811581D003D006D0070B8047E51324F7F8E6603FC007C006C003C2
:205F6000E51324F1F8E6C0E008E6C0E008E6C0E0E51324F4F8E6C0E008E6C0E008E6C0E0D0
:205F8000758220D002D001D000122059158115811581D003D006D0070B8B05E51324FCF8FF
:205FA00086048C021CC3EE9A4003026212C007C006C005C004E51324F1F8E6C0E008E6C05A
:205FC000E008E6C0E0E51324F4F8E6C0E008E6C0E008E6C0E0758230D002D001D0001220DD
:205FE00059158115811581D004D005D006D0070D80B08B02E51324FCF88605C0078D071D53
:20600000C3EE9FD0075049C007C006C005C002C020E51324F1F8E6C0E008E6C0E008E6C005
:20602000E0E51324F4F8E6C0E008E6C0E008E6C0E0758220D002D001D00012205915811516
:20604000811581D020D002D005D006D0070A80AB8A03E51324FCF8A605300044C007C00667
:20606000C002E51324F1F8E6C0E008E6C0E008E6C0E0E51324F4F8E6C0E008E6C0E008E6AD
:20608000C0E075822DD002D001D000122059158115811581D002D006D007EA04FB02621B95
:2060A000E51324F8F8E66044C007C006C002E51324F1F8E6C0E008E6C0E008E6C0E0E5135C
:2060C00024F4F8E6C0E008E6C0E008E6C0E075822BD002D001D0001220591581158115812C
:2060E000D002D006D007EA04FB02621BE51324F7F8E6700302621BC007C006C002E513246B
:20610000F1F8E6C0E008E6C0E008E6C0E0E51324F4F8E6C0E008E6C0E008E6C0E075822033
:20612000D002D001D000122059158115811581D002D006D007EA04FB02621B300042C0077F
:20614000C006C003E51324F1F8E6C0E008E6C0E008E6C0E0E51324F4F8E6C0E008E6C0E0F3
:2061600008E6C0E075822DD002D001D000122059158115811581D003D006D0070B02621BA3
:20618000E51324F8F8E66041C007C006C003E51324F1F8E6C0E008E6C0E008E6C0E0E5137D
:2061A00024F4F8E6C0E008E6C0E008E6C0E075822BD002D001D0001220591581158115814B
:2061C000D003D006D0070B8052E51324F7F8E6604AC007C006C003E51324F1F8E6C0E008E4
:2061E000E6C0E008E6C0E0E51324F4F8E6C0E008E6C0E008E6C0E0758220D002D001D00057
:20620000122059158115811581D003D006D0070B80098D03E51324FCF8A6048F051DE5132A
:206220002406F88604E5132406F8ED26F98702C007C006C005C004C003E51324F1F8E6C07F
:20624000E008E6C0E008E6C0E0E51324F4F8E6C0E008E6C0E008E6C0E08A82D002D001D019
:2062600000122059158115811581D003D004D005D006D0070B8D021DEA70AA8B05E5132441
:20628000FBF8E6700302632AC007C006C004C003E51324F1F8E6C0E008E6C0E008E6C0E068
:2062A000E51324F4F8E6C0E008E6C0E008E6C0E075822ED002D001D00012205915811581E5
:2062C0001581D003D004D006D0070B8F05E51324FBF886028A071AEF604EED2CF90D8707A9
:2062E000C006C005C004C003C002E51324F1F8E6C0E008E6C0E008E6C0E0E51324F4F8E635
:20630000C0E008E6C0E008E6C0E08F82D002D001D000122059158115811581D002D003D07B
:2063200004D005D0060B80AC8B05E51324FAF8E6605CE51324FCF8C3EE9650528D07E513B2
:2063400024FCF88604C3EE9C50421CC007C006C004E51324F1F8E6C0E008E6C0E008E6C088
:20636000E0E51324F4F8E6C0E008E6C0E008E6C0E0758220D002D001D000122059158115D3
:20638000811581D004D006D0070F80B98F05E5132405F8B680030264CCC005E51324F1F83B
:2063A000E6C0E008E6C0E008E6C0E0E51324F4F8E6C0E008E6C0E008E6C0E0758265D00263
:2063C000D001D000122059158115811581D005ED04FFE5132405F8E630E740C007E51324D1
:2063E000F1F8E6C0E008E6C0E008E6C0E0E51324F4F8E6C0E008E6C0E008E6C0E075822D44
:20640000D002D001D000122059158115811581D0070FE5132405F8C3E496F6E5132405F871
:20642000E6FA3395E0FEC007C006C002740AC0E0E4C0E08A828E83125684AB821581158183
:2064400074302BFBE51324F1F8E6C0E008E6C0E008E6C0E0E51324F4F8E6C0E008E6C0E0AF
:2064600008E6C0E08B82D002D001D000122059158115811581D002D006D0070FC007740AEE
:20648000C0E0E4C0E08A828E8312556AAC821581158174302CFCE51324F1F8E6C0E008E64B
:2064A000C0E008E6C0E0E51324F4F8E6C0E008E6C0E008E6C0E08C82D002D001D000122051
:2064C00059158115811581D007EF04FD8D82851381D01302206BC013858113C082C083C011
:2064E000F0E5812424F581E513240CF8E4F608F6E5132410F8E5132419F6E5132421C8E557
:20650000132407C82405F6E5132411F8E5132419F6E5132411F8E5132404F9740426F7E54E
:20652000132404F8E5132405F9E6F7E5132404F8E5132406F9E6F7E51324F7F88602088600
:20654000060886078A828E838FF012554EFDE51324F7F874012AF6E43E08F608A607EDFFF1
:2065600070030274B0BF25028003027473C200C201C202C203C204C205C206C207E51324E8
:206580001EF8E4F6FDFEE513241FF876FF0876FFE51324F7F8E5132408F9E6F70809E6F7F8
:2065A0000809E6F7E5132408F886820886830886F0E513240BF912554EF7A31818A682086B
:2065C000A683E5132408F8E51324F7F9E6F70809E6F70809E6F7E513240BF8B62542E5137D
:2065E00024FAF8E6C0E008E6C0E008E6C0E0A81308E6C0E008E6C0E008E6C0E0E513240B57
:20660000F88682D002D001D000122059158115811581E513240CF806B60002080602653730
:20662000E513240BF8B6300050030266C4E513240BF8E624C650030266C4E513241FF8B67F
:20664000FF3C08B6FF38C020C005C00690000A124F6EAA82AF8315811581D020E513240B95
:20666000F886037C00EB2AFAEC3FFFEA24D0FDEF34FFFE4D60030265A4D2010265A4C0068A
:20668000C005C020E513241FF8E6C0E008E6C0E090000A124F6EAC82AF8315811581D02029
:2066A000D005D006E513240BF886027B00EA2CFCEB3FFFE513241FF8EC24D0F6EF34FF089F
:2066C000F60265A4E513240BF8B62E1DE513241FF8B6FF0608B6FF0280030265A4E5132442
:2066E0001FF8E4F608F60265A4E513240BF8B66100401CE513240BF8E624854012E51324F2
:206700000BF8E654DFF6E5132418F876018007E5132418F87600E513240BF8B6200302673A
:20672000E8E513240BF8B62B030267E3E513240BF8B62D030267DEE513240BF8B6420302BA
:2067400067EDE513240BF8B643030267F7E513240BF8B64403026D65E513240BF8B646035C
:20676000026D8BE513240BF8B648030265A4E513240BF8B64903026D65E513240BF8B64AE0
:20678000030265A4E513240BF8B64C028064E513240BF8B64F03026D70E513240BF8B650B9
:2067A00003026B01E513240BF8B6530302686CE513240BF8B654030265A4E513240BF8B65B
:2067C0005503026D79E513240BF8B65803026D82E513240BF8B65A030265A4026D8FD2004B
:2067E0000265A4D2020265A4D2030265A4D2050265A4D2060265A4300515E51324F6F8E6D0
:2068000014FCE51324F6F8A604A80486048014E51324F6F8E624FEFBE51324F6F8A603A882
:20682000038604C006C005C020E51324FAF8E6C0E008E6C0E008E6C0E0A81308E6C0E0085F
:20684000E6C0E008E6C0E08C82D002D001D000122059158115811581D020D005D006E513C3
:20686000240CF806B600020806026DEAE5132419FCE51324F6F8E624FDFBE51324F6F8A6DE
:2068800003A8038602088603088607A804A60208A60308A6078A828B838FF0C006C005C0FE
:2068A00004C020787179547A00122059C8E5132408C8A68208A683D020D004D005D006E5D8
:2068C00013241FF8B6FF1408B6FF10E5132408F8E513241FF9E6F70809E6F730000302691B
:2068E00082E5132408F8C3E69D08E69E4003026982E5132408F8E5132412F9EDC396F7EE8A
:20690000089609F7E513240CF88606088605E5132412F88602088607E5132412F816B6FF66
:20692000020816EA4F6047C006C005C004C020E51324FAF8E6C0E008E6C0E008E6C0E0A8D0
