:020000040000FA
:04000000024E9632E4
:01000B0032C2
:0100130032BA
:01001B0032B2
:0100230032AA
:03002B0002134974
:01003300329A
:01003B003292
:0300430002373E43
:03004B0002147F1D
:01005300327A
:01005B003272
:01006300326A
:20006B0002113E0202DAC082C083E5812404F5817C007D00C374C89C74808DF063F0809550
:20008B00F0500B7490C39CFA74019DFB80048C028D03E58124FBF886078F82C007C005C097
:2000AB0004C003C002785979877A011211DCD002D003D004D005D007E58124FDF8E4F608DB
:2000CB00F6E58124FDF8C3E69A08E664808BF063F08095F0501DE58124FDF8A98119E6F7AC
:2000EB000809E6F7E58124FDF8740126F6E40836F680CE8F82C005C004C003C002786F7912
:20010B00877A011211DCD002D003D004D005E58124FDF8E4F608F674C8C39AFEE49BFFE534
:20012B008124FDF8C3E69E08E664808FF063F08095F0501DE58124FDF8A98119E6F708090D
:20014B00E6F7E58124FDF8740126F6E40836F680CE0CBC00010DC3EC9490ED648094815062
:20016B000302007FE58124FAF58122E5812408F5817E0C7F78E58124F9FD7C07EC2DF98EA8
:20018B00828F83E0FBA3AE82AF83A7031CEC30E7EB74072DF987077E0074062DF987048CC8
:2001AB0003E44207EB420689047B007A40C007C006C0057402C0E0E4C0E0C004C003C002DA
:2001CB0090030875F000784B79527A001211DCE58124FBF581907925E493FAA3E493FBA3BB
:2001EB00E493FCC004C003C00274F5C0E0C4C0E0C002C003C004900002D002D001D000126B
:20020B0011DC15811581D002D003D004D005D006D007907925E493FAA3E493FBA3E493FCF5
:20022B00C005C004C003C002C007C006C002C003C004900003D002D001D0001211DC158134
:20024B001581D002D003D004D005907925E493FCA3E493FEA3E493FFC007C006C005C004C7
:20026B007419C0E0E4C0E0C004C006C007900001D002D001D0001211DC15811581D004D09E
:20028B0005D006D00790792BE493FCA3E493FEA3E493FF7B007A40C007C006C0047408C007
:2002AB00E0E4C0E0C005C003C002C004C006C00790000BD002D001D0001211DCE58124FBA2
:2002CB00F581D004D006D007E58124F8F58122788079127A001211DC78B279287A0012119E
:2002EB00DC789D79877A011211DC78FF79867A011211DC758207786F79877A011211DC90A9
:20030B000001120071788779937A011211DC78F879C27A011211DC78D679BF7A011211DCA4
:20032B00908B8375F00178C979117A001211DC78B4798D7A011211DC9000021200719077A2
:20034B009A75F080784C79AB7A011211DC9077B775F080784C79AB7A011211DC90624AE090
:20036B00FFBF8D028042BF9502802CBFA5028005BFB54480119077C875F080784C79AB7A17
:20038B00011211DC80319077CF75F080784C79AB7A011211DC80209077D675F080784C79E5
:2003AB00AB7A011211DC800F9077DD75F080784C79AB7A011211DC9077E475F080784C7946
:2003CB00AB7A011211DC906277E0FF0F8F82788679AB7A011211DC9077EC75F080784C79D4
:2003EB00AB7A011211DC78C079867A011211DC900000785179287A001211DCE4C0E0C0E085
:20040B00C0E0900AA475F0007803798E7A011211DC158115811581788379C87A011211DC1A
:20042B00787579AC7A011211DC120176E4C0E0C0E0C0E0900AC475F0007803798E7A011206
:20044B0011DC1581158115819078A4E493FDA3E493FEA3E493FFC007C006C0057401C0E02A
:20046B00E4C0E0C005C006C007900081D002D001D0001211DC15811581D005D006D00790DA
:20048B007894E493FDA3E493FEA3E493FFC007C006C0057401C0E0E4C0E0C005C006C00763
:2004AB00900081D002D001D0001211DC15811581D005D006D00778F479117A001211DC9001
:2004CB00864975F080783F79BA7A011211DC78C679867A011211DC90000412007178CC796E
:2004EB00867A011211DC9002F0E0605778FE790E7A001211DCE5828583F045F06040781C9A
:20050B00790F7A001211DCAE82AF83C007C006786579127A001211DCAC82AD83D006D007F4
:20052B00EEC39CFEEF9DFF1EBEFF011FC374FF9E747F9F500978E4790B7A001211DC900235
:20054B00F0E4F078C479957A011211DCAE82AF83EE708A907919E493FDA3E493FEA3E493F6
:20056B00FFC007C005C006C007D002D001D0001211DCAD82AE83D0078D088E09E508450948
:20058B0070030204E8781B79A57A011211DC907910E493FDA3E493FEA3E493FFC007C00679
:2005AB00C00578BA79A87A011211DCAA82AB83ACF0D005D006D007C0077480C0E0E4C0E047
:2005CB00C005C006C0078A828B838CF0D002D001D0001211DCAD82AE8315811581D0078DC6
:2005EB00088E09E508450970030204E885088285098378AC79A87A011211DC907976E493E0
:20060B00FDA3E493FEA3E493FFC007C006C005C005C006C007D002D001D0001211DCD005B6
:20062B00D006D0070204E8E5812409F58190002DE0F5F0A3E045F0700A900030E4F0A3F030
:20064B0002079F786579127A001211DCAE82AF83E58124FCF8A60608A60790002DE0FBA38A
:20066B00E0FCA3E0FD8B828C838DF0E58124F8F812552FF6A312552F08F674022BFAE43C82
:20068B00FE8D078A828E838FF012552FFAA312552FFEE58124F8F8EA26FAEE0836FEE58146
:2006AB0024FCF8EAC396FAEE0896FEE58124FAF8A60208A60674042BFBE43CFC8B828C83A2
:2006CB008DF0A881181812552FF6A312552F08F6A312552F08F6A8811818E608467003023D
:1506EB000789A881181886820886830886F012552FFFA31255DB
:200700002FFAA8811818740226FDE40836FC0886068D828C838EF012552FFDA312552FFEA6
:20072000ED2FFBEE3AFCE58124FCF8EBC396FBEC0896FCE58124FAF8C3EB96EC0896501D84
:20074000ED2FFFEE3AFAE58124FCF8EFC396FFEA0896FAE58124FAF8A60708A602A88118FB
:2007600018740426FFE40836FE0886058F828E838DF0A881181812552FF6A312552F08F656
:20078000A312552F08F60206E1E58124FCF8E58124FAF9900030E726F009E70836A3F0E5DB
:2007A0008124F7F5810211EEE581240FF581AD82AE83AFF07C0112552FFAA312552FFBBA1D
:2007C0000005BB0002800BBA5905BB0002801E020BCA90002DE4F0A3F0A3F07C008D828EB2
:2007E000838FF07459125029A3E4125029EC7006758201020BDBE58124EEF8B68702800319
:200800000209ACE58124EBF8A9811919E6F70809E6F70809E6F790002DE0FAA3E0FBA3E007
:20082000FCEA4B6078C005C006C00774072AFDE43BFE8C078D828E838FF012552FFDA31224
:20084000552FFEA312552FFFE58124FBF8C005C006C00786820886830886F01228BD1581EB
:20086000158115816008D007D006D005802FD007D006D00574042AFAE43BFB8A828B838CD5
:20088000F012552FFAA312552FFBA312552FFC90002DEAF0EBA3F0ECA3F002081690002DFE
:2008A000E0FAA3E0FBA3E0FC90002DE0F5F0A3E045F070030207DBE58124F2F874042AF6C4
:2008C000E43B08F608A604E58124F2F886820886830886F0E58124F5F912552FF7A312552F
:2008E0002F09F7A312552F09F7E58124F5F8E6084670030207DBC005C006C007E58124F2C0
:20090000F8740726FDE40836FE0886078D828E838FF012552FFDA312552FFEA312552FFFEB
:20092000E58124FBF8C005C006C00786820886830886F01228BD1581158115816008D00759
:20094000D006D0058048E58124F2F8740426FDE40836FE0886078D828E838FF012552FFD2E
:20096000A312552FFEA312552FFFE58124EFF886820886830886F0ED125029A3EE1250296C
:20098000A3EF125029D007D006D0050208B7E58124F2F886820886830886F012552FFAA3B9
:2009A00012552FFBA312552FFC0208B7E58124EEF8B6820280030207DBE58124FBF8E4F648
:2009C00008F608760090002DE0FAA3E0FBA3E0FCE58124F8F8A60208A60308A604E58124F8
:2009E000F8F8E6084670030207DBE58124F8F886820886830886F0C007C006C00578047924
:200A0000AE7A011211DCE5828583F0D005D006D00745F07003020B88C005C006C007E581D8
:200A200024F5F88605088606088607E58124F5F8E58124F2F9740726F7E4083609F708093A
:200A4000E6F7E58124F2F886820886830886F012552FFAA312552FFBA312552FFCC005C030
:200A600005C006C0077488C0E08A828B838CF0781079967A011211DCAE82AF83E58124FCB9
:200A8000F581D005EE4FD007D006D0056003020B73E58124F5F886820886830886F0E41265
:200AA0005029A3125029A3125029E58124FBF8E608466056C005C006C007E58124F8F874BA
:200AC0000426FAE40836FB088604E58124F5F8740426FDE40836FE0886078D828E838FF0DD
:200AE00012552FFDA312552FFEA312552FFF8A828B838CF0ED125029A3EE125029A3EF1226
:200B00005029D007D006D005802FE58124F8F8740426FAE40836FB0886048A828B838CF0D4
:200B200012552FFAA312552FFBA312552FFC90002DEAF0EBA3F0ECA3F0E58124F8F8740436
:200B400026FAE40836FB0886048A828B838CF0E4125029A3125029A3125029C007C006C018
:200B600005783279067A001211DCD005D006D0070209B9C007C006C00578E4790B7A0012CA
:200B800011DCD005D006D007E58124F8F8E58124FBF9E6F70809E6F70809E6F7E58124F8B3
:200BA000F8740426FAE40836FB0886048A828B838CF0E58124F8F812552FF6A312552F0819
:200BC000F6A312552F08F60209DD8D828E838FF0E4125029A3125029758203E58124F1F55A
:200BE000810211EE900AA475F00078D879967A011211DC0211EEC082C083C0F005810581B5
:200C0000058178E4790B7A001211DCE58124FBF8A9811919740726F7E4083609F70809E66B
:200C2000F7A881181886820886830886F012552FFDA312552FFEA312552FFFED4E7003021B
:200C40000CC190002DE0FDA3E0FEA3E0FFED4E6070E58124FBF8C005C006C00786820886BA
:200C6000830886F01228BD15811581158160028031900ABBE0FAA3E0FBA3E0FCA881181822
:200C800086820886830886F0EA125029A3EB125029A3EC125029783279067A001211DC0271
:200CA0000D3074042DFAE43EFB8F048A828B838CF012552FFDA312552FFEA312552FFF8090
:200CC0008C900ABBE0FDA3E0FEA3E0FFA881181886820886830886F0ED125029A3EE1250F8
:200CE00029A3EF125029E58124FBF8740426FDE40836FE08860790002DE0FAA3E0FBA3E049
:200D0000FC8D828E838FF0EA125029A3EB125029A3EC125029E58124FBF890002DE6F00878
:200D2000E6A3F008E6A3F0783279067A001211DCE58124FAF5810211EEAD82AE83AFF0C05D
:200D400007C006C005E58124F9F8E6C0E008E6C0E08D828E838FF0784579AD7A011211DC76
:200D600015811581D005D006D0078D828E838FF078F6790B7A001211DC0211EEAD82AE835A
:200D8000AFF0C007C006C005789479AD7A011211DCD005D006D00774022DFAE43EFB8F04E7
:200DA0008A828B838CF0E58124FCF8E6125029A308E61250298D828E838FF078F6790B7A87
:200DC000001211DC0211EEAD82AE83AFF0C007C006C005789479AD7A011211DCD005D0066B
:200DE000D0078D828E838FF078F6790B7A001211DC0211EEAD82AE83AFF0C007C006C005C0
:200E000078D379AD7A011211DCD005D006D0078D828E838FF078F6790B7A001211DC021148
:200E2000EEC082C083C0F0A881181886820886830886F012552FFBA312552FFCE58124F956
:200E4000F88602088607EA2BFBEF3CFCA881181886820886830886F0EB125029A3EC1250EF
:200E600029783279067A001211DC1581158115810211EEAD82AE83AFF074072DFDE43EFE20
:200E80008D828E838FF012552FFDA312552FFEA312552FFFE4C0E0C0E0C0E08D828E838F3E
:200EA000F01228BD1581158115817003048001E4FD7F008D828F830211EEAD82AE83AFF010
:200EC00012552FFBA312552FFC74022DFDE43EFE8D828E838FF012552FFDA312552FFEED36
:200EE0002BFBEE3CFC8B828C830211EEAFF012552FFDA312552FFE8D828E830211EE90006F
:200F00002DE0FDA3E0FEA3E0ED4EB40100B39200E433FE7F008E828F830211EE78FE790EDA
:200F20007A001211DCE5828583F045F0600A900030E0FEA3E0FF80047E007F008E828F8377
:200F40000211EEC082C083C0F090002DE0FAA3E0FBA3E0FCA8811818C002C003C00486821D
:200F60000886830886F01228BD1581158115816002803474042AFDE43BFE8C078D828E83A4
:200F80008FF012552FFDA312552FFEA312552FFF90002DEDF0EEA3F0EFA3F0783279067A90
:200FA000001211DC021038EA4B604274042AFDE43BFE8C078D828E838FF012552FFDA312DB
:200FC000552FFEA312552FFFA8811818C005C006C00786820886830886F01228BD15811573
:200FE00081158160088D028E038F0480BAEA4B604774042AFAE43BFBA8811818740426FDFF
:20100000E40836FE0886078D828E838FF012552FFDA312552FFEA312552FFF8A828B838CD4
:20102000F0ED125029A3EE125029A3EF125029783279067A001211DCA8811818740426FD79
:20104000E40836FE0886078D828E838FF0E4125029A3125029A3125029A881181874072677
:20106000FDE40836FE0886078D828E838FF0E4125029A3125029A312502915811581158192
:201080000211EE20811B90000A75F040780479AE7A011211DCAE82AF83EE4F6004C20080F2
:2010A00002D200A200E433FE7F008E828F830211EEAE82AF83BE8105BF00028006BE8210C6
:2010C000BF000D740255ABFF7E008F828E8380039000000211EEAE82AF83BE8005BF0002B5
:2010E0008008BE8153BF00508011438F02538CFE53F3FD53FDFD9000018040E58124FCF826
:20110000E608466029E5AB20E129E4C0E0C0E090000A75F040784579AD7A011211DC158102
:2011200015815389FDC2C543AB02D2BD800553ABFDC2BD90000180039000000211EEC020B6
:20114000C0E0C0F0C082C083C007C006C005C004C003C002C001C000C0D075D000C2AFE573
:201160008930E14190000A75F040780479AE7A011211DCE5828583F045F060297410C0E0F7
:20118000E4C0E090000A75F040784579AD7A011211DC1581158190789E75F08078D079991E
:2011A0007A011211DC5389FDC2C5D2AFD0D0D000D001D002D003D004D005D006D007D08345
:2011C000D082D0F0D0E0D02032AFF0AE83E582900032F0EEA3F0EFA3F00211EEC09FC8C057
:2011E000E0E9C0E0EA540F539FF0429FC822D09F220211EE0211EE900000E4F5F00211EE9F
:201200000211EEAE82AF83C2AF8E048F051EBEFF011FEC4D60030080F0D2AF0211EEAE821B
:20122000AF83C007C006786579127A001211DCAC82AD83D006D007C007C006C005C0047875
:201240006579127A001211DCAA82AB83D004D005D006D007EAC39CFAEB9DFBC3EA9EEB9FDA
:2012600040D50211EE850F828510830211EEAC11AD127E007F008C828D838EF0EF0211EE24
:2012800075C6C053C6BFE59E20E6FB43C630E5C6B59EFB900000E595F0E4A3F0A3F0A3F02E
:2012A000AC967D007E008E078D068C057C00900000E0F8A3E0F9A3E0FAA3E0FB900000EC61
:2012C00028F0ED39A3F0EE3AA3F0EF3BA3F0AC977D008D078C067C007D00900000E0F8A3DB
:2012E000E0F9A3E0FAA3E0FB900000EC28F0ED39A3F0EE3AA3F0EF3BA3F0900000E0FCA346
:20130000E0FDA3E0FEA3E0FF900000ECF074012DA3F0E43EA3F0E43FA3F0900000E0A3E0EE
:20132000A3E0FEA3E08E97900000E0A3E0FDA3E0A3E08D96900000E0FCA3E0FDA3E0FEA35B
:20134000E0FF8C95D2AD0211EEC0E0C082C083C007C006C005C004C003C002C001C000C00C
:20136000D075D000C2AF900000E595F0E4A3F0A3F0A3F0AC967D007E008E078D068C057CDE
:2013800000900000E0F8A3E0F9A3E0FAA3E0FB900000EC28F0ED39A3F0EE3AA3F0EF3BA399
:2013A000F0AC977D008D078C067C007D00900000E0F8A3E0F9A3E0FAA3E0FB900000EC28DB
:2013C000F0ED39A3F0EE3AA3F0EF3BA3F0900000E0FCA3E0FDA3E0FEA3E0FF900000ECF091
:2013E00074012DA3F0E43EA3F0E43FA3F0900000E0A3E0A3E0FEA3E08E97900000E0A3E03E
:20140000FDA3E0A3E08D96900000E0FCA3E0A3E0A3E08C957401250FF50FE43510F510AE07
:201420000FAF10EE547F6002800B74012511F511E43512F5129002F07401F0C2C7D2AFD08C
:20144000D0D000D001D002D003D004D005D006D007D083D082D0E03275E40975AF0075E6B8
:2014600044C2DED2B90211EEAE82AF8353E6FB8EDC8FDD43E60475AF0043E6400211EEC015
:2014800020C0E0C0F0C082C083C007C006C005C004C003C002C001C000C0D075D000C2B9EB
:2014A00053AFFD53E6BF785D79887A011211DCD2B9D0D0D000D001D002D003D004D005D0FB
:2014C00006D007D083D082D0F0D0E0D02032C082C083C0F0900B01E0FAA3E0FBA3E0FC8AC6
:2014E000828B838CF078DC799D7A011211DCAA82AB83ACF0EA4B606D74032AFDE43BFE8CBD
:2015000007C004C003C002E58124FBF8E6C0E008E6C0E008E6C0E08D828E838FF078B87914
:20152000C47A011211DCAE82AF83158115811581D002D003D004EE4F60088A828B838CF095
:2015400080298A058B068C078D828E838FF0787579A37A011211DCAD82AE83AFF08D028EF1
:20156000038F04808F90000075F0001581158115810211EE90797FE493FDA3E493FEA3E473
:2015800093FFC007C005C006C007D002D001D0001211DCAD82AE83D0078D048E07ED4E7026
:2015A000037C01FF8C828F830211EE058105810581AD82AE83AFF0ED4E700302165C742044
:2015C0002DFAE43EFB8F048A828B838CF012552FFAA312552FFBA312552FFC8A828B838CFF
:2015E000F0C007C006C00578DC799D7A011211DCAA82AB83ACF0D005D006D007A8811818F4
:20160000A60208A60308A604A8811818E60846604B907973E493FAA3E493FBA3E493FCC0AF
:2016200004C003C002E58124FBF8E6C0E008E6C0E008E6C0E0C005C006C007C002C003C06B
:2016400004901E4475F000D002D001D0001211DCE58124FAF581D002D003D004158115811E
:2016600015810211EE05810581AD82AE83AFF0741C2DFAE43EFB8F048A828B838CF0125564
:201680002FFCBC040050068C037C0080047B047C00C005C006C0078BF005F07B017C008045
:2016A00006EB2BFBEC33FCD5F0F71BBBFF011CC006C005C004C003787479157A001211DC45
:2016C000AA82AF83D003D004D005D006C005C002C0078B828C83125044AE82AF831581153D
:2016E00081D005E58124FCF8A60608A607D007D006D005A88118E60846603CC007C006C0D5
:2017000005783979287A001211DCAB82AC83E58124FCF8E6C0E008E6C0E08B828C83125588
:20172000E6AB82AC8315811581D005D006D007A88118A60308A6048D028E038F0474052DC4
:20174000FDE43EFEC002C003C00474ABC0E07415C0E07400C0E0E58124F9F8E6C0E008E638
:20176000C0E08D828E838FF078C179C87A011211DCE58124F8F581158115810211EEC082CF
:20178000C083C0F0058105810581E58124F5F8E6084670030219C0E58124F5F8A9811919F8
:2017A000E6F70809E6F70809E6F7E58124FBF8742026FDE40836FE0886078D828E838FF0E8
:2017C00012552FFAA312552FFBA312552FFCC007C006C005E58124FBF8E6C0E008E6C0E02D
:2017E00008E6C0E08A828B838CF0784379A17A011211DC158115811581D005D006D007E54D
:201800008124F5F8A9811919E6F70809E6F70809E6F7A8811818740326FAE40836FB088686
:20182000048A828B838CF012552FFAA312552FFBA312552FFC8A828B838CF0C007C006C032
:2018400005789B79E27A011211DCD005D006D007A8811818740626FAE40836FB0886048AED
:20186000828B838CF012552FFAA312552FFBA312552FFCC007C006C005C002C003C0049038
:201880000AF475F000789E79DC7A011211DC158115811581D005D006D007E58124F5F886BF
:2018A00002088603088604C007C006C005C002C003C004900AEA75F000789E79DC7A011287
:2018C00011DC158115811581D005D006D0078D828E838FF012552FFDA312552FFEA3125564
:2018E0002FFF8D828E838FF078DC799D7A011211DCAD82AE83ED4E604DE58124FBF8741BE3
:2019000026FDE40836FE0886078D828E838FF0E4125029E58124FBF8741C26FDE40836FE91
:201920000886078D828E838FF0E4125029E58124FBF886820886830886F0786579167A000A
:201940001211DC0219C0E58124FBF8740526FDE40836FE0886078D828E838FF0788A79CBFA
:201960007A011211DCE58124FBF88605088606088607900B01E0FAA3E0FBA3E0FCC005C0C4
:2019800006C0078A828B838CF0784379A17A011211DC158115811581E58124FBF8860508C3
:2019A0008606088607C005C006C007900AE075F000789E79DC7A011211DC1581158115812E
:2019C000E58124FAF5810211EEC082C083E5812409F58124F0F8860308860408860574064A
:2019E0002BFAE43CFE8D078A828E838FF012552FFAA312552FFEA312552FFF8A828E838FC9
:201A0000F0E58124FBF812552FF6A312552F08F6A312552F08F674032AFAE43EFE8A828E0A
:201A2000838FF0A881181812552FF6A312552F08F6A312552F08F6E58124EDF8E58124F860
:201A4000F9E6F70809E6F70809E6F7E58124F8F8741B26FAE40836FE0886078A828E838F4A
:201A6000F012552FFAC002E58124F5F8E6C0E008E6C0E0C003C004C005E58124F2F88682D1
:201A80000886830886F0787E79177A001211DCE58124FBF5817F00C007E58124F4F8E6C05B
:201AA000E008E6C0E0E58124FAF8E6C0E008E6C0E008E6C0E0E58124F4F886820886830803
:201AC00086F0782779C57A011211DCE58124F924F5F5810211EEAD82AE83AFF0E58124FBA2
:201AE000F886820886830886F0C007C006C005786579167A001211DCD005D006D007740327
:201B00002DFDE43EFE8D828E838FF012552FFDA312552FFEA312552FFF8D828E838FF078C3
:201B2000B279E17A011211DC0211EEC082C083C0F0E5812406F58124F8F8740626FAE40849
:201B400036FB0886048A828B838CF012552FFAA312552FFBA312552FFCA8811818A602082A
:201B6000A60308A604E58124F2F88602088603088604E58124FBF8741C2AF6E43B08F60899
:201B8000A604E58124FBF886820886830886F012552FFFE58124F0F8E62FFEE58124FBF8F0
:201BA00086820886830886F0EE125029E58124FBF886820886830886F012552F24FA503BC2
:201BC000E58124FBF886820886830886F0E4125029741B2AFDE43BFE8C07C002C003C004D3
:201BE0008D828E838FF012552FFC0C8D828E838FF0EC125029D004D003D002741B2AFDE47F
:201C00003BFE8C078D828E838FF012552FFDC002C003C004E58124FBF8740626FCE4083642
:201C2000FE0886078C828E838FF012552FFCC3ED9CD004D003D002402AC002C003C004E584
:201C40008124F5F8E6C0E008E6C0E008E6C0E090000178C979197A001211DCE58124FAF5FA
:201C6000818022C002C003C004E58124F5F886820886830886F078D6791A7A001211DC157B
:201C80008115811581E58124F7F5810211EEC082C083C0F0E5812406F58124F8F8740626B0
:201CA000FAE40836FB0886048A828B838CF012552FFAA312552FFBA312552FFCA881181893
:201CC000A60208A60308A604E58124F2F88602088603088604741C2AFDE43BFE8C078D8264
:201CE0008E838FF0E4125029E58124FBF8741B2AF6E43B08F608A604E58124FBF88682085D
:201D000086830886F012552FFFE58124F0F8E62FFEE58124FBF886820886830886F0EE120E
:201D20005029E58124FBF886820886830886F0E58124FBF912552FF7A8811818740626FD15
:201D4000E40836FE0886078D828E838FF012552FFDE58124FBF8C3E69D402AC002C003C02A
:201D600004E58124F5F8E6C0E008E6C0E008E6C0E090000278C979197A001211DCE58124DE
:201D8000FAF5818022C002C003C004E58124F5F886820886830886F078D6791A7A0012115C
:201DA000DC158115811581E58124F7F5810211EEC082C083C0F0058105810581E58124F547
:201DC000F88602088603088604741C2AFDE43BFE8C078D828E838FF0E4125029A881181892
:201DE000741B2AF6E43B08F608A604A881181886820886830886F012552FFFE58124F3F86B
:201E0000E62FFEA881181886820886830886F0EE125029C002C003C004E58124F8F8E6C0DD
:201E2000E008E6C0E008E6C0E090000078C979197A001211DCE58124FAF581E58124FAF557
:201E4000810211EE058105810581AD82AE83AFF0ED4E700302209174202DFAE43EFB8F04A3
:201E60008A828B838CF012552FFAA312552FFBA312552FFC8A828B838CF0C007C006C005EB
:201E800078DC799D7A011211DCAA82AB83ACF0D005D006D007A8811818A60208A60308A686
:201EA00004A8811818E608467003021F5EC005C006C007E58124FBF8740326FDE40836FE16
:201EC0000886078D828E838FF012552FFDA312552FFEA312552FFFC005740AC0E08D828E4C
:201EE000838FF078CD79E47A011211DCAE82AF831581D00575820AC007C00678AC79AA7AA8
:201F0000011211DCAC82AD83D006D007EEB5040CEFB50508D007D006D0058042D007D00661
:201F2000D005A881181886020886030886048A828B838CF0C007C006C005787579A37A015C
:201F40001211DCAA82AB83ACF0D005D006D007A8811818A60208A60308A604021EA1A881BC
:201F60001818E608467003022091A8811818740626FAE40836FB0886048A828B838CF0128D
:201F8000552FFAA312552FFBA312552FFCEA4B7003022091E58124F9F8B6000608B6000208
:201FA000802FE58124F9F8B6010708B60003022032E58124F9F8B6020608B600028043E583
:201FC0008124F9F8B6030708B60003022091022062E58124F7F8E6C0E008E6C0E0C005C0A1
:201FE00006C007E58124F9F886820886830886F078B0791D7A001211DCE58124FBF58102CE
:202000002091E58124F7F8E6C0E008E6C0E0C005C006C007E58124F9F8868208868308860E
:20202000F0788E791C7A001211DCE58124FBF581805FE58124F7F8E6C0E008E6C0E0C00570
:20204000C006C007E58124F9F886820886830886F0782B791B7A001211DCE58124FBF58136
:20206000802FC005C006C007E58124FBF8E6C0E008E6C0E008E6C0E0E58124F3F8868208BB
:20208000868378C979197A001211DCE58124FAF5811581158115810211EEC082C083C0F0F9
:2020A000E5812412F58175821B780579AB7A011211DCAA82AB83ACF0E58124FBF8A60208BE
:2020C000A60308A6049003E2E0701C9003E27401F0783979287A001211DCE5828583F09030
:2020E00003E3F0E5F0A3F09003E3E0FBA3E0FC9003E3E0F5F0A3E045F0700B9003E3740179
:202100002BF0E43CA3F09003E3E0FBA3E0FC9003E374012BF0E43CA3F0C003C00475820AE0
:20212000788A79AA7A011211DC15811581E58124FBF886820886830886F078CE79147A0073
:202140001211DCAA82AB83ACF0E58124F8F8A60208A60308A604E58124F8F8E608466003F4
:20216000022283900AE075F000785079DB7A011211DCAD82AE83AFF0E58124F8F8A6050817
:20218000A60608A607E58124F8F8E608467003022283E58124F8F8740326FDE40836FE08DA
:2021A0008607E58124FBF8E6C0E008E6C0E008E6C0E08D828E838FF0788079C47A01121101
:2021C000DC158115811581E58124F8F8741B26FDE40836FE0886078D828E838FF0E412509B
:2021E00029E58124F8F8741C26FDE40836FE0886078D828E838FF0E4125029E58124F8F84C
:20220000742026FDE40836FE088607E58124F8F8741D26FAE40836FB0886048D828E838FC9
:20222000F0EA125029A3EB125029A3EC1250298A828B838CF0E4125029A3125029A31250CE
:20224000298A828B838CF078C7799D7A011211DCE58124F8F88602088603088604900B012F
:20226000E0FDA3E0FEA3E0FFC002C003C0048D828E838FF07873799E7A011211DC1581156F
:20228000811581E58124F8F8E608467003022705E58124F8F8742026FAE40836FB088604FB
:2022A0008A828B838CF012552FFDA312552FFEA312552FFF8D828E838FF0C004C003C0029E
:2022C000788879A27A011211DCAE82AF83D002D003D004C3EE9408EF6480948040030227EE
:2022E00005900AEA75F000C004C003C002785079DB7A011211DCAD82AE83AFF0D002D0036D
:20230000D004E58124F5F8A60508A60608A607E58124F5F8E60846700302267EE58124F51B
:20232000F8E58124EFF9740626F7E4083609F70809E6F7900AF475F000C004C003C00278D8
:202340005079DB7A011211DCAD82AE83AFF0D002D003D004E58124EFF886820886830886CF
:20236000F0ED125029A3EE125029A3EF125029ED4E700302264AE58124F5F8E58124F2F9B0
:20238000740326F7E4083609F70809E6F7C004C003C002784B79E07A011211DCAD82AE835A
:2023A000AFF0D002D003D004E58124F2F886820886830886F0ED125029A3EE125029A3EFD4
:2023C000125029ED4E7003022608E58124EFF886820886830886F012552FFDA312552FFEC2
:2023E000A312552FFFA8811818A60508A60608A607758209C004C003C00278AC79AA7A012D
:202400001211DCE5828583F0D002D003D00445F07029C002C003C004E58124FBF8740626B1
:20242000FAE40836FB0886048A828B838CF07408125029D004D003D0028044C002C003C0D4
:2024400004E58124FBF8740626FDE40836FE088607758209C007C006C005C00278AC79AA4E
:202460007A011211DCAB82D002D005D006D0078D828E838FF0EB125029D004D003D002A82B
:2024800081181886820886830886F0E58124ECF9E7125029A309E7125029A309E7125029D7
:2024A000A8811818740326FDE40836FE0886078D828E838FF0E58124E6F8E6125029A30851
:2024C000E6125029A308E612502975820DC004C003C00278AC79AA7A011211DCAE82AF83FF
:2024E000D002D003D004BE015EBF005BE58124F5F8E58124F2F9E6F70809E6F70809E6F787
:202500008A828B838CF012552FFDA312552FFEA312552FFFC004C003C002E58124EFF8E683
:20252000C0E008E6C0E008E6C0E08D828E838FF07858799F7A011211DC158115811581D04C
:2025400002D003D0048059E58124F5F8E58124F2F9E6F70809E6F70809E6F78A828B838CAE
:20256000F012552FFDA312552FFEA312552FFFC004C003C002E58124EFF8E6C0E008E6C07B
:20258000E008E6C0E08D828E838FF07873799E7A011211DC158115811581D002D003D00477
:2025A0008A828B838CF012552FFDA312552FFEA312552FFF8D828E838FF078DC799D7A01FF
:2025C0001211DCAC82AB83AAF0E58124F5F88605088606088607C005C006C0078C828B836D
:2025E0008AF01228BD15811581158160028016E58124F8F886820886830886F07865791633
:202600007A001211DC02273FE58124EFF886820886830886F012552FFDA312552FFEA31252
:20262000552FFFC004C003C002C005C006C007900AF475F000789E79DC7A011211DC15810E
:2026400015811581D002D003D004E58124F5F88605088606088607C004C003C002C005C0DC
:2026600006C007900AEA75F000789E79DC7A011211DC158115811581D002D003D0048A8278
:202680008B838CF012552FFAA312552FFBA312552FFC8A828B838CF0788879A27A01121168
:2026A000DCE5828583F045F0705BE58124F8F88602088603088604900B01E0FDA3E0FEA31D
:2026C000E0FFC002C003C0048D828E838FF0784379A17A011211DC158115811581E5812498
:2026E000F8F88602088603088604C002C003C004900AE075F000789E79DC7A011211DC151D
:2027000081158115817401C0E0E4C0E07404C0E0E4C0E0E58124E2F8E6C0E008E6C0E00857
:20272000E6C0E0E58124E5F886820886830886F0782779C57A011211DCE58124F9F581E5E0
:202740008124EBF5810211EE907993E493FDA3E493FEA3E493FFC007C006C005C005C00654
:20276000C007D002D001D0001211DCD005D006D0070211EE907979E493FDA3E493FEA3E408
:2027800093FFC007C005C006C007D002D001D0001211DCAD82AE83D0078D828E830211EEC4
:2027A000AE82AF8390797CE493FBA3E493FCA3E493FDC005C003C004C0058E828F83D0028E
:2027C000D001D0001211DCAB82AC83D0058B828C830211EE90797FE493FDA3E493FEA3E470
:2027E00093FFED4E601DC007C005C006C007D002D001D0001211DCAD82AE83D0078D828E30
:202800008380039000000211EE900AEA75F000784A79DA7A011211DC900AF475F000784AF4
:2028200079DA7A011211DC900AE075F000784A79DA7A011211DC0211EE43B404AFBD7E0077
:20284000ACBC7D00EC4206ED42078E828F830211EEAE82AF8353B4F39061897408F075E16E
:20286000E3906199E030E0F97C007D00C3EC9410ED64809480400EEE4F600A8E028F03BA00
:202880000326BB8023EE2EFAEF33FB9061A7E0F85300017900E84202E94203EA2AFEEB33B7
:2028A000FF0CBC00C70D80C48FBC8EBC75E1EF0211EE9062707404F0D2AF0211EEE5812488
:2028C000FCC3C8C0E0C082E608467006E5824583601218E58296F58208E58396428208E501
:2028E000F0964582D082C8D0E0C822AD82AE83AFF0E58124FCF886048D828E838FF0EC1233
:2029000050290DBD00010EE58124FCF80886048D828E838FF0EC1250290211EEAD82AE83DE
:20292000AFF074012DFAE43EFB8F048A828B838CF012552FFC7A008D828E838FF012552FD5
:20294000FD7F004202EF42048A828C830211EEAD82AE83AFF012552FFB7C000DBD00010E81
:202960008D828E838FF012552FFD7F004204EF4203E58124FCF886078FF005F08006EC2C0F
:20298000FCEB33FBD5F0F78B047B00E58124FAF8E62458F58208E63479F583E4937E0052AD
:2029A00004EE5203E58124FAF886077408C39FFF8FF005F08007C3EB13FBEC13FCD5F0F67D
:2029C0008C820211EEC082C083C0F0E5812407F58124EDF8C3E6940808E6648094805048E0
:2029E000E58124EDF8E6C0E008E6C0E0E58124EDF8E6C0E008E6C0E0E58124EDF886820852
:202A000086830886F0784F79297A001211DCAC82E58124FCF58124F7F88682088683088669
:202A2000F0EC125029022C84E58124EFF8E608466003022B417408C0E0E4C0E0E58124EBF2
:202A4000F88682088683125665AB82AC8315811581E58124FDF8E4F608F6E58124FDF8C377
:202A6000E69B08E664808CF063F08095F05052C003C004E58124F5F8E58124FBF9E726FC08
:202A800009E70836FD088606E58124EFF8E58124FBF9E726FA09E70836FB0886078A828B2C
:202AA000838FF012552FFA8C828D838EF0125029E58124FBF806B600020806D004D00380ED
:202AC00099E58124EDF8740756FE7F004F7003022C84E58124F7F8E58124FDF9E726C0E086
:202AE00009E70836C0E008E6C0E0E58124F9F8D0E0F618D0E0F618D0E0F6E58124F1F8E585
:202B00008124FDF9E726FA09E70836FC088605C006C007E4C0E0C0E08A828C838DF0784F46
:202B200079297A001211DCAF82E58124FCF58124FAF886820886830886F0EF125029022CF8
:202B4000847408C0E0E4C0E0E58124EBF88682088683125665AE82AF8315811581E58124E6
:202B6000FDF8E4F608F6E58124FDF8C3E69E08E664808FF063F08095F04003022BFEC006E5
:202B8000C007E58124F5F8E58124FBF9E726FA09E70836FB088607E58124EFF8E58124FBBE
:202BA000F9E726FC09E70836FD088606C007C003C0027408C0E0E4C0E0E58124E8F8E6C058
:202BC000E008E6C0E08C828D838EF0784F79297A001211DCAE82E58124FCF581D002D00338
:202BE000D0078A828B838FF0EE125029E58124FBF806B600020806D007D006022B66E581FD
:202C000024EDF8A98119740756F7097700A88118E60846606FE58124F7F8E58124FDF9E7FC
:202C200026FB09E70836FC088605E58124F1F8E58124FDF9E726FA09E70836FE088607C03B
:202C400005C004C003E58124FCF8E6C0E008E6C0E0E58124EAF8E6C0E008E6C0E08A828E3C
:202C6000838FF0784F79297A001211DCAF82E58124FCF581D003D004D0058B828C838DF02E
:202C8000EF125029E58124F6F5810211EE05810581AD82AE83AFF0A88118E4F608F68D8290
:202CA0008E838FF012552F602874012DFAE43EFB8F048A828B838CF012552FFA7C00A8814F
:202CC00018EA26F6EC0836F674022DFDE43EFE80CDA881188682088683158115810211EE22
:202CE000C082C083C0F0E58124F8F886037C00E58124F9F886027410C39AFAE58124F6F8CA
:202D00008607EAC39FFA8AF005F08006EB2BFBEC33FCD5F0F7A88118188682088683088603
:202D2000F012552FFF8C06EE4207A881181886820886830886F0EF125029A881181874010D
:202D400026FDE40836FE0886078D828E838FF012552FFAEB42028D828E838FF0EA12502929
:202D60001581158115810211EEC082C083C0F0E5812404F58124F0F8C3E6940808E6648034
:202D800094805050E58124F2F886020886030886048A828B838CF012552FFAE58124F0F8C8
:202DA000E6C0E008E6C0E0C002E58124F2F8E6C0E008E6C0E0E58124F5F88682088683081D
:202DC00086F078E0792C7A001211DCE58124FBF58102300CE58124F5F8E608466003022E90
:202DE000E87408C0E0E4C0E0E58124EEF88682088683125665AB82AC8315811581E58124E3
:202E0000FDF8E4F608F6E58124FDF8C3E69B08E664808CF063F08095F05052C003C004E56E
:202E20008124F8F8E58124FBF9E726FC09E70836FD088606E58124F0F8E58124FBF9E726BA
:202E4000FA09E70836FB0886078A828B838FF012552FFA8C828D838EF0125029E58124FBE5
:202E6000F806B600020806D004D0038099E58124F0F8740756FE7F004F700302300CE581A8
:202E800024F2F8E58124FDF9E726FB09E70836FC0886058B828C838DF012552FFB8E0574AE
:202EA00008C39DF5F005F0EB8002C313D5F0FBFBE58124FAF8E58124FDF9E726FA09E708D7
:202EC00036FC088605C006C007C003E4C0E0C0E08A828C838DF078E0792C7A001211DCE5C6
:202EE0008124FBF58102300C7408C0E0E4C0E0E58124EEF88682088683125665AE82AF8326
:202F0000158115817C007D00C3EC9EED64808FF063F08095F05072C006C007E58124F0F8D6
:202F2000EC26FAED0836FB0886078A828B838FF012552FFAE58124F8F8EC26FBED0836FEF1
:202F4000088607C007C006C005C0047408C0E0E4C0E0C002E58124ECF8E6C0E008E6C0E0E2
:202F60008B828E838FF078E0792C7A001211DCE58124FBF581D004D005D006D0070CBC0025
:202F8000010DD007D006022F08E58124F0F8A98119740756F7097700A88118E60846606CFF
:202FA000E58124F2F8EC26FAED0836FB0886078A828B838FF012552FFAA881188606740864
:202FC000C39EFEE58124F5F8E62EF5F005F0EA8002C313D5F0FBFAE58124FAF8EC26FCEDBA
:202FE0000836FD088607A88118E6C0E008E6C0E0C002E4C0E0C0E08C828D838FF078E07958
:203000002C7A001211DCE58124FBF581E58124F9F5810211EEC082C083C0F0E5812418F54A
:203020008124E6F8740826FAE40836FB0886048A828B838CF012552FFA7C00C004C0027426
:2030400008C0E0E4C0E08A828C83125665AF82AE8315811581D002D0045302077C00EA4C1A
:203060007004FBFC80047B017C00EB2FFBEC3EFCE58124F1F8A60308A604E58124F1F87479
:203080000226FAE40836FF8A828F83789679A77A011211DCE5828583F045F070069000008D
:2030A0000233BF78E179A87A011211DCAA82AB83ACF0E58124FCF8A60208A60308A604E5C4
:2030C0008124E6F8740326FDE40836FE0886078D828E838FF012552FFCE58124FCF8868267
:2030E0000886830886F0EC125029E58124FCF8740126FAE40836FB0886048D828E838FF069
:2031000012552FA312552F8A828B838CF012502978E179A87A011211DCAD82AE83AFF0E5E7
:203120008124F9F874022DF6E43E08F608A607E58124F9F88602088603088604E58124F1EA
:20314000F8E6C0E008E6C0E0E4C0E08A828B838CF078E079527A001211DC158115811581EB
:20316000E58124F5F8E4F608F6E58124E6F8740526FAE40836FE0886078A828E838FF0129C
:20318000552FFDA312552FFEA312552FFFAA811AE58124E9F8A6028D828E838FF0E58124BE
:2031A000EBF812552FF6E58124EBF8E670030233BCC00274012DFAE43EFB8F048A828B83C1
:2031C0008CF012552FFAE58124F6F8A602087600C007C006C005C0027408C0E0E4C0E0E5AC
:2031E0008124EEF88682088683125665AB82AC8315811581D002D005D006D007E58124F206
:20320000F8A60308A604E58124EAF8B61A00D00250030232BEC002E58124EAF88682C0070B
:20322000C006C005780579AB7A011211DCAA82AB83ACF0D005D006D007E58124EBF8A6025B
:2032400008A60308A604E58124F4F8E58124EEF9740756F7097700E58124F8F8E58124F2E6
:20326000F9E726FA09E70836FB088604C007C006C005C002E58124F2F8E6C0E008E6C0E0F7
:20328000E58124E5F8E6C0E008E6C0E008E6C0E0E58124E5F8E6C0E008E6C0E08A828B8390
:2032A0008CF07869792D7A001211DCE58124F9F581D002D005D006D007D0020233A0C005D9
:2032C000C006C007E58124E8F88682C007C006C005C00278AC79AA7A011211DCAB82AC83BE
:2032E000D002D005D006D0078A057E007F40C007C006C005C002C003C0048D828E838FF074
:2033000078EB79287A001211DC15811581D002D005D006D007E58124E6F8E58124E9F9E6F6
:20332000F7097700097740E58124F2F8E58124ECF9740756F7097700E58124F6F8E5812429
:20334000F0F9E726FB09E70836FC088607C007C006C005C002E58124F0F8E6C0E008E6C003
:20336000E0E58124E3F8E6C0E008E6C0E008E6C0E0E58124E3F8E6C0E008E6C0E08B828C54
:20338000838FF07869792D7A001211DCE58124F9F581D002D005D006D007D007D006D0055C
:2033A000E58124F5F8E58124F7F9E726F609E70836F674022DFDE43EFE023197900001E5F5
:2033C0008124E5F5810211EEE5812414F58178BA79A87A011211DCAD82AE83AFF09000027A
:2033E000C007C006C005786979A87A011211DCE5828583F0D005D006D00745F070089000E1
:2034000000F5F002373374012DFAE43EFB8F048A828B838CF012552FFC7A008D828E838FBE
:20342000F012552F7F002AFAEF3CFC8A828C83784979987A011211DCAD82AE83AFF0E58170
:2034400024FCF8A60508A60608A607E58124FCF8E608467008900000F5F002373378BA798A
:20346000A87A011211DCAA82AB83ACF0E58124F9F8A60208A60308A604E58124FCF87408B4
:2034800026FDE40836FE0886078D828E838FF012552FFD7F00C007C0057408C0E0E4C0E077
:2034A0008D828F83125665AC82AB8315811581D005D0075305077F00ED4F7004FEFF8004DB
:2034C0007E017F00EE2CFEEF3BFF8E828F83786979A87A011211DCE5828583F045F0700803
:2034E000900000F5F0023733E4FEFFE58124FCF8740526FBE40836FC0886058B828C838D98
:20350000F0E58124EFF812552FF6A312552F08F6A312552F08F6E58124EDF8A68116E5813E
:2035200024EDF8E58124F2F9E6F7E58124EFF886820886830886F012552FFD7003023726C3
:20354000E58124EFF8740126FAE40836FB0886048A828B838CF012552FFAE58124F7F8A671
:2035600002087600C007C006C0057408C0E0E4C0E08E828F83125665AB82AC831581158162
:20358000D005D006D007E58124F5F8A60308A604BD1A005003023647E58124F3F874075EE0
:2035A000F6087600C006C007E58124F7F8E58124F3F9E726FA09E70836FB088607E58124CC
:2035C000EBF886068E047D007E40C007C006E58124F3F8E6C0E008E6C0E0E58124EDF8E644
:2035E000C0E008E6C0E0C002C003C0078C828D838EF078C579297A001211DCE58124F9F5E5
:2036000081D006D007E58124F0F886057E007F40E58124EDF886820886830886F012552FA6
:20362000FCC007C006C005C006C0078C8278C879AA7A011211DC158115811581D006D00755
:20364000D007D00602370AA981197700E904F87600E58124F3F874075EF6087600C006C01D
:2036600007E58124F7F8C001E58124F2F9E726FA09E70836FB088607D00189068E047D0060
:203680007E40C007C006C001E58124F2F8E6C0E008E6C0E0E58124ECF8E6C0E008E6C0E014
:2036A000C002C003C0078C828D838EF078C579297A001211DCE58124F9F581D001D006D05A
:2036C0000789077E007D408F828E838DF0781C79297A001211DCAE82AF83E58124EDF88673
:2036E000820886830886F012552FFDC007C006C006C0078D82788A79AA7A011211DC1581C8
:203700001581D006D007D007D006E58124F7F8E62EFE08E63FFFE58124EFF8740226F6E41B
:203720000836F602352AE58124FCF886820886830886F0C8E58124ECF581C80211EEC02082
:20374000C0E0C0F0C082C083C007C006C005C004C003C002C001C000C0D075D000C2AFC270
:20376000C07F008FF005F07D017E008006ED2DFDEE33FED5F0F7ABD17C00EB5205EC5206A4
:20378000ED4E60408F068EF005F07401800225E0D5F0FBF4F5D1EF75F003A42401F58274C5
:2037A0000335F0F583E0FCA3E0FDA3E0FEEC4D60138C828D838EF0C00778D879967A011291
:2037C00011DCD0070FBF02004099D2AFD0D0D000D001D002D003D004D005D006D007D0836C
:2037E000D082D0F0D0E0D02032AF82BF02028005BF030C80057582028008758208800375A1
:2038000082000211EE900B2FE0FEA3E0FF8E828F830211EEAF83E582900B2FF0EFA3F00201
:2038200011EEC082C083C0F0058105810581A88118E4F608F6E4FAFCE58124FBF8E608461E
:203840007003023BCFC002C004E58124F9F8740826FAE40836FB0886048A828B838CF012F5
:20386000552FFABA02028007D004D002023B06E58124F9F8740726FAE40836FB0886048A4D
:20388000828B838CF0E58124FCF812552FF6D004D002A8811818E6704FC002C004E581245E
:2038A000F9F8740926FAE40836FB0886048A828B838CF012552FD004D002702CC002C004D7
:2038C000E58124F9F8740426FAE40836FB0886048A828B838CF012552FFABA0107D004D09A
:2038E000020239E5D004D002A8811818E66049C002C004E58124F9F8740926FAE40836FB5D
:203900000886048A828B838CF012552FD004D0027026C002C004E58124F9F8740426FAE430
:203920000836FB0886048A828B838CF012552FD004D00270030239E5A8811818B60348C03D
:2039400002C004E58124F9F8740926FAE40836FB0886048A828B838CF012552FFABA0302F5
:203960008006D004D002801FE58124F9F8740426FAE40836FB0886048A828B838CF01255BD
:203980002FD004D002605EA8811818B60223C002C004E58124F9F8740926FAE40836FB089D
:2039A00086048A828B838CF012552FD004D0027034A8811818E66031C002C004E58124F92E
:2039C000F8740926FAE40836FB0886048A828B838CF012552FFABA02028006D004D0028013
:2039E00008D004D0027A017C00C002C004E58124F9F8740426FAE40836FB0886048A828B43
:203A0000838CF012552FD004D0026003023B7FA8811818E6702CC002C004E58124F9F874FC
:203A20000926FAE40836FB0886048A828B838CF012552FFABA0307D004D002023AFCD00412
:203A4000D002A8811818E6702CC002C004E58124F9F8740926FAE40836FB0886048A828BD5
:203A6000838CF012552FFABA0207D004D002023AFCD004D002A8811818E4B6020104FB601B
:203A80002BC002C004E58124F9F8740926FAE40836FC0886078A828C838FF012552FFABAC6
:203AA0000206D004D0028054D004D002EB601FE58124FBF8740926FDE40836FE0886078D15
:203AC000828E838FF012552FFDBD0302802EA8811818B603028003023B7FE58124FBF8748D
:203AE0000926FDE40836FE0886078D828E838FF012552FFDBD02028003023B7FA8811876FC
:203B0000010876008079E58124FBF886820886830886F012552FFFBF02028063E58124FB59
:203B2000F8740426FDE40836FE0886078D828E838FF012552F7026E58124FBF8740926FD55
:203B4000E40836FE0886078D828E838FF012552FFD54036008A881187601087600E58124FF
:203B6000FBF8740726FDE40836FE0886078D828E838FF012552FFD540360047A017C00E536
:203B80008124F5F8E608466020E58124F5F886050886060886078D828E838FF0A88118E6EE
:203BA000125029A308E6125029E58124F2F8E60846601CE58124F2F8860508860608860712
:203BC0008D828E838FF0EA125029A3EC125029E58124FAF5810211EEC082C083C0F0E58121
:203BE0002404F581A88118E4F608F6E58124FAF8E608467006900000023CA9AC811C7B00AD
:203C00007A40E58124FAF8741026FDE40836FE088607C004C003C002E4C0E0C0E0C0E08D78
:203C2000828E838FF0782279387A001211DCE58124FAF581A88118E60846606AE58124FAF1
:203C4000F8741B26FDE40836FE0886078D828E838FF0E58124FDF812552FF6A312552F081A
:203C6000F6C007C006C005780579387A001211DCAA82AC83D005D006D007E58124FDF8E613
:203C8000B5020708E6B50402801C8D828E838FF012552FFDA312552FFEBDFF05BEFF0280B8
:203CA000059000008003900001E58124F9F5810211EEAF82BF02067E027F0080047E087FE1
:203CC00000C3E49E74808FF063F08095F050281EBEFF011FE58124FBF8EE26FBEF0836FCAC
:203CE0000886058B828C838DF012552FFBBBFF0280CF90000080039000010211EEC082C055
:203D000083C0F0058105810581E58124FBF8E608467006900000023F23E58124FBF87410C2
:203D200026FAE40836FB08860474092AFDE43BFE8C078D828E838FF0A881181812552FF6DC
:203D4000A8811818E66013A8811818B602067E027F00800A7E087F0080047E007F00A88162
:203D600018A60608A607EE4F6040E58124FBF8740826FDE40836FE088607C004C003C002D3
:203D8000C005C006C007E58124F8F8868278B2793C7A001211DCAE82AF83158115811581D3
:203DA000D002D003D004EE4F6043E58124F5F8E608467003023E47C004C003C002743CC04C
:203DC000E07479C0E07480C0E0E58124EFF886820886830886F0788079C47A011211DC1516
:203DE0008115811581D002D003D004805AA88118B6020608B600028006900000023F23E5A5
:203E00008124F5F8E60846603EE58124FBF8740826FDE40836FE088607C004C003C002C064
:203E200005C006C007E58124EFF886820886830886F0788079C47A011211DC1581158115F8
:203E400081D002D003D00474072AFAE43BFB8A828B838CF012552FFF600FBF02067D027E51
:203E600000800A7D087E0080047D007E008D038E04ED4E6031C004C003E58124F9F8E6C0A0
:203E8000E008E6C0E008E6C0E08F8278B2793C7A001211DCAE82AF83158115811581D003C6
:203EA000D004EE4F6034E58124F2F8E608466070743CC0E07479C0E07480C0E0E58124EFFB
:203EC000F886820886830886F0788079C47A011211DC1581158115818046BB0205BC00029C
:203EE0008005900000803CE58124F2F8E60846602FE58124FBF88605088606088607C005C4
:203F0000C006C007E58124EFF886820886830886F0788079C47A011211DC1581158115819B
:203F2000900001E58124FAF5810211EEC082C083C0F0E581240AF58124EEF8860208860393
:203F40000886047406C0E0E4C0E0C0E08A828B838CF078E079527A001211DC15811581151E
:203F600081E58124F4F8741026FAE40836FB08860474052AFDE43BFE8C078D828E838FF008
:203F800012552F20E018E58124EEF886050886060886078D828E838FF07401125029740834
:203FA0002AFDE43BFE8C078D828E838FF012552FFDBD0200400302406F74072AFDE43BFE86
:203FC0008C078D828E838FF012552FFD5403700302405C74092AFDE43BFE8C078D828E8340
:203FE0008FF012552FFD54036072C002C003C004E58124F1F8741D26FDE40836FE08860761
:204000008D828E838FF012552FFDA312552FFEE58124F1F8741B26FBE40836FC0886078BD6
:20402000828C838FF012552FFBA312552FFCEDB50306EEB504028008D004D003D002801CB9
:20404000D004D003D00274042AFDE43BFE8C078D828E838FF07401125029801374042AFDC7
:20406000E43BFE8C078D828E838FF0E4125029AF811FE58124F7F8A607087600087640E5EC
:204080008124FDFF7E007D40C004C003C002E58124F4F8E6C0E008E6C0E008E6C0E0C0071C
:2040A000C006C0058A828B838CF0782279387A001211DCE58124FAF581D002D003D004E5C3
:2040C0008124FDF8E60846601FE58124EEF8860508860608860774032DFDE43EFE8D828E11
:2040E000838FF07402125029A88118E60846601DE58124EEF886050886060886070DBD00DD
:20410000010E8D828E838FF07402125029E58124EEF8E58124F7F9E6F70809E6F70809E644
:20412000F7E58124F7F8E58124FAF9740226F7E4083609F70809E6F774072AFDE43BFE8CA4
:20414000078D828E838FF012552FFD5305038D82C004C003C00278E979377A001211DCAF3A
:2041600082D002D003D004E58124FAF886820886830886F0EF125029E58124F7F8740426A0
:20418000FDE40836FE08860774092AFAE43BFB8A828B838CF012552FFA5302038A82C00761
:2041A000C006C00578E979377A001211DCAC82D005D006D0078D828E838FF0EC125029E53F
:2041C0008124F3F5810211EEE5812406F581AD82AE83AFF0E58124FBF9FA7B007C40C0015B
:2041E000C002C003C0048D828E838FF0782C793F7A001211DC158115811581D00187077E63
:204200000074022FFFE43EFEE904F886057C00ED2FFFEC3EFE740229F886057C00ED2FFFF2
:20422000EC3EFE740329F886057C00ED2FFFEC3EFE740429F886057C00ED2FFFEC3EFE741D
:204240000529F987057C00ED2FFFEC3EFE8F828E83E58124FAF5810211EEC082C083C0F09A
:204260000581E58124F7F88602088603088604E58124FDF886820886830886F012552FFFE9
:20428000A88174075FF6E58124FDF8740126FDE40836FE0886078D828E838FF012552F54D0
:2042A00001C40354F8A88146F6E58124FDF8740226FDE40836FE0886078D828E838FF01207
:2042C000552F5401C454F0A88146F6E58124FDF8740326FDE40836FE0886078D828E838F1B
:2042E000F012552F5401C42354E0A88146F6E58124FDF8740426FDE40836FE0886078D8285
:204300008E838FF012552F5401030354C0FDA881E642058A828B838CF0ED1250290ABA00E3
:20432000010BE58124FDF8740526FDE40836FE0886078D828E838FF012552FFDA8817401D1
:204340005DF6E58124FDF8740626FDE40836FE0886078D828E838FF012552F540125E0A802
:204360008146F6E58124FDF8740726FDE40836FE0886078D828E838FF012552F540325E01D
:2043800025E0A88146F6E58124FDF8740826FDE40836FE0886078D828E838FF012552F5457
:2043A00003C454F0A88146F6E58124FDF8740926FDE40836FE0886078D828E838FF01255B3
:2043C0002F5403030354C0FDA881E642058A828B838CF0ED125029E58124FCF5810211EEDF
:2043E000C082C083C0F0E581240CF58124FBF9FA7B007C40C001C002C003C004E58124EEB1
:20440000F886820886830886F0782C793F7A001211DC158115811581D001E58124F2F874BD
:204420001026FAE40836FB088604C001E58124EBF8E6C0E008E6C0E008E6C0E08A828B83B3
:204440008CF0785A79427A001211DC158115811581D0017C028703BB014CC0017C03E58191
:2044600024EBF8C001E58124F3F9740226F7E4083609F70809E6F7D001E58124F1F8741A89
:2044800026FDE40836FE0886078D828E838FF012552FFDE58124F4F886820886830886F005
:2044A000ED125029D001E904F88607BF02028002807BC001EC04FFE58124EBF8EC26FEE4F0
:2044C0000836FD088602E58124F1F8C001E58124F6F9741B26F7E4083609F70809E6F7D0D8
:2044E00001E58124F7F886820886830886F012552F8E828D838AF0125029EF04FCE5812477
:20450000EBF8EF26FBE40836FE088607E58124F7F886820886830886F012552FA312552F14
:20452000FDFA8B828E838FF0125029D001740229F886078F067F008C05C3E49E74808FF00A
:2045400063F08095F05053C001E58124EBF8C001E58124F6F9ED26F7E4083609F70809E6D5
:20456000F7D0010D8E041CE58124F1F8EC26FCE40836FB0886028C828B838AF012552FFC62
:20458000E58124F7F886820886830886F0EC1250291EBEFF011FD001809FE58124F8F8A689
:2045A00005740329F88606BE0202800302462CC001ED04FFE58124EBF8C001E58124F6F9C1
:2045C000ED26F7E4083609F70809E6F7D001E58124F1F8741D26FAE40836FD0886068A820D
:2045E0008D838EF012552FFCE58124F7F886820886830886F0EC1250298F04E58124F7F808
:20460000EF04F6E58124EBF8EC26FBE40836FC0886078A828D838EF012552FA312552FFD1E
:20462000FA8B828C838FF0125029D001E92404F987078F067F00E58124F2F8E58124F5F9F1
:20464000740826F7E4083609F70809E6F7E58124F8F88602C3E49E74808FF063F08095F09F
:20466000504CE58124ECF8E58124F8F9EA26F7E4083609F70809E6F70A8E05ED14C8E581D2
:2046800024F5C826FB08E436FC0886058B828C838DF012552FFBE58124F8F88682088683AA
:2046A0000886F0EB1250291EBEFF011F80A67F008A828F83E58124F1F5810211EEE58124CC
:2046C0000AF581AD82AE83AFF0E58124F7F98D828E838FF012552FFC74075CF7E58124F761
:2046E000FC04F98D828E838FF012552FA2E3E433F774022CF98D828E838FF012552FC45411
:2047000001F774032CF98D828E838FF012552FA2E5E433F774042CF98D828E838FF0125598
:204720002F23235401F774052CF90DBD00010E8D828E838FF012552FFB74015BF774062CA4
:20474000F98D828E838FF012552F035401F774072CF98D828E838FF012552F0303543FFB73
:2047600074035BF774082CF98D828E838FF012552FC4540FFB74035BF774092CF98D828E70
:20478000838FF012552F23235403FD74035DF77F007E40E58124F1F88602088603088605C0
:2047A000740AC0E0E4C0E0C004C007C0068A828B838DF0784B79527A001211DCE58124FBE3
:2047C000F581E58124F6F5810211EEC082C083C0F0E581241CF58124DDF8C3E6940208E6F5
:2047E000648094805006900000024E8DE58124F1FCFA7B007F40C004C002C003C007E581DD
:2048000024DEF886820886830886F078BD79467A001211DC158115811581D0048C07E5810B
:2048200024E8F8A607087600087640E58124DAF8E58124E5F9E6F70809E6F70809E6F7E529
:204840008124E5F8741026FAE40836FB088607C004740AC0E0E4C0E0E58124E5F8E6C0E02D
:2048600008E6C0E008E6C0E08A828B838FF0784B79527A001211DCE58124FBF581D004E5C8
:204880008124E2F8E58124EEF9740226F7E4083609F70809E6F774052CF9E77037C004E5B0
:2048A0008124E4F8741A26FAE40836FB088604E58124EDF886820886830886F012552FFF7F
:2048C000A31818A68208A6838A828B838CF0EF125029D004AF811FE58124E8F8A6070876E4
:2048E00000087640E58124FDFBE58124EBF8A6030876000876408C068E057E007F40C00400
:20490000E58124E7F8E6C0E008E6C0E008E6C0E0E58124E7F8E6C0E008E6C0E008E6C0E081
:204920008D828E838FF0782279387A001211DCE58124FAF581D00474072CF9E77003024BFF
:2049400006A88118E6084670030249C3C001E58124E4F8C001E58124E6F9741B26F7E40872
:204960003609F70809E6F7D001E58124EDF886820886830886F012552FFE7D00E58124EDB4
:20498000F8740126FAE40836FB0886078A828B838FF012552FFFE42EFAEF3DFFE58124E702
:2049A000F886820886830886F0EA125029A3EF125029E58124EDF8740226F6E40836F6D0ED
:2049C00001801EE58124E5F8741B26FDE40836FE0886078D828E838FF0E4125029A3125057
:2049E000298707BF02028003024A82E58124E5F88603088605088606C004743CC0E07479D4
:204A0000C0E07480C0E08B828D838EF0788079C47A011211DC158115811581D004E58124F8
:204A2000EEF8740126FBE40836FD0886068B828D838EF012552FFBE58124E5F8868208861E
:204A4000830886F0EB125029E58124E5F8740126FBE40836FD088606E58124EEF8868208AF
:204A600086830886F012552FFA8B828D838EF0125029E58124EEF8740226F6E40836F602DD
:204A80004B56BF03028003024B56E58124FBF8E4F608F6C004E58124E4F8E58124FAF9E7A8
:204AA00026FA09E70836FB088605E58124FAF87407C396FCE40896FFE58124EDF8EC26FCD0
:204AC000EF0836FF0886068C828F838EF012552F8A828B838DF0125029E58124FAF806B688
:204AE00000020806E58124FAF8C3E6940808E664809480D004409CE58124EEF8740826F647
:204B0000E40836F68050E58124E5F88605088606088607C004743CC0E07479C0E07480C03D
:204B2000E08D828E838FF0788079C47A011211DC158115811581D004E58124E5F8741B2695
:204B4000FDE40836FE0886078D828E838FF0E4125029A312502974092CF9E77003024D9F7D
:204B6000E58124FDF8E608467003024C18C001E58124E4F8741D26FDE40836FE088607E534
:204B80008124EDF886820886830886F012552FFCE58124EAF8A604087600E58124EDF874EB
:204BA0000126FAE40836FB0886048A828B838CF012552FFC7A00E58124EAF8EA26FAEC0819
:204BC00036FC8D828E838FF0EA125029A3EC125029E58124EDF8740226F6E40836F6D0018B
:204BE000A88118E60846706EE58124E5F8741B26FAE40836FB0886048D828E838FF0125597
:204C00002FFDA312552FFE8A828B838CF0ED125029A3EE125029803EE58124E5F8741D262B
:204C2000FDE40836FE088607E58124E5F8741B26FAE40836FB0886048A828B838CF0125500
:204C40002FFAA312552FFB8D828E838FF0EA125029A3EB1250298707BF02028003024D0A9D
:204C6000E58124E5F8E58124EBF9740826F7E4083609F70809E6F7E58124EBF88602088633
:204C800003088606743CC0E07479C0E07480C0E08A828B838EF0788079C47A011211DC15B0
:204CA0008115811581E58124EEF8740126FCE40836FD0886068C828D838EF012552FFCE57A
:204CC0008124EBF886820886830886F0EC125029E58124E5F8740926FCE40836FD08860685
:204CE000E58124EEF886820886830886F012552FFB8C828D838EF0125029E58124EEF87411
:204D00000226F6E40836F6024DEEBF03028003024DEEE58124E5F8740826FDE40836FE086E
:204D20008607E58124FBF8E4F608F6E58124FBF8E62DFA08E63EFB8F04C005C006C007E516
:204D40008124F8F87407C396FEE40896FFE58124EBF8EE26FEEF0836FF0886058E828F830B
:204D60008DF012552F8A828B838CF0125029E58124F8F806B600020806E58124F8F8C3E696
:204D8000940808E664809480D007D006D005409BE58124EEF8740826F6E40836F6804FE560
:204DA0008124E5F8740826FAE40836FB088604743CC0E07479C0E07480C0E08A828B838C0F
:204DC000F0788079C47A011211DC158115811581E58124E5F8741D26FAE40836FB088604AB
:204DE0008A828B838CF0E4125029A3125029E58124EEF8E58124E2F9E6C397FB08E60997E2
:204E0000FC8B078C06E58124E5F8E58124EBF9743426F7E4083609F70809E6F7E58124DD61
:204E2000F8E6C39FFC08E69EFBE58124EBF886820886830886F0EC125029A3EB125029E536
:204E40008124E5F8743126FAE40836FB0886048A828B838CF0E58124EEF8E6125029A3083A
:204E6000E6125029A308E6125029E58124DDF8C3E69F08E664808EF063F08095F050067B85
:204E8000007C0080048F038E048B828C83E58124E1F5810211EE7581201257C8E5826003DF
:204EA00002006E7997E94400601B7A019079AD789A75930AE493F2A308B800020593D9F442
:204EC000DAF27593FFE478FFF6D8FD7800E84400600A7900759300E4F309D8FC7896E8445C
:204EE0000A600C790B900004E4F0A3D8FCD9FA900022E4F0A3F0A3F0A3F09000BFE4F0E4C0
:204F0000F50FF510F511F512900000F0A3F0A3F0A3F09003E2E4F002006EA8811818C6B2B8
:204F2000E7C60250E2124FC8BC000302536DEF60FA30D502B2D1E583B4FF03025383E582B6
:204F4000B4FF03025383258340072482400B02536D2483145003025383F582EA8DF0A4A811
:204F6000F0EA8EF0A428F8E435F0F9EB8DF0A428E935F0F9E433CA8FF0A429F9EA35F0FAA9
:204F8000EBF88EF0A429F9EA35F0FAE433FBEC8DF0A429F9EA35F0FAE43BFBE88FF0A42A48
:204FA000FAEB35F0FBE433CCFD8EF0A42AFAEB35F0FBE43CFCED8FF0A42BFBEC35F0FC203C
:204FC000E703124FF602534CAA82AB83A2F73392D1F5826002D2F7ACF0E58124F9F8E6FDCA
:204FE00008E6FE0886F008E6A2F73392D5F5836002D2F7AFF0227804EC7011E58224F85006
:205000000AF582E4C9CACBFCD8EF22EC7820058220E713D5820122C3E933F9EA33FAEB333C
:20502000FBEC33FCD8EA15822220F71130F6138883A88220F509F6A8837583002280FEF280
:2050400080F5F022C013858113C082C083E5812405F581AF130FE5132403F8A60708760040
:20506000087640E51324FCFD7E007F40E5132406F9A813088604E51324FCF886038CF0EBB8
:20508000A4F709A7F0E513240604F98704A81308860374012DFAE43EFE8A828E838FF01275
:2050A000552F8BF0A4FBE5132403F8740126FDE40836FE0886078D828E838FF012552FFDBC
:2050C000E51324FCF886078DF0EFA42B2CF7E5132406F987060987078E828F83851381D08B
:2050E0001322124FC87900E583B58202800D5003125438E583C3958212572AE5D0C465D037
:2051000020E117EA2DFAEB3EFBEC3FFC5009740112572AEC4480FC02534CC3EA9DFAEB9EA0
:20512000FBEC9FFC500FC3E499F9E49AFAE49BFBE49CFCB2D1124FF602534CC01385811380
:20514000058105810581AD82AE83AFF0E51324F8F8E6084670069000000251F7E51324FA18
:20516000F88602088603088604E51324F8F8A91309E6F70809E6F7A8130816B6FF02081642
:20518000A81308E60846604C8D828E838FF0E5132403F812552FF6E5132403F8E66035C0D8
:2051A00005C006C0078A828B838CF012552FFFE5132403F8E6B507028008D007D006D0056D
:2051C0008012D007D006D0050DBD00010E0ABA00A60B80A38D828E838FF012552FFD7F0099
:2051E0008A828B838CF012552FFA7E00EDC39AFDEF9EFF8D828F83851381D0130211EEAC6E
:2052000083AB827A007900748E0255C212576D700AE582458345F0700122E430D112F4702E
:205220000BE5F0F47006E58330E7012290800022700AE5F07006E58320E70122907FFF22C9
:205240007F8E1274A5F58385F08222C013E581F5132408F581AD82AE83AFF0E5132406F889
:20526000A60508A60608A607E51324FAF8A91309E6F70809E6F70809E6F7E51324F8F8E59D
:20528000132404F9E6F70809E6F7E5132404F88603088604E5132404F816B6FF020816EBEE
:2052A0004C6028A8130886820886830886F012552FFCA31818A68208A6838D828E838FF063
:2052C000EC125029A3AD82AE8380BFE5132406F886820886830886F0851381D0130211EE67
:2052E000C013858113C082C083C0F005810581A813088602088603088604E51324FAF8E520
:20530000132404F9E6F70809E6F7E5132404F88606088607E5132404F816B6FF020816EE64
:205320004F60168A828B838CF0E51324FCF8E6125029A3AA82AB8380D1A8130886820886EA
:20534000830886F0851381D0130211EEB98003EA13B34010EA2401FAE43BFBE43CFC500480
:205360007C800582BC000EBB000BBA0008E4F5F0F583F58222A2D1E582138CF092F78B837E
:205380008A8222E4F583F58275F080F4A2D11322E4F583F58275F0C0747F22C01385811392
:2053A0007E008E8378FE79BA7A011211DCD0130211EEC013858113AD82AE83AFF0E5132450
:2053C000FCF8E6C0E0C005C006C007E4C0E0C0E0C0E090539B75F00078B779647A001211B1
:2053E000DCAE82AF83E58124F9F5818E828F83D0130211EEC013E581F51324FAFFC007E566
:205400001324FAF8E6C0E008E6C0E008E6C0E0E4C0E0C0E0C0E090539B75F00078B779640E
:205420007A001211DCAE82AF83E58124F9F5818E828F83D0130211EEE582C583F582A2D1F9
:2054400033A2D592D11392D5ECCFFCEBCEFBEACDFA22AA82AB8312552F6003A380F8C3E571
:20546000829AF582E5839BF5830211EE124FC830D502B2D1BF0009BC000302539002538326
:20548000BC000302536DE583B4FF0BE582B4FF0302539002536DE582B4FF03025383C39554
:2054A000835007247F400B02536D2480145003025383F582C3ED9AEE9BEF9C40111582C3FF
:2054C000EA33F9EB33FAEC33FBE433FC8005E4CCCBCAF9C08275F019C3E99DEA9EEB9FECA7
:2054E0009400D5F002802D400EE99DF9EA9EFAEB9FFBEC9400FCC3B3E833F8E58233F582BA
:20550000E58333F583C3E933F9EA33FAEB33FBEC33FC80C4B3E4F938FAE43582FBE435831D
:20552000FCD082500405827C80124FF602536420F71430F6148883A88220F507E6A88375FA
:20554000830022E280F7E49322E022C013858113AE82E583FF33E433FD6009C3E49EFBE45B
:205560009FFC80048E038F04E51324FCF808E630E70FE51324FCF8C3E496FE08E496FF8078
:205580000AE51324FCF88606088607C005C006C0078B828C831255E6AE82AF831581158187
:2055A000D005ED600DC3E49EFCE49FFD8C828D8380048E828F83D01322FCABF0AA83A98243
:2055C000749EF582C2D1EC30E716D2D1E9F42401F9EAF43400FAEBF43400FBECF43400FCCE
:2055E000124FF602534CC013858113AE82AF837D007C00E51324FCF808E6235401FB702F5C
:20560000E51324FCF8E626F608E633F6E51324FCF8C3EE96EF08965011E51324FCF808E61E
:2056200018C313C613C608F680050C8C0580C4E51324FCF8C3EE96EF0896400DE51324FC30
:20564000F8EEC396FEEF0896FFE51324FCF808E618C313C613C608F68D041DEC70D18E820D
:205660008F83D01322C013858113AE82E583FF33E433FD6009C3E49EFBE49FFC80048E030C
:205680008F04E51324FCF808E633E433FF600FE51324FCF8C3E496FA08E496FE800AE51378
:2056A00024FCF88602088606C007C005C002C0068B828C831256DBAC82AE8315811581D0E8
:2056C00005D007EF6D600DC3E49CFDE49EFF8D828F8380048C828E83D01322C013858113AF
:2056E000AE82AF837C007D007B10EF235401FAEE2EFEEF33FFEC2CFCED33FDEA6003430463
:2057000001E51324FCF8C3EC96ED08964010E51324FCF8ECC396FCED0896FD430601EB1436
:20572000FB70C78E828F83D013226040F82582500274FFF582E824F8501ECCCBCAF9E4CC19
:2057400024F85014CBCAF9E4CB24F8500BCAF9E4CA24F8500379002224086010F8C3EC1344
:20576000FCEB13FBEA13FAE913F9D8F1221257CCC3749E95824039790012572A30D126E9A7
:20578000F42401F582EAF43400F583EBF43400F5F0ECF43400700AE582458345F070012272
:2057A000E430E70F22EC20E71489828A838BF02230D10AE4F582F583F5F074802274FFF5C0
:2057C00082F583F5F0747F2275820022AA82AB83A2F73392D1F5826002D2F7ACF022C01300
:2057E000858113AF8274302FFF24C6501074072FFFE51324FCF8E6600474202FFFE5132462
:20580000F6F8E6C0E008E6C0E008E6C0E0E51324F9F8E6C0E008E6C0E008E6C0E08F82D068
:2058200002D001D0001211DC158115811581D0130211EEC013858113E582FFC4540FFEC0E9
:2058400007E51324F6F8E6C0E008E6C0E008E6C0E0E51324F9F8E6C0E008E6C0E008E6C0C6
:20586000E0E51324FCF8E6C0E08E8278DE79577A001211DCE58124F9F581D00753070FE5E5
:205880001324F6F8E6C0E008E6C0E008E6C0E0E51324F9F8E6C0E008E6C0E008E6C0E0E5AD
:2058A0001324FCF8E6C0E08F8278DE79577A001211DCE58124F9F581D0130211EEC0138552
:2058C0008113A9828704098705098706098707191919740429F87B20C003E626FAEF23540E
:2058E00001FBEA4203A603EC2CFCED33FDEE33FEEF33FFC000E51324FCF8C3EB96D000D0AF
:205900000340148602C000E51324FCF8EAC396FAD000A602430401EB14FAFB70BBA7040908
:20592000A70509A70609A707D0130211EEC013858113C8E5812428F581E5132407C8A6827B
:2059400008A68308A6F008F67B00C200E5132405F87680C003C020E4C0E0C0E0C0E0C0E027
:20596000E5132407F886820886830886F008E61274CAAA82E58124FCF581D020D003EA6002
:2059800011D200E5132407F8E608E608E608E6B2E7F6C003C020E5132407F8E6C0E008E698
:2059A000C0E008E6C0E008E6C0E090FFFF75F07F744B1274CAAA82E58124FCF581D020D0C2
:2059C00003EA7003025B697A00C003C002C020E4C0E0C0E07420C0E07441C0E0E5132407F2
:2059E000F886820886830886F008E61274CAE58124FCF581D020D002D003E58224FF92012C
:205A00004044C003C002C020E4C0E0C0E07420C0E07441C0E0E5132407F8868208868308B4
:205A200086F008E612546CC8E5132407C8A68208A68308A6F008F6E58124FCF581D020D0CC
:205A400002D0030A80838A07C007C003C020E4C0E0C0E07480C0E0743FC0E0E5132407F843
:205A600086820886830886F008E61274CAAA82E58124FCF581D020D003D007EA6044C0073A
:205A8000C003C020E5132407F8E6C0E008E6C0E008E6C0E008E6C0E090000075F02074414E
:205AA000124F25C8E5132407C8A68208A68308A6F008F6E58124FCF581D020D003D0071F03
:205AC0008086E5132405F8A60730003AC020E51324F1F8E6C0E008E6C0E008E6C0E0E51311
:205AE00024F4F8E6C0E008E6C0E008E6C0E075822DD002D001D0001211DC1581158115819C
:205B0000D0207B018040E51324F8F8E66038C020E51324F1F8E6C0E008E6C0E008E6C0E048
:205B2000E51324F4F8E6C0E008E6C0E008E6C0E075822BD002D001D0001211DC15811581FB
:205B40001581D0207B01E51324FCF87600E51324FAF87600E51324F9F87600E51324F8F8AA
:205B60007600E51324F7F87600E51324FBF8B6FF07E51324FBF87606E5132410F8E4F608D2
:205B8000F608F608763FE51324FBF88605ED604BC003C005C020E4C0E0C0E07420C0E074EE
:205BA00041C0E0E5132410F886820886830886F008E612546CAA82AB83AEF0FFE58124FC0C
:205BC000F581D020D005E5132410F8A60208A60308A60608A6071DD00380B2C003C003C03C
:205BE00020E5132410F8E6C0E008E6C0E008E6C0E008E6C0E0E5132407F8868208868308F5
:205C000086F008E61250E2A81308A68208A68308A6F008F6E58124FCF581D020A8130886EF
:205C2000820886830886F008E6C0201274A3C8E5132407C8A68208A68308A6F008F6D020C4
:205C4000D003E5132407F886820886830886F008E6C020127787AA82AB83AEF0FFD020C03A
:205C600003C020C002C003C006C007A8130886820886830886F008E6124F1AC8E513240B7D
:205C8000C8A68208A68308A6F008F6E58124FCF581D020D003E5132406F8E5132414F67ACE
:205CA00000D003E5132407F8E60846084608467003025D328A070AE5132406F8EF26F9C09F
:205CC00003C002C001C020740AC0E0E4C0E0C0E0C0E0E5132407F886820886830886F008C2
:205CE000E6127638AC82E58124FCF581D020D00174302CF7C020740AC0E0E4C0E0C0E0C06A
:205D0000E0E5132407F886820886830886F008E61276FAC8E5132407C8A68208A68308A6C7
:205D2000F008F6E58124FCF581D020D002D003025CA3EAFF700DEA04FFE5132406F8EA2666
:205D4000F87630E51324FBF8E513240FF9E6F7E5132406F8E5132407F9E6F7E5132428F846
:205D6000A607E513240FF8E6700AE513240FF88602025E4EC007C003C020E513240BF8E62B
:205D8000C0E008E6C0E008E6C0E008E6C0E090000075F0207441124F25AC82AD83AEF0FF6E
:205DA000E58124FCF581D020E5132424F8A60408A60508A60608A607E5132424F8868208B1
:205DC00086830886F008E6C0201274A3AC82AD83AEF0FFD0208F02E5132407F8E51324286A
:205DE000F9E726F9E5132428F8068C0774302FF78C828D838EF0EAC020127787AC82AD8331
:205E0000AEF0FFD020D003C007C003C020C004C005C006C007E5132424F886820886830849
:205E200086F008E6124F1AC8E513240BC8A68208A68308A6F008F6E58124FCF581D020D01B
:205E400003D007E513240FF816D007025D628F06E51324FBF8E6600EE51324FBF8E604FCAA
:205E60003395E0FD80047C007D00EC2EFCFE200010E51324F8F8E67008E51324F7F8E66001
:205E8000010EE51324FAF8E6600302611CE51324FCF8C3EA96400302611CE51324F9F8E615
:205EA0007003025FD3300042C007C006C003E51324F1F8E6C0E008E6C0E008E6C0E0E513DA
:205EC00024F4F8E6C0E008E6C0E008E6C0E075822DD002D001D0001211DC158115811581B8
:205EE000D003D006D0070B025F7AE51324F8F8E66041C007C006C003E51324F1F8E6C0E0CE
:205F000008E6C0E008E6C0E0E51324F4F8E6C0E008E6C0E008E6C0E075822BD002D001D026
:205F2000001211DC158115811581D003D006D0070B8047E51324F7F8E6603FC007C006C071
:205F400003E51324F1F8E6C0E008E6C0E008E6C0E0E51324F4F8E6C0E008E6C0E008E6C0CD
:205F6000E0758220D002D001D0001211DC158115811581D003D006D0070B8B05E51324FCC3
:205F8000F886048C021CC3EE9A40030261F3C007C006C005C004E51324F1F8E6C0E008E662
:205FA000C0E008E6C0E0E51324F4F8E6C0E008E6C0E008E6C0E0758230D002D001D000125D
:205FC00011DC158115811581D004D005D006D0070D80B08B02E51324FCF88605C0078D07FC
:205FE0001DC3EE9FD0075049C007C006C005C002C020E51324F1F8E6C0E008E6C0E008E6C9
:20600000C0E0E51324F4F8E6C0E008E6C0E008E6C0E0758220D002D001D0001211DC158117
:2060200015811581D020D002D005D006D0070A80AB8A03E51324FCF8A605300044C007C078
:2060400006C002E51324F1F8E6C0E008E6C0E008E6C0E0E51324F4F8E6C0E008E6C0E008AD
:20606000E6C0E075822DD002D001D0001211DC158115811581D002D006D007EA04FB026177
:20608000FCE51324F8F8E66044C007C006C002E51324F1F8E6C0E008E6C0E008E6C0E0E593
:2060A0001324F4F8E6C0E008E6C0E008E6C0E075822BD002D001D0001211DC158115811546
:2060C00081D002D006D007EA04FB0261FCE51324F7F8E670030261FCC007C006C002E5136E
:2060E00024F1F8E6C0E008E6C0E008E6C0E0E51324F4F8E6C0E008E6C0E008E6C0E0758250
:2061000020D002D001D0001211DC158115811581D002D006D007EA04FB0261FC300042C032
:2061200007C006C003E51324F1F8E6C0E008E6C0E008E6C0E0E51324F4F8E6C0E008E6C0EC
:20614000E008E6C0E075822DD002D001D0001211DC158115811581D003D006D0070B02618B
:20616000FCE51324F8F8E66041C007C006C003E51324F1F8E6C0E008E6C0E008E6C0E0E5B4
:206180001324F4F8E6C0E008E6C0E008E6C0E075822BD002D001D0001211DC158115811565
:2061A00081D003D006D0070B8052E51324F7F8E6604AC007C006C003E51324F1F8E6C0E08B
:2061C00008E6C0E008E6C0E0E51324F4F8E6C0E008E6C0E008E6C0E0758220D002D001D06F
:2061E000001211DC158115811581D003D006D0070B80098D03E51324FCF8A6048F051DE5EA
:20620000132406F88604E5132406F8ED26F98702C007C006C005C004C003E51324F1F8E64C
:20622000C0E008E6C0E008E6C0E0E51324F4F8E6C0E008E6C0E008E6C0E08A82D002D00149
:20624000D0001211DC158115811581D003D004D005D006D0070B8D021DEA70AA8B05E51341
:2062600024FBF8E6700302630BC007C006C004C003E51324F1F8E6C0E008E6C0E008E6C063
:20628000E0E51324F4F8E6C0E008E6C0E008E6C0E075822ED002D001D0001211DC15811532
:2062A000811581D003D004D006D0070B8F05E51324FBF886028A071AEF604EED2CF90D874F
:2062C00007C006C005C004C003C002E51324F1F8E6C0E008E6C0E008E6C0E0E51324F4F834
:2062E000E6C0E008E6C0E008E6C0E08F82D002D001D0001211DC158115811581D002D00312
:20630000D004D005D0060B80AC8B05E51324FAF8E6605CE51324FCF8C3EE9650528D07E515
:206320001324FCF88604C3EE9C50421CC007C006C004E51324F1F8E6C0E008E6C0E008E655
:20634000C0E0E51324F4F8E6C0E008E6C0E008E6C0E0758220D002D001D0001211DC1581D4
:2063600015811581D004D006D0070F80B98F05E5132405F8B680030264ADC005E51324F15D
:20638000F8E6C0E008E6C0E008E6C0E0E51324F4F8E6C0E008E6C0E008E6C0E0758265D08D
:2063A00002D001D0001211DC158115811581D005ED04FFE5132405F8E630E740C007E5139F
:2063C00024F1F8E6C0E008E6C0E008E6C0E0E51324F4F8E6C0E008E6C0E008E6C0E075826D
:2063E0002DD002D001D0001211DC158115811581D0070FE5132405F8C3E496F6E5132405E9
:20640000F8E6FA3395E0FEC007C006C002740AC0E0E4C0E08A828E83125665AB821581154B
:206420008174302BFBE51324F1F8E6C0E008E6C0E008E6C0E0E51324F4F8E6C0E008E6C02E
:20644000E008E6C0E08B82D002D001D0001211DC158115811581D002D006D0070FC00774C4
:206460000AC0E0E4C0E08A828E8312554BAC821581158174302CFCE51324F1F8E6C0E00866
:20648000E6C0E008E6C0E0E51324F4F8E6C0E008E6C0E008E6C0E08C82D002D001D00012AB
:2064A00011DC158115811581D007EF04FD8D82851381D0130211EEC013858113C082C083E9
:2064C000C0F0E5812424F581E513240CF8E4F608F6E5132410F8E5132419F6E5132421C89C
:2064E000E5132407C82405F6E5132411F8E5132419F6E5132411F8E5132404F9740426F76F
:20650000E5132404F8E5132405F9E6F7E5132404F8E5132406F9E6F7E51324F7F8860208C1
:2065200086060886078A828E838FF012552FFDE51324F7F874012AF6E43E08F608A607EDA9
:20654000FF7003027491BF25028003027454C200C201C202C203C204C205C206C207E5136B
:20656000241EF8E4F6FDFEE513241FF876FF0876FFE51324F7F8E5132408F9E6F70809E6EB
:20658000F70809E6F7E5132408F886820886830886F0E513240BF912552FF7A31818A682BB
:2065A00008A683E5132408F8E51324F7F9E6F70809E6F70809E6F7E513240BF8B62542E5A8
:2065C0001324FAF8E6C0E008E6C0E008E6C0E0A81308E6C0E008E6C0E008E6C0E0E513246F
:2065E0000BF88682D002D001D0001211DC158115811581E513240CF806B600020806026509
:2066000018E513240BF8B6300050030266A5E513240BF8E624C650030266A5E513241FF87B
:20662000B6FF3C08B6FF38C020C005C00690000A125044AA82AF8315811581D020E5132433
:206640000BF886037C00EB2AFAEC3FFFEA24D0FDEF34FFFE4D6003026585D201026585C0E3
:2066600006C005C020E513241FF8E6C0E008E6C0E090000A125044AC82AF8315811581D08C
:2066800020D005D006E513240BF886027B00EA2CFCEB3FFFE513241FF8EC24D0F6EF34FFA7
:2066A00008F6026585E513240BF8B62E1DE513241FF8B6FF0608B6FF028003026585E513BC
:2066C000241FF8E4F608F6026585E513240BF8B66100401CE513240BF8E624854012E51331
:2066E000240BF8E654DFF6E5132418F876018007E5132418F87600E513240BF8B62003029E
:2067000067C9E513240BF8B62B030267C4E513240BF8B62D030267BFE513240BF8B64203D2
:206720000267CEE513240BF8B643030267D8E513240BF8B64403026D46E513240BF8B646DA
:2067400003026D6CE513240BF8B64803026585E513240BF8B64903026D46E513240BF8B6A4
:206760004A03026585E513240BF8B64C028064E513240BF8B64F03026D51E513240BF8B61D
:206780005003026AE2E513240BF8B6530302684DE513240BF8B65403026585E513240BF83F
:2067A000B65503026D5AE513240BF8B65803026D63E513240BF8B65A03026585026D70D231
:2067C00000026585D202026585D203026585D205026585D206026585300515E51324F6F871
:2067E000E614FCE51324F6F8A604A80486048014E51324F6F8E624FEFBE51324F6F8A60365
:20680000A8038604C006C005C020E51324FAF8E6C0E008E6C0E008E6C0E0A81308E6C0E0DF
:2068200008E6C0E008E6C0E08C82D002D001D0001211DC158115811581D020D005D006E57A
:2068400013240CF806B600020806026DCBE5132419FCE51324F6F8E624FDFBE51324F6F8B0
:20686000A603A8038602088603088607A804A60208A60308A6078A828B838FF0C006C00538
:20688000C004C020785279547A001211DCC8E5132408C8A68208A683D020D004D005D006C8
:2068A000E513241FF8B6FF1408B6FF10E5132408F8E513241FF9E6F70809E6F730000302BF
:2068C0006963E5132408F8C3E69D08E69E4003026963E5132408F8E5132412F9EDC396F76D
:2068E000EE089609F7E513240CF88606088605E5132412F88602088607E5132412F816B698
:20690000FF020816EA4F6047C006C005C004C020E51324FAF8E6C0E008E6C0E008E6C0E099
:20692000A81308E6C0E008E6C0E008E6C0E0758220D002D001D0001211DC158115811581A7
