:020000040000FA
:04000000024E9132E9
:01000B0032C2
:0100130032BA
:01001B0032B2
:0100230032AA
:03002B0002147349
:01003300329A
:01003B003292
:01004300328A
:03004B000215A9F2
:01005300327A
:01005B003272
:01006300326A
:20006B000206E40202DAC082C083E5812404F5817C007D00C374C89C74808DF063F08095B5
:20008B00F0500B7490C39CFA74019DFB80048C028D03E58124FBF886078F82C007C005C097
:2000AB0004C003C00278EA798E7A01120782D002D003D004D005D007E58124FDF8E4F608A7
:2000CB00F6E58124FDF8C3E69A08E664808BF063F08095F0501DE58124FDF8A98119E6F7AC
:2000EB000809E6F7E58124FDF8740126F6E40836F680CE8F82C005C004C003C00278007981
:20010B008F7A01120782D002D003D004D005E58124FDF8E4F608F674C8C39AFEE49BFFE590
:20012B008124FDF8C3E69E08E664808FF063F08095F0501DE58124FDF8A98119E6F708090D
:20014B00E6F7E58124FDF8740126F6E40836F680CE0CBC00010DC3EC9490ED648094815062
:20016B000302007FE58124FAF58122E5812408F5817E0C7F78E58124F9FD7C07EC2DF98EA8
:20018B00828F83E0FBA3AE82AF83A7031CEC30E7EB74072DF987077E0074062DF987048CC8
:2001AB0003E44207EB420689047B007A40C007C006C0057402C0E0E4C0E0C004C003C002DA
:2001CB0090031975F000784679527A00120782E58124FBF581907920E493FAA3E493FBA318
:2001EB00E493FCC004C003C00274F5C0E0C4C0E0C002C003C004900002D002D001D000126B
:20020B00078215811581D002D003D004D005D006D007907920E493FAA3E493FBA3E493FC5E
:20022B00C005C004C003C002C007C006C002C003C004900003D002D001D000120782158198
:20024B001581D002D003D004D005907920E493FCA3E493FEA3E493FFC007C006C005C004CC
:20026B007419C0E0E4C0E0C004C006C007900001D002D001D00012078215811581D004D002
:20028B0005D006D007907926E493FCA3E493FEA3E493FF7B007A40C007C006C0047408C00C
:2002AB00E0E4C0E0C005C003C002C004C006C00790000BD002D001D000120782E58124FB06
:2002CB00F581D004D006D007E58124F8F5812278AA79137A00120782782979D27A011207BF
:2002EB0082787F79997A011207827890798E7A011207827582077800798F7A011207829009
:20030B000001120071786979A57A01120782783479C67A01120782909D6575F001786F79E0
:20032B00077A001207827896799F7A0112078290000212007190779575F080782E79BD7A6E
:20034B00011207829077B275F080782E79BD7A0112078290624AE0FFBF8D028042BF9502E5
:20036B00802CBFA5028005BFB54480119077C375F080782E79BD7A0112078280319077CA6F
:20038B0075F080782E79BD7A0112078280209077D175F080782E79BD7A01120782800F900D
:2003AB0077D875F080782E79BD7A011207829077DF75F080782E79BD7A01120782906277E6
:2003CB00E0FF0F8F82786879BD7A011207829077E775F080782E79BD7A01120782785179E0
:2003EB008E7A01120782900000786879CA7A01120782E4C0E0C0E0C0E0900AB675F0007894
:20040B00E5799F7A0112078215811581158178D279CD7A01120782785779BE7A011207823A
:20042B00120176E4C0E0C0E0C0E0900AD675F00078E5799F7A0112078215811581158190B2
:20044B00789FE493FDA3E493FEA3E493FFC007C006C0057401C0E0E4C0E0C005C006C00798
:20046B00900081D002D001D00012078215811581D005D006D00790788FE493FDA3E493FE81
:20048B00A3E493FFC007C006C0057401C0E0E4C0E0C005C006C007900081D002D001D00077
:2004AB0012078215811581D005D006D007789A79077A00120782908DDA75F080789D79C017
:2004CB007A011207827857798E7A01120782900004120071785D798E7A011207829003185B
:2004EB00E0605778FA79977A01120782E5828583F045F06040781879987A01120782AE82A7
:20050B00AF83C007C006788F79137A00120782AC82AD83D006D007EEC39CFEEF9DFF1EBEAC
:20052B00FF011FC374FF9E747F9F500978E079947A01120782900318E4F078A679A77A011F
:20054B00120782AE82AF83EE708A907914E493FDA3E493FEA3E493FFC007C005C006C007D0
:20056B00D002D001D000120782AD82AE83D0078D088E09E508450970030204DF78FD79B6C8
:20058B007A0112078290790BE493FDA3E493FEA3E493FFC007C006C005789C79BA7A01125B
:2005AB000782AA82AB83ACF0D005D006D007C0077480C0E0E4C0E0C005C006C0078A828B67
:2005CB00838CF0D002D001D000120782AD82AE8315811581D0078D088E09E50845097003C6
:2005EB000204DF850882850983788E79BA7A01120782907971E493FDA3E493FEA3E493FF7D
:20060B00C007C006C005C005C006C007D002D001D000120782D005D006D0070204DF208115
:20062B001B90000A75F04078E679BF7A01120782AE82AF83EE4F6004C2008002D200A200EE
:20064B00E433FE7F008E828F83020794AE82AF83BE8105BF00028006BE8210BF000D7402BD
:20066B0055ABFF7E008F828E838003900000020794AE82AF83BE8005BF00028008BE8153A0
:20068B00BF00508011438F02538CFE53F3FD53FDFD9000018040E58124FCF8E608466029E2
:2006AB00E5AB20E129E4C0E0C0E090000A75F040782779BF7A01120782158115815389FD20
:2006CB00C2C543AB02D2BD800553ABFDC2BD9000018003900000020794C020C0E0C0F0C0D9
:1506EB0082C083C007C006C005C004C003C002C001C000C0D089
:2007000075D000C2AFE58930E14190000A75F04078E679BF7A01120782E5828583F045F0E4
:2007200060297410C0E0E4C0E090000A75F040782779BF7A0112078215811581907899751A
:20074000F08078B279AB7A011207825389FDC2C5D2AFD0D0D000D001D002D003D004D00555
:20076000D006D007D083D082D0F0D0E0D02032AFF0AE83E58290005AF0EEA3F0EFA3F0027F
:200780000794C09FC8C0E0E9C0E0EA540F539FF0429FC822D09F2202079402079490000019
:2007A000E4F5F002079402079490618FE0FF7E00742C2FFFE43EFE7405C0E0E4C0E08F82BD
:2007C0008E83125660AE82AF83158115818E82020794AF82BF0B004005EF24E55005758281
:2007E000FF8029C007782A790D7A00120782D007EF24F575F005A490618F240BF0C0077882
:2008000013790D7A00120782D0078F82020794906173E0FE7F00906172E0FD7C004207ECF3
:2008200042068F828E83020794AE82AF83906172EEF0906173EFF0020794906175E0FE7F6B
:2008400000906174E0FD7C004207EC42068F828E83020794AE82AF83906174EEF090617593
:20086000EFF002079490618BE0700C430E107813790D7A00120782906199E030E0F9906139
:2008800098E024B7FFAD0E5305107E00BD1013BE0010530EEFC007782A790D7A0012078263
:2008A000D007EF3395E0FE8F828E83020794906196E0FF3395E0FEEF24B7FFEE34FFFE8F8A
:2008C000828E83020794AE82AF8374492EFE906196F002079405810581906190E0FF90612C
:2008E00091E0FEBE09109078FCE493FDA3E493FE8D828E8380667D007E007B007C00A88101
:2009000018EB24CCF6EC347808F6A881188682088683A3A3E493FAC3EF9A401BA8811886D9
:2009200082088683E49318F6A3E49308F6A881188682088683802574032BFBE43CFC0DBD05
:2009400000010EC3ED9411EE6480948040B09078FCE493FEA3E493FF8E828F83158115817D
:20096000020794AE82AF839078FCE493FCA3E493FDC3EC9EED64808FF063F08095F04012A3
:200980009061917409F09078FEE493FD906190F080567C0F7D007A2D7B00EA24CCF582EB41
:2009A0003478F583E493F8A3E493F9C3E89EE964808FF063F08095F0401D9061917469F0F8
:2009C000EA24CCF8EB3478F988828983A3A3E493F9906190F08011EA24FDFAEB34FFFB1CAD
:2009E000BCFF011DED30E7B2020794E582FF600A906180E043E001F08008906180E053E08A
:200A0000FEF0020794E582FF600A906189E043E020F08008906189E053E0DFF0020794E588
:200A20000E30E00590000080459061AB743FF09061AC7455F090619674F8F09061FA74095E
:200A4000F09061B27415F09061AEE4F09061897440F0E043E020F0906182E4F090619474A6
:200A60007FF090619074D5F0430E01900001020794C082C083C0F0906193E020E1F9E50E47
:200A800020E7097813790D7A0012078275E1EE75E1EEE58124F9F8860474022CF5D97C00A7
:200AA0008C027B00E58124F9F8C3EA96EB08965020A88118188602088603088607EC2AFA5F
:200AC000E43BFB8A828B838FF012552AF5D90C80CF75D90075D900900000158115811581BB
:200AE000020794E50E20E745AEE27F00ACE38C05E42EFEED3FFFC007C0067813790D7A0098
:200B0000120782D006D007430E10ACE27D00AAE38A03E42CFCEB3DFD8E028F0374052AFA17
:200B2000E43BFBECC39AFAED9BFB20E7DD78E6790C7A00120782E5828583F045F070059060
:200B400000028068906193E030E505900002805C75E1E97F00906193E020E118BF03005072
:200B6000130F900006C007782D79137A00120782D00780E1906193E020E10C75E1EE75E16D
:200B8000EE7E017F00800B906193E020E1F97E007F00E50E30E411C007C006782A790D7A3C
:200BA00000120782D006D0078E828F83020794AD82AE83AFF0E58124FCF8E6C0E008E6C07D
:200BC000E08D828E838FF07871790A7A0012078215811581E58124FCF8868208868378E3F7
:200BE000790A7A00120782AE82AF83020794C082C083C0F0E5D9FC2480500C75E1ED75E1D6
:200C0000ED900000020CDDEC24FB400C75E1ED75E1ED900000020CDD8C027B00EA24FEFA05
:200C2000EB34FFFBE58124F9F8C3E69A08E69B500C75E1ED75E1ED900000020CDD1C1C7B44
:200C400000C3EB9C5025C004E58124FDF88602088604088607EB2AFAE43CFC8A828C838F0E
:200C6000F0E5D91250240BD00480D6E5D924B7FFE5D9FE30E740EF3395E0FDC006C004C082
:200C800007C005758204786C79BC7A0112078215811581D004D00653067F7F00C004C006A7
:200CA000C007758203786C79BC7A0112078215811581D004800B75E1ED75E1ED9000008023
:200CC0001C906193E054C0FFBF400C90619BE0700675E1ED75E1ED7F008C828F83158115C4
:200CE000811581020794906193E030E4059000018003900000020794906193E0900000028C
:200D00000794906193E0FF5307407E008F828E83020794E50E20E70C75E1ED75E1ED75E11C
:200D2000E3430E8090000102079475E1EF75E1ED75E1ED530E7F900001020794AE82AF8396
:200D4000E58124FBF8E608467006758202020794C374109EE49F5003021029EE240A83F54C
:200D600082EE241583F583E4738BBBF6316C29DD1853292929298EB1D3FE0D0D0D0E0E1027
:200D80000E0F0F101010100F0F0F0FE58124FBF8860508860608860790618BE07004FBFCB3
:200DA00080047B017C008D828E838FF0EB125024A3EC125024758200020794E58124FBF881
:200DC0008605088606088607C007C006C00578A979077A00120782AC82D005D006D0077B2C
:200DE000008D828E838FF0EC125024A3EB125024758200020794E58124FBF886050886069E
:200E0000088607C007C006C005780F79087A00120782AB82AC83D005D006D0078D828E83D0
:200E20008FF0EB125024A3EC125024758200020794E58124FBF88605088606088607C00721
:200E4000C006C005783A79087A00120782AB82AC83D005D006D0078D828E838FF0EB1250F5
:200E600024A3EC125024758200020794E58124FBF886050886060886078D828E838FF0E4F1
:200E8000125024A3125024906180E030E0218D828E838FF012552AFBA312552AFC4303017F
:200EA0008D828E838FF0EB125024A3EC125024906189E030E5218D828E838FF012552AFB52
:200EC000A312552AFC4303028D828E838FF0EB125024A3EC125024758200020794E5812457
:200EE000FBF88605088606088607C007C006C00578D579087A00120782AB82AC83D005D015
:200F000006D0078D828E838FF0EB125024A3EC125024758200020794E58124FBF88605082B
:200F20008606088607C007C006C00578AE79087A00120782AB82AC83D005D006D0078D8295
:200F40008E838FF0EB125024A3EC125024758200020794E58124FBF88605088606088607B6
:200F6000C007C006C005786579087A00120782AB82AC83D005D006D0078D828E838FF0EB44
:200F8000125024A3EC125024758200020794E58124FBF886050886060886078D828E838F42
:200FA000F0740B125024A3E4125024758200020794E58124FBF886050886060886078D825B
:200FC0008E838FF0741A125024A3E41250247582008059E58124FBF886050886060886075F
:200FE0009078FCE493FBA3E493FC8D828E838FF0EB125024A3EC125024758200802EE58135
:2010000024FBF886050886060886079078CCE493FBA3E493FC8D828E838FF0EB125024A3F6
:20102000EC1250247582008003758201020794AE82AF83C374079EE49F50030211D8EE241E
:201040000A83F582EE240C83F583E4735C96E5021FD865C01010101111111111E58124FC1C
:20106000F8B6011308B6000F7813790D7A00120782758200020794E58124FCF8E608467005
:201080000F782A790D7A00120782758200020794758202020794E58124FCF8C3E6940B080C
:2010A000E6648094804015E58124FCF8C3741A9674800886F063F08095F05006758202027D
:2010C0000794E58124FCF886078F8278D279077A00120782AF82BFFF067582030207947579
:2010E0008200020794E58124FCF886060886078E828F83782979087A0012078275820002E0
:201100000794E58124FCF886060886078E828F83785479087A00120782758200020794E598
:201120008124FCF8E654FC700408E66006758202020794E58124FCF8E6139200E433F582EB
:2011400078EB79097A00120782E58124FCF8E6A2E19200E433F5827805790A7A0012078279
:2011600075820080769078FCE493FEA3E493FFE58124FCF8C3E69E08E664808FF063F08007
:2011800095F0401F9078CCE493FEA3E493FFE58124FCF8C3EE96EF64800886F063F080958B
:2011A000F050057582028033E58124FCF88682088683786379097A00120782758200801BA3
:2011C000E58124FCF8868208868378C679087A001207827582008003758201020794E5812F
:2011E0002405F581AE82AF83BE0B05BF0002800302127AE58124F4F8B6080E08B6000AE55F
:201200008124F6F8E608467005758202806FE58124F6F8E58124FCF9E6F70809E6F70809D7
:20122000E6F7A88118E4F608F6E58124FCF8A98119E726FA09E70836FE088607A88118747A
:2012400007C396FCE40896FDEC246AF582ED3461F583E0FD8A828E838FF0125024A8811888
:2012600006B600020806A88118C3E6940808E66480948040B47582008003758201E5812446
:20128000FBF581020794E5812404F581AE82AF83BE0B05BF00028003021321E58124F5F81B
:2012A000B6080E08B6000AE58124F7F8E608467005758202806EA88118E4F608F6A8811837
:2012C000E58124FDF9E6246AF708E6346109F7E58124F7F88602088603088607A8811874C4
:2012E00007C396FDE40896FEED2AFAEE3BFB8A828B838FF012552AFAE58124FDF886820829
:201300008683EAF0A8811806B600020806A88118C3E6940808E66480948040A17582008019
:2013200003758201E58124FCF581020794AE82AF83C2AF8E048F051EBEFF011FEC4D600389
:201340000080F0D2AF020794AE82AF83C007C006788F79137A00120782AC82AD83D006D064
:2013600007C007C006C005C004788F79137A00120782AA82AB83D004D005D006D007EAC34B
:201380009CFAEB9DFBC3EA9EEB9F40D5020794850F82851083020794AC11AD127E007F0069
:2013A0008C828D838EF0EF02079475C6C053C6BFE59E20E6FB43C630E5C6B59EFB900000EC
:2013C000E595F0E4A3F0A3F0A3F0AC967D007E008E078D068C057C00900000E0F8A3E0F9B0
:2013E000A3E0FAA3E0FB900000EC28F0ED39A3F0EE3AA3F0EF3BA3F0AC977D008D078C0647
:201400007C007D00900000E0F8A3E0F9A3E0FAA3E0FB900000EC28F0ED39A3F0EE3AA3F0EC
:20142000EF3BA3F0900000E0FCA3E0FDA3E0FEA3E0FF900000ECF074012DA3F0E43EA3F0AA
:20144000E43FA3F0900000E0A3E0A3E0FEA3E08E97900000E0A3E0FDA3E0A3E08D96900011
:2014600000E0FCA3E0FDA3E0FEA3E0FF8C95D2AD020794C0E0C082C083C007C006C005C099
:2014800004C003C002C001C000C0D075D000C2AF900000E595F0E4A3F0A3F0A3F0AC967DA6
:2014A000007E008E078D068C057C00900000E0F8A3E0F9A3E0FAA3E0FB900000EC28F0ED19
:2014C00039A3F0EE3AA3F0EF3BA3F0AC977D008D078C067C007D00900000E0F8A3E0F9A362
:2014E000E0FAA3E0FB900000EC28F0ED39A3F0EE3AA3F0EF3BA3F0900000E0FCA3E0FDA340
:20150000E0FEA3E0FF900000ECF074012DA3F0E43EA3F0E43FA3F0900000E0A3E0A3E0FEEB
:20152000A3E08E97900000E0A3E0FDA3E0A3E08D96900000E0FCA3E0A3E0A3E08C9574015F
:20154000250FF50FE43510F510AE0FAF10EE547F6002800B74012511F511E43512F5129088
:2015600003187401F0C2C7D2AFD0D0D000D001D002D003D004D005D006D007D083D082D030
:20158000E03275E40975AF0075E644C2DED2B9020794AE82AF8353E6FB8EDC8FDD43E604B3
:2015A00075AF0043E640020794C020C0E0C0F0C082C083C007C006C005C004C003C002C0F1
:2015C00001C000C0D075D000C2B953AFFD53E6BF783F799A7A01120782D2B9D0D0D000D058
:2015E00001D002D003D004D005D006D007D083D082D0F0D0E0D02032C082C083C0F0900BE8
:2016000013E0FAA3E0FBA3E0FC8A828B838CF078BE79AF7A01120782AA82AB83ACF0EA4BAB
:20162000606D74032AFDE43BFE8C07C004C003C002E58124FBF8E6C0E008E6C0E008E6C007
:20164000E08D828E838FF0788E79C97A01120782AE82AF83158115811581D002D003D00410
:20166000EE4F60088A828B838CF080298A058B068C078D828E838FF0785779B57A011207A3
:2016800082AD82AE83AFF08D028E038F04808F90000075F0001581158115810207949079AA
:2016A0007AE493FDA3E493FEA3E493FFC007C005C006C007D002D001D000120782AD82AE07
:2016C00083D0078D048E07ED4E70037C01FF8C828F83020794058105810581AD82AE83AF02
:2016E000F0ED4E700302178674202DFAE43EFB8F048A828B838CF012552AFAA312552AFBF2
:20170000A312552AFC8A828B838CF0C007C006C00578BE79AF7A01120782AA82AB83ACF047
:20172000D005D006D007A8811818A60208A60308A604A8811818E60846604B90796EE4939D
:20174000FAA3E493FBA3E493FCC004C003C002E58124FBF8E6C0E008E6C0E008E6C0E0C03C
:2017600005C006C007C002C003C004901F6E75F000D002D001D000120782E58124FAF58104
:20178000D002D003D00415811581158102079405810581AD82AE83AFF0741C2DFAE43EFB92
:2017A0008F048A828B838CF012552AFCBC040050068C037C0080047B047C00C005C006C088
:2017C000078BF005F07B017C008006EB2BFBEC33FCD5F0F71BBBFF011CC006C005C004C02B
:2017E00003789E79167A00120782AA82AF83D003D004D005D006C005C002C0078B828C8312
:2018000012503FAE82AF8315811581D005E58124FCF8A60608A607D007D006D005A8811822
:20182000E60846603CC007C006C005785079CA7A01120782AB82AC83E58124FCF8E6C0E005
:2018400008E6C0E08B828C831255E1AB82AC8315811581D005D006D007A88118A60308A6F4
:20186000048D028E038F0474052DFDE43EFEC002C003C00474D5C0E07416C0E07400C0E07E
:20188000E58124F9F8E6C0E008E6C0E08D828E838FF0781079CE7A01120782E58124F8F5BE
:2018A0008115811581020794C082C083C0F0058105810581E58124F5F8E608467003021ADD
:2018C000EAE58124F5F8A9811919E6F70809E6F70809E6F7E58124FBF8742026FDE408363C
:2018E000FE0886078D828E838FF012552AFAA312552AFBA312552AFCC007C006C005E58114
:2019000024FBF8E6C0E008E6C0E008E6C0E08A828B838CF0782579B37A01120782158115EE
:20192000811581D005D006D007E58124F5F8A9811919E6F70809E6F70809E6F7A881181829
:20194000740326FAE40836FB0886048A828B838CF012552AFAA312552AFBA312552AFC8A37
:20196000828B838CF0C007C006C00578F579E77A01120782D005D006D007A88118187406D1
:2019800026FAE40836FB0886048A828B838CF012552AFAA312552AFBA312552AFCC007C071
:2019A00006C005C002C003C004900B0675F00078F879E17A01120782158115811581D00596
:2019C000D006D007E58124F5F88602088603088604C007C006C005C002C003C004900AFC07
:2019E00075F00078F879E17A01120782158115811581D005D006D0078D828E838FF0125558
:201A00002AFDA312552AFEA312552AFF8D828E838FF078BE79AF7A01120782AD82AE83EDDA
:201A20004E604DE58124FBF8741B26FDE40836FE0886078D828E838FF0E4125024E5812434
:201A4000FBF8741C26FDE40836FE0886078D828E838FF0E4125024E58124FBF8868208860F
:201A6000830886F0788F79177A00120782021AEAE58124FBF8740526FDE40836FE088607E5
:201A80008D828E838FF078D979D07A01120782E58124FBF88605088606088607900B13E038
:201AA000FAA3E0FBA3E0FCC005C006C0078A828B838CF0782579B37A01120782158115813C
:201AC0001581E58124FBF88605088606088607C005C006C007900AF275F00078F879E17AB8
:201AE00001120782158115811581E58124FAF581020794C082C083E5812409F58124F0F857
:201B0000860308860408860574062BFAE43CFE8D078A828E838FF012552AFAA312552AFE6D
:201B2000A312552AFF8A828E838FF0E58124FBF812552AF6A312552A08F6A312552A08F66E
:201B400074032AFAE43EFE8A828E838FF0A881181812552AF6A312552A08F6A312552A08E0
:201B6000F6E58124EDF8E58124F8F9E6F70809E6F70809E6F7E58124F8F8741B26FAE408B7
:201B800036FE0886078A828E838FF012552AFAC002E58124F5F8E6C0E008E6C0E0C003C085
:201BA00004C005E58124F2F886820886830886F078A879187A00120782E58124FBF5817F11
:201BC00000C007E58124F4F8E6C0E008E6C0E0E58124FAF8E6C0E008E6C0E008E6C0E0E5B1
:201BE0008124F4F886820886830886F078FD79C97A01120782E58124F924F5F58102079441
:201C0000AD82AE83AFF0E58124FBF886820886830886F0C007C006C005788F79177A00123C
:201C20000782D005D006D00774032DFDE43EFE8D828E838FF012552AFDA312552AFEA312C4
:201C4000552AFF8D828E838FF0780C79E77A01120782020794C082C083C0F0E5812406F516
:201C60008124F8F8740626FAE40836FB0886048A828B838CF012552AFAA312552AFBA31281
:201C8000552AFCA8811818A60208A60308A604E58124F2F88602088603088604E58124FBC1
:201CA000F8741C2AF6E43B08F608A604E58124FBF886820886830886F012552AFFE581247F
:201CC000F0F8E62FFEE58124FBF886820886830886F0EE125024E58124FBF88682088683EB
:201CE0000886F012552A24FA503BE58124FBF886820886830886F0E4125024741B2AFDE414
:201D00003BFE8C07C002C003C0048D828E838FF012552AFC0C8D828E838FF0EC125024D095
:201D200004D003D002741B2AFDE43BFE8C078D828E838FF012552AFDC002C003C004E581B8
:201D400024FBF8740626FCE40836FE0886078C828E838FF012552AFCC3ED9CD004D003D02D
:201D600002402AC002C003C004E58124F5F8E6C0E008E6C0E008E6C0E090000178F3791A06
:201D80007A00120782E58124FAF5818022C002C003C004E58124F5F886820886830886F03B
:201DA0007800791C7A00120782158115811581E58124F7F581020794C082C083C0F0E58110
:201DC0002406F58124F8F8740626FAE40836FB0886048A828B838CF012552AFAA312552AB1
:201DE000FBA312552AFCA8811818A60208A60308A604E58124F2F8860208860308860474C1
:201E00001C2AFDE43BFE8C078D828E838FF0E4125024E58124FBF8741B2AF6E43B08F60875
:201E2000A604E58124FBF886820886830886F012552AFFE58124F0F8E62FFEE58124FBF852
:201E400086820886830886F0EE125024E58124FBF886820886830886F0E58124FBF912557E
:201E60002AF7A8811818740626FDE40836FE0886078D828E838FF012552AFDE58124FBF8EC
:201E8000C3E69D402AC002C003C004E58124F5F8E6C0E008E6C0E008E6C0E090000278F333
:201EA000791A7A00120782E58124FAF5818022C002C003C004E58124F5F8868208868308FD
:201EC00086F07800791C7A00120782158115811581E58124F7F581020794C082C083C0F0DF
:201EE000058105810581E58124F5F88602088603088604741C2AFDE43BFE8C078D828E83A7
:201F00008FF0E4125024A8811818741B2AF6E43B08F608A604A88118188682088683088601
:201F2000F012552AFFE58124F3F8E62FFEA881181886820886830886F0EE125024C002C0B3
:201F400003C004E58124F8F8E6C0E008E6C0E008E6C0E090000078F3791A7A00120782E516
:201F60008124FAF581E58124FAF581020794058105810581AD82AE83AFF0ED4E7003022153
:201F8000BB74202DFAE43EFB8F048A828B838CF012552AFAA312552AFBA312552AFC8A828F
:201FA0008B838CF0C007C006C00578BE79AF7A01120782AA82AB83ACF0D005D006D007A8B1
:201FC000811818A60208A60308A604A8811818E608467003022088C005C006C007E58124BF
:201FE000FBF8740326FDE40836FE0886078D828E838FF012552AFDA312552AFEA312552A0C
:20200000FFC005740AC0E08D828E838FF0782779EA7A01120782AE82AF831581D005758263
:202020000AC007C006788E79BC7A01120782AC82AD83D006D007EEB5040CEFB50508D00772
:20204000D006D0058042D007D006D005A881181886020886030886048A828B838CF0C00730
:20206000C006C005785779B57A01120782AA82AB83ACF0D005D006D007A8811818A6020841
:20208000A60308A604021FCBA8811818E6084670030221BBA8811818740626FAE40836FB0B
:2020A0000886048A828B838CF012552AFAA312552AFBA312552AFCEA4B70030221BBE58122
:2020C00024F9F8B6000608B60002802FE58124F9F8B6010708B6000302215CE58124F9F8CC
:2020E000B6020608B600028043E58124F9F8B6030708B600030221BB02218CE58124F7F89D
:20210000E6C0E008E6C0E0C005C006C007E58124F9F886820886830886F078DA791E7A00E4
:20212000120782E58124FBF5810221BBE58124F7F8E6C0E008E6C0E0C005C006C007E581E6
:2021400024F9F886820886830886F078B8791D7A00120782E58124FBF581805FE58124F79D
:20216000F8E6C0E008E6C0E0C005C006C007E58124F9F886820886830886F07855791C7A13
:2021800000120782E58124FBF581802FC005C006C007E58124FBF8E6C0E008E6C0E008E629
:2021A000C0E0E58124F3F8868208868378F3791A7A00120782E58124FAF5811581158115A3
:2021C00081020794C082C083C0F0E5812412F58175821B78E779BC7A01120782AA82AB8384
:2021E000ACF0E58124FBF8A60208A60308A6049003F3E0701C9003F37401F0785079CA7A59
:2022000001120782E5828583F09003F4F0E5F0A3F09003F4E0FBA3E0FC9003F4E0F5F0A314
:20222000E045F0700B9003F474012BF0E43CA3F09003F4E0FBA3E0FC9003F474012BF0E468
:202240003CA3F0C003C00475820A786C79BC7A0112078215811581E58124FBF886820886B9
:20226000830886F078F879157A00120782AA82AB83ACF0E58124F8F8A60208A60308A604CF
:20228000E58124F8F8E6084660030223AD900AF275F00078AA79E07A01120782AD82AE8379
:2022A000AFF0E58124F8F8A60508A60608A607E58124F8F8E6084670030223ADE58124F87C
:2022C000F8740326FDE40836FE088607E58124FBF8E6C0E008E6C0E008E6C0E08D828E8378
:2022E0008FF0785679C97A01120782158115811581E58124F8F8741B26FDE40836FE08869D
:20230000078D828E838FF0E4125024E58124F8F8741C26FDE40836FE0886078D828E838F1C
:20232000F0E4125024E58124F8F8742026FDE40836FE088607E58124F8F8741D26FAE40846
:2023400036FB0886048D828E838FF0EA125024A3EB125024A3EC1250248A828B838CF0E408
:20236000125024A3125024A31250248A828B838CF078A979AF7A01120782E58124F8F88690
:2023800002088603088604900B13E0FDA3E0FEA3E0FFC002C003C0048D828E838FF07855D5
:2023A00079B07A01120782158115811581E58124F8F8E60846700302282FE58124F8F874B4
:2023C0002026FAE40836FB0886048A828B838CF012552AFDA312552AFEA312552AFF8D8276
:2023E0008E838FF0C004C003C002786A79B47A01120782AE82AF83D002D003D004C3EE94BF
:2024000008EF64809480400302282F900AFC75F000C004C003C00278AA79E07A011207825C
:20242000AD82AE83AFF0D002D003D004E58124F5F8A60508A60608A607E58124F5F8E60834
:202440004670030227A8E58124F5F8E58124EFF9740626F7E4083609F70809E6F7900B06C1
:2024600075F000C004C003C00278AA79E07A01120782AD82AE83AFF0D002D003D004E5813F
:2024800024EFF886820886830886F0ED125024A3EE125024A3EF125024ED4E7003022774AD
:2024A000E58124F5F8E58124F2F9740326F7E4083609F70809E6F7C004C003C00278A579AD
:2024C000E57A01120782AD82AE83AFF0D002D003D004E58124F2F886820886830886F0ED91
:2024E000125024A3EE125024A3EF125024ED4E7003022732E58124EFF88682088683088606
:20250000F012552AFDA312552AFEA312552AFFA8811818A60508A60608A607758209C004A7
:20252000C003C002788E79BC7A01120782E5828583F0D002D003D00445F07029C002C0039A
:20254000C004E58124FBF8740626FAE40836FB0886048A828B838CF07408125024D004D0B5
:2025600003D0028044C002C003C004E58124FBF8740626FDE40836FE088607758209C007E3
:20258000C006C005C002788E79BC7A01120782AB82D002D005D006D0078D828E838FF0EB92
:2025A000125024D004D003D002A881181886820886830886F0E58124ECF9E7125024A309A4
:2025C000E7125024A309E7125024A8811818740326FDE40836FE0886078D828E838FF0E549
:2025E0008124E6F8E6125024A308E6125024A308E612502475820DC004C003C002788E79F2
:20260000BC7A01120782AE82AF83D002D003D004BE015EBF005BE58124F5F8E58124F2F9EA
:20262000E6F70809E6F70809E6F78A828B838CF012552AFDA312552AFEA312552AFFC00494
:20264000C003C002E58124EFF8E6C0E008E6C0E008E6C0E08D828E838FF0783A79B17A01EC
:20266000120782158115811581D002D003D0048059E58124F5F8E58124F2F9E6F70809E6EB
:20268000F70809E6F78A828B838CF012552AFDA312552AFEA312552AFFC004C003C002E59E
:2026A0008124EFF8E6C0E008E6C0E008E6C0E08D828E838FF0785579B07A011207821581AB
:2026C00015811581D002D003D0048A828B838CF012552AFDA312552AFEA312552AFF8D82BD
:2026E0008E838FF078BE79AF7A01120782AC82AB83AAF0E58124F5F88605088606088607B5
:20270000C005C006C0078C828B838AF012296315811581158160028016E58124F8F88682F7
:202720000886830886F0788F79177A00120782022869E58124EFF886820886830886F012B1
:20274000552AFDA312552AFEA312552AFFC004C003C002C005C006C007900B0675F000787F
:20276000F879E17A01120782158115811581D002D003D004E58124F5F88605088606088692
:2027800007C004C003C002C005C006C007900AFC75F00078F879E17A011207821581158190
:2027A0001581D002D003D0048A828B838CF012552AFAA312552AFBA312552AFC8A828B8370
:2027C0008CF0786A79B47A01120782E5828583F045F0705BE58124F8F886020886030886D8
:2027E00004900B13E0FDA3E0FEA3E0FFC002C003C0048D828E838FF0782579B37A01120702
:2028000082158115811581E58124F8F88602088603088604C002C003C004900AF275F00015
:2028200078F879E17A011207821581158115817401C0E0E4C0E07404C0E0E4C0E0E5812437
:20284000E2F8E6C0E008E6C0E008E6C0E0E58124E5F886820886830886F078FD79C97A01CC
:20286000120782E58124F9F581E58124EBF58102079490798EE493FDA3E493FEA3E493FF00
:20288000C007C006C005C005C006C007D002D001D000120782D005D006D00702079490795E
:2028A00074E493FDA3E493FEA3E493FFC007C005C006C007D002D001D000120782AD82AEFB
:2028C00083D0078D828E83020794AE82AF83907977E493FBA3E493FCA3E493FDC005C003D8
:2028E000C004C0058E828F83D002D001D000120782AB82AC83D0058B828C8302079490792C
:202900007AE493FDA3E493FEA3E493FFED4E601DC007C005C006C007D002D001D00012073B
:2029200082AD82AE83D0078D828E838003900000020794900AFC75F00078A479DF7A011212
:202940000782900B0675F00078A479DF7A01120782900AF275F00078A479DF7A01120782E3
:20296000020794E58124FCC3C8C0E0C082E608467006E5824583601218E58296F58208E503
:202980008396428208E5F0964582D082C8D0E0C822AD82AE83AFF0E58124FCF886048D8256
:2029A0008E838FF0EC1250240DBD00010EE58124FCF80886048D828E838FF0EC1250240219
:2029C0000794AD82AE83AFF074012DFAE43EFB8F048A828B838CF012552AFC7A008D828ED7
:2029E000838FF012552AFD7F004202EF42048A828C83020794AD82AE83AFF012552AFB7C90
:202A0000000DBD00010E8D828E838FF012552AFD7F004204EF4203E58124FCF886078FF02D
:202A200005F08006EC2CFCEB33FBD5F0F78B047B00E58124FAF8E62453F58208E63479F548
:202A400083E4937E005204EE5203E58124FAF886077408C39FFF8FF005F08007C3EB13FBC8
:202A6000EC13FCD5F0F68C82020794C082C083C0F0E5812407F58124EDF8C3E6940808E67D
:202A8000648094805048E58124EDF8E6C0E008E6C0E0E58124EDF8E6C0E008E6C0E0E5813A
:202AA00024EDF886820886830886F078F579297A00120782AC82E58124FCF58124F7F8868F
:202AC000820886830886F0EC125024022D2AE58124EFF8E608466003022BE77408C0E0E4FE
:202AE000C0E0E58124EBF88682088683125660AB82AC8315811581E58124FDF8E4F608F609
:202B0000E58124FDF8C3E69B08E664808CF063F08095F05052C003C004E58124F5F8E58146
:202B200024FBF9E726FC09E70836FD088606E58124EFF8E58124FBF9E726FA09E70836FB96
:202B40000886078A828B838FF012552AFA8C828D838EF0125024E58124FBF806B600020857
:202B600006D004D0038099E58124EDF8740756FE7F004F7003022D2AE58124F7F8E58124B4
:202B8000FDF9E726C0E009E70836C0E008E6C0E0E58124F9F8D0E0F618D0E0F618D0E0F699
:202BA000E58124F1F8E58124FDF9E726FA09E70836FC088605C006C007E4C0E0C0E08A82A1
:202BC0008C838DF078F579297A00120782AF82E58124FCF58124FAF886820886830886F06B
:202BE000EF125024022D2A7408C0E0E4C0E0E58124EBF88682088683125660AE82AF8315A2
:202C0000811581E58124FDF8E4F608F6E58124FDF8C3E69E08E664808FF063F08095F04097
:202C200003022CA4C006C007E58124F5F8E58124FBF9E726FA09E70836FB088607E58124EE
:202C4000EFF8E58124FBF9E726FC09E70836FD088606C007C003C0027408C0E0E4C0E0E576
:202C60008124E8F8E6C0E008E6C0E08C828D838EF078F579297A00120782AE82E58124FC45
:202C8000F581D002D003D0078A828B838FF0EE125024E58124FBF806B600020806D007D045
:202CA00006022C0CE58124EDF8A98119740756F7097700A88118E60846606FE58124F7F81D
:202CC000E58124FDF9E726FB09E70836FC088605E58124F1F8E58124FDF9E726FA09E708BD
:202CE00036FE088607C005C004C003E58124FCF8E6C0E008E6C0E0E58124EAF8E6C0E00833
:202D0000E6C0E08A828E838FF078F579297A00120782AF82E58124FCF581D003D004D005C4
:202D20008B828C838DF0EF125024E58124F6F58102079405810581AD82AE83AFF0A88118A6
:202D4000E4F608F68D828E838FF012552A602874012DFAE43EFB8F048A828B838CF012559A
:202D60002AFA7C00A88118EA26F6EC0836F674022DFDE43EFE80CDA88118868208868315D0
:202D8000811581020794C082C083C0F0E58124F8F886037C00E58124F9F886027410C39AE7
:202DA000FAE58124F6F88607EAC39FFA8AF005F08006EB2BFBEC33FCD5F0F7A88118188612
:202DC000820886830886F012552AFF8C06EE4207A881181886820886830886F0EF12502424
:202DE000A8811818740126FDE40836FE0886078D828E838FF012552AFAEB42028D828E83B4
:202E00008FF0EA125024158115811581020794C082C083C0F0E5812404F58124F0F8C3E676
:202E2000940808E6648094805050E58124F2F886020886030886048A828B838CF012552A2A
:202E4000FAE58124F0F8E6C0E008E6C0E0C002E58124F2F8E6C0E008E6C0E0E58124F5F831
:202E600086820886830886F07886792D7A00120782E58124FBF5810230B2E58124F5F8E6C6
:202E800008466003022F8E7408C0E0E4C0E0E58124EEF88682088683125660AB82AC831560
:202EA000811581E58124FDF8E4F608F6E58124FDF8C3E69B08E664808CF063F08095F050EB
:202EC00052C003C004E58124F8F8E58124FBF9E726FC09E70836FD088606E58124F0F8E502
:202EE0008124FBF9E726FA09E70836FB0886078A828B838FF012552AFA8C828D838EF012A2
:202F00005024E58124FBF806B600020806D004D0038099E58124F0F8740756FE7F004F70B5
:202F2000030230B2E58124F2F8E58124FDF9E726FB09E70836FC0886058B828C838DF01246
:202F4000552AFB8E057408C39DF5F005F0EB8002C313D5F0FBFBE58124FAF8E58124FDF9B4
:202F6000E726FA09E70836FC088605C006C007C003E4C0E0C0E08A828C838DF07886792DDD
:202F80007A00120782E58124FBF5810230B27408C0E0E4C0E0E58124EEF886820886831202
:202FA0005660AE82AF83158115817C007D00C3EC9EED64808FF063F08095F05072C006C097
:202FC00007E58124F0F8EC26FAED0836FB0886078A828B838FF012552AFAE58124F8F8EC27
:202FE00026FBED0836FE088607C007C006C005C0047408C0E0E4C0E0C002E58124ECF8E626
:20300000C0E008E6C0E08B828E838FF07886792D7A00120782E58124FBF581D004D005D0B8
:2030200006D0070CBC00010DD007D006022FAEE58124F0F8A98119740756F7097700A8812B
:2030400018E60846606CE58124F2F8EC26FAED0836FB0886078A828B838FF012552AFAA851
:20306000811886067408C39EFEE58124F5F8E62EF5F005F0EA8002C313D5F0FBFAE5812465
:20308000FAF8EC26FCED0836FD088607A88118E6C0E008E6C0E0C002E4C0E0C0E08C828D9D
:2030A000838FF07886792D7A00120782E58124FBF581E58124F9F581020794C082C083C07F
:2030C000F0E5812418F58124E6F8740826FAE40836FB0886048A828B838CF012552AFA7CFE
:2030E00000C004C0027408C0E0E4C0E08A828C83125660AF82AE8315811581D002D0045340
:2031000002077C00EA4C7004FBFC80047B017C00EB2FFBEC3EFCE58124F1F8A60308A60404
:20312000E58124F1F8740226FAE40836FF8A828F83787879B97A01120782E5828583F0456B
:20314000F0700690000002346578C379BA7A01120782AA82AB83ACF0E58124FCF8A6020836
:20316000A60308A604E58124E6F8740326FDE40836FE0886078D828E838FF012552AFCE52C
:203180008124FCF886820886830886F0EC125024E58124FCF8740126FAE40836FB088604CB
:2031A0008D828E838FF012552AA312552A8A828B838CF012502478C379BA7A01120782AD5E
:2031C00082AE83AFF0E58124F9F874022DF6E43E08F608A607E58124F9F886020886030818
:2031E0008604E58124F1F8E6C0E008E6C0E0E4C0E08A828B838CF078DB79527A0012078271
:20320000158115811581E58124F5F8E4F608F6E58124E6F8740526FAE40836FE0886078A5D
:20322000828E838FF012552AFDA312552AFEA312552AFFAA811AE58124E9F8A6028D828E94
:20324000838FF0E58124EBF812552AF6E58124EBF8E67003023462C00274012DFAE43EFB9F
:203260008F048A828B838CF012552AFAE58124F6F8A602087600C007C006C005C00274086C
:20328000C0E0E4C0E0E58124EEF88682088683125660AB82AC8315811581D002D005D006B4
:2032A000D007E58124F2F8A60308A604E58124EAF8B61A00D0025003023364C002E5812422
:2032C000EAF88682C007C006C00578E779BC7A01120782AA82AB83ACF0D005D006D007E5AB
:2032E0008124EBF8A60208A60308A604E58124F4F8E58124EEF9740756F7097700E5812482
:20330000F8F8E58124F2F9E726FA09E70836FB088604C007C006C005C002E58124F2F8E618
:20332000C0E008E6C0E0E58124E5F8E6C0E008E6C0E008E6C0E0E58124E5F8E6C0E008E67B
:20334000C0E08A828B838CF0780F792E7A00120782E58124F9F581D002D005D006D007D0D7
:2033600002023446C005C006C007E58124E8F88682C007C006C005C002788E79BC7A01122F
:203380000782AB82AC83D002D005D006D0078A057E007F40C007C006C005C002C003C0048D
:2033A0008D828E838FF0789179297A0012078215811581D002D005D006D007E58124E6F8C6
:2033C000E58124E9F9E6F7097700097740E58124F2F8E58124ECF9740756F7097700E581D3
:2033E00024F6F8E58124F0F9E726FB09E70836FC088607C007C006C005C002E58124F0F8FB
:20340000E6C0E008E6C0E0E58124E3F8E6C0E008E6C0E008E6C0E0E58124E3F8E6C0E0089E
:20342000E6C0E08B828C838FF0780F792E7A00120782E58124F9F581D002D005D006D007DB
:20344000D007D006D005E58124F5F8E58124F7F9E726F609E70836F674022DFDE43EFE0210
:20346000323D900001E58124E5F581020794E5812414F581789C79BA7A01120782AD82AE7C
:2034800083AFF0900002C007C006C005784B79BA7A01120782E5828583F0D005D006D00739
:2034A00045F07008900000F5F00237D974012DFAE43EFB8F048A828B838CF012552AFC7AEF
:2034C000008D828E838FF012552A7F002AFAEF3CFC8A828C83782B79AA7A01120782AD82CC
:2034E000AE83AFF0E58124FCF8A60508A60608A607E58124FCF8E608467008900000F5F0CB
:203500000237D9789C79BA7A01120782AA82AB83ACF0E58124F9F8A60208A60308A604E5DB
:203520008124FCF8740826FDE40836FE0886078D828E838FF012552AFD7F00C007C00574F2
:2035400008C0E0E4C0E08D828F83125660AC82AB8315811581D005D0075305077F00ED4F08
:203560007004FEFF80047E017F00EE2CFEEF3BFF8E828F83784B79BA7A01120782E58285FD
:2035800083F045F07008900000F5F00237D9E4FEFFE58124FCF8740526FBE40836FC0886DF
:2035A000058B828C838DF0E58124EFF812552AF6A312552A08F6A312552A08F6E58124ED9A
:2035C000F8A68116E58124EDF8E58124F2F9E6F7E58124EFF886820886830886F012552A5C
:2035E000FD70030237CCE58124EFF8740126FAE40836FB0886048A828B838CF012552AFA80
:20360000E58124F7F8A602087600C007C006C0057408C0E0E4C0E08E828F83125660AB8202
:20362000AC8315811581D005D006D007E58124F5F8A60308A604BD1A0050030236EDE58126
:2036400024F3F874075EF6087600C006C007E58124F7F8E58124F3F9E726FA09E70836FB62
:20366000088607E58124EBF886068E047D007E40C007C006E58124F3F8E6C0E008E6C0E0D9
:20368000E58124EDF8E6C0E008E6C0E0C002C003C0078C828D838EF0786B792A7A001207A6
:2036A00082E58124F9F581D006D007E58124F0F886057E007F40E58124EDF8868208868320
:2036C0000886F012552AFCC007C006C005C006C0078C8278AA79BC7A011207821581158159
:2036E0001581D006D007D007D0060237B0A981197700E904F87600E58124F3F874075EF698
:20370000087600C006C007E58124F7F8C001E58124F2F9E726FA09E70836FB088607D00159
:2037200089068E047D007E40C007C006C001E58124F2F8E6C0E008E6C0E0E58124ECF8E603
:20374000C0E008E6C0E0C002C003C0078C828D838EF0786B792A7A00120782E58124F9F540
:2037600081D001D006D00789077E007D408F828E838DF078C279297A00120782AE82AF838D
:20378000E58124EDF886820886830886F012552AFDC007C006C006C0078D82786C79BC7AD9
:2037A0000112078215811581D006D007D007D006E58124F7F8E62EFE08E63FFFE58124EFB7
:2037C000F8740226F6E40836F60235D0E58124FCF886820886830886F0C8E58124ECF58177
:2037E000C8020794AF82BF02028005BF030C80057582028008758208800375820002079401
:20380000900B41E0FEA3E0FF8E828F83020794AF83E582900B41F0EFA3F0020794C082C027
:2038200083C0F0058105810581A88118E4F608F6E4FAFCE58124FBF8E608467003023BCAA5
:20384000C002C004E58124F9F8740826FAE40836FB0886048A828B838CF012552AFABA023F
:20386000028007D004D002023B01E58124F9F8740726FAE40836FB0886048A828B838CF080
:20388000E58124FCF812552AF6D004D002A8811818E6704FC002C004E58124F9F8740926DB
:2038A000FAE40836FB0886048A828B838CF012552AD004D002702CC002C004E58124F9F8F5
:2038C000740426FAE40836FB0886048A828B838CF012552AFABA0107D004D0020239E0D02D
:2038E00004D002A8811818E66049C002C004E58124F9F8740926FAE40836FB0886048A82B1
:203900008B838CF012552AD004D0027026C002C004E58124F9F8740426FAE40836FB08860C
:20392000048A828B838CF012552AD004D00270030239E0A8811818B60348C002C004E581E2
:2039400024F9F8740926FAE40836FB0886048A828B838CF012552AFABA03028006D004D0FC
:2039600002801FE58124F9F8740426FAE40836FB0886048A828B838CF012552AD004D00217
:20398000605EA8811818B60223C002C004E58124F9F8740926FAE40836FB0886048A828B51
:2039A000838CF012552AD004D0027034A8811818E66031C002C004E58124F9F8740926FABF
:2039C000E40836FB0886048A828B838CF012552AFABA02028006D004D0028008D004D002FF
:2039E0007A017C00C002C004E58124F9F8740426FAE40836FB0886048A828B838CF012558B
:203A00002AD004D0026003023B7AA8811818E6702CC002C004E58124F9F8740926FAE40857
:203A200036FB0886048A828B838CF012552AFABA0307D004D002023AF7D004D002A881181E
:203A400018E6702CC002C004E58124F9F8740926FAE40836FB0886048A828B838CF0125582
:203A60002AFABA0207D004D002023AF7D004D002A8811818E4B6020104FB602BC002C004DA
:203A8000E58124F9F8740926FAE40836FC0886078A828C838FF012552AFABA0206D004D0D0
:203AA000028054D004D002EB601FE58124FBF8740926FDE40836FE0886078D828E838FF0AF
:203AC00012552AFDBD0302802EA8811818B603028003023B7AE58124FBF8740926FDE40891
:203AE00036FE0886078D828E838FF012552AFDBD02028003023B7AA881187601087600801F
:203B000079E58124FBF886820886830886F012552AFFBF02028063E58124FBF8740426FDCA
:203B2000E40836FE0886078D828E838FF012552A7026E58124FBF8740926FDE40836FE08C5
:203B400086078D828E838FF012552AFD54036008A881187601087600E58124FBF874072698
:203B6000FDE40836FE0886078D828E838FF012552AFD540360047A017C00E58124F5F8E657
:203B800008466020E58124F5F886050886060886078D828E838FF0A88118E6125024A30835
:203BA000E6125024E58124F2F8E60846601CE58124F2F886050886060886078D828E838F9E
:203BC000F0EA125024A3EC125024E58124FAF581020794C082C083C0F0E5812404F581A8F8
:203BE0008118E4F608F6E58124FAF8E608467006900000023CA4AC811C7B007A40E58124B4
:203C0000FAF8741026FDE40836FE088607C004C003C002E4C0E0C0E0C0E08D828E838FF0AA
:203C2000781D79387A00120782E58124FAF581A88118E60846606AE58124FAF8741B26FDC2
:203C4000E40836FE0886078D828E838FF0E58124FDF812552AF6A312552A08F6C007C0064B
:203C6000C005780079387A00120782AA82AC83D005D006D007E58124FDF8E6B5020708E653
:203C8000B50402801C8D828E838FF012552AFDA312552AFEBDFF05BEFF0280059000008059
:203CA00003900001E58124F9F581020794AF82BF02067E027F0080047E087F00C3E49E74A1
:203CC000808FF063F08095F050281EBEFF011FE58124FBF8EE26FBEF0836FC0886058B82C5
:203CE0008C838DF012552AFBBBFF0280CF9000008003900001020794C082C083C0F00581A5
:203D000005810581E58124FBF8E608467006900000023F1EE58124FBF8741026FAE408363E
:203D2000FB08860474092AFDE43BFE8C078D828E838FF0A881181812552AF6A8811818E6E4
:203D40006013A8811818B602067E027F00800A7E087F0080047E007F00A88118A60608A62F
:203D600007EE4F6040E58124FBF8740826FDE40836FE088607C004C003C002C005C006C0FA
:203D800007E58124F8F8868278AD793C7A00120782AE82AF83158115811581D002D003D012
:203DA00004EE4F6043E58124F5F8E608467003023E42C004C003C0027437C0E07479C0E05E
:203DC0007480C0E0E58124EFF886820886830886F0785679C97A011207821581158115815F
:203DE000D002D003D004805AA88118B6020608B600028006900000023F1EE58124F5F8E6DF
:203E00000846603EE58124FBF8740826FDE40836FE088607C004C003C002C005C006C0074A
:203E2000E58124EFF886820886830886F0785679C97A01120782158115811581D002D003ED
:203E4000D00474072AFAE43BFB8A828B838CF012552AFF600FBF02067D027E00800A7D086D
:203E60007E0080047D007E008D038E04ED4E6031C004C003E58124F9F8E6C0E008E6C0E041
:203E800008E6C0E08F8278AD793C7A00120782AE82AF83158115811581D003D004EE4F602C
:203EA00034E58124F2F8E6084660707437C0E07479C0E07480C0E0E58124EFF886820886E3
:203EC000830886F0785679C97A011207821581158115818046BB0205BC000280059000009E
:203EE000803CE58124F2F8E60846602FE58124FBF88605088606088607C005C006C007E567
:203F00008124EFF886820886830886F0785679C97A01120782158115811581900001E5819F
:203F200024FAF581020794C082C083C0F0E581240AF58124EEF886020886030886047406E2
:203F4000C0E0E4C0E0C0E08A828B838CF078DB79527A00120782158115811581E58124F494
:203F6000F8741026FAE40836FB08860474052AFDE43BFE8C078D828E838FF012552A20E076
:203F800018E58124EEF886050886060886078D828E838FF0740112502474082AFDE43BFE8B
:203FA0008C078D828E838FF012552AFDBD0200400302406A74072AFDE43BFE8C078D828EA4
:203FC000838FF012552AFD5403700302405774092AFDE43BFE8C078D828E838FF012552A6A
:203FE000FD54036072C002C003C004E58124F1F8741D26FDE40836FE0886078D828E838FC7
:20400000F012552AFDA312552AFEE58124F1F8741B26FBE40836FC0886078B828C838FF07F
:2040200012552AFBA312552AFCEDB50306EEB504028008D004D003D002801CD004D003D05C
:204040000274042AFDE43BFE8C078D828E838FF07401125024801374042AFDE43BFE8C0793
:204060008D828E838FF0E4125024AF811FE58124F7F8A607087600087640E58124FDFF7E82
:20408000007D40C004C003C002E58124F4F8E6C0E008E6C0E008E6C0E0C007C006C0058A26
:2040A000828B838CF0781D79387A00120782E58124FAF581D002D003D004E58124FDF8E6C1
:2040C0000846601FE58124EEF8860508860608860774032DFDE43EFE8D828E838FF0740219
:2040E000125024A88118E60846601DE58124EEF886050886060886070DBD00010E8D828EAE
:20410000838FF07402125024E58124EEF8E58124F7F9E6F70809E6F70809E6F7E58124F77D
:20412000F8E58124FAF9740226F7E4083609F70809E6F774072AFDE43BFE8C078D828E83F5
:204140008FF012552AFD5305038D82C004C003C00278E479377A00120782AF82D002D003A8
:20416000D004E58124FAF886820886830886F0EF125024E58124F7F8740426FDE40836FEAF
:2041800008860774092AFAE43BFB8A828B838CF012552AFA5302038A82C007C006C0057880
:2041A000E479377A00120782AC82D005D006D0078D828E838FF0EC125024E58124F3F581A2
:2041C000020794E5812406F581AD82AE83AFF0E58124FBF9FA7B007C40C001C002C003C088
:2041E000048D828E838FF07827793F7A00120782158115811581D00187077E0074022FFF6D
:20420000E43EFEE904F886057C00ED2FFFEC3EFE740229F886057C00ED2FFFEC3EFE7403F7
:2042200029F886057C00ED2FFFEC3EFE740429F886057C00ED2FFFEC3EFE740529F9870509
:204240007C00ED2FFFEC3EFE8F828E83E58124FAF581020794C082C083C0F00581E58124A1
:20426000F7F88602088603088604E58124FDF886820886830886F012552AFFA88174075FFB
:20428000F6E58124FDF8740126FDE40836FE0886078D828E838FF012552A5401C40354F8C4
:2042A000A88146F6E58124FDF8740226FDE40836FE0886078D828E838FF012552A5401C483
:2042C00054F0A88146F6E58124FDF8740326FDE40836FE0886078D828E838FF012552A54E3
:2042E00001C42354E0A88146F6E58124FDF8740426FDE40836FE0886078D828E838FF012BD
:20430000552A5401030354C0FDA881E642058A828B838CF0ED1250240ABA00010BE58124F9
:20432000FDF8740526FDE40836FE0886078D828E838FF012552AFDA88174015DF6E581248F
:20434000FDF8740626FDE40836FE0886078D828E838FF012552A540125E0A88146F6E581C1
:2043600024FDF8740726FDE40836FE0886078D828E838FF012552A540325E025E0A88146D1
:20438000F6E58124FDF8740826FDE40836FE0886078D828E838FF012552A5403C454F0A81D
:2043A0008146F6E58124FDF8740926FDE40836FE0886078D828E838FF012552A54030303DF
:2043C00054C0FDA881E642058A828B838CF0ED125024E58124FCF581020794C082C083C08F
:2043E000F0E581240CF58124FBF9FA7B007C40C001C002C003C004E58124EEF88682088668
:20440000830886F07827793F7A00120782158115811581D001E58124F2F8741026FAE40898
:2044200036FB088604C001E58124EBF8E6C0E008E6C0E008E6C0E08A828B838CF07855790D
:20444000427A00120782158115811581D0017C028703BB014CC0017C03E58124EBF8C001F4
:20446000E58124F3F9740226F7E4083609F70809E6F7D001E58124F1F8741A26FDE408360C
:20448000FE0886078D828E838FF012552AFDE58124F4F886820886830886F0ED125024D00C
:2044A00001E904F88607BF02028002807BC001EC04FFE58124EBF8EC26FEE40836FD08866F
:2044C00002E58124F1F8C001E58124F6F9741B26F7E4083609F70809E6F7D001E58124F71F
:2044E000F886820886830886F012552A8E828D838AF0125024EF04FCE58124EBF8EF26FB10
:20450000E40836FE088607E58124F7F886820886830886F012552AA312552AFDFA8B828E7F
:20452000838FF0125024D001740229F886078F067F008C05C3E49E74808FF063F08095F049
:204540005053C001E58124EBF8C001E58124F6F9ED26F7E4083609F70809E6F7D0010D8ECA
:20456000041CE58124F1F8EC26FCE40836FB0886028C828B838AF012552AFCE58124F7F851
:2045800086820886830886F0EC1250241EBEFF011FD001809FE58124F8F8A605740329F86A
:2045A0008606BE02028003024627C001ED04FFE58124EBF8C001E58124F6F9ED26F7E4086D
:2045C0003609F70809E6F7D001E58124F1F8741D26FAE40836FD0886068A828D838EF01263
:2045E000552AFCE58124F7F886820886830886F0EC1250248F04E58124F7F8EF04F6E58163
:2046000024EBF8EC26FBE40836FC0886078A828D838EF012552AA312552AFDFA8B828C8361
:204620008FF0125024D001E92404F987078F067F00E58124F2F8E58124F5F9740826F7E48F
:20464000083609F70809E6F7E58124F8F88602C3E49E74808FF063F08095F0504CE58124F6
:20466000ECF8E58124F8F9EA26F7E4083609F70809E6F70A8E05ED14C8E58124F5C826FBF6
:2046800008E436FC0886058B828C838DF012552AFBE58124F8F886820886830886F0EB1236
:2046A00050241EBEFF011F80A67F008A828F83E58124F1F581020794E581240AF581AD8201
:2046C000AE83AFF0E58124F7F98D828E838FF012552AFC74075CF7E58124F7FC04F98D820D
:2046E0008E838FF012552AA2E3E433F774022CF98D828E838FF012552AC45401F774032C88
:20470000F98D828E838FF012552AA2E5E433F774042CF98D828E838FF012552A2323540173
:20472000F774052CF90DBD00010E8D828E838FF012552AFB74015BF774062CF98D828E835A
:204740008FF012552A035401F774072CF98D828E838FF012552A0303543FFB74035BF77459
:20476000082CF98D828E838FF012552AC4540FFB74035BF774092CF98D828E838FF0125549
:204780002A23235403FD74035DF77F007E40E58124F1F88602088603088605740AC0E0E42C
:2047A000C0E0C004C007C0068A828B838DF0784679527A00120782E58124FBF581E581244E
:2047C000F6F581020794C082C083C0F0E581241CF58124DDF8C3E6940208E6648094805011
:2047E00006900000024E88E58124F1FCFA7B007F40C004C002C003C007E58124DEF8868228
:204800000886830886F078B879467A00120782158115811581D0048C07E58124E8F8A607C5
:20482000087600087640E58124DAF8E58124E5F9E6F70809E6F70809E6F7E58124E5F874E4
:204840001026FAE40836FB088607C004740AC0E0E4C0E0E58124E5F8E6C0E008E6C0E0088D
:20486000E6C0E08A828B838FF0784679527A00120782E58124FBF581D004E58124E2F8E563
:204880008124EEF9740226F7E4083609F70809E6F774052CF9E77037C004E58124E4F8741F
:2048A0001A26FAE40836FB088604E58124EDF886820886830886F012552AFFA31818A6827E
:2048C00008A6838A828B838CF0EF125024D004AF811FE58124E8F8A607087600087640E541
:2048E0008124FDFBE58124EBF8A6030876000876408C068E057E007F40C004E58124E7F83A
:20490000E6C0E008E6C0E008E6C0E0E58124E7F8E6C0E008E6C0E008E6C0E08D828E838F3B
:20492000F0781D79387A00120782E58124FAF581D00474072CF9E77003024B01A88118E6EF
:20494000084670030249BEC001E58124E4F8C001E58124E6F9741B26F7E4083609F708095D
:20496000E6F7D001E58124EDF886820886830886F012552AFE7D00E58124EDF8740126FA73
:20498000E40836FB0886078A828B838FF012552AFFE42EFAEF3DFFE58124E7F88682088606
:2049A000830886F0EA125024A3EF125024E58124EDF8740226F6E40836F6D001801EE58180
:2049C00024E5F8741B26FDE40836FE0886078D828E838FF0E4125024A31250248707BF02EE
:2049E000028003024A7DE58124E5F88603088605088606C0047437C0E07479C0E07480C002
:204A0000E08B828D838EF0785679C97A01120782158115811581D004E58124EEF874012654
:204A2000FBE40836FD0886068B828D838EF012552AFBE58124E5F886820886830886F0EBB8
:204A4000125024E58124E5F8740126FBE40836FD088606E58124EEF886820886830886F019
:204A600012552AFA8B828D838EF0125024E58124EEF8740226F6E40836F6024B51BF03020E
:204A80008003024B51E58124FBF8E4F608F6C004E58124E4F8E58124FAF9E726FA09E708FA
:204AA00036FB088605E58124FAF87407C396FCE40896FFE58124EDF8EC26FCEF0836FF08B4
:204AC00086068C828F838EF012552A8A828B838DF0125024E58124FAF806B600020806E5D1
:204AE0008124FAF8C3E6940808E664809480D004409CE58124EEF8740826F6E40836F680A4
:204B000050E58124E5F88605088606088607C0047437C0E07479C0E07480C0E08D828E83DA
:204B20008FF0785679C97A01120782158115811581D004E58124E5F8741B26FDE40836FE01
:204B40000886078D828E838FF0E4125024A312502474092CF9E77003024D9AE58124FDF82A
:204B6000E608467003024C13C001E58124E4F8741D26FDE40836FE088607E58124EDF886A8
:204B8000820886830886F012552AFCE58124EAF8A604087600E58124EDF8740126FAE408F3
:204BA00036FB0886048A828B838CF012552AFC7A00E58124EAF8EA26FAEC0836FC8D828E5C
:204BC000838FF0EA125024A3EC125024E58124EDF8740226F6E40836F6D001A88118E60835
:204BE00046706EE58124E5F8741B26FAE40836FB0886048D828E838FF012552AFDA3125595
:204C00002AFE8A828B838CF0ED125024A3EE125024803EE58124E5F8741D26FDE40836FE53
:204C2000088607E58124E5F8741B26FAE40836FB0886048A828B838CF012552AFAA31255EF
:204C40002AFB8D828E838FF0EA125024A3EB1250248707BF02028003024D05E58124E5F87D
:204C6000E58124EBF9740826F7E4083609F70809E6F7E58124EBF88602088603088606748F
:204C800037C0E07479C0E07480C0E08A828B838EF0785679C97A011207821581158115819C
:204CA000E58124EEF8740126FCE40836FD0886068C828D838EF012552AFCE58124EBF8861E
:204CC000820886830886F0EC125024E58124E5F8740926FCE40836FD088606E58124EEF828
:204CE00086820886830886F012552AFB8C828D838EF0125024E58124EEF8740226F6E40881
:204D000036F6024DE9BF03028003024DE9E58124E5F8740826FDE40836FE088607E581246B
:204D2000FBF8E4F608F6E58124FBF8E62DFA08E63EFB8F04C005C006C007E58124F8F87424
:204D400007C396FEE40896FFE58124EBF8EE26FEEF0836FF0886058E828F838DF012552A06
:204D60008A828B838CF0125024E58124F8F806B600020806E58124F8F8C3E6940808E664C0
:204D8000809480D007D006D005409BE58124EEF8740826F6E40836F6804FE58124E5F87458
:204DA0000826FAE40836FB0886047437C0E07479C0E07480C0E08A828B838CF0785679C90A
:204DC0007A01120782158115811581E58124E5F8741D26FAE40836FB0886048A828B838C8E
:204DE000F0E4125024A3125024E58124EEF8E58124E2F9E6C397FB08E60997FC8B078C0672
:204E0000E58124E5F8E58124EBF9743426F7E4083609F70809E6F7E58124DDF8E6C39FFC45
:204E200008E69EFBE58124EBF886820886830886F0EC125024A3EB125024E58124E5F87486
:204E40003126FAE40836FB0886048A828B838CF0E58124EEF8E6125024A308E6125024A326
:204E600008E6125024E58124DDF8C3E69F08E664808EF063F08095F050067B007C0080049E
:204E80008F038E048B828C83E58124E1F5810207947581201257C3E582600302006E7998C7
:204EA000E94400601B7A019079A878AB75930AE493F2A308B800020593D9F4DAF27593FFE3
:204EC000E478FFF6D8FD7800E84400600A7900759300E4F309D8FC78A7E8440A600C790B24
:204EE000900004E4F0A3D8FCD9FA90004AE4F0A3F0A3F0A3F09000E7E4F0E4F50FF510F56C
:204F000011F512900000F0A3F0A3F0A3F09003F3E4F002006EA8811818C6B2E7C60250DDC9
:204F2000124FC3BC0003025368EF60FA30D502B2D1E583B4FF0302537EE582B4FF0302539B
:204F40007E258340072482400B025368248314500302537EF582EA8DF0A4A8F0EA8EF0A42F
:204F600028F8E435F0F9EB8DF0A428E935F0F9E433CA8FF0A429F9EA35F0FAEBF88EF0A4A0
:204F800029F9EA35F0FAE433FBEC8DF0A429F9EA35F0FAE43BFBE88FF0A42AFAEB35F0FB48
:204FA000E433CCFD8EF0A42AFAEB35F0FBE43CFCED8FF0A42BFBEC35F0FC20E703124FF105
:204FC000025347AA82AB83A2F73392D1F5826002D2F7ACF0E58124F9F8E6FD08E6FE088696
:204FE000F008E6A2F73392D5F5836002D2F7AFF0227804EC7011E58224F8500AF582E4C952
:20500000CACBFCD8EF22EC7820058220E713D5820122C3E933F9EA33FAEB33FBEC33FCD87C
:20502000EA15822220F71130F6138883A88220F509F6A8837583002280FEF280F5F022C027
:2050400013858113C082C083E5812405F581AF130FE5132403F8A607087600087640E513D1
:2050600024FCFD7E007F40E5132406F9A813088604E51324FCF886038CF0EBA4F709A7F033
:20508000E513240604F98704A81308860374012DFAE43EFE8A828E838FF012552A8BF0A412
:2050A000FBE5132403F8740126FDE40836FE0886078D828E838FF012552AFDE51324FCF854
:2050C00086078DF0EFA42B2CF7E5132406F987060987078E828F83851381D01322124FC342
:2050E0007900E583B58202800D5003125433E583C39582125725E5D0C465D020E117EA2D70
:20510000FAEB3EFBEC3FFC50097401125725EC4480FC025347C3EA9DFAEB9EFBEC9FFC5007
:205120000FC3E499F9E49AFAE49BFBE49CFCB2D1124FF1025347C01385811305810581054B
:2051400081AD82AE83AFF0E51324F8F8E6084670069000000251F2E51324FAF88602088620
:2051600003088604E51324F8F8A91309E6F70809E6F7A8130816B6FF020816A81308E6089F
:2051800046604C8D828E838FF0E5132403F812552AF6E5132403F8E66035C005C006C007FC
:2051A0008A828B838CF012552AFFE5132403F8E6B507028008D007D006D0058012D007D0CB
:2051C00006D0050DBD00010E0ABA00A60B80A38D828E838FF012552AFD7F008A828B838C31
:2051E000F012552AFA7E00EDC39AFDEF9EFF8D828F83851381D013020794AC83AB827A0053
:205200007900748E0255BD125768700AE582458345F0700122E430D112F4700BE5F0F4701E
:2052200006E58330E7012290800022700AE5F07006E58320E70122907FFF227F8E1274A0DA
:20524000F58385F08222C013E581F5132408F581AD82AE83AFF0E5132406F8A60508A60662
:2052600008A607E51324FAF8A91309E6F70809E6F70809E6F7E51324F8F8E5132404F9E6E2
:20528000F70809E6F7E5132404F88603088604E5132404F816B6FF020816EB4C6028A81379
:2052A0000886820886830886F012552AFCA31818A68208A6838D828E838FF0EC125024A3E2
:2052C000AD82AE8380BFE5132406F886820886830886F0851381D013020794C013858113F9
:2052E000C082C083C0F005810581A813088602088603088604E51324FAF8E5132404F9E6F2
:20530000F70809E6F7E5132404F88606088607E5132404F816B6FF020816EE4F60168A82AD
:205320008B838CF0E51324FCF8E6125024A3AA82AB8380D1A8130886820886830886F0853A
:205340001381D013020794B98003EA13B34010EA2401FAE43BFBE43CFC50047C800582BC2B
:20536000000EBB000BBA0008E4F5F0F583F58222A2D1E582138CF092F78B838A8222E4F5B6
:2053800083F58275F080F4A2D11322E4F583F58275F0C0747F22C0138581137E008E837892
:2053A0005C79C17A01120782D013020794C013858113AD82AE83AFF0E51324FCF8E6C0E040
:2053C000C005C006C007E4C0E0C0E0C0E090539675F00078B279647A00120782AE82AF835B
:2053E000E58124F9F5818E828F83D013020794C013E581F51324FAFFC007E51324FAF8E6F9
:20540000C0E008E6C0E008E6C0E0E4C0E0C0E0C0E090539675F00078B279647A0012078212
:20542000AE82AF83E58124F9F5818E828F83D013020794E582C583F582A2D133A2D592D1C9
:205440001392D5ECCFFCEBCEFBEACDFA22AA82AB8312552A6003A380F8C3E5829AF582E50B
:20546000839BF583020794124FC330D502B2D1BF0009BC000302538B02537EBC00030253FD
:2054800068E583B4FF0BE582B4FF0302538B025368E582B4FF0302537EC395835007247FFF
:2054A000400B025368248014500302537EF582C3ED9AEE9BEF9C40111582C3EA33F9EB3352
:2054C000FAEC33FBE433FC8005E4CCCBCAF9C08275F019C3E99DEA9EEB9FEC9400D5F00280
:2054E000802D400EE99DF9EA9EFAEB9FFBEC9400FCC3B3E833F8E58233F582E58333F58302
:20550000C3E933F9EA33FAEB33FBEC33FC80C4B3E4F938FAE43582FBE43583FCD08250048E
:2055200005827C80124FF102535F20F71430F6148883A88220F507E6A88375830022E2809F
:20554000F7E49322E022C013858113AE82E583FF33E433FD6009C3E49EFBE49FFC80048EB5
:20556000038F04E51324FCF808E630E70FE51324FCF8C3E496FE08E496FF800AE51324FC03
:20558000F88606088607C005C006C0078B828C831255E1AE82AF8315811581D005ED600D7F
:2055A000C3E49EFCE49FFD8C828D8380048E828F83D01322FCABF0AA83A982749EF582C227
:2055C000D1EC30E716D2D1E9F42401F9EAF43400FAEBF43400FBECF43400FC124FF1025372
:2055E00047C013858113AE82AF837D007C00E51324FCF808E6235401FB702FE51324FCF8FD
:20560000E626F608E633F6E51324FCF8C3EE96EF08965011E51324FCF808E618C313C61367
:20562000C608F680050C8C0580C4E51324FCF8C3EE96EF0896400DE51324FCF8EEC396FEBA
:20564000EF0896FFE51324FCF808E618C313C613C608F68D041DEC70D18E828F83D0132233
:20566000C013858113AE82E583FF33E433FD6009C3E49EFBE49FFC80048E038F04E5132474
:20568000FCF808E633E433FF600FE51324FCF8C3E496FA08E496FE800AE51324FCF8860287
:2056A000088606C007C005C002C0068B828C831256D6AC82AE8315811581D005D007EF6D55
:2056C000600DC3E49CFDE49EFF8D828F8380048C828E83D01322C013858113AE82AF837C09
:2056E000007D007B10EF235401FAEE2EFEEF33FFEC2CFCED33FDEA6003430401E51324FC28
:20570000F8C3EC96ED08964010E51324FCF8ECC396FCED0896FD430601EB14FB70C78E820D
:205720008F83D013226040F82582500274FFF582E824F8501ECCCBCAF9E4CC24F85014CB10
:20574000CAF9E4CB24F8500BCAF9E4CA24F8500379002224086010F8C3EC13FCEB13FBEAB0
:2057600013FAE913F9D8F1221257C7C3749E95824039790012572530D126E9F42401F58200
:20578000EAF43400F583EBF43400F5F0ECF43400700AE582458345F0700122E430E70F22D6
:2057A000EC20E71489828A838BF02230D10AE4F582F583F5F074802274FFF582F583F5F00D
:2057C000747F2275820022AA82AB83A2F73392D1F5826002D2F7ACF022C013858113AF8295
:2057E00074302FFF24C6501074072FFFE51324FCF8E6600474202FFFE51324F6F8E6C0E038
:2058000008E6C0E008E6C0E0E51324F9F8E6C0E008E6C0E008E6C0E08F82D002D001D00039
:20582000120782158115811581D013020794C013858113E582FFC4540FFEC007E51324F63B
:20584000F8E6C0E008E6C0E008E6C0E0E51324F9F8E6C0E008E6C0E008E6C0E0E51324FCE7
:20586000F8E6C0E08E8278D979577A00120782E58124F9F581D00753070FE51324F6F8E63B
:20588000C0E008E6C0E008E6C0E0E51324F9F8E6C0E008E6C0E008E6C0E0E51324FCF8E6A7
:2058A000C0E08F8278D979577A00120782E58124F9F581D013020794C013858113A98287EA
:2058C00004098705098706098707191919740429F87B20C003E626FAEF235401FBEA420329
:2058E000A603EC2CFCED33FDEE33FEEF33FFC000E51324FCF8C3EB96D000D00340148602FB
:20590000C000E51324FCF8EAC396FAD000A602430401EB14FAFB70BBA70409A70509A70685
:2059200009A707D013020794C013858113C8E5812428F581E5132407C8A68208A68308A662
:20594000F008F67B00C200E5132405F87680C003C020E4C0E0C0E0C0E0C0E0E5132407F8EB
:2059600086820886830886F008E61274C5AA82E58124FCF581D020D003EA6011D200E51347
:205980002407F8E608E608E608E6B2E7F6C003C020E5132407F8E6C0E008E6C0E008E6C025
:2059A000E008E6C0E090FFFF75F07F744B1274C5AA82E58124FCF581D020D003EA700302B3
:2059C0005B647A00C003C002C020E4C0E0C0E07420C0E07441C0E0E5132407F886820886CB
:2059E000830886F008E61274C5E58124FCF581D020D002D003E58224FF92014044C003C0B8
:205A000002C020E4C0E0C0E07420C0E07441C0E0E5132407F886820886830886F008E61245
:205A20005467C8E5132407C8A68208A68308A6F008F6E58124FCF581D020D002D0030A80E8
:205A4000838A07C007C003C020E4C0E0C0E07480C0E0743FC0E0E5132407F8868208868389
:205A60000886F008E61274C5AA82E58124FCF581D020D003D007EA6044C007C003C020E5D0
:205A8000132407F8E6C0E008E6C0E008E6C0E008E6C0E090000075F0207441124F20C8E5A8
:205AA000132407C8A68208A68308A6F008F6E58124FCF581D020D003D0071F8086E5132414
:205AC00005F8A60730003AC020E51324F1F8E6C0E008E6C0E008E6C0E0E51324F4F8E6C07D
:205AE000E008E6C0E008E6C0E075822DD002D001D000120782158115811581D0207B0180CA
:205B000040E51324F8F8E66038C020E51324F1F8E6C0E008E6C0E008E6C0E0E51324F4F82C
:205B2000E6C0E008E6C0E008E6C0E075822BD002D001D000120782158115811581D0207B66
:205B400001E51324FCF87600E51324FAF87600E51324F9F87600E51324F8F87600E5132419
:205B6000F7F87600E51324FBF8B6FF07E51324FBF87606E5132410F8E4F608F608F60876F2
:205B80003FE51324FBF88605ED604BC003C005C020E4C0E0C0E07420C0E07441C0E0E51387
:205BA0002410F886820886830886F008E6125467AA82AB83AEF0FFE58124FCF581D020D0B4
:205BC00005E5132410F8A60208A60308A60608A6071DD00380B2C003C003C020E513241026
:205BE000F8E6C0E008E6C0E008E6C0E008E6C0E0E5132407F886820886830886F008E612CB
:205C000050DDA81308A68208A68308A6F008F6E58124FCF581D020A81308868208868308CF
:205C200086F008E6C02012749EC8E5132407C8A68208A68308A6F008F6D020D003E5132475
:205C400007F886820886830886F008E6C020127782AA82AB83AEF0FFD020C003C020C00289
:205C6000C003C006C007A8130886820886830886F008E6124F15C8E513240BC8A68208A689
:205C80008308A6F008F6E58124FCF581D020D003E5132406F8E5132414F67A00D003E513A1
:205CA0002407F8E60846084608467003025D2D8A070AE5132406F8EF26F9C003C002C001E9
:205CC000C020740AC0E0E4C0E0C0E0C0E0E5132407F886820886830886F008E6127633ACFB
:205CE00082E58124FCF581D020D00174302CF7C020740AC0E0E4C0E0C0E0C0E0E5132407B9
:205D0000F886820886830886F008E61276F5C8E5132407C8A68208A68308A6F008F6E5817B
:205D200024FCF581D020D002D003025C9EEAFF700DEA04FFE5132406F8EA26F87630E51329
:205D400024FBF8E513240FF9E6F7E5132406F8E5132407F9E6F7E5132428F8A607E5132413
:205D60000FF8E6700AE513240FF88602025E49C007C003C020E513240BF8E6C0E008E6C0AB
:205D8000E008E6C0E008E6C0E090000075F0207441124F20AC82AD83AEF0FFE58124FCF546
:205DA00081D020E5132424F8A60408A60508A60608A607E5132424F886820886830886F0A5
:205DC00008E6C02012749EAC82AD83AEF0FFD0208F02E5132407F8E5132428F9E726F9E512
:205DE000132428F8068C0774302FF78C828D838EF0EAC020127782AC82AD83AEF0FFD0208D
:205E0000D003C007C003C020C004C005C006C007E5132424F886820886830886F008E61260
:205E20004F15C8E513240BC8A68208A68308A6F008F6E58124FCF581D020D003D007E513C4
:205E4000240FF816D007025D5D8F06E51324FBF8E6600EE51324FBF8E604FC3395E0FD805C
:205E6000047C007D00EC2EFCFE200010E51324F8F8E67008E51324F7F8E660010EE51324FB
:205E8000FAF8E66003026117E51324FCF8C3EA964003026117E51324F9F8E67003025FCEA8
:205EA000300042C007C006C003E51324F1F8E6C0E008E6C0E008E6C0E0E51324F4F8E6C0CB
:205EC000E008E6C0E008E6C0E075822DD002D001D000120782158115811581D003D006D059
:205EE000070B025F75E51324F8F8E66041C007C006C003E51324F1F8E6C0E008E6C0E008B6
:205F0000E6C0E0E51324F4F8E6C0E008E6C0E008E6C0E075822BD002D001D000120782150C
:205F20008115811581D003D006D0070B8047E51324F7F8E6603FC007C006C003E51324F175
:205F4000F8E6C0E008E6C0E008E6C0E0E51324F4F8E6C0E008E6C0E008E6C0E0758220D016
:205F600002D001D000120782158115811581D003D006D0070B8B05E51324FCF886048C02DE
:205F80001CC3EE9A40030261EEC007C006C005C004E51324F1F8E6C0E008E6C0E008E6C029
:205FA000E0E51324F4F8E6C0E008E6C0E008E6C0E0758230D002D001D00012078215811577
:205FC000811581D004D005D006D0070D80B08B02E51324FCF88605C0078D071DC3EE9FD057
:205FE000075049C007C006C005C002C020E51324F1F8E6C0E008E6C0E008E6C0E0E513244A
:20600000F4F8E6C0E008E6C0E008E6C0E0758220D002D001D000120782158115811581D03B
:2060200020D002D005D006D0070A80AB8A03E51324FCF8A605300044C007C006C002E513B4
:2060400024F1F8E6C0E008E6C0E008E6C0E0E51324F4F8E6C0E008E6C0E008E6C0E07582F0
:206060002DD002D001D000120782158115811581D002D006D007EA04FB0261F7E51324F84D
:20608000F8E66044C007C006C002E51324F1F8E6C0E008E6C0E008E6C0E0E51324F4F8E69A
:2060A000C0E008E6C0E008E6C0E075822BD002D001D000120782158115811581D002D0068A
:2060C000D007EA04FB0261F7E51324F7F8E670030261F7C007C006C002E51324F1F8E6C0EE
:2060E000E008E6C0E008E6C0E0E51324F4F8E6C0E008E6C0E008E6C0E0758220D002D00140
:20610000D000120782158115811581D002D006D007EA04FB0261F7300042C007C006C003CE
:20612000E51324F1F8E6C0E008E6C0E008E6C0E0E51324F4F8E6C0E008E6C0E008E6C0E00E
:2061400075822DD002D001D000120782158115811581D003D006D0070B0261F7E51324F852
:20616000F8E66041C007C006C003E51324F1F8E6C0E008E6C0E008E6C0E0E51324F4F8E6BB
:20618000C0E008E6C0E008E6C0E075822BD002D001D000120782158115811581D003D006A8
:2061A000D0070B8052E51324F7F8E6604AC007C006C003E51324F1F8E6C0E008E6C0E0081F
:2061C000E6C0E0E51324F4F8E6C0E008E6C0E008E6C0E0758220D002D001D0001207821555
:2061E0008115811581D003D006D0070B80098D03E51324FCF8A6048F051DE5132406F88643
:2062000004E5132406F8ED26F98702C007C006C005C004C003E51324F1F8E6C0E008E6C0B9
:20622000E008E6C0E0E51324F4F8E6C0E008E6C0E008E6C0E08A82D002D001D0001207822C
:20624000158115811581D003D004D005D006D0070B8D021DEA70AA8B05E51324FBF8E670A3
:2062600003026306C007C006C004C003E51324F1F8E6C0E008E6C0E008E6C0E0E51324F4E5
:20628000F8E6C0E008E6C0E008E6C0E075822ED002D001D000120782158115811581D0039C
:2062A000D004D006D0070B8F05E51324FBF886028A071AEF604EED2CF90D8707C006C005A7
:2062C000C004C003C002E51324F1F8E6C0E008E6C0E008E6C0E0E51324F4F8E6C0E008E652
:2062E000C0E008E6C0E08F82D002D001D000120782158115811581D002D003D004D005D071
:20630000060B80AC8B05E51324FAF8E6605CE51324FCF8C3EE9650528D07E51324FCF886DD
:2063200004C3EE9C50421CC007C006C004E51324F1F8E6C0E008E6C0E008E6C0E0E513244A
:20634000F4F8E6C0E008E6C0E008E6C0E0758220D002D001D000120782158115811581D0F8
:2063600004D006D0070F80B98F05E5132405F8B680030264A8C005E51324F1F8E6C0E008D8
:20638000E6C0E008E6C0E0E51324F4F8E6C0E008E6C0E008E6C0E0758265D002D001D00070
:2063A000120782158115811581D005ED04FFE5132405F8E630E740C007E51324F1F8E6C0F3
:2063C000E008E6C0E008E6C0E0E51324F4F8E6C0E008E6C0E008E6C0E075822DD002D00150
:2063E000D000120782158115811581D0070FE5132405F8C3E496F6E5132405F8E6FA33957D
:20640000E0FEC007C006C002740AC0E0E4C0E08A828E83125660AB821581158174302BFBA5
:20642000E51324F1F8E6C0E008E6C0E008E6C0E0E51324F4F8E6C0E008E6C0E008E6C0E00B
:206440008B82D002D001D000120782158115811581D002D006D0070FC007740AC0E0E4C048
:20646000E08A828E83125546AC821581158174302CFCE51324F1F8E6C0E008E6C0E008E645
:20648000C0E0E51324F4F8E6C0E008E6C0E008E6C0E08C82D002D001D000120782158115EB
:2064A000811581D007EF04FD8D82851381D013020794C013858113C082C083C0F0E58124AB
:2064C00024F581E513240CF8E4F608F6E5132410F8E5132419F6E5132421C8E5132407C8EB
:2064E0002405F6E5132411F8E5132419F6E5132411F8E5132404F9740426F7E5132404F842
:20650000E5132405F9E6F7E5132404F8E5132406F9E6F7E51324F7F88602088606088607B8
:206520008A828E838FF012552AFDE51324F7F874012AF6E43E08F608A607EDFF70030274E7
:206540008CBF2502800302744FC200C201C202C203C204C205C206C207E513241EF8E4F649
:20656000FDFEE513241FF876FF0876FFE51324F7F8E5132408F9E6F70809E6F70809E6F71A
:20658000E5132408F886820886830886F0E513240BF912552AF7A31818A68208A683E5137C
:2065A0002408F8E51324F7F9E6F70809E6F70809E6F7E513240BF8B62542E51324FAF8E6C2
:2065C000C0E008E6C0E008E6C0E0A81308E6C0E008E6C0E008E6C0E0E513240BF88682D0A3
:2065E00002D001D000120782158115811581E513240CF806B600020806026513E513240B0E
:20660000F8B6300050030266A0E513240BF8E624C650030266A0E513241FF8B6FF3C08B615
:20662000FF38C020C005C00690000A12503FAA82AF8315811581D020E513240BF886037CDF
:2066400000EB2AFAEC3FFFEA24D0FDEF34FFFE4D6003026580D201026580C006C005C0204A
:20666000E513241FF8E6C0E008E6C0E090000A12503FAC82AF8315811581D020D005D00671
:20668000E513240BF886027B00EA2CFCEB3FFFE513241FF8EC24D0F6EF34FF08F60265808D
:2066A000E513240BF8B62E1DE513241FF8B6FF0608B6FF028003026580E513241FF8E4F696
:2066C00008F6026580E513240BF8B66100401CE513240BF8E624854012E513240BF8E654EA
:2066E000DFF6E5132418F876018007E5132418F87600E513240BF8B620030267C4E51324B8
:206700000BF8B62B030267BFE513240BF8B62D030267BAE513240BF8B642030267C9E513FE
:20672000240BF8B643030267D3E513240BF8B64403026D41E513240BF8B64603026D67E555
:2067400013240BF8B64803026580E513240BF8B64903026D41E513240BF8B64A030265803D
:20676000E513240BF8B64C028064E513240BF8B64F03026D4CE513240BF8B65003026ADDBF
:20678000E513240BF8B65303026848E513240BF8B65403026580E513240BF8B65503026D6D
:2067A00055E513240BF8B65803026D5EE513240BF8B65A03026580026D6BD200026580D209
:2067C00002026580D203026580D205026580D206026580300515E51324F6F8E614FCE51355
:2067E00024F6F8A604A80486048014E51324F6F8E624FEFBE51324F6F8A603A8038604C05E
:2068000006C005C020E51324FAF8E6C0E008E6C0E008E6C0E0A81308E6C0E008E6C0E0083E
:20682000E6C0E08C82D002D001D000120782158115811581D020D005D006E513240CF80633
:20684000B600020806026DC6E5132419FCE51324F6F8E624FDFBE51324F6F8A603A803861C
:2068600002088603088607A804A60208A60308A6078A828B838FF0C006C005C004C02078F6
:206880004D79547A00120782C8E5132408C8A68208A683D020D004D005D006E513241FF81A
:2068A000B6FF1408B6FF10E5132408F8E513241FF9E6F70809E6F730000302695EE513240F
:2068C00008F8C3E69D08E69E400302695EE5132408F8E5132412F9EDC396F7EE089609F7CE
:2068E000E513240CF88606088605E5132412F88602088607E5132412F816B6FF020816EA1B
:206900004F6047C006C005C004C020E51324FAF8E6C0E008E6C0E008E6C0E0A81308E6C039
:20692000E008E6C0E008E6C0E0758220D002D001D000120782158115811581D020D004D0E0
