:020000040000FA
:04000000024DBA32C1
:01000B0032C2
:0100130032BA
:01001B0032B2
:0100230032AA
:03002B0002219C13
:01003300329A
:01003B003292
:01004300328A
:03004B000222D2BC
:01005300327A
:01005B003272
:01006300326A
:20006B000219600202DAC082C083E5812404F5817C007D00C374C89C74808DF063F0809526
:20008B00F0500B7490C39CFA74019DFB80048C028D03E58124FBF886078F82C007C005C097
:2000AB0004C003C002786479877A011219FED002D003D004D005D007E58124FDF8E4F608A6
:2000CB00F6E58124FDF8C3E69A08E664808BF063F08095F0501DE58124FDF8A98119E6F7AC
:2000EB000809E6F7E58124FDF8740126F6E40836F680CE8F82C005C004C003C002787A7907
:20010B00877A011219FED002D003D004D005E58124FDF8E4F608F674C8C39AFEE49BFFE50A
:20012B008124FDF8C3E69E08E664808FF063F08095F0501DE58124FDF8A98119E6F708090D
:20014B00E6F7E58124FDF8740126F6E40836F680CE0CBC00010DC3EC9490ED648094815062
:20016B000302007FE58124FAF58122E5812408F5817E0C7F78E58124F9FD7C07EC2DF98EA8
:20018B00828F83E0FBA3AE82AF83A7031CEC30E7EB74072DF987077E0074062DF987048CC8
:2001AB0003E44207EB420689047B007A40C007C006C0057402C0E0E4C0E0C004C003C002DA
:2001CB0090023675F000786479527A001219FEE58124FBF581907910E493FAA3E493FBA360
:2001EB00E493FCC004C003C00274F5C0E0C4C0E0C002C003C004900002D002D001D000126B
:20020B0019FE15811581D002D003D004D005D006D007907910E493FAA3E493FBA3E493FCE0
:20022B00C005C004C003C002C007C006C002C003C004900003D002D001D0001219FE15810A
:20024B001581D002D003D004D005907910E493FCA3E493FEA3E493FFC007C006C005C004DC
:20026B007419C0E0E4C0E0C004C006C007900001D002D001D0001219FE15811581D004D074
:20028B0005D006D007907916E493FCA3E493FEA3E493FF7B007A40C007C006C0047408C01C
:2002AB00E0E4C0E0C005C003C002C004C006C00790000BD002D001D0001219FEE58124FB78
:2002CB00F581D004D006D007E58124F8F5812278D379207A001219FE788179DB7A01121988
:2002EB00FE78F979917A011219FE780A79877A011219FE758207787A79877A011219FE908C
:20030B000001120071781A79A97A011219FE78E679D77A011219FE90A11675F00178EB791B
:20032B00197A001219FE784779A37A011219FE9000021200719076BE75F080785279BE7A3E
:20034B00011219FE9076DB75F080785279BE7A011219FE90624AE0FFBF8D028042BF95027C
:20036B00802CBFA5028005BFB54480119076EC75F080785279BE7A011219FE80319076F36C
:20038B0075F080785279BE7A011219FE80209076FA75F080785279BE7A011219FE800F907F
:2003AB00770175F080785279BE7A011219FE90770875F080785279BE7A011219FE9062772E
:2003CB00E0FF0F8F82788C79BE7A011219FE90771075F080785279BE7A011219FE78CB79D7
:2003EB00867A011219FE900000782079DB7A011219FEE4C0E0C0E0C0E0900CA775F00078C4
:20040B009679A37A011219FE15811581158178FB79B97A011219FE787B79BF7A011219FEA1
:20042B00120176E4C0E0C0E0C0E0900CC775F000789679A37A011219FE158115811581907C
:20044B007871E493FDA3E493FEA3E493FFC007C006C0057401C0E0E4C0E0C005C006C007C6
:20046B00900081D002D001D0001219FE15811581D005D006D00790785FE493FDA3E493FE23
:20048B00A3E493FFC007C006C0057401C0E0E4C0E0C005C006C007900081D002D001D00077
:2004AB001219FE15811581D005D006D007784779207A001219FE90189F75F080784F79D221
:2004CB007A011219FE78D179867A011219FE90000412007178D779867A011219FE900503E0
:2004EB00E06057787479907A011219FEE5828583F045F06040789279907A011219FEAE82A6
:20050B00AF83C007C00678B879207A001219FEAC82AD83D006D007EEC39CFEEF9DFF1EBEE8
:20052B00FF011FC374FF9E747F9F5009785A798D7A011219FE900503E4F0785779AB7A017C
:20054B001219FEAE82AF83EE708A907904E493FDA3E493FEA3E493FFC007C005C006C00752
:20056B00D002D001D0001219FEAD82AE83D0078D088E09E508450970030204DF7813791AC0
:20058B007A001219FE9078FBE493FDA3E493FEA3E493FFC007C006C00578B2791D7A001267
:2005AB0019FEAA82AB83ACF0D005D006D007C0077480C0E0E4C0E0C005C006C0078A828BD9
:2005CB00838CF0D002D001D0001219FEAD82AE8315811581D0078D088E09E5084509700338
:2005EB000204DF85088285098378A4791D7A001219FE90795FE493FDA3E493FEA3E493FF89
:20060B00C007C006C005C005C006C007D002D001D0001219FED005D006D0070204DFE581C2
:20062B002406F581AF8224F6F8860508860674802EFEE58124FBF8A60508A60608E4F6FBD4
:20064B00740F5FC40354F8FE7A00E58124FBF8EA26FAEE0836FE088605A881A6C7C006C0C2
:20066B0005C0027410C0E0E4C0E08F828B8312567EAB8215811581D002D005D006C2AFE5CF
:20068B00C754F84BF5C78A07E58124F3F8E58124FBF9E6F70809E6F70809E6F7E58124F17D
:2006AB00F8A9811919E6F70809E6F7A88118188603088604A881181816B6FF020816EB4C21
:2006CB00602A8F828E838DF0125548FCA3AF82AE83E58124FBF886820886830886F0EC1224
:1506EB004F4DA31818A68208A68380BFA88186C7D2AFE5812472
:20070000FAF581021A10AE82AF83E58124FBF886040886058D04900004ECF0E58124FBF8C3
:20072000860590000575F000ED124F4D7C737D628D0490000675F000EC124F4D7D73900025
:200740000775F000ED124F4D90000875F000125548FD53051F90000875F000ED124F4D904A
:20076000000875F000ED124F4DE58124F9F8E62625E0FC90000975F000EC124F4D5305E019
:2007800090000875F000ED124F4DE58124F9F88603088604EB2BFBEC33FCEB2BEC33FCFBD3
:2007A000EB420590000875F000ED124F4D90000A75F000125548FD53057F90000A75F000EE
:2007C000ED124F4D90000A75F000ED124F4D53059F90000A75F000ED124F4D90000A75F054
:2007E00000ED124F4D5305E090000A75F000ED124F4D43051290000A75F000ED124F4D9008
:20080000000B75F000125548FD53053F90000B75F000ED124F4D43054090000B75F000ED15
:20082000124F4D5305CF90000B75F000ED124F4D90000B75F000ED124F4D5305F790000BC3
:2008400075F000ED124F4D90000B75F000ED124F4D5305FB90000B75F000ED124F4D90007F
:200860000B75F000ED124F4D5305FC90000B75F000ED124F4D43050290000B75F000ED1235
:200880004F4D75D1FE75D601906271EEF0906272EFF0906270E043E002F0906270E020E708
:2008A000F9021A10AF82906272E0FEC2AF906270E020E7F9EF2FFF906272F0906270E043F7
:2008C000E001F0906270E020E7F9D2AF906272EEF0021A10E581240EF581AE82AF8353064D
:2008E000FCE58124EBF8E654FCF6C3E49E74809F4053E58124EBF8C3E49674800896404537
:20090000E58124F3F8A60608A607087600087600C006C007E58124E9F88604088605E4FE0E
:20092000FFE58124F1F8EC26FCED0836FDEE0836FEEF0836FFC3E49C74809DE49EE49FD010
:2009400007D0065003020BDA8E0474075FFDE58124FBF8A60408A605E58124EBF8E62EFAC2
:2009600008E63FFB8A0474075BFDE58124FDF8A60408A605EFC423541FFE7F00E58124F7CB
:20098000F8A60608A607EBC423541FFA7B00A88118A60208A603E58124F7F8A9811986F078
:2009A000E7B5F00A0886F009E7B5F00280028055E58124FDF8E58124FBF9E6C397FB08E60F
:2009C0000997FAE58124EDF88604088605088607E58124F7F8860674702EFEC003C002C002
:2009E00004C005C007E58124F6F8E6C0E008E6C0E08E82782979067A001219FEE58124F985
:200A0000F581020BDAE58124F7F886060886070EBE00010FA88118E6B5060708E6B507026E
:200A20008003020AB1E58124FBF8E4C396FE74080896FFE58124EDF8860308860408860588
:200A4000E58124F7F8860274702AFAC006C007C003C004C005E58124F6F8E6C0E008E6C008
:200A6000E08A82782979067A001219FEE58124F9F58124EDF88605088606088607A88118D0
:200A8000860274702AFAE58124FDF8E6C0E008E6C0E0C005C006C007E4C0E0C0E08A827839
:200AA0002979067A001219FEE58124F9F581020BDAE58124FBF8E4C396FE74080896FFE555
:200AC0008124EDF88603088604088605E58124F7F8860274702AFAC007C006C006C007C0FB
:200AE00003C004C005E58124F4F8E6C0E008E6C0E08A82782979067A001219FEE58124F98E
:200B0000F581D006D007E58124F9F8A60608A607E58124F7F8740126FCE40836FDE581241D
:200B2000EDF8E58124F3F9E6F70809E6F70809E6F7A88118E6B5040708E6B50502805DE54E
:200B40008124F3F886020886030886078C0674702EFEC005C004E4C0E07408C0E0C002C00A
:200B600003C007E4C0E0C0E08E82782979067A001219FEE58124F9F581D004D005E5812488
:200B8000F9F8860608860774082FFFE58124F9F8A60608A6070CBC00980D8095E58124F3BE
:200BA000F88605088606088607A88118860274702AFAE58124FDF8E6C0E008E6C0E0C00560
:200BC000C006C007E4C0E0C0E08A82782979067A001219FEE58124F9F581E58124F2F581AA
:200BE000021A10AE82AF8353070774702EF58278A479087A001219FE021A10E5812404F58E
:200C000081AE82E583C313CE13CEC313CE13CEFFE58124F5F8860408E6C313CC13CCC3136C
:200C2000CC13CCFDE58124F5F8A60408A605C3E49E74809F4053E58124F5F8C3E496748025
:200C40000896407DE58124FDF8A60608A607087600087600C006C007E58124F3F8860408C9
:200C60008605E4FEFFE58124FBF8EC26FCED0836FDEE0836FEEF0836FFC3E49C74809DE447
:200C80009EE49FD007D00650028036E58124F7F8860308860408860574802FFFE58124F5B6
:200CA000F8E6C0E008E6C0E0C003C004C0058E828F83780679077A001219FEE58124FBF59F
:200CC00081E58124FCF581021A10058105810581AD82AE83AFF0A8811818A60508A606081A
:200CE000A607A88118188602088603088604900C90E0FDA3E0FEA3E0FFC002C003C0048D61
:200D0000828E838FF078B8799E7A011219FE158115811581A8811818860508860608860707
:200D2000C005C006C007900C9375F00078C579827A011219FE1581158115811581158115EE
:200D400081021A10E5812406F581900C90E0FDA3E0FEA3E0FF8D828E838FF07851799B7ADE
:200D6000011219FEAD82AE83AFF0ED4E7003020E1874032DFAE43EFB8F04C007C006C005D4
:200D8000C002C003C004E58124EFF886820886830886F0785C79867A011219FEAB82AC832F
:200DA000158115811581D005D006D007EB4C6051E58124FBF8A60508A60608A60774052DD0
:200DC000FAE43EFB8F04E58124FBF8E6C0E008E6C0E008E6C0E074CAC0E0740CC0E07400D8
:200DE000C0E0E4C0E0741EC0E08A828B838CF0783979BA7A011219FEE58124F8F581020E77
:200E0000F48D828E838FF0125548FDA3125548FEA3125548FF020D6A900C9375F0007877F6
:200E200079817A011219FEAD82AE83AFF0A8811818A60508A60608A607A8811818E608461B
:200E40007003020EF4A8811818740326FAE40836FB088604E58124F5F8E6C0E008E6C0E0F1
:200E600008E6C0E08A828B838CF0782479867A011219FE158115811581A881181886020864
:200E80008603088604900C90E0FDA3E0FEA3E0FFC002C003C0048D828E838FF078E8799BCF
:200EA0007A011219FE158115811581A88118188605088606088607A8811818740526FAE4E9
:200EC0000836FB088604C005C006C00774CAC0E0740CC0E07400C0E0E4C0E0741EC0E08AA3
:200EE000828B838CF0783979BA7A011219FEE58124F8F581E58124FAF581021A1078B2799D
:200F00001D7A001219FEAD82AE83AFF0C005C006C0077419C0E07477C0E07480C0E0780DEF
:200F200079547A001219FEE58124FAF581021A10E5812409F581900C90E0FDA3E0FEA3E005
:200F4000FF8D828E838FF078FD799F7A011219FEAE82AF83C3E49E74808FF063F08095F050
:200F600040030210FA780879DB7A011219FEAE82AF83900C90E0FBA3E0FCA3E0FD8B828CA9
:200F8000838DF0C007C00678FD799F7A011219FEAC82AD83D006D007C004C0058E828F83DD
:200FA0001255FFAE82AF8315811581E58124FCF8A60608A607900C90E0FBA3E0FCA3E0FD58
:200FC0008B828C838DF07851799B7A011219FEAB82AC83ADF0A8811818A60308A60408A69C
:200FE000057A007F00A8811818E608466035E58124FCF8E6B5020708E6B5070280250ABA9A
:2010000000010FA881181886820886830886F01255481818F6A312554808F6A31255480851
:20102000F680C2A8811818E6084670030210FA75821578A4791F7A001219FEAE82AF83A8FF
:20104000811818740326FAE40836FC0886050ABA00010C8A828C838DF0125548FAE58124FB
:20106000F8F8A602087600A8811818740326FBE40836FC0886058B828C838DF0125548FB75
:201080007D00900237E0FCE58124FAF8A604087600900236E0FC7A00C006C007E58124FA5B
:2010A000F8E6C0E008E6C0E0E58124F4F8E6C0E008E6C0E0C003C005E58124F2F8E6C0E018
:2010C00008E6C0E0C004C0027439C0E07477C0E07480C0E0780D79547A001219FEE5812411
:2010E000F1F581A8811818740326FDE40836FE0886078D828E838FF08037900237E0FF7E65
:2011000000900236E0FD7C00C007C006C005C0047472C0E07477C0E07480C0E0780D7954A1
:201120007A001219FEE58124F9F58190000075F000E58124F7F581021A1005810581058169
:2011400078B2791D7A001219FEAD82AE83AFF0A8811818A60508A60608A607E58124F8F846
:20116000860208860308860474012AFDE43BFE8C078D828E838FF0125548FD7F008A828B17
:20118000838CF0125548FA7E00A8811818E6C0E008E6C0E008E6C0E0C005C007C002C0061A
:2011A000749FC0E07477C0E07480C0E0780D79547A001219FEE58124F6F581158115811531
:2011C00081021A10E5812406F581AD82AE83AFF0E58124F7F8E4B6830104FC601F90020CA9
:2011E00075F000C007C006C005C00478EB799A7A011219FED004D005D006D007EC601B900D
:2012000001F775F000C007C006C005785079977A011219FED005D006D0077C018D828E8384
:201220008FF0125548FAA3125548FBBA0005BB0002800CBAB806BB0003021346021879C04D
:2012400005C006C007C007C006C0057499C0E07418C0E07480C0E004C0E0E4C0E090020C77
:2012600075F0007862799A7A011219FEE58124FBF581900C9375F000787179807A01121961
:20128000FED005D006D007900C90E0FAA3E0FBA3E0FF8A828B838FF0C007C006C005783C29
:2012A000799B7A011219FE7493C0E07418C0E07480C0E07487C0E0E4C0E09001F775F00003
:2012C00078C779967A011219FEE58124FBF5817444C0E0740DC0E07400C0E07487C0E0E415
:2012E000C0E09001EC75F00078DE79C17A011219FEE58124FBF581E4C0E0C0E09001EC7527
:20130000F00078CE79C37A011219FE15811581E4C0E004C0E090021B75F00078AF798E7AA9
:20132000011219FE15811581D005D006D007D007D006D0057C008D828E838FF074B8124FAB
:201340004DA3E4124F4DEC602490021B75F000C007C006C00578E9798F7A011219FEE582C3
:201360008583F0D005D006D00745F0700675820102188A9077CD75F080C007C006C0057829
:201380009979AF7A011219FEAA82AB83ACF0D005D006D007900227EAF0EBA3F0ECA3F0EAF6
:2013A0004B700302185BC007C006C00574D1C0E07477C0E07480C0E0780D79547A001219AD
:2013C000FE158115811581758202789279877A011219FE900227E0FAA3E0FBA3E0FC74039F
:2013E0002AFAE43BFB8A828B838CF0125548FAA3125548FBA3125548FCC002C002C003C0CE
:2014000004900000D002D001D0001219FEAC82AB83D002D005D006D007900225ECF0EBA3CB
:20142000F0BCFF06BBFF030215D4C005C006C007EC2438FAEB34FAFF8A828F83C004C00302
:20144000125218AA82AD83AEF0FFE4C0E0C0E07490C0E07440C0E08A828D838EF0EF12540C
:2014600085AA82AD83AEF0FFE58124FCF581D003D004C007C006C005C004C003E4C0E0C02E
:20148000E074C8C0E07441C0E08A828D838EF0EF1250FBC8E58124EFC8A68208A68308A645
:2014A000F008F6E58124FCF581D003D004D005D006D007E58124F8F890022AE6F008E6A37C
:2014C000F008E6A3F008E6A3F0E58124F8F886820886830886F008E6C007C006C005C00405
:2014E000C003125225C8E58124F7C8A68208A683D003D004D005D006D007E58124FCF890FF
:20150000022EE6F008E6A3F0E58124FCF88682088683C004C003125218AA82AD83AEF0FFB1
:20152000C002C005C006C007E58124F2F886820886830886F008E6124E3EAA82AD83AEF006
:20154000FFE58124FCF581900230EAF0EDA3F0EEA3F0EFA3F0C002C005C006C007900000CD
:2015600075F0C87442124E49AA82AD83AEF0FFE58124FCF581D003D0048A828D838EF0EFBA
:20158000C005C004C003125259AE82AF83D003D004D005C007C006C005C004C003C006C005
:2015A00007E58124F5F8E6C0E008E6C0E074E6C0E07477C0E07480C0E0780D79547A0012A2
:2015C00019FEE58124F7F581D005D006D007D007D006D005900227E0FAA3E0FBA3E0FC74F5
:2015E000032AFAE43BFB8A828B838CF0125548FAA3125548FBA3125548FCC007C006C0057E
:20160000C002C002C003C004900004D002D001D0001219FEAC82AB83D002D005D006D007DF
:20162000900225ECF0EBA3F0BCFF06BBFF030217E1C005C006C0078C828B83C004C003121A
:201640005218AA82AD83AEF0FFC002C005C006C00790000075F0707440124E49AA82AD83F5
:20166000AEF0FFE58124FCF581D003D004C007C006C005C004C003E4C0E074E0C0E074FF66
:20168000C0E07444C0E08A828D838EF0EF125485C8E58124EFC8A68208A68308A6F008F6E0
:2016A000E58124FCF581D003D004D005D006D007E58124F8F890022AE6F008E6A3F008E68A
:2016C000A3F008E6A3F0E58124F8F886820886830886F008E6C007C006C005C004C003120C
:2016E0005225C8E58124F7C8A68208A683D003D004D005D006D007E58124FCF890022EE6BC
:20170000F008E6A3F0E58124FCF88682088683C004C003125218AA82AD83AEF0FFC002C043
:2017200005C006C007E58124F2F886820886830886F008E6124E3EAA82AD83AEF0FFE58121
:2017400024FCF581900230EAF0EDA3F0EEA3F0EFA3F0C002C005C006C00790000075F0C803
:201760007442124E49AA82AD83AEF0FFE58124FCF581D003D0048A828D838EF0EFC005C060
:2017800004C003125259AE82AF83D003D004D005C007C006C005C004C003C006C007E5811B
:2017A00024F5F8E6C0E008E6C0E074FEC0E07477C0E07480C0E0780D79547A001219FEE5F9
:2017C0008124F7F581D005D006D007900225E0FEA3E0FF90022EEEF0EFA3F0D007D006D0C1
:2017E00005C007C006C0057422C0E0E4C0E090781675F0807830791A7A001219FE1581154C
:201800008190020C75F00078F7799A7A011219FE7421C0E0E4C0E090783875F0807830791F
:201820001A7A001219FE158115819002347401F0900235E4F07434C0E07402C0E0E4C0E017
:201840009001F775F000785C79977A011219FE158115811581D005D006D00790021B75F0BD
:2018600000C007C006C005783D798F7A011219FED005D006D0070213348D828E838FF0E467
:20188000124F4DA3124F4D758203E58124FAF581021A10FD0E00300F003A11000000009DF7
:2018A0000C0000000020811B90000A75F040780A79C17A011219FEAE82AF83EE4F6004C2FC
:2018C000008002D200A200E433FE7F008E828F83021A10AE82AF83BE8105BF00028006BE85
:2018E0008210BF000D740255ABFF7E008F828E838003900000021A10AE82AF83BE8005BFD2
:2019000000028008BE8153BF00508011438F02538CFE53F3FD53FDFD9000018040E58124EF
:20192000FCF8E608466029E5AB20E129E4C0E0C0E090000A75F040784B79C07A011219FE39
:20194000158115815389FDC2C543AB02D2BD800553ABFDC2BD9000018003900000021A10AD
:20196000C020C0E0C0F0C082C083C007C006C005C004C003C002C001C000C0D075D000C2FF
:20198000AFE58930E14190000A75F040780A79C17A011219FEE5828583F045F06029741098
:2019A000C0E0E4C0E090000A75F040784B79C07A011219FE1581158190786B75F0807863C5
:2019C00079AF7A011219FE5389FDC2C5D2AFD0D0D000D001D002D003D004D005D006D0071E
:2019E000D083D082D0F0D0E0D02032AFF0AE83E58290023EF0EEA3F0EFA3F0021A10C09F2B
:201A0000C8C0E0E9C0E0EA540F539FF0429FC822D09F22900476E4F0A3F0900474F0A3F04E
:201A2000900478F0785A791E7A001219FE021A10C082C083C0F0058105817813791A7A0099
:201A40001219FEE58124F7F8C3748096E4089650067B807C00800AE58124F7F8860308862E
:201A600004A88118A60308A604A881188602088607900CD1E0FCA3E0FDA3E0FEC002C00795
:201A8000E58124FAF8E6C0E008E6C0E008E6C0E08C828D838EF0786479527A001219FEE55D
:201AA0008124FBF581A88118900474E6F008E6A3F0A8811886030886048B828C83E581246E
:201AC000FBF581021A10E5812405F581900476E0F5F0A3E045F07003021B8AA88118E4F6A8
:201AE00008F6900474E0FCA3E0FDA881188602088603C3EA9CEB9D4003021B83900478E08A
:201B0000FD7C00A88118E62DFD08E63CFC900CD1E0FFA3E0FEA3E0FBED2FFFEC3EFE8B02BA
:201B2000C007C006C00278FC791D7A001219FEAD82D002D006D0077C00A88118E62DFD0826
:201B4000E63CFC900CD1E58124FCF8E0F6A3E008F6A3E008F6E58124FCF8ED26FDEC0836EC
:201B6000FC0886038D828C838BF0125548FD8F828E838AF0124F4DA8811806B6000208063C
:201B8000021AE2900476E4F0A3F0E58124FBF581021A10058105810581AD82AE83AFF0908E
:201BA0000478E0FCFA7B00900474E0F8A3E0F9E82AF8E93BF9C3748098E499500690000023
:201BC000021C857B00C007C006C005C004C00378D9791D7A001219FEA882A983AAF0D003C1
:201BE000D004D005D006D007C007C006C005C004C003C000C001C0028D828E838FF07864F8
:201C000079527A001219FEE58124FBF581900474E0FBA3E0FAC003C00278B2791D7A00122A
:201C200019FEC8E58124F9C8A68208A68308A6F0D002D003D005D006D007900478E02DFD46
:201C4000E43EFEC003C002E58124FCF8E6C0E008E6C0E008E6C0E08D828E838FF0786479CB
:201C6000527A001219FEE58124FBF581900478E0FF7E00900474E0FCA3E0FDEC2FFCED3E65
:201C8000FD8C828D83158115811581021A10E5812406F581AE82AF83C007C006780F791E28
:201CA0007A001219FEAC82AD83D006D0078E028F03EC2AFCED3BFDC374809CE49D50069063
:201CC0000000021D58C007C006780F791E7A001219FEAC82AD83D006D0071CBCFF011D8CB3
:201CE000028D03EB20E767EE2AFAEF3BFBC006C007900CD1E58124F9F8E0F6A3E008F6A353
:201D0000E008F6E58124F9F8E58124FCF9EA26F7EB083609F70809E6F7E58124F9F8EC2640
:201D2000FAED0836FB0886068A828B838EF0125548FAE58124FCF886820886830886F0EAAF
:201D4000124F4D1CBCFF011DD007D0068091900478E0FF2EF0900001E58124FAF581021A72
:201D600010AE82AF83900474E0FCA3E0FDC3EC9EED9F50059000008028900476E0FAA3E0C0
:201D8000FBEE2AFAEF3BFB900476EAF0EBA3F0ECC39EFCED9FFD900474ECF0EDA3F09000E9
:201DA00001021A10AF83E582900474F0EFA3F0021A1078FC791D7A001219FEAF82900CD16C
:201DC000E0FCA3E0FDA3E0FEEF2CFFE43DFB8E028F828B838AF0021A10900CD1E0FDA3E0CE
:201DE000FEA3E0FF8D828E838FF0021A10900474E0FEA3E0FF8E828F83021A10900476E0F8
:201E0000FEA3E0900478E0FF2EFEF582021A1078FC791D7A001219FEAF827E00C007C0069E
:201E200078ED791D7A001219FEAC82AD83D006D007EC2FFCED3EFD8C828D83021A10780FE9
:201E4000791E7A001219FEAE82AF837480C39EFEE49FFF8E828F83021A107434C0E0E4C0D7
:201E6000E0C0E090043875F00078F979527A001219FE1581158115817E007F00EE2EFCEF0C
:201E800033FDEC246CFCED3404FD7B00C007C0067469C0E07478C0E07480C0E08C828D83B5
:201EA0008BF0782479867A011219FE158115811581D006D0070EBE00010FC3EE9404EF6481
:201EC00080948040B7021A10AD82AE83AFF07434C0E0E4C0E07438C0E07404C0E0E4C0E098
:201EE0008D828E838FF0786479527A001219FEE58124FBF58124FBF8860508860608860733
:201F00007408C0E0E4C0E0746CC0E07404C0E0E4C0E08D828E838FF0786479527A0012191A
:201F2000FEE58124FBF581021A10AD82AE83AFF07434C0E0E4C0E0C005C006C00790043893
:201F400075F000786479527A001219FEE58124FBF58124FBF886050886060886077408C0D0
:201F6000E0E4C0E0C005C006C00790046C75F000786479527A001219FEE58124FBF58102FF
:201F80001A10E582FF75F002A42438F582740435F0F583E58124FCF8E6F008E6A3F0900059
:201FA00001021A10E58275F002A42438F582740435F0F583E0FEA3E0FF8E828F83021A10EC
:201FC000E58224E675F002A4246CFE740435F0FF7D00E58124FBF8E6C0E008E6C0E008E65F
:201FE000C0E08E828F838DF0782479867A011219FE158115811581900001021A10E5822459
:20200000E675F002A4246CFE740435F0FF7D008E828F838DF0021A107469C0E07478C0E054
:202020007480C0E090046E75F000785C79867A011219FEAE82AF831581158115818E828F6B
:2020400083021A10021A10021A10900000E4F5F0021A10021A10AE82AF83C2AF8E048F05CF
:202060001EBEFF011FEC4D60030080F0D2AF021A10AE82AF83C007C00678B879207A001268
:2020800019FEAC82AD83D006D007C007C006C005C00478B879207A001219FEAA82AB83D072
:2020A00004D005D006D007EAC39CFAEB9DFBC3EA9EEB9F40D5021A10850F82851083021A74
:2020C00010AC11AD127E007F008C828D838EF0EF021A1075C6C053C6BFE59E20E6FB43C660
:2020E00030E5C6B59EFB900000E595F0E4A3F0A3F0A3F0AC967D007E008E078D068C057CAE
:2021000000900000E0F8A3E0F9A3E0FAA3E0FB900000EC28F0ED39A3F0EE3AA3F0EF3BA30B
:20212000F0AC977D008D078C067C007D00900000E0F8A3E0F9A3E0FAA3E0FB900000EC284D
:20214000F0ED39A3F0EE3AA3F0EF3BA3F0900000E0FCA3E0FDA3E0FEA3E0FF900000ECF003
:2021600074012DA3F0E43EA3F0E43FA3F0900000E0A3E0A3E0FEA3E08E97900000E0A3E0B0
:20218000FDA3E0A3E08D96900000E0FCA3E0FDA3E0FEA3E0FF8C95D2AD021A10C0E0C0827C
:2021A000C083C007C006C005C004C003C002C001C000C0D075D000C2AF900000E595F0E49C
:2021C000A3F0A3F0A3F0AC967D007E008E078D068C057C00900000E0F8A3E0F9A3E0FAA3D0
:2021E000E0FB900000EC28F0ED39A3F0EE3AA3F0EF3BA3F0AC977D008D078C067C007D0060
:20220000900000E0F8A3E0F9A3E0FAA3E0FB900000EC28F0ED39A3F0EE3AA3F0EF3BA3F01A
:20222000900000E0FCA3E0FDA3E0FEA3E0FF900000ECF074012DA3F0E43EA3F0E43FA3F0A3
:20224000900000E0A3E0A3E0FEA3E08E97900000E0A3E0FDA3E0A3E08D96900000E0FCA33A
:20226000E0A3E0A3E08C957401250FF50FE43510F510AE0FAF10EE547F6002800B740125B8
:2022800011F511E43512F5129005037401F0C2C7D2AFD0D0D000D001D002D003D004D0055F
:2022A000D006D007D083D082D0E03275E40975AF0075E644C2DED2B9021A10AE82AF8353B9
:2022C000E6FB8EDC8FDD43E60475AF0043E640021A10C020C0E0C0F0C082C083C007C0061F
:2022E000C005C004C003C002C001C000C0D075D000C2B953AFFD53E6BF78B979927A01123F
:2023000019FED2B9D0D0D000D001D002D003D004D005D006D007D083D082D0F0D0E0D020DA
:2023200032C082C083C0F0900D1AE0FAA3E0FBA3E0FC8A828B838CF07851799B7A0112198F
:20234000FEAA82AB83ACF0EA4B606D74032AFDE43BFE8C07C004C003C002E58124FBF8E68D
:20236000C0E008E6C0E008E6C0E08D828E838FF0785C79867A011219FEAE82AF831581157E
:20238000811581D002D003D004EE4F60088A828B838CF080298A058B068C078D828E838F67
:2023A000F078EA79A07A011219FEAD82AE83AFF08D028E038F04808F90000075F0001581C2
:2023C00015811581021A10907968E493FDA3E493FEA3E493FFC007C005C006C007D002D0D4
:2023E00001D0001219FEAD82AE83D0078D048E07ED4E70037C01FF8C828F83021A1005818A
:2024000005810581AD82AE83AFF0ED4E70030224AF74202DFAE43EFB8F048A828B838CF02D
:20242000125548FAA3125548FBA3125548FC8A828B838CF0C007C006C0057851799B7A0118
:202440001219FEAA82AB83ACF0D005D006D007A8811818A60208A60308A604A8811818E638
:202460000846604B90795CE493FAA3E493FBA3E493FCC004C003C002E58124FBF8E6C0E016
:2024800008E6C0E008E6C0E0C005C006C007C002C003C004902C9775F000D002D001D0005A
:2024A0001219FEE58124FAF581D002D003D004158115811581021A1005810581AD82AE8326
:2024C000AFF0741C2DFAE43EFB8F048A828B838CF0125548FCBC040050068C037C00800410
:2024E0007B047C00C005C006C0078BF005F07B017C008006EB2BFBEC33FCD5F0F71BBBFFE4
:20250000011CC006C005C004C00378C779237A001219FEAA82AF83D003D004D005D006C09E
:2025200005C002C0078B828C83124F68AE82AF8315811581D005E58124FCF8A60608A607E6
:20254000D007D006D005A88118E60846603CC007C006C005780879DB7A011219FEAB82AC45
:2025600083E58124FCF8E6C0E008E6C0E08B828C831255FFAB82AC8315811581D005D00691
:20258000D007A88118A60308A6048D028E038F0474052DFDE43EFEC002C003C00474FEC0D7
:2025A000E07423C0E07400C0E0E58124F9F8E6C0E008E6C0E08D828E838FF0783979BA7A64
:2025C000011219FEE58124F8F58115811581021A10C082C083C0F0058105810581E5812430
:2025E000F5F8E608467003022813E58124F5F8A9811919E6F70809E6F70809E6F7E58124F4
:20260000FBF8742026FDE40836FE0886078D828E838FF0125548FAA3125548FBA312554874
:20262000FCC007C006C005E58124FBF8E6C0E008E6C0E008E6C0E08A828B838CF078B879EE
:202640009E7A011219FE158115811581D005D006D007E58124F5F8A9811919E6F70809E64D
:20266000F70809E6F7A8811818740326FAE40836FB0886048A828B838CF0125548FAA312E2
:202680005548FBA3125548FC8A828B838CF0C007C006C00578E379F47A011219FED005D05B
:2026A00006D007A8811818740626FAE40836FB0886048A828B838CF0125548FAA31255480A
:2026C000FBA3125548FCC007C006C005C002C003C004900D0D75F00078C579827A01121929
:2026E000FE158115811581D005D006D007E58124F5F88602088603088604C007C006C00524
:20270000C002C003C004900D0375F00078C579827A011219FE158115811581D005D006D052
:20272000078D828E838FF0125548FDA3125548FEA3125548FF8D828E838FF07851799B7AB0
:20274000011219FEAD82AE83ED4E604DE58124FBF8741B26FDE40836FE0886078D828E8303
:202760008FF0E4124F4DE58124FBF8741C26FDE40836FE0886078D828E838FF0E4124F4D32
:20278000E58124FBF886820886830886F078B879247A001219FE022813E58124FBF8740582
:2027A00026FDE40836FE0886078D828E838FF0780279BD7A011219FEE58124FBF88605083E
:2027C0008606088607900D1AE0FAA3E0FBA3E0FCC005C006C0078A828B838CF078B8799E1B
:2027E0007A011219FE158115811581E58124FBF88605088606088607C005C006C007900C54
:20280000F975F00078C579827A011219FE158115811581E58124FAF581021A10C082C08311
:20282000E5812409F58124F0F8860308860408860574062BFAE43CFE8D078A828E838FF0E8
:20284000125548FAA3125548FEA3125548FF8A828E838FF0A8811818125548F6A312554842
:2028600008F6A312554808F674032AFAE43EFE8A828E838FF0E58124FBF8125548F6A312DC
:20288000554808F6A312554808F6E58124EDF8E58124F8F9E6F70809E6F70809E6F7E58144
:2028A00024F8F8741B26FAE40836FE0886078A828E838FF0125548FAC002E58124F5F8E63C
:2028C000C0E008E6C0E0C003C004C005E58124F2F886820886830886F078D179257A001200
:2028E00019FEE58124FBF5817F00C007E58124F4F8E6C0E008E6C0E0E58124F7F8E6C0E0F7
:2029000008E6C0E008E6C0E0E58124F7F886820886830886F0788C79367A001219FEE581CF
:2029200024F924F5F581021A10AD82AE83AFF0E58124FBF886820886830886F0C007C0061F
:20294000C00578B879247A001219FED005D006D00774032DFDE43EFE8D828E838FF01255F9
:2029600048FDA3125548FEA3125548FF8D828E838FF078FA79F37A011219FE021A10C082E2
:20298000C083C0F0E5812406F58124F8F8740626FAE40836FB0886048A828B838CF01255E4
:2029A00048FAA3125548FBA3125548FCA8811818A60208A60308A604E58124F2F8860208D2
:2029C0008603088604E58124FBF8741C2AF6E43B08F608A604E58124FBF886820886830842
:2029E00086F0125548FFE58124F0F8E62FFEE58124FBF886820886830886F0EE124F4DE599
:202A00008124FBF886820886830886F012554824FA503BE58124FBF886820886830886F01B
:202A2000E4124F4D741B2AFDE43BFE8C07C002C003C0048D828E838FF0125548FC0C8D82F0
:202A40008E838FF0EC124F4DD004D003D002741B2AFDE43BFE8C078D828E838FF01255481F
:202A6000FDC002C003C004E58124FBF8740626FCE40836FE0886078C828E838FF0125548F5
:202A8000FCC3ED9CD004D003D002402AC002C003C004E58124F5F8E6C0E008E6C0E008E649
:202AA000C0E0900001781C79287A001219FEE58124FAF5818022C002C003C004E58124F5A9
:202AC000F886820886830886F0782979297A001219FE158115811581E58124F7F581021AAC
:202AE00010C082C083C0F0E5812406F58124F8F8740626FAE40836FB0886048A828B838C88
:202B0000F0125548FAA3125548FBA3125548FCA8811818A60208A60308A604E58124F2F8A9
:202B20008602088603088604741C2AFDE43BFE8C078D828E838FF0E4124F4DE58124FBF8D5
:202B4000741B2AF6E43B08F608A604E58124FBF886820886830886F0125548FFE58124F0BB
:202B6000F8E62FFEE58124FBF886820886830886F0EE124F4DE58124FBF8868208868308FC
:202B800086F0E58124FBF9125548F7A8811818740626FDE40836FE0886078D828E838FF051
:202BA000125548FDE58124FBF8C3E69D402AC002C003C004E58124F5F8E6C0E008E6C0E068
:202BC00008E6C0E0900002781C79287A001219FEE58124FAF5818022C002C003C004E581B2
:202BE00024F5F886820886830886F0782979297A001219FE158115811581E58124F7F5818E
:202C0000021A10C082C083C0F0058105810581E58124F5F88602088603088604741C2AFDE8
:202C2000E43BFE8C078D828E838FF0E4124F4DA8811818741B2AF6E43B08F608A604A881B3
:202C4000181886820886830886F0125548FFE58124F3F8E62FFEA8811818868208868308FD
:202C600086F0EE124F4DC002C003C004E58124F8F8E6C0E008E6C0E008E6C0E090000078D5
:202C80001C79287A001219FEE58124FAF581E58124FAF581021A10058105810581AD82AE45
:202CA00083AFF0ED4E7003022EE474202DFAE43EFB8F048A828B838CF0125548FAA312557C
:202CC00048FBA3125548FC8A828B838CF0C007C006C0057851799B7A011219FEAA82AB83A0
:202CE000ACF0D005D006D007A8811818A60208A60308A604A8811818E608467003022DB172
:202D0000C005C006C007E58124FBF8740326FDE40836FE0886078D828E838FF0125548FD4A
:202D2000A3125548FEA3125548FFC005740AC0E08D828E838FF0781579F77A011219FEAE21
:202D400082AF831581D00575820AC007C00678A4791F7A001219FEAC82AD83D006D007EE76
:202D6000B5040CEFB50508D007D006D0058042D007D006D005A88118188602088603088617
:202D8000048A828B838CF0C007C006C00578EA79A07A011219FEAA82AB83ACF0D005D00687
:202DA000D007A8811818A60208A60308A604022CF4A8811818E608467003022EE4A8811861
:202DC00018740626FAE40836FB0886048A828B838CF0125548FAA3125548FBA3125548FCB8
:202DE000EA4B7003022EE4E58124F9F8B6000608B60002802FE58124F9F8B6010708B6007A
:202E000003022E85E58124F9F8B6020608B600028043E58124F9F8B6030708B60003022E12
:202E2000E4022EB5E58124F7F8E6C0E008E6C0E0C005C006C007E58124F9F8868208868356
:202E40000886F07803792C7A001219FEE58124FBF581022EE4E58124F7F8E6C0E008E6C075
:202E6000E0C005C006C007E58124F9F886820886830886F078E1792A7A001219FEE58124E5
:202E8000FBF581805FE58124F7F8E6C0E008E6C0E0C005C006C007E58124F9F886820886F2
:202EA000830886F0787E79297A001219FEE58124FBF581802FC005C006C007E58124FBF85D
:202EC000E6C0E008E6C0E008E6C0E0E58124F3F88682088683781C79287A001219FEE58184
:202EE00024FAF581158115811581021A10C082C083C0F0E5812412F58175821B78FD791FEA
:202F00007A001219FEAA82AB83ACF0E58124FBF8A60208A60308A6049005DCE0701C90051E
:202F2000DC7401F0780879DB7A011219FEE5828583F09005DDF0E5F0A3F09005DDE0FBA3BF
:202F4000E0FC9005DDE0F5F0A3E045F0700B9005DD74012BF0E43CA3F09005DDE0FBA3E0A6
:202F6000FC9005DD74012BF0E43CA3F0C003C00475820A7882791F7A001219FE15811581B7
:202F8000E58124FBF886820886830886F0782179237A001219FEAA82AB83ACF0E58124F8CD
:202FA000F8A60208A60308A604E58124F8F8E6084660030230D6900CF975F0007877798112
:202FC0007A011219FEAD82AE83AFF0E58124F8F8A60508A60608A607E58124F8F8E6084612
:202FE00070030230D6E58124F8F8740326FDE40836FE088607E58124FBF8E6C0E008E6C0DC
:20300000E008E6C0E08D828E838FF0782479867A011219FE158115811581E58124F8F874B4
:203020001B26FDE40836FE0886078D828E838FF0E4124F4DE58124F8F8741C26FDE408361D
:20304000FE0886078D828E838FF0E4124F4DE58124F8F8742026FDE40836FE088607E58160
:2030600024F8F8741D26FAE40836FB0886048D828E838FF0EA124F4DA3EB124F4DA3EC12C8
:203080004F4D8A828B838CF0E4124F4DA3124F4DA3124F4D8A828B838CF0783C799B7A01F1
:2030A0001219FEE58124F8F88602088603088604900D1AE0FDA3E0FEA3E0FFC002C003C0E6
:2030C000048D828E838FF078E8799B7A011219FE158115811581E58124F8F8E60846700352
:2030E000023558E58124F8F8742026FAE40836FB0886048A828B838CF0125548FDA3125518
:2031000048FEA3125548FF8D828E838FF0C004C003C00278FD799F7A011219FEAE82AF839D
:20312000D002D003D004C3EE9408EF648094804003023558900D0375F000C004C003C002C2
:20314000787779817A011219FEAD82AE83AFF0D002D003D004E58124F5F8A60508A606088C
:20316000A607E58124F5F8E6084670030234D1E58124F5F8E58124EFF9740626F7E40836DB
:2031800009F70809E6F7900D0D75F000C004C003C002787779817A011219FEAD82AE83AF4D
:2031A000F0D002D003D004E58124EFF886820886830886F0ED124F4DA3EE124F4DA3EF1220
:2031C0004F4DED4E700302349DE58124F5F8E58124F2F9740326F7E4083609F70809E6F742
:2031E000C004C003C002789379F27A011219FEAD82AE83AFF0D002D003D004E58124F2F880
:2032000086820886830886F0ED124F4DA3EE124F4DA3EF124F4DED4E700302345BE5812434
:20322000EFF886820886830886F0125548FDA3125548FEA3125548FFA8811818A60508A611
:203240000608A607758209C004C003C00278A4791F7A001219FEE5828583F0D002D003D03F
:203260000445F07029C002C003C004E58124FBF8740626FAE40836FB0886048A828B838CC7
:20328000F07408124F4DD004D003D0028044C002C003C004E58124FBF8740626FDE4083652
:2032A000FE088607758209C007C006C005C00278A4791F7A001219FEAB82D002D005D00666
:2032C000D0078D828E838FF0EB124F4DD004D003D002A881181886820886830886F0E58110
:2032E00024ECF9E7124F4DA309E7124F4DA309E7124F4DA8811818740326FDE40836FE0893
:2033000086078D828E838FF0E58124E6F8E6124F4DA308E6124F4DA308E6124F4D75820D03
:20332000C004C003C00278A4791F7A001219FEAE82AF83D002D003D004BE015EBF005BE5F6
:203340008124F5F8E58124F2F9E6F70809E6F70809E6F78A828B838CF0125548FDA3125561
:2033600048FEA3125548FFC004C003C002E58124EFF8E6C0E008E6C0E008E6C0E08D828EBD
:20338000838FF078CD799C7A011219FE158115811581D002D003D0048059E58124F5F8E5BD
:2033A0008124F2F9E6F70809E6F70809E6F78A828B838CF0125548FDA3125548FEA3125528
:2033C00048FFC004C003C002E58124EFF8E6C0E008E6C0E008E6C0E08D828E838FF078E84B
:2033E000799B7A011219FE158115811581D002D003D0048A828B838CF0125548FDA312558E
:2034000048FEA3125548FF8D828E838FF07851799B7A011219FEAC82AB83AAF0E58124F580
:20342000F88605088606088607C005C006C0078C828B838AF01236DF1581158115816002AD
:203440008016E58124F8F886820886830886F078B879247A001219FE023592E58124EFF81B
:2034600086820886830886F0125548FDA3125548FEA3125548FFC004C003C002C005C00694
:20348000C007900D0D75F00078C579827A011219FE158115811581D002D003D004E58124B5
:2034A000F5F88605088606088607C004C003C002C005C006C007900D0375F00078C5798293
:2034C0007A011219FE158115811581D002D003D0048A828B838CF0125548FAA3125548FB81
:2034E000A3125548FC8A828B838CF078FD799F7A011219FEE5828583F045F0705BE58124CE
:20350000F8F88602088603088604900D1AE0FDA3E0FEA3E0FFC002C003C0048D828E838F81
:20352000F078B8799E7A011219FE158115811581E58124F8F88602088603088604C002C047
:2035400003C004900CF975F00078C579827A011219FE1581158115817401C0E0E4C0E074FF
:2035600004C0E0E4C0E0E58124E2F8E6C0E008E6C0E008E6C0E0E58124E5F886820886839D
:203580000886F0788C79367A001219FEE58124F9F581E58124EBF581021A1090797CE4934B
:2035A000FDA3E493FEA3E493FFC007C006C005C005C006C007D002D001D0001219FED005C8
:2035C000D006D007021A10907962E493FDA3E493FEA3E493FFC007C005C006C007D002D047
:2035E00001D0001219FEAD82AE83D0078D828E83021A10AE82AF83907965E493FBA3E493F2
:20360000FCA3E493FDC005C003C004C0058E828F83D002D001D0001219FEAB82AC83D00597
:203620008B828C83021A10907968E493FDA3E493FEA3E493FFED4E601DC007C005C006C062
:2036400007D002D001D0001219FEAD82AE83D0078D828E838003900000021A10900D03751C
:20366000F000787179807A011219FE900D0D75F000787179807A011219FE900CF975F00045
:20368000787179807A011219FE021A10AD82AE83AFF0ED4E6046C007C006C005E58124F4C8
:2036A000F8E6C0E008E6C0E0E58124F4F8E6C0E008E6C0E0C005C006C007E58124F1F88629
:2036C000820886830886F0D002D001D0001219FEE58124FCF581D005D006D007021A10E5AE
:2036E0008124FCC3C8C0E0C082E608467006E5824583601218E58296F58208E5839642821B
:2037000008E5F0964582D082C8D0E0C822AF82BF02028005BF030C80057582028008758277
:20372000088003758200021A10900D32E0FEA3E0FF8E828F83021A10AF83E582900D32F006
:20374000EFA3F0021A10C082C083C0F0058105810581A88118E4F608F6E4FAFCE58124FB7C
:20376000F8E608467003023AF3C002C004E58124F9F8740826FAE40836FB0886048A828B98
:20378000838CF0125548FABA02028007D004D002023A2AE58124F9F8740726FAE40836FBFD
:2037A0000886048A828B838CF0E58124FCF8125548F6D004D002A8811818E6704FC002C098
:2037C00004E58124F9F8740926FAE40836FB0886048A828B838CF0125548D004D002702C97
:2037E000C002C004E58124F9F8740426FAE40836FB0886048A828B838CF0125548FABA0187
:2038000007D004D002023909D004D002A8811818E66049C002C004E58124F9F8740926FA8B
:20382000E40836FB0886048A828B838CF0125548D004D0027026C002C004E58124F9F874E3
:203840000426FAE40836FB0886048A828B838CF0125548D004D0027003023909A88118189A
:20386000B60348C002C004E58124F9F8740926FAE40836FB0886048A828B838CF0125548B5
:20388000FABA03028006D004D002801FE58124F9F8740426FAE40836FB0886048A828B83C8
:2038A0008CF0125548D004D002605EA8811818B60223C002C004E58124F9F8740926FAE4C3
:2038C0000836FB0886048A828B838CF0125548D004D0027034A8811818E66031C002C00438
:2038E000E58124F9F8740926FAE40836FB0886048A828B838CF0125548FABA02028006D0AE
:2039000004D0028008D004D0027A017C00C002C004E58124F9F8740426FAE40836FB088668
:20392000048A828B838CF0125548D004D0026003023AA3A8811818E6702CC002C004E5818F
:2039400024F9F8740926FAE40836FB0886048A828B838CF0125548FABA0307D004D002025B
:203960003A20D004D002A8811818E6702CC002C004E58124F9F8740926FAE40836FB088623
:20398000048A828B838CF0125548FABA0207D004D002023A20D004D002A8811818E4B60284
:2039A0000104FB602BC002C004E58124F9F8740926FAE40836FC0886078A828C838FF0127F
:2039C0005548FABA0206D004D0028054D004D002EB601FE58124FBF8740926FDE40836FEC7
:2039E0000886078D828E838FF0125548FDBD0302802EA8811818B603028003023AA3E5819B
:203A000024FBF8740926FDE40836FE0886078D828E838FF0125548FDBD02028003023AA3CC
:203A2000A8811876010876008079E58124FBF886820886830886F0125548FFBF02028063EF
:203A4000E58124FBF8740426FDE40836FE0886078D828E838FF01255487026E58124FBF838
:203A6000740926FDE40836FE0886078D828E838FF0125548FD54036008A8811876010876B1
:203A800000E58124FBF8740726FDE40836FE0886078D828E838FF0125548FD540360047AD6
:203AA000017C00E58124F5F8E608466020E58124F5F886050886060886078D828E838FF094
:203AC000A88118E6124F4DA308E6124F4DE58124F2F8E60846601CE58124F2F88605088621
:203AE000060886078D828E838FF0EA124F4DA3EC124F4DE58124FAF581021A10C082C0830C
:203B0000C0F0E5812404F581A88118E4F608F6E58124FAF8E608467006900000023BCDAC6C
:203B2000811C7B007A40E58124FAF8741026FDE40836FE088607C004C003C002E4C0E0C04E
:203B4000E0C0E08D828E838FF0784679377A001219FEE58124FAF581A88118E60846606AFC
:203B6000E58124FAF8741B26FDE40836FE0886078D828E838FF0E58124FDF8125548F6A3FC
:203B800012554808F6C007C006C005782979377A001219FEAA82AC83D005D006D007E581EF
:203BA00024FDF8E6B5020708E6B50402801C8D828E838FF0125548FDA3125548FEBDFF05A7
:203BC000BEFF0280059000008003900001E58124F9F581021A10AF82BF02067E027F008061
:203BE000047E087F00C3E49E74808FF063F08095F050281EBEFF011FE58124FBF8EE26FBAD
:203C0000EF0836FC0886058B828C838DF0125548FBBBFF0280CF9000008003900001021ADA
:203C200010C082C083C0F0058105810581E58124FBF8E608467006900000023E47E58124E5
:203C4000FBF8741026FAE40836FB08860474092AFDE43BFE8C078D828E838FF0A8811818D2
:203C6000125548F6A8811818E66013A8811818B602067E027F00800A7E087F0080047E0046
:203C80007F00A88118A60608A607EE4F6040E58124FBF8740826FDE40836FE088607C00491
:203CA000C003C002C005C006C007E58124F8F8868278D6793B7A001219FEAE82AF8315810E
:203CC00015811581D002D003D004EE4F6043E58124F5F8E608467003023D6BC004C003C050
:203CE000027469C0E07478C0E07480C0E0E58124EFF886820886830886F0782479867A0107
:203D00001219FE158115811581D002D003D004805AA88118B6020608B60002800690000090
:203D2000023E47E58124F5F8E60846603EE58124FBF8740826FDE40836FE088607C004C05E
:203D400003C002C005C006C007E58124EFF886820886830886F0782479867A011219FE15F0
:203D60008115811581D002D003D00474072AFAE43BFB8A828B838CF0125548FF600FBF02F0
:203D8000067D027E00800A7D087E0080047D007E008D038E04ED4E6031C004C003E5812415
:203DA000F9F8E6C0E008E6C0E008E6C0E08F8278D6793B7A001219FEAE82AF83158115812C
:203DC0001581D003D004EE4F6034E58124F2F8E6084660707469C0E07478C0E07480C0E0C0
:203DE000E58124EFF886820886830886F0782479867A011219FE1581158115818046BB0237
:203E000005BC00028005900000803CE58124F2F8E60846602FE58124FBF886050886060833
:203E20008607C005C006C007E58124EFF886820886830886F0782479867A011219FE1581C6
:203E400015811581900001E58124FAF581021A10C082C083C0F0E581240AF58124EEF886B0
:203E6000020886030886047406C0E0E4C0E0C0E08A828B838CF078F979527A001219FE1555
:203E80008115811581E58124F4F8741026FAE40836FB08860474052AFDE43BFE8C078D824D
:203EA0008E838FF012554820E018E58124EEF886050886060886078D828E838FF074011261
:203EC0004F4D74082AFDE43BFE8C078D828E838FF0125548FDBD02004003023F9374072A2D
:203EE000FDE43BFE8C078D828E838FF0125548FD54037003023F8074092AFDE43BFE8C07EB
:203F00008D828E838FF0125548FD54036072C002C003C004E58124F1F8741D26FDE408369B
:203F2000FE0886078D828E838FF0125548FDA3125548FEE58124F1F8741B26FBE40836FC12
:203F40000886078B828C838FF0125548FBA3125548FCEDB50306EEB504028008D004D003B6
:203F6000D002801CD004D003D00274042AFDE43BFE8C078D828E838FF07401124F4D8013B6
:203F800074042AFDE43BFE8C078D828E838FF0E4124F4DAF811FE58124F7F8A607087600AE
:203FA000087640E58124FDFF7E007D40C004C003C002E58124F4F8E6C0E008E6C0E008E6C1
:203FC000C0E0C007C006C0058A828B838CF0784679377A001219FEE58124FAF581D002D0AC
:203FE00003D004E58124FDF8E60846601FE58124EEF8860508860608860774032DFDE43ED1
:20400000FE8D828E838FF07402124F4DA88118E60846601DE58124EEF886050886060886D0
:20402000070DBD00010E8D828E838FF07402124F4DE58124EEF8E58124F7F9E6F70809E61F
:20404000F70809E6F7E58124F7F8E58124FAF9740226F7E4083609F70809E6F774072AFD40
:20406000E43BFE8C078D828E838FF0125548FD5305038D82C004C003C002780D79377A00E3
:204080001219FEAF82D002D003D004E58124FAF886820886830886F0EF124F4DE58124F71C
:2040A000F8740426FDE40836FE08860774092AFAE43BFB8A828B838CF0125548FA53020366
:2040C0008A82C007C006C005780D79377A001219FEAC82D005D006D0078D828E838FF0EC6F
:2040E000124F4DE58124F3F581021A10E5812406F581AD82AE83AFF0E58124FBF9FA7B00FB
:204100007C40C001C002C003C0048D828E838FF07850793E7A001219FE158115811581D086
:204120000187077E0074022FFFE43EFEE904F886057C00ED2FFFEC3EFE740229F886057CE1
:2041400000ED2FFFEC3EFE740329F886057C00ED2FFFEC3EFE740429F886057C00ED2FFF7F
:20416000EC3EFE740529F987057C00ED2FFFEC3EFE8F828E83E58124FAF581021A10C082A7
:20418000C083C0F00581E58124F7F88602088603088604E58124FDF886820886830886F06C
:2041A000125548FFA88174075FF6E58124FDF8740126FDE40836FE0886078D828E838FF0ED
:2041C0001255485401C40354F8A88146F6E58124FDF8740226FDE40836FE0886078D828EF9
:2041E000838FF01255485401C454F0A88146F6E58124FDF8740326FDE40836FE0886078DF1
:20420000828E838FF01255485401C42354E0A88146F6E58124FDF8740426FDE40836FE08C6
:2042200086078D828E838FF01255485401030354C0FDA881E642058A828B838CF0ED124FFD
:204240004D0ABA00010BE58124FDF8740526FDE40836FE0886078D828E838FF0125548FD26
:20426000A88174015DF6E58124FDF8740626FDE40836FE0886078D828E838FF012554854DA
:204280000125E0A88146F6E58124FDF8740726FDE40836FE0886078D828E838FF012554893
:2042A000540325E025E0A88146F6E58124FDF8740826FDE40836FE0886078D828E838FF0C6
:2042C0001255485403C454F0A88146F6E58124FDF8740926FDE40836FE0886078D828E8377
:2042E0008FF01255485403030354C0FDA881E642058A828B838CF0ED124F4DE58124FCF520
:2043000081021A10C082C083C0F0E581240CF58124FBF9FA7B007C40C001C002C003C0045C
:20432000E58124EEF886820886830886F07850793E7A001219FE158115811581D001E5815B
:2043400024F2F8741026FAE40836FB088604C001E58124EBF8E6C0E008E6C0E008E6C0E02C
:204360008A828B838CF0787E79417A001219FE158115811581D0017C028703BB014CC001F0
:204380007C03E58124EBF8C001E58124F3F9740226F7E4083609F70809E6F7D001E58124FC
:2043A000F1F8741A26FDE40836FE0886078D828E838FF0125548FDE58124F4F88682088657
:2043C000830886F0ED124F4DD001E904F88607BF02028002807BC001EC04FFE58124EBF8A1
:2043E000EC26FEE40836FD088602E58124F1F8C001E58124F6F9741B26F7E4083609F7087B
:2044000009E6F7D001E58124F7F886820886830886F01255488E828D838AF0124F4DEF04EB
:20442000FCE58124EBF8EF26FBE40836FE088607E58124F7F886820886830886F01255488F
:20444000A3125548FDFA8B828E838FF0124F4DD001740229F886078F067F008C05C3E49EE9
:2044600074808FF063F08095F05053C001E58124EBF8C001E58124F6F9ED26F7E408360931
:20448000F70809E6F7D0010D8E041CE58124F1F8EC26FCE40836FB0886028C828B838AF0E7
:2044A000125548FCE58124F7F886820886830886F0EC124F4D1EBEFF011FD001809FE58156
:2044C00024F8F8A605740329F88606BE02028003024550C001ED04FFE58124EBF8C001E559
:2044E0008124F6F9ED26F7E4083609F70809E6F7D001E58124F1F8741D26FAE40836FD08F2
:2045000086068A828D838EF0125548FCE58124F7F886820886830886F0EC124F4D8F04E5A8
:204520008124F7F8EF04F6E58124EBF8EC26FBE40836FC0886078A828D838EF0125548A3E5
:20454000125548FDFA8B828C838FF0124F4DD001E92404F987078F067F00E58124F2F8E596
:204560008124F5F9740826F7E4083609F70809E6F7E58124F8F88602C3E49E74808FF063E2
:20458000F08095F0504CE58124ECF8E58124F8F9EA26F7E4083609F70809E6F70A8E05ED00
:2045A00014C8E58124F5C826FB08E436FC0886058B828C838DF0125548FBE58124F8F886C3
:2045C000820886830886F0EB124F4D1EBEFF011F80A67F008A828F83E58124F1F581021A66
:2045E00010E581240AF581AD82AE83AFF0E58124F7F98D828E838FF0125548FC74075CF710
:20460000E58124F7FC04F98D828E838FF0125548A2E3E433F774022CF98D828E838FF012F3
:204620005548C45401F774032CF98D828E838FF0125548A2E5E433F774042CF98D828E8391
:204640008FF012554823235401F774052CF90DBD00010E8D828E838FF0125548FB74015B0A
:20466000F774062CF98D828E838FF0125548035401F774072CF98D828E838FF01255480316
:2046800003543FFB74035BF774082CF98D828E838FF0125548C4540FFB74035BF774092C3D
:2046A000F98D828E838FF012554823235403FD74035DF77F007E40E58124F1F88602088688
:2046C00003088605740AC0E0E4C0E0C004C007C0068A828B838DF0786479527A001219FE70
:2046E000E58124FBF581E58124F6F581021A10C082C083C0F0E581241CF58124DDF8C3E6AA
:20470000940208E6648094805006900000024DB1E58124F1FCFA7B007F40C004C002C00343
:20472000C007E58124DEF886820886830886F078E179457A001219FE158115811581D0046B
:204740008C07E58124E8F8A607087600087640E58124DAF8E58124E5F9E6F70809E6F708DC
:2047600009E6F7E58124E5F8741026FAE40836FB088607C004740AC0E0E4C0E0E58124E5C1
:20478000F8E6C0E008E6C0E008E6C0E08A828B838FF0786479527A001219FEE58124FBF522
:2047A00081D004E58124E2F8E58124EEF9740226F7E4083609F70809E6F774052CF9E77037
:2047C00037C004E58124E4F8741A26FAE40836FB088604E58124EDF886820886830886F015
:2047E000125548FFA31818A68208A6838A828B838CF0EF124F4DD004AF811FE58124E8F81F
:20480000A607087600087640E58124FDFBE58124EBF8A6030876000876408C068E057E0038
:204820007F40C004E58124E7F8E6C0E008E6C0E008E6C0E0E58124E7F8E6C0E008E6C0E06D
:2048400008E6C0E08D828E838FF0784679377A001219FEE58124FAF581D00474072CF9E7C5
:204860007003024A2AA88118E6084670030248E7C001E58124E4F8C001E58124E6F9741B56
:2048800026F7E4083609F70809E6F7D001E58124EDF886820886830886F0125548FE7D00EA
:2048A000E58124EDF8740126FAE40836FB0886078A828B838FF0125548FFE42EFAEF3DFFC4
:2048C000E58124E7F886820886830886F0EA124F4DA3EF124F4DE58124EDF8740226F6E41B
:2048E0000836F6D001801EE58124E5F8741B26FDE40836FE0886078D828E838FF0E4124F63
:204900004DA3124F4D8707BF020280030249A6E58124E5F88603088605088606C00474697C
:20492000C0E07478C0E07480C0E08B828D838EF0782479867A011219FE158115811581D04B
:2049400004E58124EEF8740126FBE40836FD0886068B828D838EF0125548FBE58124E5F8EE
:2049600086820886830886F0EB124F4DE58124E5F8740126FBE40836FD088606E58124EEDF
:20498000F886820886830886F0125548FA8B828D838EF0124F4DE58124EEF8740226F6E4B0
:2049A0000836F6024A7ABF03028003024A7AE58124FBF8E4F608F6C004E58124E4F8E5810B
:2049C00024FAF9E726FA09E70836FB088605E58124FAF87407C396FCE40896FFE58124EDB9
:2049E000F8EC26FCEF0836FF0886068C828F838EF01255488A828B838DF0124F4DE58124D5
:204A0000FAF806B600020806E58124FAF8C3E6940808E664809480D004409CE58124EEF811
:204A2000740826F6E40836F68050E58124E5F88605088606088607C0047469C0E07478C0EE
:204A4000E07480C0E08D828E838FF0782479867A011219FE158115811581D004E58124E5FF
:204A6000F8741B26FDE40836FE0886078D828E838FF0E4124F4DA3124F4D74092CF9E7705C
:204A800003024CC3E58124FDF8E608467003024B3CC001E58124E4F8741D26FDE40836FE58
:204AA000088607E58124EDF886820886830886F0125548FCE58124EAF8A604087600E581B6
:204AC00024EDF8740126FAE40836FB0886048A828B838CF0125548FC7A00E58124EAF8EA78
:204AE00026FAEC0836FC8D828E838FF0EA124F4DA3EC124F4DE58124EDF8740226F6E4080F
:204B000036F6D001A88118E60846706EE58124E5F8741B26FAE40836FB0886048D828E8360
:204B20008FF0125548FDA3125548FE8A828B838CF0ED124F4DA3EE124F4D803EE58124E55D
:204B4000F8741D26FDE40836FE088607E58124E5F8741B26FAE40836FB0886048A828B8315
:204B60008CF0125548FAA3125548FB8D828E838FF0EA124F4DA3EB124F4D8707BF0202807F
:204B800003024C2EE58124E5F8E58124EBF9740826F7E4083609F70809E6F7E58124EBF8AB
:204BA00086020886030886067469C0E07478C0E07480C0E08A828B838EF0782479867A01FD
:204BC0001219FE158115811581E58124EEF8740126FCE40836FD0886068C828D838EF01282
:204BE0005548FCE58124EBF886820886830886F0EC124F4DE58124E5F8740926FCE4083656
:204C0000FD088606E58124EEF886820886830886F0125548FB8C828D838EF0124F4DE581A2
:204C200024EEF8740226F6E40836F6024D12BF03028003024D12E58124E5F8740826FDE4CD
:204C40000836FE088607E58124FBF8E4F608F6E58124FBF8E62DFA08E63EFB8F04C005C065
:204C600006C007E58124F8F87407C396FEE40896FFE58124EBF8EE26FEEF0836FF0886055C
:204C80008E828F838DF01255488A828B838CF0124F4DE58124F8F806B600020806E58124B2
:204CA000F8F8C3E6940808E664809480D007D006D005409BE58124EEF8740826F6E4083652
:204CC000F6804FE58124E5F8740826FAE40836FB0886047469C0E07478C0E07480C0E08A36
:204CE000828B838CF0782479867A011219FE158115811581E58124E5F8741D26FAE408366D
:204D0000FB0886048A828B838CF0E4124F4DA3124F4DE58124EEF8E58124E2F9E6C397FB7D
:204D200008E60997FC8B078C06E58124E5F8E58124EBF9743426F7E4083609F70809E6F71B
:204D4000E58124DDF8E6C39FFC08E69EFBE58124EBF886820886830886F0EC124F4DA3EBFD
:204D6000124F4DE58124E5F8743126FAE40836FB0886048A828B838CF0E58124EEF8E612AC
:204D80004F4DA308E6124F4DA308E6124F4DE58124DDF8C3E69F08E664808EF063F080959A
:204DA000F050067B007C0080048F038E048B828C83E58124E1F581021A107581201257E185
:204DC000E582600302006E79A7E94400601B7A01907996788D75930CE493F2A308B80002D0
:204DE0000593D9F4DAF27593FFE478FFF6D8FD7800E84400600A7900759300E4F309D8FC12
:204E00007889E8440C600C790D900004E4F0A3D8FCD9FA90022AE4F0A3F0A3F0A3F09002DA
:204E2000CBE4F0E4F50FF510F511F512900000F0A3F0A3F0A3F09005DCE4F002006EA881C2
:204E40001818C6B2E7C60250FB124EECBC0003025386EF60FA30D502B2D1E583B4FF0302D7
:204E6000539CE582B4FF0302539C258340072482400B025386248314500302539CF582EA1A
:204E80008DF0A4A8F0EA8EF0A428F8E435F0F9EB8DF0A428E935F0F9E433CA8FF0A429F9CA
:204EA000EA35F0FAEBF88EF0A429F9EA35F0FAE433FBEC8DF0A429F9EA35F0FAE43BFBE86D
:204EC0008FF0A42AFAEB35F0FBE433CCFD8EF0A42AFAEB35F0FBE43CFCED8FF0A42BFBEC11
:204EE00035F0FC20E703124F1A025365AA82AB83A2F73392D1F5826002D2F7ACF0E5812401
:204F0000F9F8E6FD08E6FE0886F008E6A2F73392D5F5836002D2F7AFF0227804EC7011E500
:204F20008224F8500AF582E4C9CACBFCD8EF22EC7820058220E713D5820122C3E933F9EA7A
:204F400033FAEB33FBEC33FCD8EA15822220F71130F6138883A88220F509F6A883758300A8
:204F60002280FEF280F5F022C013858113C082C083E5812405F581AF130FE5132403F8A614
:204F800007087600087640E51324FCFD7E007F40E5132406F9A813088604E51324FCF8867E
:204FA000038CF0EBA4F709A7F0E513240604F98704A81308860374012DFAE43EFE8A828E00
:204FC000838FF01255488BF0A4FBE5132403F8740126FDE40836FE0886078D828E838FF003
:204FE000125548FDE51324FCF886078DF0EFA42B2CF7E5132406F987060987078E828F83A9
:20500000851381D01322C013E581F5132406F581AD82AE83AFF0E51324F8F8E608467006DC
:205020009000000250F3E51324F8F886030886041BBBFF011CEB4C70030250C3C003C0043C
:20504000A81308A60508A60608A607A8130886820886830886F0125548FAE51324FAF8E583
:20506000132404F9E6F70809E6F70809E6F7E5132404F886820886830886F0125548FCEAFF
:20508000B504028006D004D0038038A81308740126FAE40836FB0886048A058B068C07E5D1
:2050A000132404F8740126FAE40836FB088604E51324FAF8A60208A60308A604D004D003B9
:2050C0000250308D828E838FF0125548FD7F00E51324FAF886030886040886068B828C83AB
:2050E0008EF0125548FB7E00EDC39BFDEF9EFF8D828F83851381D013021A10124EEC790028
:20510000E583B58202800D5003125451E583C39582125743E5D0C465D020E117EA2DFAEBA7
:205120003EFBEC3FFC50097401125743EC4480FC025365C3EA9DFAEB9EFBEC9FFC500FC3BE
:20514000E499F9E49AFAE49BFBE49CFCB2D1124F1A025365C013858113058105810581AD88
:2051600082AE83AFF0E51324F8F8E608467006900000025210E51324FAF886020886030804
:205180008604E51324F8F8A91309E6F70809E6F7A8130816B6FF020816A81308E6084660E4
:2051A0004C8D828E838FF0E5132403F8125548F6E5132403F8E66035C005C006C0078A8258
:2051C0008B838CF0125548FFE5132403F8E6B507028008D007D006D0058012D007D006D0C3
:2051E000050DBD00010E0ABA00A60B80A38D828E838FF0125548FD7F008A828B838CF012C7
:205200005548FA7E00EDC39AFDEF9EFF8D828F83851381D013021A10AC83AB827A0079000E
:20522000748E0255DB125786700AE582458345F0700122E430D112F4700BE5F0F47006E550
:205240008330E7012290800022700AE5F07006E58320E70122907FFF227F8E1274BEF5830F
:2052600085F08222C013E581F5132408F581AD82AE83AFF0E5132406F8A60508A60608A60C
:2052800007E51324FAF8A91309E6F70809E6F70809E6F7E51324F8F8E5132404F9E6F70871
:2052A00009E6F7E5132404F88603088604E5132404F816B6FF020816EB4C6028A8130886CA
:2052C000820886830886F0125548FCA31818A68208A6838D828E838FF0EC124F4DA3AD82DB
:2052E000AE8380BFE5132406F886820886830886F0851381D013021A10C013858113C08237
:20530000C083C0F005810581A813088602088603088604E51324FAF8E5132404F9E6F70814
:2053200009E6F7E5132404F88606088607E5132404F816B6FF020816EE4F60168A828B837E
:205340008CF0E51324FCF8E6124F4DA3AA82AB8380D1A8130886820886830886F08513816C
:20536000D013021A10B98003EA13B34010EA2401FAE43BFBE43CFC50047C800582BC000E02
:20538000BB000BBA0008E4F5F0F583F58222A2D1E582138CF092F78B838A8222E4F583F52C
:2053A0008275F080F4A2D11322E4F583F58275F0C0747F22C0138581137E008E83780E7963
:2053C000D37A011219FED013021A10C013858113AD82AE83AFF0E51324FCF8E6C0E0C00501
:2053E000C006C007E4C0E0C0E0C0E09053B475F00078D079647A001219FEAE82AF83E581D0
:2054000024F9F5818E828F83D013021A10C013E581F51324FAFFC007E51324FAF8E6C0E00F
:2054200008E6C0E008E6C0E0E4C0E0C0E0C0E09053B475F00078D079647A001219FEAE8298
:20544000AF83E58124F9F5818E828F83D013021A10E582C583F582A2D133A2D592D11392A5
:20546000D5ECCFFCEBCEFBEACDFA22AA82AB831255486003A380F8C3E5829AF582E5839B54
:20548000F583021A10124EEC30D502B2D1BF0009BC00030253A902539CBC0003025386E59D
:2054A00083B4FF0BE582B4FF030253A9025386E582B4FF0302539CC395835007247F400B87
:2054C000025386248014500302539CF582C3ED9AEE9BEF9C40111582C3EA33F9EB33FAEC5B
:2054E00033FBE433FC8005E4CCCBCAF9C08275F019C3E99DEA9EEB9FEC9400D5F002802D99
:20550000400EE99DF9EA9EFAEB9FFBEC9400FCC3B3E833F8E58233F582E58333F583C3E9E2
:2055200033F9EA33FAEB33FBEC33FC80C4B3E4F938FAE43582FBE43583FCD0825004058293
:205540007C80124F1A02537D20F71430F6148883A88220F507E6A88375830022E280F7E4E4
:205560009322E022C013858113AE82E583FF33E433FD6009C3E49EFBE49FFC80048E038FDE
:2055800004E51324FCF808E630E70FE51324FCF8C3E496FE08E496FF800AE51324FCF886F7
:2055A00006088607C005C006C0078B828C831255FFAE82AF8315811581D005ED600DC3E418
:2055C0009EFCE49FFD8C828D8380048E828F83D01322FCABF0AA83A982749EF582C2D1ECF1
:2055E00030E716D2D1E9F42401F9EAF43400FAEBF43400FBECF43400FC124F1A025365C0C1
:2056000013858113AE82AF837D007C00E51324FCF808E6235401FB702FE51324FCF8E626D7
:20562000F608E633F6E51324FCF8C3EE96EF08965011E51324FCF808E618C313C613C60885
:20564000F680050C8C0580C4E51324FCF8C3EE96EF0896400DE51324FCF8EEC396FEEF0871
:2056600096FFE51324FCF808E618C313C613C608F68D041DEC70D18E828F83D01322C01337
:20568000858113AE82E583FF33E433FD6009C3E49EFBE49FFC80048E038F04E51324FCF833
:2056A00008E633E433FF600FE51324FCF8C3E496FA08E496FE800AE51324FCF886020886CD
:2056C00006C007C005C002C0068B828C831256F4AC82AE8315811581D005D007EF6D600D38
:2056E000C3E49CFDE49EFF8D828F8380048C828E83D01322C013858113AE82AF837C007DD9
:20570000007B10EF235401FAEE2EFEEF33FFEC2CFCED33FDEA6003430401E51324FCF8C3C9
:20572000EC96ED08964010E51324FCF8ECC396FCED0896FD430601EB14FB70C78E828F8396
:20574000D013226040F82582500274FFF582E824F8501ECCCBCAF9E4CC24F85014CBCAF93F
:20576000E4CB24F8500BCAF9E4CA24F8500379002224086010F8C3EC13FCEB13FBEA13FA46
:20578000E913F9D8F1221257E5C3749E95824039790012574330D126E9F42401F582EAF4D3
:2057A0003400F583EBF43400F5F0ECF43400700AE582458345F0700122E430E70F22EC2088
:2057C000E71489828A838BF02230D10AE4F582F583F5F074802274FFF582F583F5F0747F06
:2057E0002275820022AA82AB83A2F73392D1F5826002D2F7ACF022C013858113AF827430C4
:205800002FFF24C6501074072FFFE51324FCF8E6600474202FFFE51324F6F8E6C0E008E6CD
:20582000C0E008E6C0E0E51324F9F8E6C0E008E6C0E008E6C0E08F82D002D001D0001219DC
:20584000FE158115811581D013021A10C013858113E582FFC4540FFEC007E51324F6F8E64B
:20586000C0E008E6C0E008E6C0E0E51324F9F8E6C0E008E6C0E008E6C0E0E51324FCF8E6C7
:20588000C0E08E8278F779577A001219FEE58124F9F581D00753070FE51324F6F8E6C0E0AD
:2058A00008E6C0E008E6C0E0E51324F9F8E6C0E008E6C0E008E6C0E0E51324FCF8E6C0E087
:2058C0008F8278F779577A001219FEE58124F9F581D013021A10C013858113A98287040922
:2058E0008705098706098707191919740429F87B20C003E626FAEF235401FBEA4203A6036D
:20590000EC2CFCED33FDEE33FEEF33FFC000E51324FCF8C3EB96D000D00340148602C000C3
:20592000E51324FCF8EAC396FAD000A602430401EB14FAFB70BBA70409A70509A70609A775
:2059400007D013021A10C013858113C8E5812428F581E5132407C8A68208A68308A6F0086B
:20596000F67B00C200E5132405F87680C003C020E4C0E0C0E0C0E0C0E0E5132407F88682BB
:205980000886830886F008E61274E3AA82E58124FCF581D020D003EA6011D200E5132407E6
:2059A000F8E608E608E608E6B2E7F6C003C020E5132407F8E6C0E008E6C0E008E6C0E00848
:2059C000E6C0E090FFFF75F07F744B1274E3AA82E58124FCF581D020D003EA7003025B8280
:2059E0007A00C003C002C020E4C0E0C0E07420C0E07441C0E0E5132407F8868208868308DF
:205A000086F008E61274E3E58124FCF581D020D002D003E58224FF92014044C003C002C042
:205A200020E4C0E0C0E07420C0E07441C0E0E5132407F886820886830886F008E61254850E
:205A4000C8E5132407C8A68208A68308A6F008F6E58124FCF581D020D002D0030A80838A76
:205A600007C007C003C020E4C0E0C0E07480C0E0743FC0E0E5132407F886820886830886E8
:205A8000F008E61274E3AA82E58124FCF581D020D003D007EA6044C007C003C020E51324E9
:205AA00007F8E6C0E008E6C0E008E6C0E008E6C0E090000075F0207441124E49C8E5132460
:205AC00007C8A68208A68308A6F008F6E58124FCF581D020D003D0071F8086E5132405F82E
:205AE000A60730003AC020E51324F1F8E6C0E008E6C0E008E6C0E0E51324F4F8E6C0E00872
:205B0000E6C0E008E6C0E075822DD002D001D0001219FE158115811581D0207B018040E5DE
:205B20001324F8F8E66038C020E51324F1F8E6C0E008E6C0E008E6C0E0E51324F4F8E6C08B
:205B4000E008E6C0E008E6C0E075822BD002D001D0001219FE158115811581D0207B01E578
:205B60001324FCF87600E51324FAF87600E51324F9F87600E51324F8F87600E51324F7F8F0
:205B80007600E51324FBF8B6FF07E51324FBF87606E5132410F8E4F608F608F608763FE59D
:205BA0001324FBF88605ED604BC003C005C020E4C0E0C0E07420C0E07441C0E0E513241057
:205BC000F886820886830886F008E6125485AA82AB83AEF0FFE58124FCF581D020D005E5C0
:205BE000132410F8A60208A60308A60608A6071DD00380B2C003C003C020E5132410F8E612
:205C0000C0E008E6C0E008E6C0E008E6C0E0E5132407F886820886830886F008E61250FB3D
:205C2000A81308A68208A68308A6F008F6E58124FCF581D020A8130886820886830886F066
:205C400008E6C0201274BCC8E5132407C8A68208A68308A6F008F6D020D003E5132407F8AE
:205C600086820886830886F008E6C0201276ABAA82AB83AEF0FFD020C003C020C002C0037D
:205C8000C006C007A8130886820886830886F008E6124E3EC8E513240BC8A68208A6830879
:205CA000A6F008F6E58124FCF581D020D003E5132406F8E5132414F67A00D003E5132407E1
:205CC000F8E60846084608467003025D4B8A070AE5132406F8EF26F9C003C002C001C020F6
:205CE000740AC0E0E4C0E0C0E0C0E0E5132407F886820886830886F008E612755CAC82E52C
:205D00008124FCF581D020D00174302CF7C020740AC0E0E4C0E0C0E0C0E0E5132407F88681
:205D2000820886830886F008E612761EC8E5132407C8A68208A68308A6F008F6E58124FC90
:205D4000F581D020D002D003025CBCEAFF700DEA04FFE5132406F8EA26F87630E51324FBEC
:205D6000F8E513240FF9E6F7E5132406F8E5132407F9E6F7E5132428F8A607E513240FF80B
:205D8000E6700AE513240FF88602025E67C007C003C020E513240BF8E6C0E008E6C0E0088C
:205DA000E6C0E008E6C0E090000075F0207441124E49AC82AD83AEF0FFE58124FCF581D095
:205DC00020E5132424F8A60408A60508A60608A607E5132424F886820886830886F008E6E8
:205DE000C0201274BCAC82AD83AEF0FFD0208F02E5132407F8E5132428F9E726F9E513248B
:205E000028F8068C0774302FF78C828D838EF0EAC0201276ABAC82AD83AEF0FFD020D003A8
:205E2000C007C003C020C004C005C006C007E5132424F886820886830886F008E6124E3E87
:205E4000C8E513240BC8A68208A68308A6F008F6E58124FCF581D020D003D007E513240FD5
:205E6000F816D007025D7B8F06E51324FBF8E6600EE51324FBF8E604FC3395E0FD80047CD1
:205E8000007D00EC2EFCFE200010E51324F8F8E67008E51324F7F8E660010EE51324FAF869
:205EA000E66003026135E51324FCF8C3EA964003026135E51324F9F8E67003025FEC3000F0
:205EC00042C007C006C003E51324F1F8E6C0E008E6C0E008E6C0E0E51324F4F8E6C0E008F3
:205EE000E6C0E008E6C0E075822DD002D001D0001219FE158115811581D003D006D0070B81
:205F0000025F93E51324F8F8E66041C007C006C003E51324F1F8E6C0E008E6C0E008E6C0E3
:205F2000E0E51324F4F8E6C0E008E6C0E008E6C0E075822BD002D001D0001219FE1581156E
:205F4000811581D003D006D0070B8047E51324F7F8E6603FC007C006C003E51324F1F8E60D
:205F6000C0E008E6C0E008E6C0E0E51324F4F8E6C0E008E6C0E008E6C0E0758220D002D002
:205F800001D0001219FE158115811581D003D006D0070B8B05E51324FCF886048C021CC323
:205FA000EE9A400302620CC007C006C005C004E51324F1F8E6C0E008E6C0E008E6C0E0E504
:205FC0001324F4F8E6C0E008E6C0E008E6C0E0758230D002D001D0001219FE1581158115F8
:205FE00081D004D005D006D0070D80B08B02E51324FCF88605C0078D071DC3EE9FD0075076
:2060000049C007C006C005C002C020E51324F1F8E6C0E008E6C0E008E6C0E0E51324F4F894
:20602000E6C0E008E6C0E008E6C0E0758220D002D001D0001219FE158115811581D020D089
:2060400002D005D006D0070A80AB8A03E51324FCF8A605300044C007C006C002E51324F16F
:20606000F8E6C0E008E6C0E008E6C0E0E51324F4F8E6C0E008E6C0E008E6C0E075822DD0E8
:2060800002D001D0001219FE158115811581D002D006D007EA04FB026215E51324F8F8E69F
:2060A0006044C007C006C002E51324F1F8E6C0E008E6C0E008E6C0E0E51324F4F8E6C0E0B8
:2060C00008E6C0E008E6C0E075822BD002D001D0001219FE158115811581D002D006D007A5
:2060E000EA04FB026215E51324F7F8E67003026215C007C006C002E51324F1F8E6C0E0087F
:20610000E6C0E008E6C0E0E51324F4F8E6C0E008E6C0E008E6C0E0758220D002D001D00037
:206120001219FE158115811581D002D006D007EA04FB026215300042C007C006C003E513D9
:2061400024F1F8E6C0E008E6C0E008E6C0E0E51324F4F8E6C0E008E6C0E008E6C0E07582EF
:206160002DD002D001D0001219FE158115811581D003D006D0070B026215E51324F8F8E69E
:206180006041C007C006C003E51324F1F8E6C0E008E6C0E008E6C0E0E51324F4F8E6C0E0D9
:2061A00008E6C0E008E6C0E075822BD002D001D0001219FE158115811581D003D006D007C3
:2061C0000B8052E51324F7F8E6604AC007C006C003E51324F1F8E6C0E008E6C0E008E6C030
:2061E000E0E51324F4F8E6C0E008E6C0E008E6C0E0758220D002D001D0001219FE158115B7
:20620000811581D003D006D0070B80098D03E51324FCF8A6048F051DE5132406F88604E5CF
:20622000132406F8ED26F98702C007C006C005C004C003E51324F1F8E6C0E008E6C0E0089A
:20624000E6C0E0E51324F4F8E6C0E008E6C0E008E6C0E08A82D002D001D0001219FE1581D0
:2062600015811581D003D004D005D006D0070B8D021DEA70AA8B05E51324FBF8E670030214
:206280006324C007C006C004C003E51324F1F8E6C0E008E6C0E008E6C0E0E51324F4F8E6CE
:2062A000C0E008E6C0E008E6C0E075822ED002D001D0001219FE158115811581D003D004F8
:2062C000D006D0070B8F05E51324FBF886028A071AEF604EED2CF90D8707C006C005C00497
:2062E000C003C002E51324F1F8E6C0E008E6C0E008E6C0E0E51324F4F8E6C0E008E6C0E056
:2063000008E6C0E08F82D002D001D0001219FE158115811581D002D003D004D005D0060B51
:2063200080AC8B05E51324FAF8E6605CE51324FCF8C3EE9650528D07E51324FCF88604C307
:20634000EE9C50421CC007C006C004E51324F1F8E6C0E008E6C0E008E6C0E0E51324F4F805
:20636000E6C0E008E6C0E008E6C0E0758220D002D001D0001219FE158115811581D004D062
:2063800006D0070F80B98F05E5132405F8B680030264C6C005E51324F1F8E6C0E008E6C0C8
:2063A000E008E6C0E0E51324F4F8E6C0E008E6C0E008E6C0E0758265D002D001D0001219CB
:2063C000FE158115811581D005ED04FFE5132405F8E630E740C007E51324F1F8E6C0E00888
:2063E000E6C0E008E6C0E0E51324F4F8E6C0E008E6C0E008E6C0E075822DD002D001D00048
:206400001219FE158115811581D0070FE5132405F8C3E496F6E5132405F8E6FA3395E0FEC0
:20642000C007C006C002740AC0E0E4C0E08A828E8312567EAB821581158174302BFBE5134D
:2064400024F1F8E6C0E008E6C0E008E6C0E0E51324F4F8E6C0E008E6C0E008E6C0E08B82D6
:20646000D002D001D0001219FE158115811581D002D006D0070FC007740AC0E0E4C0E08A3D
:20648000828E83125564AC821581158174302CFCE51324F1F8E6C0E008E6C0E008E6C0E0D1
:2064A000E51324F4F8E6C0E008E6C0E008E6C0E08C82D002D001D0001219FE158115811547
:2064C00081D007EF04FD8D82851381D013021A10C013858113C082C083C0F0E5812424F579
:2064E00081E513240CF8E4F608F6E5132410F8E5132419F6E5132421C8E5132407C82405BB
:20650000F6E5132411F8E5132419F6E5132411F8E5132404F9740426F7E5132404F8E51352
:206520002405F9E6F7E5132404F8E5132406F9E6F7E51324F7F886020886060886078A8284
:206540008E838FF0125548FDE51324F7F874012AF6E43E08F608A607EDFF70030274AABF4C
:206560002502800302746DC200C201C202C203C204C205C206C207E513241EF8E4F6FDFE5B
:20658000E513241FF876FF0876FFE51324F7F8E5132408F9E6F70809E6F70809E6F7E513FD
:2065A0002408F886820886830886F0E513240BF9125548F7A31818A68208A683E51324080A
:2065C000F8E51324F7F9E6F70809E6F70809E6F7E513240BF8B62542E51324FAF8E6C0E02E
:2065E00008E6C0E008E6C0E0A81308E6C0E008E6C0E008E6C0E0E513240BF88682D002D051
:2066000001D0001219FE158115811581E513240CF806B600020806026531E513240BF8B665
:20662000300050030266BEE513240BF8E624C650030266BEE513241FF8B6FF3C08B6FF3830
:20664000C020C005C00690000A124F68AA82AF8315811581D020E513240BF886037C00EBE3
:206660002AFAEC3FFFEA24D0FDEF34FFFE4D600302659ED20102659EC006C005C020E513E1
:20668000241FF8E6C0E008E6C0E090000A124F68AC82AF8315811581D020D005D006E51329
:2066A000240BF886027B00EA2CFCEB3FFFE513241FF8EC24D0F6EF34FF08F602659EE5134F
:2066C000240BF8B62E1DE513241FF8B6FF0608B6FF02800302659EE513241FF8E4F608F652
:2066E00002659EE513240BF8B66100401CE513240BF8E624854012E513240BF8E654DFF6D5
:20670000E5132418F876018007E5132418F87600E513240BF8B620030267E2E513240BF84B
:20672000B62B030267DDE513240BF8B62D030267D8E513240BF8B642030267E7E513240B58
:20674000F8B643030267F1E513240BF8B64403026D5FE513240BF8B64603026D85E51324D3
:206760000BF8B6480302659EE513240BF8B64903026D5FE513240BF8B64A0302659EE51302
:20678000240BF8B64C028064E513240BF8B64F03026D6AE513240BF8B65003026AFBE51363
:2067A000240BF8B65303026866E513240BF8B6540302659EE513240BF8B65503026D73E5B1
:2067C00013240BF8B65803026D7CE513240BF8B65A0302659E026D89D20002659ED20202A7
:2067E000659ED20302659ED20502659ED20602659E300515E51324F6F8E614FCE51324F6A7
:20680000F8A604A80486048014E51324F6F8E624FEFBE51324F6F8A603A8038604C006C091
:2068200005C020E51324FAF8E6C0E008E6C0E008E6C0E0A81308E6C0E008E6C0E008E6C03E
:20684000E08C82D002D001D0001219FE158115811581D020D005D006E513240CF806B60075
:20686000020806026DE4E5132419FCE51324F6F8E624FDFBE51324F6F8A603A8038602088A
:206880008603088607A804A60208A60308A6078A828B838FF0C006C005C004C020786B79FC
:2068A000547A001219FEC8E5132408C8A68208A683D020D004D005D006E513241FF8B6FF7D
:2068C0001408B6FF10E5132408F8E513241FF9E6F70809E6F730000302697CE5132408F886
:2068E000C3E69D08E69E400302697CE5132408F8E5132412F9EDC396F7EE089609F7E51398
:20690000240CF88606088605E5132412F88602088607E5132412F816B6FF020816EA4F6043
:2069200047C006C005C004C020E51324FAF8E6C0E008E6C0E008E6C0E0A81308E6C0E008E0
