:020000040000FA
:04000000024DC232B9
:01000B0032C2
:0100130032BA
:01001B0032B2
:0100230032AA
:03002B00021C694B
:01003300329A
:01003B003292
:01004300328A
:03004B00021D9FF4
:01005300327A
:01005B003272
:01006300326A
:20006B00021A500202DAC082C083E5812404F5817C007D00C374C89C74808DF063F0809535
:20008B00F0500B7490C39CFA74019DFB80048C028D03E58124FBF886078F82C007C005C097
:2000AB0004C003C002783A79877A01121AEED002D003D004D005D007E58124FDF8E4F608DF
:2000CB00F6E58124FDF8C3E69A08E664808BF063F08095F0501DE58124FDF8A98119E6F7AC
:2000EB000809E6F7E58124FDF8740126F6E40836F680CE8F82C005C004C003C00278507931
:20010B00877A01121AEED002D003D004D005E58124FDF8E4F608F674C8C39AFEE49BFFE519
:20012B008124FDF8C3E69E08E664808FF063F08095F0501DE58124FDF8A98119E6F708090D
:20014B00E6F7E58124FDF8740126F6E40836F680CE0CBC00010DC3EC9490ED648094815062
:20016B000302007FE58124FAF58122E5812408F5817E0C7F78E58124F9FD7C07EC2DF98EA8
:20018B00828F83E0FBA3AE82AF83A7031CEC30E7EB74072DF987077E0074062DF987048CC8
:2001AB0003E44207EB420689047B007A40C007C006C0057402C0E0E4C0E0C004C003C002DA
:2001CB0090023675F000786C79527A00121AEEE58124FBF581907918E493FAA3E493FBA35F
:2001EB00E493FCC004C003C00274F5C0E0C4C0E0C002C003C004900002D002D001D000126B
:20020B001AEE15811581D002D003D004D005D006D007907918E493FAA3E493FBA3E493FCE7
:20022B00C005C004C003C002C007C006C002C003C004900003D002D001D000121AEE158119
:20024B001581D002D003D004D005907918E493FCA3E493FEA3E493FFC007C006C005C004D4
:20026B007419C0E0E4C0E0C004C006C007900001D002D001D000121AEE15811581D004D083
:20028B0005D006D00790791EE493FCA3E493FEA3E493FF7B007A40C007C006C0047408C014
:2002AB00E0E4C0E0C005C003C002C004C006C00790000BD002D001D000121AEEE58124FB87
:2002CB00F581D004D006D007E58124F8F5812278A0791B7A00121AEE78C979807A02121AE0
:2002EB00EE78CF79917A01121AEE78E079867A01121AEE758207785079877A01121AEE9048
:20030B00000112007178F079A87A01121AEE789379DD7A01121AEE90A0EC75F00178DB79EC
:20032B001A7A00121AEE781D79A37A01121AEE9000021200719076C675F080785979C47A70
:20034B0001121AEE9076E375F080785979C47A01121AEE90624AE0FFBF8D028042BF950285
:20036B00802CBFA5028005BFB54480119076F475F080785979C47A01121AEE80319076FB5E
:20038B0075F080785979C47A01121AEE802090770275F080785979C47A01121AEE800F907A
:2003AB00770975F080785979C47A01121AEE90771075F080785979C47A01121AEE90627722
:2003CB00E0FF0F8F82789379C47A01121AEE90771875F080785979C47A01121AEE7800799E
:2003EB00807A02121AEE90000078CD79E07A01121AEEE4C0E0C0E0C0E0900CA875F0007834
:20040B006C79A37A01121AEE158115811581780279C07A01121AEE788279C57A01121AEEDD
:20042B00120176E4C0E0C0E0C0E0900CC875F000786C79A37A01121AEE15811581158190B4
:20044B007879E493FDA3E493FEA3E493FFC007C006C0057401C0E0E4C0E0C005C006C007BE
:20046B00900081D002D001D000121AEE15811581D005D006D007907867E493FDA3E493FE2A
:20048B00A3E493FFC007C006C0057401C0E0E4C0E0C005C006C007900081D002D001D00077
:2004AB00121AEE15811581D005D006D007785579C67A01121AEE90198F75F080786879D87A
:2004CB007A01121AEE780679807A02121AEE900004120071780C79807A02121AEE900503AD
:2004EB00E06057784A79907A01121AEEE5828583F045F06040786879907A01121AEEAE8218
:20050B00AF83C007C0067885791B7A00121AEEAC82AD83D006D007EEC39CFEEF9DFF1EBE2F
:20052B00FF011FC374FF9E747F9F50097830798D7A01121AEE900503E4F0782D79AB7A01DF
:20054B00121AEEAE82AF83EE708A90790CE493FDA3E493FEA3E493FFC007C005C006C00759
:20056B00D002D001D000121AEEAD82AE83D0078D088E09E508450970030204DF78C879B67E
:20058B007A01121AEE907903E493FDA3E493FEA3E493FFC007C006C005786779BA7A011219
:2005AB001AEEAA82AB83ACF0D005D006D007C0077480C0E0E4C0E0C005C006C0078A828BE8
:2005CB00838CF0D002D001D000121AEEAD82AE8315811581D0078D088E09E5084509700347
:2005EB000204DF850882850983785979BA7A01121AEE907967E493FDA3E493FEA3E493FF3D
:20060B00C007C006C005C005C006C007D002D001D000121AEED005D006D0070204DFE581D1
:20062B002406F581AF8224F6F8860508860674802EFEE58124FBF8A60508A60608E4F6FBD4
:20064B00740F5FC40354F8FE7A00E58124FBF8EA26FAEE0836FE088605A881A6C7C006C0C2
:20066B0005C0027410C0E0E4C0E08F828B83125686AB8215811581D002D005D006C2AFE5C7
:20068B00C754F84BF5C78A07E58124F3F8E58124FBF9E6F70809E6F70809E6F7E58124F17D
:2006AB00F8A9811919E6F70809E6F7A88118188603088604A881181816B6FF020816EB4C21
:2006CB00602A8F828E838DF0125550FCA3AF82AE83E58124FBF886820886830886F0EC121C
:1506EB004F55A31818A68208A68380BFA88186C7D2AFE581246A
:20070000FAF581021B00AE82AF83E58124FBF886040886058D04900004ECF0E58124FBF8D2
:20072000860590000575F000ED124F557C737D628D0490000675F000EC124F557D73900015
:200740000775F000ED124F5590000875F000125550FD53051F90000875F000ED124F559032
:20076000000875F000ED124F55E58124F9F8E62625E0FC90000975F000EC124F555305E009
:2007800090000875F000ED124F55E58124F9F88603088604EB2BFBEC33FCEB2BEC33FCFBCB
:2007A000EB420590000875F000ED124F5590000A75F000125550FD53057F90000A75F000DE
:2007C000ED124F5590000A75F000ED124F5553059F90000A75F000ED124F5590000A75F03C
:2007E00000ED124F555305E090000A75F000ED124F5543051290000A75F000ED124F5590F0
:20080000000B75F000125550FD53053F90000B75F000ED124F5543054090000B75F000ED05
:20082000124F555305CF90000B75F000ED124F5590000B75F000ED124F555305F790000BAB
:2008400075F000ED124F5590000B75F000ED124F555305FB90000B75F000ED124F55900067
:200860000B75F000ED124F555305FC90000B75F000ED124F5543050290000B75F000ED1225
:200880004F5575D1FE75D601906271EEF0906272EFF0906270E043E002F0906270E020E700
:2008A000F9021B00AF82906272E0FEC2AF906270E020E7F9EF2FFF906272F0906270E04306
:2008C000E001F0906270E020E7F9D2AF906272EEF0021B00AF827E01BF0800500F7D00C30F
:2008E000ED9F50088E04EC2CFE0D80F3EE42F2E58124FDF8E4B6010104FD7014E58124FDA3
:20090000F8B60202800EE58124FDF8B6030E80087C00800A7C1080067C2080027C30EC42B9
:2009200007900C8DE04FF5B6E5B430E7FB6306FFACF2EE5CF5F2AEBA7F00ACBB7B00EE42D2
:2009400003EF42048B068C078E038F04EC30E7047E007F00ED7014E58124FDF8B6020280E9
:2009600012E58124FDF8B6033B8022EFFC3395E0FD80418E04EFA2E7CC33CC33A2E7CC336F
:20098000CC33CC540330E10244FCFD80278E04EFC4CCC4540F6CCC540FCC6CCC30E302440E
:2009A000F0FD80108E04EFA2E713CC13CCA2E713CC13CCFD8C828D83021B00E582900C8DE3
:2009C000F0021B00E581240EF581AE82AF835306FCE58124EBF8E654FCF6C3E49E74809FD4
:2009E0004053E58124EBF8C3E496748008964045E58124F3F8A60608A607087600087600D1
:200A0000C006C007E58124E9F88604088605E4FEFFE58124F1F8EC26FCED0836FDEE08360B
:200A2000FEEF0836FFC3E49C74809DE49EE49FD007D0065003020CCA8E0474075FFDE5810C
:200A400024FBF8A60408A605E58124EBF8E62EFA08E63FFB8A0474075BFDE58124FDF8A6F9
:200A60000408A605EFC423541FFE7F00E58124F7F8A60608A607EBC423541FFA7B00A8813C
:200A800018A60208A603E58124F7F8A9811986F0E7B5F00A0886F009E7B5F00280028055B1
:200AA000E58124FDF8E58124FBF9E6C397FB08E60997FAE58124EDF8860408860508860755
:200AC000E58124F7F8860674702EFEC003C002C004C005C007E58124F6F8E6C0E008E6C080
:200AE000E08E82782979067A00121AEEE58124F9F581020CCAE58124F7F886060886070ED9
:200B0000BE00010FA88118E6B5060708E6B507028003020BA1E58124FBF8E4C396FE74080D
:200B20000896FFE58124EDF88603088604088605E58124F7F8860274702AFAC006C007C0A5
:200B400003C004C005E58124F6F8E6C0E008E6C0E08A82782979067A00121AEEE58124F93A
:200B6000F58124EDF88605088606088607A88118860274702AFAE58124FDF8E6C0E008E67E
:200B8000C0E0C005C006C007E4C0E0C0E08A82782979067A00121AEEE58124F9F581020C78
:200BA000CAE58124FBF8E4C396FE74080896FFE58124EDF88603088604088605E58124F7FC
:200BC000F8860274702AFAC007C006C006C007C003C004C005E58124F4F8E6C0E008E6C07D
:200BE000E08A82782979067A00121AEEE58124F9F581D006D007E58124F9F8A60608A607D3
:200C0000E58124F7F8740126FCE40836FDE58124EDF8E58124F3F9E6F70809E6F70809E6FE
:200C2000F7A88118E6B5040708E6B50502805DE58124F3F886020886030886078C067470B6
:200C40002EFEC005C004E4C0E07408C0E0C002C003C007E4C0E0C0E08E82782979067A0025
:200C6000121AEEE58124F9F581D004D005E58124F9F8860608860774082FFFE58124F9F8F7
:200C8000A60608A6070CBC00980D8095E58124F3F88605088606088607A88118860274709B
:200CA0002AFAE58124FDF8E6C0E008E6C0E0C005C006C007E4C0E0C0E08A82782979067A61
:200CC00000121AEEE58124F9F581E58124F2F581021B00AE82AF8353070774702EF582782E
:200CE000A479087A00121AEE021B00E5812404F581AE82E583C313CE13CEC313CE13CEFF79
:200D0000E58124F5F8860408E6C313CC13CCC313CC13CCFDE58124F5F8A60408A605C3E46A
:200D20009E74809F4053E58124F5F8C3E49674800896407DE58124FDF8A60608A60708768E
:200D400000087600C006C007E58124F3F88604088605E4FEFFE58124FBF8EC26FCED08365F
:200D6000FDEE0836FEEF0836FFC3E49C74809DE49EE49FD007D00650028036E58124F7F819
:200D8000860308860408860574802FFFE58124F5F8E6C0E008E6C0E0C003C004C0058E829C
:200DA0008F83780679077A00121AEEE58124FBF581E58124FCF581021B00058105810581E9
:200DC000AD82AE83AFF0A8811818A60508A60608A607A88118188602088603088604900C07
:200DE00091E0FDA3E0FEA3E0FFC002C003C0048D828E838FF0788E799E7A01121AEE158152
:200E000015811581A88118188605088606088607C005C006C007900C9475F00078C579827A
:200E20007A01121AEE158115811581158115811581021B00E5812406F581900C91E0FDA3C9
:200E4000E0FEA3E0FF8D828E838FF07827799B7A01121AEEAD82AE83AFF0ED4E7003020F8D
:200E60000874032DFAE43EFB8F04C007C006C005C002C003C004E58124EFF88682088683F7
:200E80000886F0785C79867A01121AEEAB82AC83158115811581D005D006D007EB4C6051E4
:200EA000E58124FBF8A60508A60608A60774052DFAE43EFB8F04E58124FBF8E6C0E008E660
:200EC000C0E008E6C0E074BAC0E0740DC0E07400C0E0E4C0E0741EC0E08A828B838CF0781D
:200EE0004079C07A01121AEEE58124F8F581020FE48D828E838FF0125550FDA3125550FE4C
:200F0000A3125550FF020E5A900C9475F000787779817A01121AEEAD82AE83AFF0A88118BB
:200F200018A60508A60608A607A8811818E608467003020FE4A8811818740326FAE408367E
:200F4000FB088604E58124F5F8E6C0E008E6C0E008E6C0E08A828B838CF0782479867A013F
:200F6000121AEE158115811581A88118188602088603088604900C91E0FDA3E0FEA3E0FF84
:200F8000C002C003C0048D828E838FF078BE799B7A01121AEE158115811581A881181886E9
:200FA00005088606088607A8811818740526FAE40836FB088604C005C006C00774BAC0E042
:200FC000740DC0E07400C0E0E4C0E0741EC0E08A828B838CF0784079C07A01121AEEE581A4
:200FE00024F8F581E58124FAF581021B00786779BA7A01121AEEAD82AE83AFF0C005C00617
:20100000C0077421C0E07477C0E07480C0E0781579547A00121AEEE58124FAF581021B00B0
:20102000E5812409F581900C91E0FDA3E0FEA3E0FF8D828E838FF078D3799F7A01121AEE03
:20104000AE82AF83C3E49E74808FF063F08095F040030211EA78B579E07A01121AEEAE8293
:20106000AF83900C91E0FBA3E0FCA3E0FD8B828C838DF0C007C00678D3799F7A01121AEE19
:20108000AC82AD83D006D007C004C0058E828F83125607AE82AF8315811581E58124FCF81F
:2010A000A60608A607900C91E0FBA3E0FCA3E0FD8B828C838DF07827799B7A01121AEEAB3C
:2010C00082AC83ADF0A8811818A60308A60408A6057A007F00A8811818E608466035E581DA
:2010E00024FCF8E6B5020708E6B5070280250ABA00010FA881181886820886830886F0120D
:2011000055501818F6A312555008F6A312555008F680C2A8811818E6084670030211EA75A0
:201120008215785979BC7A01121AEEAE82AF83A8811818740326FAE40836FC0886050ABAB6
:2011400000010C8A828C838DF0125550FAE58124F8F8A602087600A8811818740326FBE4C4
:201160000836FC0886058B828C838DF0125550FB7D00900237E0FCE58124FAF8A604087691
:2011800000900236E0FC7A00C006C007E58124FAF8E6C0E008E6C0E0E58124F4F8E6C0E018
:2011A00008E6C0E0C003C005E58124F2F8E6C0E008E6C0E0C004C0027441C0E07477C0E02B
:2011C0007480C0E0781579547A00121AEEE58124F1F581A8811818740326FDE40836FE0881
:2011E00086078D828E838FF08037900237E0FF7E00900236E0FD7C00C007C006C005C004AF
:20120000747AC0E07477C0E07480C0E0781579547A00121AEEE58124F9F58190000075F045
:2012200000E58124F7F581021B00058105810581786779BA7A01121AEEAD82AE83AFF0A8BA
:20124000811818A60508A60608A607E58124F8F8860208860308860474012AFDE43BFE8C5F
:20126000078D828E838FF0125550FD7F008A828B838CF0125550FA7E00A8811818E6C0E0F1
:2012800008E6C0E008E6C0E0C005C007C002C00674A7C0E07477C0E07480C0E078157954EA
:2012A0007A00121AEEE58124F6F581158115811581021B00E5812406F581AD82AE83AFF0C0
:2012C000E58124F7F8E4B6830104FC601F90020C75F000C007C006C005C00478C1799A7A19
:2012E00001121AEED004D005D006D007EC601B9001F775F000C007C006C005782679977AAF
:2013000001121AEED005D006D0077C018D828E838FF0125550FAA3125550FBBA0005BB0094
:2013200002800CBAB806BB0003021436021969C005C006C007C007C006C0057489C0E07464
:2013400019C0E07480C0E004C0E0E4C0E090020C75F0007838799A7A01121AEEE58124FB38
:20136000F581900C9475F000787179807A01121AEED005D006D007900C91E0FAA3E0FBA341
:20138000E0FF8A828B838FF0C007C006C0057812799B7A01121AEE7483C0E07419C0E07418
:2013A00080C0E07487C0E0E4C0E09001F775F000789D79967A01121AEEE58124FBF58174D9
:2013C00034C0E0740EC0E07400C0E07487C0E0E4C0E09001EC75F00078F779C77A01121AAC
:2013E000EEE58124FBF581E4C0E0C0E09001EC75F00078E779C97A01121AEE15811581E4B8
:20140000C0E004C0E090021B75F0007885798E7A01121AEE15811581D005D006D007D00758
:20142000D006D0057C008D828E838FF074B8124F55A3E4124F55EC602490021B75F000C085
:2014400007C006C00578BF798F7A01121AEEE5828583F0D005D006D00745F07006758201A2
:2014600002197A9077D575F080C007C006C005786F79AF7A01121AEEAA82AB83ACF0D00555
:20148000D006D007900227EAF0EBA3F0ECA3F0EA4B700302194BC007C006C00574D9C0E0C2
:2014A0007477C0E07480C0E0781579547A00121AEE158115811581758202786879877A0109
:2014C000121AEE900227E0FAA3E0FBA3E0FC74032AFAE43BFB8A828B838CF0125550FAA3C3
:2014E000125550FBA3125550FCC002C002C003C004900000D002D001D000121AEEAC82ABE3
:2015000083D002D005D006D007900225ECF0EBA3F0BCFF06BBFF030216C4C005C006C00737
:20152000EC2438FAEB34FAFF8A828F83C004C003125220AA82AD83AEF0FFE4C0E0C0E07497
:2015400090C0E07440C0E08A828D838EF0EF12548DAA82AD83AEF0FFE58124FCF581D003C3
:20156000D004C007C006C005C004C003E4C0E0C0E074C8C0E07441C0E08A828D838EF0EFE0
:20158000125103C8E58124EFC8A68208A68308A6F008F6E58124FCF581D003D004D005D09F
:2015A00006D007E58124F8F890022AE6F008E6A3F008E6A3F008E6A3F0E58124F8F886823D
:2015C0000886830886F008E6C007C006C005C004C00312522DC8E58124F7C8A68208A683BA
:2015E000D003D004D005D006D007E58124FCF890022EE6F008E6A3F0E58124FCF88682089F
:201600008683C004C003125220AA82AD83AEF0FFC002C005C006C007E58124F2F886820825
:2016200086830886F008E6124E46AA82AD83AEF0FFE58124FCF581900230EAF0EDA3F0EE90
:20164000A3F0EFA3F0C002C005C006C00790000075F0C87442124E51AA82AD83AEF0FFE55F
:201660008124FCF581D003D0048A828D838EF0EFC005C004C003125261AE82AF83D003D00D
:2016800004D005C007C006C005C004C003C006C007E58124F5F8E6C0E008E6C0E074EEC05E
:2016A000E07477C0E07480C0E0781579547A00121AEEE58124F7F581D005D006D007D007ED
:2016C000D006D005900227E0FAA3E0FBA3E0FC74032AFAE43BFB8A828B838CF0125550FAD3
:2016E000A3125550FBA3125550FCC007C006C005C002C002C003C004900004D002D001D0DB
:2017000000121AEEAC82AB83D002D005D006D007900225ECF0EBA3F0BCFF06BBFF03021856
:20172000D1C005C006C0078C828B83C004C003125220AA82AD83AEF0FFC002C005C006C059
:201740000790000075F0707440124E51AA82AD83AEF0FFE58124FCF581D003D004C007C095
:2017600006C005C004C003E4C0E074E0C0E074FFC0E07444C0E08A828D838EF0EF12548DB8
:20178000C8E58124EFC8A68208A68308A6F008F6E58124FCF581D003D004D005D006D00726
:2017A000E58124F8F890022AE6F008E6A3F008E6A3F008E6A3F0E58124F8F8868208868307
:2017C0000886F008E6C007C006C005C004C00312522DC8E58124F7C8A68208A683D003D026
:2017E00004D005D006D007E58124FCF890022EE6F008E6A3F0E58124FCF88682088683C077
:2018000004C003125220AA82AD83AEF0FFC002C005C006C007E58124F2F8868208868308DB
:2018200086F008E6124E46AA82AD83AEF0FFE58124FCF581900230EAF0EDA3F0EEA3F0EF1D
:20184000A3F0C002C005C006C00790000075F0C87442124E51AA82AD83AEF0FFE58124FC3E
:20186000F581D003D0048A828D838EF0EFC005C004C003125261AE82AF83D003D004D005D3
:20188000C007C006C005C004C003C006C007E58124F5F8E6C0E008E6C0E07406C0E0747851
:2018A000C0E07480C0E0781579547A00121AEEE58124F7F581D005D006D007900225E0FEF8
:2018C000A3E0FF90022EEEF0EFA3F0D007D006D005C007C006C0057422C0E0E4C0E09078D0
:2018E0001E75F08078E579B67A01121AEE1581158190020C75F00078CD799A7A01121AEEA8
:201900007421C0E0E4C0E090784075F08078E579B67A01121AEE158115819002347401F069
:20192000900235E4F07434C0E07402C0E0E4C0E09001F775F000783279977A01121AEE15D9
:201940008115811581D005D006D00790021B75F000C007C006C0057813798F7A01121AEECC
:20196000D005D006D0070214248D828E838FF0E4124F55A3124F55758203E58124FAF58125
:20198000021B00ED0F002010002A12000000009E0C0000000020811B90000A75F040782382
:2019A00079C77A01121AEEAE82AF83EE4F6004C2008002D200A200E433FE7F008E828F83E1
:2019C000021B00AE82AF83BE8105BF00028006BE8210BF000D740255ABFF7E008F828E83CC
:2019E0008003900000021B00AE82AF83BE8005BF00028008BE8153BF00508011438F025370
:201A00008CFE53F3FD53FDFD9000018040E58124FCF8E608466029E5AB20E129E4C0E0C022
:201A2000E090000A75F040786479C67A01121AEE158115815389FDC2C543AB02D2BD800547
:201A400053ABFDC2BD9000018003900000021B00C020C0E0C0F0C082C083C007C006C00544
:201A6000C004C003C002C001C000C0D075D000C2AFE58930E14190000A75F040782379C77C
:201A80007A01121AEEE5828583F045F060297410C0E0E4C0E090000A75F040786479C67A18
:201AA00001121AEE1581158190787375F080783979AF7A01121AEE5389FDC2C5D2AFD0D090
:201AC000D000D001D002D003D004D005D006D007D083D082D0F0D0E0D02032AFF0AE83E57E
:201AE0008290023EF0EEA3F0EFA3F0021B00C09FC8C0E0E9C0E0EA540F539FF0429FC8223A
:201B0000D09F22AE82AF838E058D82C007C00678B479DD7A01121AEED006D0078E828F83BD
:201B2000021B00AE82AF83C2AF8E048F051EBEFF011FEC4D60030080F0D2AF021B00AE82BA
:201B4000AF83C007C0067885791B7A00121AEEAC82AD83D006D007C007C006C005C0047808
:201B600085791B7A00121AEEAA82AB83D004D005D006D007EAC39CFAEB9DFBC3EA9EEB9F6D
:201B800040D5021B00850F82851083021B00AC11AD127E007F008C828D838EF0EF021B00A7
:201BA00075C6C053C6BFE59E20E6FB43C630E5C6B59EFB900000E595F0E4A3F0A3F0A3F005
:201BC000AC967D007E008E078D068C057C00900000E0F8A3E0F9A3E0FAA3E0FB900000EC38
:201BE00028F0ED39A3F0EE3AA3F0EF3BA3F0AC977D008D078C067C007D00900000E0F8A3B2
:201C0000E0F9A3E0FAA3E0FB900000EC28F0ED39A3F0EE3AA3F0EF3BA3F0900000E0FCA31C
:201C2000E0FDA3E0FEA3E0FF900000ECF074012DA3F0E43EA3F0E43FA3F0900000E0A3E0C5
:201C4000A3E0FEA3E08E97900000E0A3E0FDA3E0A3E08D96900000E0FCA3E0FDA3E0FEA332
:201C6000E0FF8C95D2AD021B00C0E0C082C083C007C006C005C004C003C002C001C000C0C7
:201C8000D075D000C2AF900000E595F0E4A3F0A3F0A3F0AC967D007E008E078D068C057CB5
:201CA00000900000E0F8A3E0F9A3E0FAA3E0FB900000EC28F0ED39A3F0EE3AA3F0EF3BA370
:201CC000F0AC977D008D078C067C007D00900000E0F8A3E0F9A3E0FAA3E0FB900000EC28B2
:201CE000F0ED39A3F0EE3AA3F0EF3BA3F0900000E0FCA3E0FDA3E0FEA3E0FF900000ECF068
:201D000074012DA3F0E43EA3F0E43FA3F0900000E0A3E0A3E0FEA3E08E97900000E0A3E014
:201D2000FDA3E0A3E08D96900000E0FCA3E0A3E0A3E08C957401250FF50FE43510F510AEDE
:201D40000FAF10EE547F6002800B74012511F511E43512F5129005037401F0C2C7D2AFD04D
:201D6000D0D000D001D002D003D004D005D006D007D083D082D0E03275E40975AF0075E68F
:201D800044C2DED2B9021B00AE82AF8353E6FB8EDC8FDD43E60475AF0043E640021B00C0B4
:201DA00020C0E0C0F0C082C083C007C006C005C004C003C002C001C000C0D075D000C2B9C2
:201DC00053AFFD53E6BF788F79927A01121AEED2B9D0D0D000D001D002D003D004D005D07B
:201DE00006D007D083D082D0F0D0E0D02032C082C083C0F0900D1BE0FAA3E0FBA3E0FC8A81
:201E0000828B838CF07827799B7A01121AEEAA82AB83ACF0EA4B606D74032AFDE43BFE8C2F
:201E200007C004C003C002E58124FBF8E6C0E008E6C0E008E6C0E08D828E838FF0785C7947
:201E4000867A01121AEEAE82AF83158115811581D002D003D004EE4F60088A828B838CF08F
:201E600080298A058B068C078D828E838FF078C079A07A01121AEEAD82AE83AFF08D028E65
:201E8000038F04808F90000075F000158115811581021B00907970E493FDA3E493FEA3E43D
:201EA00093FFC007C005C006C007D002D001D000121AEEAD82AE83D0078D048E07ED4E70E2
:201EC000037C01FF8C828F83021B00058105810581AD82AE83AFF0ED4E7003021F7C7420D6
:201EE0002DFAE43EFB8F048A828B838CF0125550FAA3125550FBA3125550FC8A828B838C73
:201F0000F0C007C006C0057827799B7A01121AEEAA82AB83ACF0D005D006D007A881181866
:201F2000A60208A60308A604A8811818E60846604B907964E493FAA3E493FBA3E493FCC095
:201F400004C003C002E58124FBF8E6C0E008E6C0E008E6C0E0C005C006C007C002C003C042
:201F60000490276475F000D002D001D000121AEEE58124FAF581D002D003D00415811581B1
:201F80001581021B0005810581AD82AE83AFF0741C2DFAE43EFB8F048A828B838CF012551F
:201FA00050FCBC040050068C037C0080047B047C00C005C006C0078BF005F07B017C0080FB
:201FC00006EB2BFBEC33FCD5F0F71BBBFF011CC006C005C004C0037894791E7A00121AEED8
:201FE000AA82AF83D003D004D005D006C005C002C0078B828C83124F70AE82AF83158115E9
:2020000081D005E58124FCF8A60608A607D007D006D005A88118E60846603CC007C006C0AB
:202020000578B579E07A01121AEEAB82AC83E58124FCF8E6C0E008E6C0E08B828C8312560E
:2020400007AB82AC8315811581D005D006D007A88118A60308A6048D028E038F0474052D7A
:20206000FDE43EFEC002C003C00474CBC0E0741EC0E07400C0E0E58124F9F8E6C0E008E6E6
:20208000C0E08D828E838FF0784079C07A01121AEEE58124F8F58115811581021B00C082F8
:2020A000C083C0F0058105810581E58124F5F8E6084670030222E0E58124F5F8A9811919A6
:2020C000E6F70809E6F70809E6F7E58124FBF8742026FDE40836FE0886078D828E838FF0BF
:2020E000125550FAA3125550FBA3125550FCC007C006C005E58124FBF8E6C0E008E6C0E0A1
:2021000008E6C0E08A828B838CF0788E799E7A01121AEE158115811581D005D006D007E5C0
:202120008124F5F8A9811919E6F70809E6F70809E6F7A8811818740326FAE40836FB08865D
:20214000048A828B838CF0125550FAA3125550FBA3125550FC8A828B838CF0C007C006C0A6
:2021600005788579FA7A01121AEED005D006D007A8811818740626FAE40836FB0886048AA7
:20218000828B838CF0125550FAA3125550FBA3125550FCC007C006C005C002C003C00490AC
:2021A0000D0E75F00078C579827A01121AEE158115811581D005D006D007E58124F5F88691
:2021C00002088603088604C007C006C005C002C003C004900D0475F00078C579827A011274
:2021E0001AEE158115811581D005D006D0078D828E838FF0125550FDA3125550FEA31255DE
:2022000050FF8D828E838FF07827799B7A01121AEEAD82AE83ED4E604DE58124FBF8741B34
:2022200026FDE40836FE0886078D828E838FF0E4124F55E58124FBF8741C26FDE40836FE3D
:202240000886078D828E838FF0E4124F55E58124FBF886820886830886F07885791F7A008D
:20226000121AEE0222E0E58124FBF8740526FDE40836FE0886078D828E838FF0780979C316
:202280007A01121AEEE58124FBF88605088606088607900D1BE0FAA3E0FBA3E0FCC005C064
:2022A00006C0078A828B838CF0788E799E7A01121AEE158115811581E58124FBF886050837
:2022C0008606088607C005C006C007900CFA75F00078C579827A01121AEE15811581158101
:2022E000E58124FAF581021B00C082C083E5812409F58124F0F88603088604088605740605
:202300002BFAE43CFE8D078A828E838FF0125550FAA3125550FEA3125550FF8A828E838F3C
:20232000F0A8811818125550F6A312555008F6A312555008F674032AFAE43EFE8A828E831F
:202340008FF0E58124FBF8125550F6A312555008F6A312555008F6E58124EDF8E58124F833
:20236000F9E6F70809E6F70809E6F7E58124F8F8741B26FAE40836FE0886078A828E838F21
:20238000F0125550FAC002E58124F5F8E6C0E008E6C0E0C003C004C005E58124F2F8868287
:2023A0000886830886F0789E79207A00121AEEE58124FBF5817F00C007E58124F4F8E6C0EE
:2023C000E008E6C0E0E58124F7F8E6C0E008E6C0E008E6C0E0E58124F7F8868208868308DA
:2023E00086F0787679807A02121AEEE58124F924F5F581021B00AD82AE83AFF0E58124FB37
:20240000F886820886830886F0C007C006C0057885791F7A00121AEED005D006D0077403B9
:202420002DFDE43EFE8D828E838FF0125550FDA3125550FEA3125550FF8D828E838FF07837
:202440009C79F97A01121AEE021B00C082C083C0F0E5812406F58124F8F8740626FAE408E7
:2024600036FB0886048A828B838CF0125550FAA3125550FBA3125550FCA8811818A602089E
:20248000A60308A604E58124F2F88602088603088604E58124FBF8741C2AF6E43B08F60870
:2024A000A604E58124FBF886820886830886F0125550FFE58124F0F8E62FFEE58124FBF8A6
:2024C00086820886830886F0EE124F55E58124FBF886820886830886F012555024FA503B4D
:2024E000E58124FBF886820886830886F0E4124F55741B2AFDE43BFE8C07C002C003C0047F
:202500008D828E838FF0125550FC0C8D828E838FF0EC124F55D004D003D002741B2AFDE409
:202520003BFE8C078D828E838FF0125550FDC002C003C004E58124FBF8740626FCE40836F8
:20254000FE0886078C828E838FF0125550FCC3ED9CD004D003D002402AC002C003C004E53A
:202560008124F5F8E6C0E008E6C0E008E6C0E090000178E979227A00121AEEE58124FAF58D
:20258000818022C002C003C004E58124F5F886820886830886F078F679237A00121AEE150E
:2025A0008115811581E58124F7F581021B00C082C083C0F0E5812406F58124F8F87406266B
:2025C000FAE40836FB0886048A828B838CF0125550FAA3125550FBA3125550FCA881181807
:2025E000A60208A60308A604E58124F2F88602088603088604741C2AFDE43BFE8C078D823B
:202600008E838FF0E4124F55E58124FBF8741B2AF6E43B08F608A604E58124FBF886820808
:2026200086830886F0125550FFE58124F0F8E62FFEE58124FBF886820886830886F0EE12C4
:202640004F55E58124FBF886820886830886F0E58124FBF9125550F7A8811818740626FDA0
:20266000E40836FE0886078D828E838FF0125550FDE58124FBF8C3E69D402AC002C003C0E0
:2026800004E58124F5F8E6C0E008E6C0E008E6C0E090000278E979227A00121AEEE5812471
:2026A000FAF5818022C002C003C004E58124F5F886820886830886F078F679237A00121A01
:2026C000EE158115811581E58124F7F581021B00C082C083C0F0058105810581E58124F5F0
:2026E000F88602088603088604741C2AFDE43BFE8C078D828E838FF0E4124F55A88118183E
:20270000741B2AF6E43B08F608A604A881181886820886830886F0125550FFE58124F3F820
:20272000E62FFEA881181886820886830886F0EE124F55C002C003C004E58124F8F8E6C089
:20274000E008E6C0E008E6C0E090000078E979227A00121AEEE58124FAF581E58124FAF5EA
:2027600081021B00058105810581AD82AE83AFF0ED4E70030229B174202DFAE43EFB8F0435
:202780008A828B838CF0125550FAA3125550FBA3125550FC8A828B838CF0C007C006C0055F
:2027A0007827799B7A01121AEEAA82AB83ACF0D005D006D007A8811818A60208A60308A6F9
:2027C00004A8811818E60846700302287EC005C006C007E58124FBF8740326FDE40836FEC4
:2027E0000886078D828E838FF0125550FDA3125550FEA3125550FFC005740AC0E08D828EC0
:20280000838FF078B779FC7A01121AEEAE82AF831581D00575820AC007C006785979BC7AA2
:2028200001121AEEAC82AD83D006D007EEB5040CEFB50508D007D006D0058042D007D0061D
:20284000D005A881181886020886030886048A828B838CF0C007C006C00578C079A07A01EB
:20286000121AEEAA82AB83ACF0D005D006D007A8811818A60208A60308A6040227C1A8814F
:202880001818E6084670030229B1A8811818740626FAE40836FB0886048A828B838CF0123B
:2028A0005550FAA3125550FBA3125550FCEA4B70030229B1E58124F9F8B6000608B6000253
:2028C000802FE58124F9F8B6010708B60003022952E58124F9F8B6020608B600028043E531
:2028E0008124F9F8B6030708B600030229B1022982E58124F7F8E6C0E008E6C0E0C005C026
:2029000006C007E58124F9F886820886830886F078D079267A00121AEEE58124FBF5810260
:2029200029B1E58124F7F8E6C0E008E6C0E0C005C006C007E58124F9F886820886830886BC
:20294000F078AE79257A00121AEEE58124FBF581805FE58124F7F8E6C0E008E6C0E0C00503
:20296000C006C007E58124F9F886820886830886F0784B79247A00121AEEE58124FBF581C9
:20298000802FC005C006C007E58124FBF8E6C0E008E6C0E008E6C0E0E58124F3F886820892
:2029A000868378E979227A00121AEEE58124FAF581158115811581021B00C082C083C0F070
:2029C000E5812412F58175821B78B279BC7A01121AEEAA82AB83ACF0E58124FBF8A60208BC
:2029E000A60308A6049005DCE0701C9005DC7401F078B579E07A01121AEEE5828583F090BF
:202A000005DDF0E5F0A3F09005DDE0FBA3E0FC9005DDE0F5F0A3E045F0700B9005DD74015F
:202A20002BF0E43CA3F09005DDE0FBA3E0FC9005DD74012BF0E43CA3F0C003C00475820ABF
:202A4000783779BC7A01121AEE15811581E58124FBF886820886830886F078EE791D7A0047
:202A6000121AEEAA82AB83ACF0E58124F8F8A60208A60308A604E58124F8F8E608466003B0
:202A8000022BA3900CFA75F000787779817A01121AEEAD82AE83AFF0E58124F8F8A60508C1
:202AA000A60608A607E58124F8F8E608467003022BA3E58124F8F8740326FDE40836FE0888
:202AC0008607E58124FBF8E6C0E008E6C0E008E6C0E08D828E838FF0782479867A01121A69
:202AE000EE158115811581E58124F8F8741B26FDE40836FE0886078D828E838FF0E4124F61
:202B000055E58124F8F8741C26FDE40836FE0886078D828E838FF0E4124F55E58124F8F8CB
:202B2000742026FDE40836FE088607E58124F8F8741D26FAE40836FB0886048D828E838FA0
:202B4000F0EA124F55A3EB124F55A3EC124F558A828B838CF0E4124F55A3124F55A3124FCF
:202B6000558A828B838CF07812799B7A01121AEEE58124F8F88602088603088604900D1B5A
:202B8000E0FDA3E0FEA3E0FFC002C003C0048D828E838FF078BE799B7A01121AEE158115E3
:202BA000811581E58124F8F8E608467003023025E58124F8F8742026FAE40836FB088604A9
:202BC0008A828B838CF0125550FDA3125550FEA3125550FF8D828E838FF0C004C003C00212
:202BE00078D3799F7A01121AEEAE82AF83D002D003D004C3EE9408EF648094804003023059
:202C000025900D0475F000C004C003C002787779817A01121AEEAD82AE83AFF0D002D0031E
:202C2000D004E58124F5F8A60508A60608A607E58124F5F8E608467003022F9EE58124F5C9
:202C4000F8E58124EFF9740626F7E4083609F70809E6F7900D0E75F000C004C003C0027892
:202C60007779817A01121AEEAD82AE83AFF0D002D003D004E58124EFF886820886830886BE
:202C8000F0ED124F55A3EE124F55A3EF124F55ED4E7003022F6AE58124F5F8E58124F2F9DD
:202CA000740326F7E4083609F70809E6F7C004C003C002783579F87A01121AEEAD82AE8314
:202CC000AFF0D002D003D004E58124F2F886820886830886F0ED124F55A3EE124F55A3EF55
:202CE000124F55ED4E7003022F28E58124EFF886820886830886F0125550FDA3125550FE03
:202D0000A3125550FFA8811818A60508A60608A607758209C004C003C002785979BC7A0123
:202D2000121AEEE5828583F0D002D003D00445F07029C002C003C004E58124FBF87406266D
:202D4000FAE40836FB0886048A828B838CF07408124F55D004D003D0028044C002C003C080
:202D600004E58124FBF8740626FDE40836FE088607758209C007C006C005C002785979BC66
:202D80007A01121AEEAB82D002D005D006D0078D828E838FF0EB124F55D004D003D002A8BC
:202DA00081181886820886830886F0E58124ECF9E7124F55A309E7124F55A309E7124F552D
:202DC000A8811818740326FDE40836FE0886078D828E838FF0E58124E6F8E6124F55A308FD
:202DE000E6124F55A308E6124F5575820DC004C003C002785979BC7A01121AEEAE82AF83A6
:202E0000D002D003D004BE015EBF005BE58124F5F8E58124F2F9E6F70809E6F70809E6F75D
:202E20008A828B838CF0125550FDA3125550FEA3125550FFC004C003C002E58124EFF8E6F7
:202E4000C0E008E6C0E008E6C0E08D828E838FF078A3799C7A01121AEE158115811581D0C0
:202E600002D003D0048059E58124F5F8E58124F2F9E6F70809E6F70809E6F78A828B838C85
:202E8000F0125550FDA3125550FEA3125550FFC004C003C002E58124EFF8E6C0E008E6C0EF
:202EA000E008E6C0E08D828E838FF078BE799B7A01121AEE158115811581D002D003D004EB
:202EC0008A828B838CF0125550FDA3125550FEA3125550FF8D828E838FF07827799B7A012A
:202EE000121AEEAC82AB83AAF0E58124F5F88605088606088607C005C006C0078C828B8329
:202F00008AF012315915811581158160028016E58124F8F886820886830886F07885791F3B
:202F20007A00121AEE02305FE58124EFF886820886830886F0125550FDA3125550FEA312A3
:202F40005550FFC004C003C002C005C006C007900D0E75F00078C579827A01121AEE1581BF
:202F600015811581D002D003D004E58124F5F88605088606088607C004C003C002C005C0B3
:202F800006C007900D0475F00078C579827A01121AEE158115811581D002D003D0048A824A
:202FA0008B838CF0125550FAA3125550FBA3125550FC8A828B838CF078D3799F7A01121A8B
:202FC000EEE5828583F045F0705BE58124F8F88602088603088604900D1BE0FDA3E0FEA3C6
:202FE000E0FFC002C003C0048D828E838FF0788E799E7A01121AEE158115811581E581240C
:20300000F8F88602088603088604C002C003C004900CFA75F00078C579827A01121AEE15EF
:2030200081158115817401C0E0E4C0E07404C0E0E4C0E0E58124E2F8E6C0E008E6C0E0082E
:20304000E6C0E0E58124E5F886820886830886F0787679807A02121AEEE58124F9F581E591
:203060008124EBF581021B00907984E493FDA3E493FEA3E493FFC007C006C005C005C0061E
:20308000C007D002D001D000121AEED005D006D007021B0090796AE493FDA3E493FEA3E4B7
:2030A00093FFC007C005C006C007D002D001D000121AEEAD82AE83D0078D828E83021B0064
:2030C000AE82AF8390796DE493FBA3E493FCA3E493FDC005C003C004C0058E828F83D00274
:2030E000D001D000121AEEAB82AC83D0058B828C83021B00907970E493FDA3E493FEA3E41F
:2031000093FFED4E601DC007C005C006C007D002D001D000121AEEAD82AE83D0078D828EEB
:20312000838003900000021B00900D0475F000787179807A01121AEE900D0E75F000787166
:2031400079807A01121AEE900CFA75F000787179807A01121AEE021B00E58124FCC3C8C081
:20316000E0C082E608467006E5824583601218E58296F58208E58396428208E5F096458252
:20318000D082C8D0E0C822E5812438F581783179377A00121AEEAE82AF83BEFF09BFFF066A
:2031A00090FFFF0234AAE58124C9F9FD7E007F40C0017436C0E0E4C0E0C0E08D828E838F3D
:2031C000F0780179537A00121AEE158115811581D001900D32E0701C900D327401F0C00163
:2031E00078B579E07A01121AEEAE82AF83D001900C8CEEF0741029F8758214C001C00078D2
:203200005979BC7A01121AEEAE82D000D001A606741229F8758213C001C000785979BC7A5C
:2032200001121AEEAE82D000A60678CD79BC7A01121AEEE5828583F0D00145F0600E74135E
:2032400029F87600741529F876008024741329F875820BC001C000785979BC7A01121AEE4D
:20326000AE82AF83D000D001A606741529F87600741429F87600741829F87601E58124C4EE
:20328000F8E60846606E75820AC001785979BC7A01121AEEE5828583F0D00145F06020747E
:2032A0001A29F875820AC001C000785979BC7A01121AEEAE82AF83D000D001A606803590C2
:2032C0000C8CE0FFE07006900C8CEF04F0741A29F8900C8CE0FF04F0A6077E00C001C007B9
:2032E000C00675820A783779BC7A01121AEE15811581D001741929F87602741B29F8C001FA
:20330000C000783179377A00121AEEE5828583F0D000F608A6F078CD79BC7A01121AEEE549
:20332000828583F0D00145F0600F741729F8760277FFE904F876FF804175821BC00178B2EC
:2033400079BC7A01121AEEAD82AE83AFF0D00189047B007A40C001C005C006C0078C828B65
:20336000838AF0782479867A01121AEE158115811581D001741729F87602741D29F8C001F6
:20338000C000783179377A00121AEEE5828583F0D000F608A6F075821A78B279BC7A0112C0
:2033A0001AEEAD82AE83AFF0D001740829FC7B007A40C001C005C006C0078C828B838AF0B6
:2033C000782479867A01121AEE158115811581D001743129F8C001C000786779BA7A011244
:2033E0001AEEAD82AE83AFF0D000D001A60508A60608A607743429F8C001C00078A279BA7A
:203400007A01121AEEAE82AF83D000D001A60608A60789077E007D408F828E838DF0C00188
:2034200078F479407A00121AEEAE82AF83D001A88118A60608A607E58124C4F8E608467014
:203440000AA881188682088683805FA881188682088683C001784379B97A01121AEEE58225
:203460008583F0D00145F0603EC001788E79BA7A01121AEEAB82AC83ADF0D00189027E004E
:203480007F40C003C004C0058A828E838FF0780C79437A00121AEE158115811581A88118AE
:2034A0008682088683800390FFFFE58124C8F581021B00E4C0E0C0E0900001788779317A25
:2034C00000121AEEAE82AF83158115818E828F83021B007401C0E0E4C0E090000178877963
:2034E000317A00121AEEAE82AF83158115818E828F83021B00E581243BF58124C9FFE581AD
:2035000024C6F8A607087600087640C00778A279BA7A01121AEEAA82AB838A058B04C005FA
:20352000C004786779BA7A01121AEEAA82AB83AEF0D004D005E58124C5F8E6C0E008E6C004
:20354000E008E6C0E0C005C0048A828B838EF078F779467A00121AEEAD82AE83E58124FB35
:20356000F581D007A88118A60508A606A88118E608467003023709A881188682088683C01A
:2035800007781679BA7A01121AEEE5828583F0D00745F0700302370974102FF987047B00FC
:2035A000C007C004C003758214783779BC7A01121AEE15811581D00774172FF9E770030227
:2035C000365CC001741B2FF8860308860418C007C004C003C001C000783179377A00121AE1
:2035E000EEAA82AE83D000D001D003D004D007EBB50208ECB50604D0018015D00186050842
:203600008606BDFF05BEFF02800690FFFF02370C8F067D007C408703C007C006C005C004D7
:203620008B8278DE793B7A00121AEEAD82AE83158115811581D007ED4E70218F06FD7C40CC
:20364000C007C006C005C00475821B787579BC7A01121AEE158115811581D00774082FFE49
:203660007D007C40C007C006C005C00475821A787579BC7A01121AEE158115811581D0079A
:2036800074122FF987067D00C007C006C005758213783779BC7A01121AEE15811581D0079A
:2036A00074152FF9E77022741A2FF987067D00C007C006C00575820A783779BC7A01121A42
:2036C000EE15811581D007801AC00774FFC0E0C0E075820A783779BC7A01121AEE158115C0
:2036E00081D007741A2FF987077E00C007C00675820E783779BC7A01121AEE15811581A8D1
:2037000081188682088683800390FFFFE58124C5F581021B00AF82BF02028005BF030C803D
:203720000575820280087582088003758200021B00900D33E0FEA3E0FF8E828F83021B00FE
:20374000AF83E582900D33F0EFA3F0021B00C082C083C0F0058105810581A88118E4F60887
:20376000F6E4FAFCE58124FBF8E608467003023AFBC002C004E58124F9F8740826FAE40895
:2037800036FB0886048A828B838CF0125550FABA02028007D004D002023A32E58124F9F84B
:2037A000740726FAE40836FB0886048A828B838CF0E58124FCF8125550F6D004D002A8812F
:2037C0001818E6704FC002C004E58124F9F8740926FAE40836FB0886048A828B838CF0121F
:2037E0005550D004D002702CC002C004E58124F9F8740426FAE40836FB0886048A828B8380
:203800008CF0125550FABA0107D004D002023911D004D002A8811818E66049C002C004E5CE
:203820008124F9F8740926FAE40836FB0886048A828B838CF0125550D004D0027026C0025B
:20384000C004E58124F9F8740426FAE40836FB0886048A828B838CF0125550D004D002707F
:2038600003023911A8811818B60348C002C004E58124F9F8740926FAE40836FB0886048AC8
:20388000828B838CF0125550FABA03028006D004D002801FE58124F9F8740426FAE40836AC
:2038A000FB0886048A828B838CF0125550D004D002605EA8811818B60223C002C004E581AA
:2038C00024F9F8740926FAE40836FB0886048A828B838CF0125550D004D0027034A88118AF
:2038E00018E66031C002C004E58124F9F8740926FAE40836FB0886048A828B838CF01255EF
:2039000050FABA02028006D004D0028008D004D0027A017C00C002C004E58124F9F87404D5
:2039200026FAE40836FB0886048A828B838CF0125550D004D0026003023AABA8811818E63C
:20394000702CC002C004E58124F9F8740926FAE40836FB0886048A828B838CF0125550FA37
:20396000BA0307D004D002023A28D004D002A8811818E6702CC002C004E58124F9F874097A
:2039800026FAE40836FB0886048A828B838CF0125550FABA0207D004D002023A28D004D0A0
:2039A00002A8811818E4B6020104FB602BC002C004E58124F9F8740926FAE40836FC08863B
:2039C000078A828C838FF0125550FABA0206D004D0028054D004D002EB601FE58124FBF8CC
:2039E000740926FDE40836FE0886078D828E838FF0125550FDBD0302802EA8811818B6039D
:203A0000028003023AABE58124FBF8740926FDE40836FE0886078D828E838FF0125550FD15
:203A2000BD02028003023AABA8811876010876008079E58124FBF886820886830886F01206
:203A40005550FFBF02028063E58124FBF8740426FDE40836FE0886078D828E838FF0125549
:203A6000507026E58124FBF8740926FDE40836FE0886078D828E838FF0125550FD54036084
:203A800008A881187601087600E58124FBF8740726FDE40836FE0886078D828E838FF01267
:203AA0005550FD540360047A017C00E58124F5F8E608466020E58124F5F8860508860608E9
:203AC00086078D828E838FF0A88118E6124F55A308E6124F55E58124F2F8E60846601CE58D
:203AE0008124F2F886050886060886078D828E838FF0EA124F55A3EC124F55E58124FAF586
:203B000081021B00C082C083C0F0E5812404F581A88118E4F608F6E58124FAF8E608467095
:203B200006900000023BD5AC811C7B007A40E58124FAF8741026FDE40836FE088607C004C3
:203B4000C003C002E4C0E0C0E0C0E08D828E838FF0784E79377A00121AEEE58124FAF58179
:203B6000A88118E60846606AE58124FAF8741B26FDE40836FE0886078D828E838FF0E5811E
:203B800024FDF8125550F6A312555008F6C007C006C005783179377A00121AEEAA82AC836D
:203BA000D005D006D007E58124FDF8E6B5020708E6B50402801C8D828E838FF0125550FDC8
:203BC000A3125550FEBDFF05BEFF0280059000008003900001E58124F9F581021B00AF829D
:203BE000BF02067E027F0080047E087F00C3E49E74808FF063F08095F050281EBEFF011FF3
:203C0000E58124FBF8EE26FBEF0836FC0886058B828C838DF0125550FBBBFF0280CF900076
:203C2000008003900001021B00C082C083C0F0058105810581E58124FBF8E60846700690D5
:203C40000000023E4FE58124FBF8741026FAE40836FB08860474092AFDE43BFE8C078D82A2
:203C60008E838FF0A8811818125550F6A8811818E66013A8811818B602067E027F00800A5C
:203C80007E087F0080047E007F00A88118A60608A607EE4F6040E58124FBF8740826FDE41F
:203CA0000836FE088607C004C003C002C005C006C007E58124F8F8868278DE793B7A001280
:203CC0001AEEAE82AF83158115811581D002D003D004EE4F6043E58124F5F8E60846700341
:203CE000023D73C004C003C0027471C0E07478C0E07480C0E0E58124EFF886820886830892
:203D000086F0782479867A01121AEE158115811581D002D003D004805AA88118B6020608E1
:203D2000B600028006900000023E4FE58124F5F8E60846603EE58124FBF8740826FDE408D5
:203D400036FE088607C004C003C002C005C006C007E58124EFF886820886830886F078245B
:203D600079867A01121AEE158115811581D002D003D00474072AFAE43BFB8A828B838CF025
:203D8000125550FF600FBF02067D027E00800A7D087E0080047D007E008D038E04ED4E6071
:203DA00031C004C003E58124F9F8E6C0E008E6C0E008E6C0E08F8278DE793B7A00121AEE7F
:203DC000AE82AF83158115811581D003D004EE4F6034E58124F2F8E6084660707471C0E04A
:203DE0007478C0E07480C0E0E58124EFF886820886830886F0782479867A01121AEE1581D5
:203E0000158115818046BB0205BC00028005900000803CE58124F2F8E60846602FE581249E
:203E2000FBF88605088606088607C005C006C007E58124EFF886820886830886F07824796C
:203E4000867A01121AEE158115811581900001E58124FAF581021B00C082C083C0F0E58142
:203E6000240AF58124EEF886020886030886047406C0E0E4C0E0C0E08A828B838CF078019C
:203E800079537A00121AEE158115811581E58124F4F8741026FAE40836FB08860474052A94
:203EA000FDE43BFE8C078D828E838FF012555020E018E58124EEF886050886060886078D36
:203EC000828E838FF07401124F5574082AFDE43BFE8C078D828E838FF0125550FDBD020040
:203EE0004003023F9B74072AFDE43BFE8C078D828E838FF0125550FD54037003023F8874F7
:203F0000092AFDE43BFE8C078D828E838FF0125550FD54036072C002C003C004E58124F181
:203F2000F8741D26FDE40836FE0886078D828E838FF0125550FDA3125550FEE58124F1F802
:203F4000741B26FBE40836FC0886078B828C838FF0125550FBA3125550FCEDB50306EEB50D
:203F600004028008D004D003D002801CD004D003D00274042AFDE43BFE8C078D828E838F27
:203F8000F07401124F55801374042AFDE43BFE8C078D828E838FF0E4124F55AF811FE58136
:203FA00024F7F8A607087600087640E58124FDFF7E007D40C004C003C002E58124F4F8E69F
:203FC000C0E008E6C0E008E6C0E0C007C006C0058A828B838CF0784E79377A00121AEEE54E
:203FE0008124FAF581D002D003D004E58124FDF8E60846601FE58124EEF88605088606086A
:20400000860774032DFDE43EFE8D828E838FF07402124F55A88118E60846601DE58124EE1D
:20402000F886050886060886070DBD00010E8D828E838FF07402124F55E58124EEF8E5815A
:2040400024F7F9E6F70809E6F70809E6F7E58124F7F8E58124FAF9740226F7E4083609F7E8
:204060000809E6F774072AFDE43BFE8C078D828E838FF0125550FD5305038D82C004C003BC
:20408000C002781579377A00121AEEAF82D002D003D004E58124FAF886820886830886F0D0
:2040A000EF124F55E58124F7F8740426FDE40836FE08860774092AFAE43BFB8A828B838C31
:2040C000F0125550FA5302038A82C007C006C005781579377A00121AEEAC82D005D006D00F
:2040E000078D828E838FF0EC124F55E58124F3F581021B00E5812406F581AD82AE83AFF063
:20410000E58124FBF9FA7B007C40C001C002C003C0048D828E838FF07858793E7A00121A1A
:20412000EE158115811581D00187077E0074022FFFE43EFEE904F886057C00ED2FFFEC3EFD
:20414000FE740229F886057C00ED2FFFEC3EFE740329F886057C00ED2FFFEC3EFE740429FD
:20416000F886057C00ED2FFFEC3EFE740529F987057C00ED2FFFEC3EFE8F828E83E581246B
:20418000FAF581021B00C082C083C0F00581E58124F7F88602088603088604E58124FDF834
:2041A00086820886830886F0125550FFA88174075FF6E58124FDF8740126FDE40836FE087A
:2041C00086078D828E838FF01255505401C40354F8A88146F6E58124FDF8740226FDE4082B
:2041E00036FE0886078D828E838FF01255505401C454F0A88146F6E58124FDF8740326FDC5
:20420000E40836FE0886078D828E838FF01255505401C42354E0A88146F6E58124FDF874CB
:204220000426FDE40836FE0886078D828E838FF01255505401030354C0FDA881E642058A00
:20424000828B838CF0ED124F550ABA00010BE58124FDF8740526FDE40836FE0886078D8200
:204260008E838FF0125550FDA88174015DF6E58124FDF8740626FDE40836FE0886078D8229
:204280008E838FF0125550540125E0A88146F6E58124FDF8740726FDE40836FE0886078DB9
:2042A000828E838FF0125550540325E025E0A88146F6E58124FDF8740826FDE40836FE0829
:2042C00086078D828E838FF01255505403C454F0A88146F6E58124FDF8740926FDE40836F6
:2042E000FE0886078D828E838FF01255505403030354C0FDA881E642058A828B838CF0ED8E
:20430000124F55E58124FCF581021B00C082C083C0F0E581240CF58124FBF9FA7B007C4044
:20432000C001C002C003C004E58124EEF886820886830886F07858793E7A00121AEE1581BB
:2043400015811581D001E58124F2F8741026FAE40836FB088604C001E58124EBF8E6C0E0E5
:2043600008E6C0E008E6C0E08A828B838CF0788679417A00121AEE158115811581D0017C30
:20438000028703BB014CC0017C03E58124EBF8C001E58124F3F9740226F7E4083609F708E8
:2043A00009E6F7D001E58124F1F8741A26FDE40836FE0886078D828E838FF0125550FDE535
:2043C0008124F4F886820886830886F0ED124F55D001E904F88607BF02028002807BC001CE
:2043E000EC04FFE58124EBF8EC26FEE40836FD088602E58124F1F8C001E58124F6F9741B66
:2044000026F7E4083609F70809E6F7D001E58124F7F886820886830886F01255508E828D3A
:20442000838AF0124F55EF04FCE58124EBF8EF26FBE40836FE088607E58124F7F88682081F
:2044400086830886F0125550A3125550FDFA8B828E838FF0124F55D001740229F886078FF6
:20446000067F008C05C3E49E74808FF063F08095F05053C001E58124EBF8C001E58124F604
:20448000F9ED26F7E4083609F70809E6F7D0010D8E041CE58124F1F8EC26FCE40836FB08D7
:2044A00086028C828B838AF0125550FCE58124F7F886820886830886F0EC124F551EBEFF9E
:2044C000011FD001809FE58124F8F8A605740329F88606BE02028003024558C001ED04FFEE
:2044E000E58124EBF8C001E58124F6F9ED26F7E4083609F70809E6F7D001E58124F1F87443
:204500001D26FAE40836FD0886068A828D838EF0125550FCE58124F7F8868208868308863E
:20452000F0EC124F558F04E58124F7F8EF04F6E58124EBF8EC26FBE40836FC0886078A82BB
:204540008D838EF0125550A3125550FDFA8B828C838FF0124F55D001E92404F987078F0676
:204560007F00E58124F2F8E58124F5F9740826F7E4083609F70809E6F7E58124F8F8860225
:20458000C3E49E74808FF063F08095F0504CE58124ECF8E58124F8F9EA26F7E4083609F75D
:2045A0000809E6F70A8E05ED14C8E58124F5C826FB08E436FC0886058B828C838DF012558E
:2045C00050FBE58124F8F886820886830886F0EB124F551EBEFF011F80A67F008A828F8320
:2045E000E58124F1F581021B00E581240AF581AD82AE83AFF0E58124F7F98D828E838FF08B
:20460000125550FC74075CF7E58124F7FC04F98D828E838FF0125550A2E3E433F774022C14
:20462000F98D828E838FF0125550C45401F774032CF98D828E838FF0125550A2E5E433F794
:2046400074042CF98D828E838FF012555023235401F774052CF90DBD00010E8D828E838FAF
:20466000F0125550FB74015BF774062CF98D828E838FF0125550035401F774072CF98D82DE
:204680008E838FF01255500303543FFB74035BF774082CF98D828E838FF0125550C4540F58
:2046A000FB74035BF774092CF98D828E838FF012555023235403FD74035DF77F007E40E5B7
:2046C0008124F1F88602088603088605740AC0E0E4C0E0C004C007C0068A828B838DF0789E
:2046E0006C79527A00121AEEE58124FBF581E58124F6F581021B00C082C083C0F0E5812422
:204700001CF58124DDF8C3E6940208E6648094805006900000024DB9E58124F1FCFA7B000F
:204720007F40C004C002C003C007E58124DEF886820886830886F078E979457A00121AEE00
:20474000158115811581D0048C07E58124E8F8A607087600087640E58124DAF8E58124E512
:20476000F9E6F70809E6F70809E6F7E58124E5F8741026FAE40836FB088607C004740AC0C8
:20478000E0E4C0E0E58124E5F8E6C0E008E6C0E008E6C0E08A828B838FF0786C79527A00EA
:2047A000121AEEE58124FBF581D004E58124E2F8E58124EEF9740226F7E4083609F7080975
:2047C000E6F774052CF9E77037C004E58124E4F8741A26FAE40836FB088604E58124EDF8DA
:2047E00086820886830886F0125550FFA31818A68208A6838A828B838CF0EF124F55D00431
:20480000AF811FE58124E8F8A607087600087640E58124FDFBE58124EBF8A60308760008D8
:2048200076408C068E057E007F40C004E58124E7F8E6C0E008E6C0E008E6C0E0E58124E720
:20484000F8E6C0E008E6C0E008E6C0E08D828E838FF0784E79377A00121AEEE58124FAF59C
:2048600081D00474072CF9E77003024A32A88118E6084670030248EFC001E58124E4F8C063
:2048800001E58124E6F9741B26F7E4083609F70809E6F7D001E58124EDF886820886830891
:2048A00086F0125550FE7D00E58124EDF8740126FAE40836FB0886078A828B838FF012559A
:2048C00050FFE42EFAEF3DFFE58124E7F886820886830886F0EA124F55A3EF124F55E58104
:2048E00024EDF8740226F6E40836F6D001801EE58124E5F8741B26FDE40836FE0886078D3B
:20490000828E838FF0E4124F55A3124F558707BF020280030249AEE58124E5F88603088647
:2049200005088606C0047471C0E07478C0E07480C0E08B828D838EF0782479867A01121A98
:20494000EE158115811581D004E58124EEF8740126FBE40836FD0886068B828D838EF0126D
:204960005550FBE58124E5F886820886830886F0EB124F55E58124E5F8740126FBE40836D9
:20498000FD088606E58124EEF886820886830886F0125550FA8B828D838EF0124F55E58117
:2049A00024EEF8740226F6E40836F6024A82BF03028003024A82E58124FBF8E4F608F6C04B
:2049C00004E58124E4F8E58124FAF9E726FA09E70836FB088605E58124FAF87407C396FCE1
:2049E000E40896FFE58124EDF8EC26FCEF0836FF0886068C828F838EF01255508A828B838A
:204A00008DF0124F55E58124FAF806B600020806E58124FAF8C3E6940808E664809480D0A4
:204A200004409CE58124EEF8740826F6E40836F68050E58124E5F88605088606088607C0CB
:204A4000047471C0E07478C0E07480C0E08D828E838FF0782479867A01121AEE15811581B2
:204A60001581D004E58124E5F8741B26FDE40836FE0886078D828E838FF0E4124F55A31210
:204A80004F5574092CF9E77003024CCBE58124FDF8E608467003024B44C001E58124E4F87F
:204AA000741D26FDE40836FE088607E58124EDF886820886830886F0125550FCE58124EA60
:204AC000F8A604087600E58124EDF8740126FAE40836FB0886048A828B838CF0125550FCBA
:204AE0007A00E58124EAF8EA26FAEC0836FC8D828E838FF0EA124F55A3EC124F55E5812492
:204B0000EDF8740226F6E40836F6D001A88118E60846706EE58124E5F8741B26FAE40836AA
:204B2000FB0886048D828E838FF0125550FDA3125550FE8A828B838CF0ED124F55A3EE1261
:204B40004F55803EE58124E5F8741D26FDE40836FE088607E58124E5F8741B26FAE40836EB
:204B6000FB0886048A828B838CF0125550FAA3125550FB8D828E838FF0EA124F55A3EB122D
:204B80004F558707BF02028003024C36E58124E5F8E58124EBF9740826F7E4083609F70881
:204BA00009E6F7E58124EBF886020886030886067471C0E07478C0E07480C0E08A828B8336
:204BC0008EF0782479867A01121AEE158115811581E58124EEF8740126FCE40836FD0886B1
:204BE000068C828D838EF0125550FCE58124EBF886820886830886F0EC124F55E58124E54B
:204C0000F8740926FCE40836FD088606E58124EEF886820886830886F0125550FB8C828DF6
:204C2000838EF0124F55E58124EEF8740226F6E40836F6024D1ABF03028003024D1AE58124
:204C400024E5F8740826FDE40836FE088607E58124FBF8E4F608F6E58124FBF8E62DFA0818
:204C6000E63EFB8F04C005C006C007E58124F8F87407C396FEE40896FFE58124EBF8EE26E2
:204C8000FEEF0836FF0886058E828F838DF01255508A828B838CF0124F55E58124F8F80635
:204CA000B600020806E58124F8F8C3E6940808E664809480D007D006D005409BE58124EEB4
:204CC000F8740826F6E40836F6804FE58124E5F8740826FAE40836FB0886047471C0E074B2
:204CE00078C0E07480C0E08A828B838CF0782479867A01121AEE158115811581E58124E511
:204D0000F8741D26FAE40836FB0886048A828B838CF0E4124F55A3124F55E58124EEF8E55D
:204D20008124E2F9E6C397FB08E60997FC8B078C06E58124E5F8E58124EBF9743426F7E48C
:204D4000083609F70809E6F7E58124DDF8E6C39FFC08E69EFBE58124EBF88682088683086F
:204D600086F0EC124F55A3EB124F55E58124E5F8743126FAE40836FB0886048A828B838C56
:204D8000F0E58124EEF8E6124F55A308E6124F55A308E6124F55E58124DDF8C3E69F08E6F4
:204DA00064808EF063F08095F050067B007C0080048F038E048B828C83E58124E1F5810245
:204DC0001B007581201257E9E582600302006E79A8E94400601B7A0190799E788D75930C12
:204DE000E493F2A308B800020593D9F4DAF27593FFE478FFF6D8FD7800E84400600A790000
:204E0000759300E4F309D8FC7889E8440C600C790D900004E4F0A3D8FCD9FA90022AE4F069
:204E2000A3F0A3F0A3F09002CBE4F0E4F50FF510F511F512900000F0A3F0A3F0A3F09005C0
:204E4000DCE4F002006EA8811818C6B2E7C6025103124EF4BC000302538EEF60FA30D50218
:204E6000B2D1E583B4FF030253A4E582B4FF030253A4258340072482400B02538E24831404
:204E800050030253A4F582EA8DF0A4A8F0EA8EF0A428F8E435F0F9EB8DF0A428E935F0F943
:204EA000E433CA8FF0A429F9EA35F0FAEBF88EF0A429F9EA35F0FAE433FBEC8DF0A429F952
:204EC000EA35F0FAE43BFBE88FF0A42AFAEB35F0FBE433CCFD8EF0A42AFAEB35F0FBE43C24
:204EE000FCED8FF0A42BFBEC35F0FC20E703124F2202536DAA82AB83A2F73392D1F58260C4
:204F000002D2F7ACF0E58124F9F8E6FD08E6FE0886F008E6A2F73392D5F5836002D2F7AFEF
:204F2000F0227804EC7011E58224F8500AF582E4C9CACBFCD8EF22EC7820058220E713D501
:204F4000820122C3E933F9EA33FAEB33FBEC33FCD8EA15822220F71130F6138883A8822058
:204F6000F509F6A8837583002280FEF280F5F022C013858113C082C083E5812405F581AFDC
:204F8000130FE5132403F8A607087600087640E51324FCFD7E007F40E5132406F9A81308BF
:204FA0008604E51324FCF886038CF0EBA4F709A7F0E513240604F98704A8130886037401C1
:204FC0002DFAE43EFE8A828E838FF01255508BF0A4FBE5132403F8740126FDE40836FE0846
:204FE00086078D828E838FF0125550FDE51324FCF886078DF0EFA42B2CF7E5132406F98734
:20500000060987078E828F83851381D01322C013E581F5132406F581AD82AE83AFF0E513DB
:2050200024F8F8E6084670069000000250FBE51324F8F886030886041BBBFF011CEB4C7015
:20504000030250CBC003C004A81308A60508A60608A607A8130886820886830886F0125511
:2050600050FAE51324FAF8E5132404F9E6F70809E6F70809E6F7E5132404F88682088683D5
:205080000886F0125550FCEAB504028006D004D0038038A81308740126FAE40836FB088652
:2050A000048A058B068C07E5132404F8740126FAE40836FB088604E51324FAF8A60208A679
:2050C0000308A604D004D0030250388D828E838FF0125550FD7F00E51324FAF886030886F3
:2050E000040886068B828C838EF0125550FB7E00EDC39BFDEF9EFF8D828F83851381D0135D
:20510000021B00124EF47900E583B58202800D5003125459E583C3958212574BE5D0C46591
:20512000D020E117EA2DFAEB3EFBEC3FFC5009740112574BEC4480FC02536DC3EA9DFAEB0C
:205140009EFBEC9FFC500FC3E499F9E49AFAE49BFBE49CFCB2D1124F2202536DC013858188
:2051600013058105810581AD82AE83AFF0E51324F8F8E608467006900000025218E51324BD
:20518000FAF88602088603088604E51324F8F8A91309E6F70809E6F7A8130816B6FF02083E
:2051A00016A81308E60846604C8D828E838FF0E5132403F8125550F6E5132403F8E6603541
:2051C000C005C006C0078A828B838CF0125550FFE5132403F8E6B507028008D007D006D071
:2051E000058012D007D006D0050DBD00010E0ABA00A60B80A38D828E838FF0125550FD7F53
:20520000008A828B838CF0125550FA7E00EDC39AFDEF9EFF8D828F83851381D013021B00BC
:20522000AC83AB827A007900748E0255E312578E700AE582458345F0700122E430D112F490
:20524000700BE5F0F47006E58330E7012290800022700AE5F07006E58320E70122907FFF5B
:20526000227F8E1274C6F58385F08222C013E581F5132408F581AD82AE83AFF0E51324061E
:20528000F8A60508A60608A607E51324FAF8A91309E6F70809E6F70809E6F7E51324F8F86A
:2052A000E5132404F9E6F70809E6F7E5132404F88603088604E5132404F816B6FF020816D4
:2052C000EB4C6028A8130886820886830886F0125550FCA31818A68208A6838D828E838F27
:2052E000F0EC124F55A3AD82AE8380BFE5132406F886820886830886F0851381D013021B10
:2053000000C013858113C082C083C0F005810581A813088602088603088604E51324FAF8E4
:20532000E5132404F9E6F70809E6F7E5132404F88606088607E5132404F816B6FF0208164D
:20534000EE4F60168A828B838CF0E51324FCF8E6124F55A3AA82AB8380D1A8130886820837
:2053600086830886F0851381D013021B00B98003EA13B34010EA2401FAE43BFBE43CFC50C2
:20538000047C800582BC000EBB000BBA0008E4F5F0F583F58222A2D1E582138CF092F78BDD
:2053A000838A8222E4F583F58275F080F4A2D11322E4F583F58275F0C0747F22C013858102
:2053C000137E008E837803791B7A00121AEED013021B00C013858113AD82AE83AFF0E513A5
:2053E00024FCF8E6C0E0C005C006C007E4C0E0C0E0C0E09053BC75F00078D879647A00123C
:205400001AEEAE82AF83E58124F9F5818E828F83D013021B00C013E581F51324FAFFC007E2
:20542000E51324FAF8E6C0E008E6C0E008E6C0E0E4C0E0C0E0C0E09053BC75F00078D8792B
:20544000647A00121AEEAE82AF83E58124F9F5818E828F83D013021B00E582C583F582A20F
:20546000D133A2D592D11392D5ECCFFCEBCEFBEACDFA22AA82AB831255506003A380F8C344
:20548000E5829AF582E5839BF583021B00124EF430D502B2D1BF0009BC00030253B102533C
:2054A000A4BC000302538EE583B4FF0BE582B4FF030253B102538EE582B4FF030253A4C3A1
:2054C00095835007247F400B02538E24801450030253A4F582C3ED9AEE9BEF9C40111582CB
:2054E000C3EA33F9EB33FAEC33FBE433FC8005E4CCCBCAF9C08275F019C3E99DEA9EEB9FB0
:20550000EC9400D5F002802D400EE99DF9EA9EFAEB9FFBEC9400FCC3B3E833F8E58233F52F
:2055200082E58333F583C3E933F9EA33FAEB33FBEC33FC80C4B3E4F938FAE43582FBE435FE
:2055400083FCD082500405827C80124F2202538520F71430F6148883A88220F507E6A8837F
:2055600075830022E280F7E49322E022C013858113AE82E583FF33E433FD6009C3E49EFBAA
:20558000E49FFC80048E038F04E51324FCF808E630E70FE51324FCF8C3E496FE08E496FFF4
:2055A000800AE51324FCF88606088607C005C006C0078B828C83125607AE82AF8315811546
:2055C00081D005ED600DC3E49EFCE49FFD8C828D8380048E828F83D01322FCABF0AA83A924
:2055E00082749EF582C2D1EC30E716D2D1E9F42401F9EAF43400FAEBF43400FBECF4340028
:20560000FC124F2202536DC013858113AE82AF837D007C00E51324FCF808E6235401FB7021
:205620002FE51324FCF8E626F608E633F6E51324FCF8C3EE96EF08965011E51324FCF808B5
:20564000E618C313C613C608F680050C8C0580C4E51324FCF8C3EE96EF0896400DE5132426
:20566000FCF8EEC396FEEF0896FFE51324FCF808E618C313C613C608F68D041DEC70D18E73
:20568000828F83D01322C013858113AE82E583FF33E433FD6009C3E49EFBE49FFC80048E6D
:2056A000038F04E51324FCF808E633E433FF600FE51324FCF8C3E496FA08E496FE800AE568
:2056C0001324FCF88602088606C007C005C002C0068B828C831256FCAC82AE831581158164
:2056E000D005D007EF6D600DC3E49CFDE49EFF8D828F8380048C828E83D01322C0138581D2
:2057000013AE82AF837C007D007B10EF235401FAEE2EFEEF33FFEC2CFCED33FDEA60034333
:205720000401E51324FCF8C3EC96ED08964010E51324FCF8ECC396FCED0896FD430601EB26
:2057400014FB70C78E828F83D013226040F82582500274FFF582E824F8501ECCCBCAF9E4B1
:20576000CC24F85014CBCAF9E4CB24F8500BCAF9E4CA24F8500379002224086010F8C3EC6B
:2057800013FCEB13FBEA13FAE913F9D8F1221257EDC3749E95824039790012574B30D1261B
:2057A000E9F42401F582EAF43400F583EBF43400F5F0ECF43400700AE582458345F070018B
:2057C00022E430E70F22EC20E71489828A838BF02230D10AE4F582F583F5F074802274FF73
:2057E000F582F583F5F0747F2275820022AA82AB83A2F73392D1F5826002D2F7ACF022C0FE
:2058000013858113AF8274302FFF24C6501074072FFFE51324FCF8E6600474202FFFE51352
:2058200024F6F8E6C0E008E6C0E008E6C0E0E51324F9F8E6C0E008E6C0E008E6C0E08F82F4
:20584000D002D001D000121AEE158115811581D013021B00C013858113E582FFC4540FFE82
:20586000C007E51324F6F8E6C0E008E6C0E008E6C0E0E51324F9F8E6C0E008E6C0E008E6A6
:20588000C0E0E51324FCF8E6C0E08E8278FF79577A00121AEEE58124F9F581D00753070FAE
:2058A000E51324F6F8E6C0E008E6C0E008E6C0E0E51324F9F8E6C0E008E6C0E008E6C0E08D
:2058C000E51324FCF8E6C0E08F8278FF79577A00121AEEE58124F9F581D013021B00C0137A
:2058E000858113A9828704098705098706098707191919740429F87B20C003E626FAEF23BD
:205900005401FBEA4203A603EC2CFCED33FDEE33FEEF33FFC000E51324FCF8C3EB96D0000A
:20592000D00340148602C000E51324FCF8EAC396FAD000A602430401EB14FAFB70BBA70421
:2059400009A70509A70609A707D013021B00C013858113C8E5812428F581E5132407C8A6B8
:205960008208A68308A6F008F67B00C200E5132405F87680C003C020E4C0E0C0E0C0E0C065
:20598000E0E5132407F886820886830886F008E61274EBAA82E58124FCF581D020D003EA41
:2059A0006011D200E5132407F8E608E608E608E6B2E7F6C003C020E5132407F8E6C0E008FE
:2059C000E6C0E008E6C0E008E6C0E090FFFF75F07F744B1274EBAA82E58124FCF581D0206B
:2059E000D003EA7003025B8A7A00C003C002C020E4C0E0C0E07420C0E07441C0E0E51324E8
:205A000007F886820886830886F008E61274EBE58124FCF581D020D002D003E58224FF92E4
:205A2000014044C003C002C020E4C0E0C0E07420C0E07441C0E0E5132407F886820886839B
:205A40000886F008E612548DC8E5132407C8A68208A68308A6F008F6E58124FCF581D02053
:205A6000D002D0030A80838A07C007C003C020E4C0E0C0E07480C0E0743FC0E0E51324074B
:205A8000F886820886830886F008E61274EBAA82E58124FCF581D020D003D007EA6044C008
:205AA00007C003C020E5132407F8E6C0E008E6C0E008E6C0E008E6C0E090000075F0207468
:205AC00041124E51C8E5132407C8A68208A68308A6F008F6E58124FCF581D020D003D00796
:205AE0001F8086E5132405F8A60730003AC020E51324F1F8E6C0E008E6C0E008E6C0E0E5E5
:205B00001324F4F8E6C0E008E6C0E008E6C0E075822DD002D001D000121AEE1581158115CE
:205B200081D0207B018040E51324F8F8E66038C020E51324F1F8E6C0E008E6C0E008E6C087
:205B4000E0E51324F4F8E6C0E008E6C0E008E6C0E075822BD002D001D000121AEE15811561
:205B6000811581D0207B01E51324FCF87600E51324FAF87600E51324F9F87600E51324F801
:205B8000F87600E51324F7F87600E51324FBF8B6FF07E51324FBF87606E5132410F8E4F6C2
:205BA00008F608F608763FE51324FBF88605ED604BC003C005C020E4C0E0C0E07420C0E03A
:205BC0007441C0E0E5132410F886820886830886F008E612548DAA82AB83AEF0FFE5812453
:205BE000FCF581D020D005E5132410F8A60208A60308A60608A6071DD00380B2C003C003E0
:205C0000C020E5132410F8E6C0E008E6C0E008E6C0E008E6C0E0E5132407F886820886831C
:205C20000886F008E6125103A81308A68208A68308A6F008F6E58124FCF581D020A813082B
:205C400086820886830886F008E6C0201274C4C8E5132407C8A68208A68308A6F008F6D01D
:205C600020D003E5132407F886820886830886F008E6C0201276B3AA82AB83AEF0FFD0208F
:205C8000C003C020C002C003C006C007A8130886820886830886F008E6124E46C8E513247D
:205CA0000BC8A68208A68308A6F008F6E58124FCF581D020D003E5132406F8E5132414F61D
:205CC0007A00D003E5132407F8E60846084608467003025D538A070AE5132406F8EF26F9A4
:205CE000C003C002C001C020740AC0E0E4C0E0C0E0C0E0E5132407F886820886830886F0EA
:205D000008E6127564AC82E58124FCF581D020D00174302CF7C020740AC0E0E4C0E0C0E0D6
:205D2000C0E0E5132407F886820886830886F008E6127626C8E5132407C8A68208A6830861
:205D4000A6F008F6E58124FCF581D020D002D003025CC4EAFF700DEA04FFE5132406F8EAA5
:205D600026F87630E51324FBF8E513240FF9E6F7E5132406F8E5132407F9E6F7E5132428F8
:205D8000F8A607E513240FF8E6700AE513240FF88602025E6FC007C003C020E513240BF8D8
:205DA000E6C0E008E6C0E008E6C0E008E6C0E090000075F0207441124E51AC82AD83AEF03C
:205DC000FFE58124FCF581D020E5132424F8A60408A60508A60608A607E5132424F886829A
:205DE0000886830886F008E6C0201274C4AC82AD83AEF0FFD0208F02E5132407F8E5132449
:205E000028F9E726F9E5132428F8068C0774302FF78C828D838EF0EAC0201276B3AC82AD40
:205E200083AEF0FFD020D003C007C003C020C004C005C006C007E5132424F88682088683AE
:205E40000886F008E6124E46C8E513240BC8A68208A68308A6F008F6E58124FCF581D02098
:205E6000D003D007E513240FF816D007025D838F06E51324FBF8E6600EE51324FBF8E60495
:205E8000FC3395E0FD80047C007D00EC2EFCFE200010E51324F8F8E67008E51324F7F8E645
:205EA00060010EE51324FAF8E6600302613DE51324FCF8C3EA96400302613DE51324F9F839
:205EC000E67003025FF4300042C007C006C003E51324F1F8E6C0E008E6C0E008E6C0E0E5C6
:205EE0001324F4F8E6C0E008E6C0E008E6C0E075822DD002D001D000121AEE1581158115EB
:205F000081D003D006D0070B025F9BE51324F8F8E66041C007C006C003E51324F1F8E6C0EB
:205F2000E008E6C0E008E6C0E0E51324F4F8E6C0E008E6C0E008E6C0E075822BD002D001F6
:205F4000D000121AEE158115811581D003D006D0070B8047E51324F7F8E6603FC007C00626
:205F6000C003E51324F1F8E6C0E008E6C0E008E6C0E0E51324F4F8E6C0E008E6C0E008E6AD
:205F8000C0E0758220D002D001D000121AEE158115811581D003D006D0070B8B05E51324C4
:205FA000FCF886048C021CC3EE9A4003026214C007C006C005C004E51324F1F8E6C0E0080A
:205FC000E6C0E008E6C0E0E51324F4F8E6C0E008E6C0E008E6C0E0758230D002D001D00069
:205FE000121AEE158115811581D004D005D006D0070D80B08B02E51324FCF88605C0078DB6
:20600000071DC3EE9FD0075049C007C006C005C002C020E51324F1F8E6C0E008E6C0E00887
:20602000E6C0E0E51324F4F8E6C0E008E6C0E008E6C0E0758220D002D001D000121AEE1577
:206040008115811581D020D002D005D006D0070A80AB8A03E51324FCF8A605300044C00797
:20606000C006C002E51324F1F8E6C0E008E6C0E008E6C0E0E51324F4F8E6C0E008E6C0E0D5
:2060800008E6C0E075822DD002D001D000121AEE158115811581D002D006D007EA04FB0295
:2060A000621DE51324F8F8E66044C007C006C002E51324F1F8E6C0E008E6C0E008E6C0E0D5
:2060C000E51324F4F8E6C0E008E6C0E008E6C0E075822BD002D001D000121AEE158115813B
:2060E0001581D002D006D007EA04FB02621DE51324F7F8E6700302621DC007C006C002E508
:206100001324F1F8E6C0E008E6C0E008E6C0E0E51324F4F8E6C0E008E6C0E008E6C0E0759E
:206120008220D002D001D000121AEE158115811581D002D006D007EA04FB02621D30004213
:20614000C007C006C003E51324F1F8E6C0E008E6C0E008E6C0E0E51324F4F8E6C0E008E6CC
:20616000C0E008E6C0E075822DD002D001D000121AEE158115811581D003D006D0070B02F1
:20618000621DE51324F8F8E66041C007C006C003E51324F1F8E6C0E008E6C0E008E6C0E0F6
:2061A000E51324F4F8E6C0E008E6C0E008E6C0E075822BD002D001D000121AEE158115815A
:2061C0001581D003D006D0070B8052E51324F7F8E6604AC007C006C003E51324F1F8E6C036
:2061E000E008E6C0E008E6C0E0E51324F4F8E6C0E008E6C0E008E6C0E0758220D002D0013F
:20620000D000121AEE158115811581D003D006D0070B80098D03E51324FCF8A6048F051DC3
:20622000E5132406F88604E5132406F8ED26F98702C007C006C005C004C003E51324F1F82D
:20624000E6C0E008E6C0E008E6C0E0E51324F4F8E6C0E008E6C0E008E6C0E08A82D002D044
:2062600001D000121AEE158115811581D003D004D005D006D0070B8D021DEA70AA8B05E518
:206280001324FBF8E6700302632CC007C006C004C003E51324F1F8E6C0E008E6C0E008E6CF
:2062A000C0E0E51324F4F8E6C0E008E6C0E008E6C0E075822ED002D001D000121AEE15814C
:2062C00015811581D003D004D006D0070B8F05E51324FBF886028A071AEF604EED2CF90DA1
:2062E0008707C006C005C004C003C002E51324F1F8E6C0E008E6C0E008E6C0E0E51324F485
:20630000F8E6C0E008E6C0E008E6C0E08F82D002D001D000121AEE158115811581D002D0E1
:2063200003D004D005D0060B80AC8B05E51324FAF8E6605CE51324FCF8C3EE9650528D07D7
:20634000E51324FCF88604C3EE9C50421CC007C006C004E51324F1F8E6C0E008E6C0E00836
:20636000E6C0E0E51324F4F8E6C0E008E6C0E008E6C0E0758220D002D001D000121AEE1534
:206380008115811581D004D006D0070F80B98F05E5132405F8B680030264CEC005E513248C
:2063A000F1F8E6C0E008E6C0E008E6C0E0E51324F4F8E6C0E008E6C0E008E6C0E07582654C
:2063C000D002D001D000121AEE158115811581D005ED04FFE5132405F8E630E740C007E5A7
:2063E0001324F1F8E6C0E008E6C0E008E6C0E0E51324F4F8E6C0E008E6C0E008E6C0E075BC
:20640000822DD002D001D000121AEE158115811581D0070FE5132405F8C3E496F6E5132430
:2064200005F8E6FA3395E0FEC007C006C002740AC0E0E4C0E08A828E83125686AB8215811A
:20644000158174302BFBE51324F1F8E6C0E008E6C0E008E6C0E0E51324F4F8E6C0E008E6B9
:20646000C0E008E6C0E08B82D002D001D000121AEE158115811581D002D006D0070FC0073D
:20648000740AC0E0E4C0E08A828E8312556CAC821581158174302CFCE51324F1F8E6C0E0B9
:2064A00008E6C0E008E6C0E0E51324F4F8E6C0E008E6C0E008E6C0E08C82D002D001D00095
:2064C000121AEE158115811581D007EF04FD8D82851381D013021B00C013858113C082C003
:2064E00083C0F0E5812424F581E513240CF8E4F608F6E5132410F8E5132419F6E5132421C1
:20650000C8E5132407C82405F6E5132411F8E5132419F6E5132411F8E5132404F97404267D
:20652000F7E5132404F8E5132405F9E6F7E5132404F8E5132406F9E6F7E51324F7F88602B2
:206540000886060886078A828E838FF0125550FDE51324F7F874012AF6E43E08F608A6074D
:20656000EDFF70030274B2BF25028003027475C200C201C202C203C204C205C206C207E52F
:2065800013241EF8E4F6FDFEE513241FF876FF0876FFE51324F7F8E5132408F9E6F708099E
:2065A000E6F70809E6F7E5132408F886820886830886F0E513240BF9125550F7A31818A616
:2065C0008208A683E5132408F8E51324F7F9E6F70809E6F70809E6F7E513240BF8B62542EB
:2065E000E51324FAF8E6C0E008E6C0E008E6C0E0A81308E6C0E008E6C0E008E6C0E0E5138E
:20660000240BF88682D002D001D000121AEE158115811581E513240CF806B600020806020E
:206620006539E513240BF8B6300050030266C6E513240BF8E624C650030266C6E513241F8B
:20664000F8B6FF3C08B6FF38C020C005C00690000A124F70AA82AF8315811581D020E51314
:20666000240BF886037C00EB2AFAEC3FFFEA24D0FDEF34FFFE4D60030265A6D2010265A61D
:20668000C006C005C020E513241FF8E6C0E008E6C0E090000A124F70AC82AF831581158151
:2066A000D020D005D006E513240BF886027B00EA2CFCEB3FFFE513241FF8EC24D0F6EF34B6
:2066C000FF08F60265A6E513240BF8B62E1DE513241FF8B6FF0608B6FF0280030265A6E56E
:2066E00013241FF8E4F608F60265A6E513240BF8B66100401CE513240BF8E624854012E5F0
:2067000013240BF8E654DFF6E5132418F876018007E5132418F87600E513240BF8B620036C
:206720000267EAE513240BF8B62B030267E5E513240BF8B62D030267E0E513240BF8B64250
:20674000030267EFE513240BF8B643030267F9E513240BF8B64403026D67E513240BF8B69A
:206760004603026D8DE513240BF8B648030265A6E513240BF8B64903026D67E513240BF891
:20678000B64A030265A6E513240BF8B64C028064E513240BF8B64F03026D72E513240BF8BB
:2067A000B65003026B03E513240BF8B6530302686EE513240BF8B654030265A6E513240BFD
:2067C000F8B65503026D7BE513240BF8B65803026D84E513240BF8B65A030265A6026D9167
:2067E000D2000265A6D2020265A6D2030265A6D2050265A6D2060265A6300515E51324F6D2
:20680000F8E614FCE51324F6F8A604A80486048014E51324F6F8E624FEFBE51324F6F8A64F
:2068200003A8038604C006C005C020E51324FAF8E6C0E008E6C0E008E6C0E0A81308E6C09C
:20684000E008E6C0E008E6C0E08C82D002D001D000121AEE158115811581D020D005D00644
:20686000E513240CF806B600020806026DECE5132419FCE51324F6F8E624FDFBE51324F682
:20688000F8A603A8038602088603088607A804A60208A60308A6078A828B838FF0C006C025
:2068A00005C004C020787379547A00121AEEC8E5132408C8A68208A683D020D004D005D06D
:2068C00006E513241FF8B6FF1408B6FF10E5132408F8E513241FF9E6F70809E6F73000039B
:2068E000026984E5132408F8C3E69D08E69E4003026984E5132408F8E5132412F9EDC39600
:20690000F7EE089609F7E513240CF88606088605E5132412F88602088607E5132412F81636
:20692000B6FF020816EA4F6047C006C005C004C020E51324FAF8E6C0E008E6C0E008E6C0A3
