:020000040000FA
:04000000024DBB32C0
:01000B0032C2
:0100130032BA
:01001B0032B2
:0100230032AA
:03002B000221F0BF
:01003300329A
:01003B003292
:01004300328A
:03004B0002232667
:01005300327A
:01005B003272
:01006300326A
:20006B00021FF70202DAC082C083E5812404F5817C007D00C374C89C74808DF063F0809589
:20008B00F0500B7490C39CFA74019DFB80048C028D03E58124FBF886078F82C007C005C097
:2000AB0004C003C002788779817A01122095D002D003D004D005D007E58124FDF8E4F608EB
:2000CB00F6E58124FDF8C3E69A08E664808BF063F08095F0501DE58124FDF8A98119E6F7AC
:2000EB000809E6F7E58124FDF8740126F6E40836F680CE8F82C005C004C003C002789D79E4
:20010B00817A01122095D002D003D004D005E58124FDF8E4F608F674C8C39AFEE49BFFE572
:20012B008124FDF8C3E69E08E664808FF063F08095F0501DE58124FDF8A98119E6F708090D
:20014B00E6F7E58124FDF8740126F6E40836F680CE0CBC00010DC3EC9490ED648094815062
:20016B000302007FE58124FAF58122E5812408F5817E0C7F78E58124F9FD7C07EC2DF98EA8
:20018B00828F83E0FBA3AE82AF83A7031CEC30E7EB74072DF987077E0074062DF987048CC8
:2001AB0003E44207EB420689047B007A40C007C006C0057402C0E0E4C0E0C004C003C002DA
:2001CB0090023675F000786579527A00122095E58124FBF581907911E493FAA3E493FBA3C0
:2001EB00E493FCC004C003C00274F5C0E0C4C0E0C002C003C004900002D002D001D000126B
:20020B00209515811581D002D003D004D005D006D007907911E493FAA3E493FBA3E493FC41
:20022B00C005C004C003C002C007C006C002C003C004900003D002D001D00012209515816C
:20024B001581D002D003D004D005907911E493FCA3E493FEA3E493FFC007C006C005C004DB
:20026B007419C0E0E4C0E0C004C006C007900001D002D001D00012209515811581D004D0D6
:20028B0005D006D007907917E493FCA3E493FEA3E493FF7B007A40C007C006C0047408C01B
:2002AB00E0E4C0E0C005C003C002C004C006C00790000BD002D001D000122095E58124FBDA
:2002CB00F581D004D006D007E58124F8F58122782779217A0012209578C579807A021220A4
:2002EB0095781C798C7A01122095782D79817A01122095758207789D79817A0112209590C3
:20030B000001120071783D79A37A01122095789679807A02122095909B3975F001788279B4
:20032B00207A00122095786A799D7A011220959000021200719076BF75F08078A679BE7A89
:20034B00011220959076DC75F08078A679BE7A0112209590624AE0FFBF8D028042BF9502EB
:20036B00802CBFA5028005BFB54480119076ED75F08078A679BE7A0112209580319076F478
:20038B0075F08078A679BE7A0112209580209076FB75F08078A679BE7A01122095800F909A
:2003AB00770275F08078A679BE7A0112209590770975F08078A679BE7A0112209590627748
:2003CB00E0FF0F8F8278E079BE7A0112209590771175F08078A679BE7A01122095780079BD
:2003EB00807A0212209590000078EB79DA7A01122095E4C0E0C0E0C0E0900CA875F00078C2
:20040B00B9799D7A01122095158115811581784F79BA7A0112209578CF79BF7A0112209501
:20042B00120176E4C0E0C0E0C0E0900CC875F00078B9799D7A0112209515811581158190C0
:20044B007872E493FDA3E493FEA3E493FFC007C006C0057401C0E0E4C0E0C005C006C007C5
:20046B00900081D002D001D00012209515811581D005D006D007907860E493FDA3E493FE84
:20048B00A3E493FFC007C006C0057401C0E0E4C0E0C005C006C007900081D002D001D00077
:2004AB0012209515811581D005D006D00778A279C07A0112209590198375F08078B579D29E
:2004CB007A01122095780679807A02122095900004120071780C79807A02122095900503A6
:2004EB00E060577897798A7A01122095E5828583F045F0604078B5798A7A01122095AE8230
:20050B00AF83C007C006780C79217A00122095AC82AD83D006D007EEC39CFEEF9DFF1EBEF5
:20052B00FF011FC374FF9E747F9F5009787D79877A01122095900503E4F0787A79A57A01A4
:20054B00122095AE82AF83EE708A907905E493FDA3E493FEA3E493FFC007C005C006C007B3
:20056B00D002D001D000122095AD82AE83D0078D088E09E508450970030204DF781579B189
:20058B007A011220959078FCE493FDA3E493FEA3E493FFC007C006C00578B479B47A01122D
:2005AB002095AA82AB83ACF0D005D006D007C0077480C0E0E4C0E0C005C006C0078A828B3B
:2005CB00838CF0D002D001D000122095AD82AE8315811581D0078D088E09E508450970039A
:2005EB000204DF85088285098378A679B47A01122095907960E493FDA3E493FEA3E493FF50
:20060B00C007C006C005C005C006C007D002D001D000122095D005D006D0070204DFE58124
:20062B002406F581AF8224F6F8860508860674802EFEE58124FBF8A60508A60608E4F6FBD4
:20064B00740F5FC40354F8FE7A00E58124FBF8EA26FAEE0836FE088605A881A6C7C006C0C2
:20066B0005C0027410C0E0E4C0E08F828B8312567FAB8215811581D002D005D006C2AFE5CE
:20068B00C754F84BF5C78A07E58124F3F8E58124FBF9E6F70809E6F70809E6F7E58124F17D
:2006AB00F8A9811919E6F70809E6F7A88118188603088604A881181816B6FF020816EB4C21
:2006CB00602A8F828E838DF0125549FCA3AF82AE83E58124FBF886820886830886F0EC1223
:1506EB004F4EA31818A68208A68380BFA88186C7D2AFE5812471
:20070000FAF5810220A7AE82AF83E58124FBF886040886058D04900004ECF0E58124FBF826
:20072000860590000575F000ED124F4E7C737D628D0490000675F000EC124F4E7D73900023
:200740000775F000ED124F4E90000875F000125549FD53051F90000875F000ED124F4E9047
:20076000000875F000ED124F4EE58124F9F8E62625E0FC90000975F000EC124F4E5305E017
:2007800090000875F000ED124F4EE58124F9F88603088604EB2BFBEC33FCEB2BEC33FCFBD2
:2007A000EB420590000875F000ED124F4E90000A75F000125549FD53057F90000A75F000EC
:2007C000ED124F4E90000A75F000ED124F4E53059F90000A75F000ED124F4E90000A75F051
:2007E00000ED124F4E5305E090000A75F000ED124F4E43051290000A75F000ED124F4E9005
:20080000000B75F000125549FD53053F90000B75F000ED124F4E43054090000B75F000ED13
:20082000124F4E5305CF90000B75F000ED124F4E90000B75F000ED124F4E5305F790000BC0
:2008400075F000ED124F4E90000B75F000ED124F4E5305FB90000B75F000ED124F4E90007C
:200860000B75F000ED124F4E5305FC90000B75F000ED124F4E43050290000B75F000ED1233
:200880004F4E75D1FE75D601906271EEF0906272EFF0906270E043E002F0906270E020E707
:2008A000F90220A7AF82906272E0FEC2AF906270E020E7F9EF2FFF906272F0906270E0435A
:2008C000E001F0906270E020E7F9D2AF906272EEF00220A7AF827E01BF0800500F7D00C363
:2008E000ED9F50088E04EC2CFE0D80F3E58124FDF8E4B6010104FE7014E58124FDF8B60214
:2009000002800EE58124FDF8B6030E80087D00800A7D1080067D2080027D30ED4207900CC1
:200920008DE04FF5B6E5B430E7FBADBA7F00ACBB7B00ED4203EF42048B058C078D038F0430
:20094000EC30E7047D007F00EE7014E58124FDF8B602028012E58124FDF8B6033B8022EF53
:20096000FC3395E0FE80418D04EFA2E7CC33CC33A2E7CC33CC33CC540330E10244FCFE8092
:20098000278D04EFC4CCC4540F6CCC540FCC6CCC30E30244F0FE80108D04EFA2E713CC1388
:2009A000CCA2E713CC13CCFE8C828E830220A7E582900C8DF00220A7E581240EF581AE82B7
:2009C000AF835306FCE58124EBF8E654FCF6C3E49E74809F4053E58124EBF8C3E4967480EE
:2009E00008964045E58124F3F8A60608A607087600087600C006C007E58124E9F886040878
:200A00008605E4FEFFE58124F1F8EC26FCED0836FDEE0836FEEF0836FFC3E49C74809DE4B3
:200A20009EE49FD007D0065003020CBE8E0474075FFDE58124FBF8A60408A605E58124EB11
:200A4000F8E62EFA08E63FFB8A0474075BFDE58124FDF8A60408A605EFC423541FFE7F0065
:200A6000E58124F7F8A60608A607EBC423541FFA7B00A88118A60208A603E58124F7F8A926
:200A8000811986F0E7B5F00A0886F009E7B5F00280028055E58124FDF8E58124FBF9E6C39E
:200AA00097FB08E60997FAE58124EDF88604088605088607E58124F7F8860674702EFEC026
:200AC00003C002C004C005C007E58124F6F8E6C0E008E6C0E08E82782979067A0012209504
:200AE000E58124F9F581020CBEE58124F7F886060886070EBE00010FA88118E6B5060708CA
:200B0000E6B507028003020B95E58124FBF8E4C396FE74080896FFE58124EDF886030886B5
:200B200004088605E58124F7F8860274702AFAC006C007C003C004C005E58124F6F8E6C01E
:200B4000E008E6C0E08A82782979067A00122095E58124F9F58124EDF8860508860608860B
:200B600007A88118860274702AFAE58124FDF8E6C0E008E6C0E0C005C006C007E4C0E0C074
:200B8000E08A82782979067A00122095E58124F9F581020CBEE58124FBF8E4C396FE74080F
:200BA0000896FFE58124EDF88603088604088605E58124F7F8860274702AFAC007C006C025
:200BC00006C007C003C004C005E58124F4F8E6C0E008E6C0E08A82782979067A0012209505
:200BE000E58124F9F581D006D007E58124F9F8A60608A607E58124F7F8740126FCE4083641
:200C0000FDE58124EDF8E58124F3F9E6F70809E6F70809E6F7A88118E6B5040708E6B505AA
:200C200002805DE58124F3F886020886030886078C0674702EFEC005C004E4C0E07408C0C7
:200C4000E0C002C003C007E4C0E0C0E08E82782979067A00122095E58124F9F581D004D036
:200C600005E58124F9F8860608860774082FFFE58124F9F8A60608A6070CBC00980D8095CB
:200C8000E58124F3F88605088606088607A88118860274702AFAE58124FDF8E6C0E008E667
:200CA000C0E0C005C006C007E4C0E0C0E08A82782979067A00122095E58124F9F581E58152
:200CC00024F2F5810220A7AE82AF8353070774702EF58278A479087A001220950220A7E5E7
:200CE000812404F581AE82E583C313CE13CEC313CE13CEFFE58124F5F8860408E6C313CCA3
:200D000013CCC313CC13CCFDE58124F5F8A60408A605C3E49E74809F4053E58124F5F8C3FD
:200D2000E49674800896407DE58124FDF8A60608A607087600087600C006C007E58124F304
:200D4000F88604088605E4FEFFE58124FBF8EC26FCED0836FDEE0836FEEF0836FFC3E49C51
:200D600074809DE49EE49FD007D00650028036E58124F7F8860308860408860574802FFFDF
:200D8000E58124F5F8E6C0E008E6C0E0C003C004C0058E828F83780679077A00122095E536
:200DA0008124FBF581E58124FCF5810220A7058105810581AD82AE83AFF0A8811818A605C3
:200DC00008A60608A607A88118188602088603088604900C91E0FDA3E0FEA3E0FFC002C017
:200DE00003C0048D828E838FF078DB79987A01122095158115811581A881181886050886B3
:200E000006088607C005C006C007900C9475F00078DD791B7A00122095158115811581154F
:200E200081158115810220A7E5812406F581900C91E0FDA3E0FEA3E0FF8D828E838FF07812
:200E40007479957A01122095AD82AE83AFF0ED4E7003020EFC74032DFAE43EFB8F04C00700
:200E6000C006C005C002C003C004E58124EFF886820886830886F078A979807A011220953A
:200E8000AB82AC83158115811581D005D006D007EB4C6051E58124FBF8A60508A60608A640
:200EA0000774052DFAE43EFB8F04E58124FBF8E6C0E008E6C0E008E6C0E074AEC0E0740D79
:200EC000C0E07400C0E0E4C0E0741EC0E08A828B838CF0788D79BA7A01122095E58124F816
:200EE000F581020FD88D828E838FF0125549FDA3125549FEA3125549FF020E4E900C9475A1
:200F0000F000788F791A7A00122095AD82AE83AFF0A8811818A60508A60608A607A8811859
:200F200018E608467003020FD8A8811818740326FAE40836FB088604E58124F5F8E6C0E06D
:200F400008E6C0E008E6C0E08A828B838CF0787179807A01122095158115811581A88118B8
:200F6000188602088603088604900C91E0FDA3E0FEA3E0FFC002C003C0048D828E838FF0B9
:200F8000780B79967A01122095158115811581A88118188605088606088607A881181874E1
:200FA0000526FAE40836FB088604C005C006C00774AEC0E0740DC0E07400C0E0E4C0E0741C
:200FC0001EC0E08A828B838CF0788D79BA7A01122095E58124F8F581E58124FAF58102202F
:200FE000A778B479B47A01122095AD82AE83AFF0C005C006C007741AC0E07477C0E07480B1
:20100000C0E0780E79547A00122095E58124FAF5810220A7E5812409F581900C91E0FDA323
:20102000E0FEA3E0FF8D828E838FF07820799A7A01122095AE82AF83C3E49E74808FF06347
:20104000F08095F040030211DE78D379DA7A01122095AE82AF83900C91E0FBA3E0FCA3E01B
:20106000FD8B828C838DF0C007C0067820799A7A01122095AC82AD83D006D007C004C005CC
:201080008E828F83125600AE82AF8315811581E58124FCF8A60608A607900C91E0FBA3E0CE
:2010A000FCA3E0FD8B828C838DF0787479957A01122095AB82AC83ADF0A8811818A60308DC
:2010C000A60408A6057A007F00A8811818E608466035E58124FCF8E6B5020708E6B50702CA
:2010E00080250ABA00010FA881181886820886830886F01255491818F6A312554908F6A3BD
:2011000012554908F680C2A8811818E6084670030211DE75821578A679B67A01122095AEA5
:2011200082AF83A8811818740326FAE40836FC0886050ABA00010C8A828C838DF012554941
:20114000FAE58124F8F8A602087600A8811818740326FBE40836FC0886058B828C838DF0BA
:20116000125549FB7D00900237E0FCE58124FAF8A604087600900236E0FC7A00C006C00753
:20118000E58124FAF8E6C0E008E6C0E0E58124F4F8E6C0E008E6C0E0C003C005E58124F231
:2011A000F8E6C0E008E6C0E0C004C002743AC0E07477C0E07480C0E0780E79547A00122031
:2011C00095E58124F1F581A8811818740326FDE40836FE0886078D828E838FF080379002F9
:2011E00037E0FF7E00900236E0FD7C00C007C006C005C0047473C0E07477C0E07480C0E07E
:20120000780E79547A00122095E58124F9F58190000075F000E58124F7F5810220A7058106
:201220000581058178B479B47A01122095AD82AE83AFF0A8811818A60508A60608A607E5B6
:201240008124F8F8860208860308860474012AFDE43BFE8C078D828E838FF0125549FD7F37
:20126000008A828B838CF0125549FA7E00A8811818E6C0E008E6C0E008E6C0E0C005C00729
:20128000C002C00674A0C0E07477C0E07480C0E0780E79547A00122095E58124F6F5811554
:2012A00081158115810220A7E5812406F581AD82AE83AFF0E58124F7F8E4B6830104FC60BC
:2012C0001F90020C75F000C007C006C005C004780E79957A01122095D004D005D006D007AA
:2012E000EC601B9001F775F000C007C006C005787379917A01122095D005D006D0077C0112
:201300008D828E838FF0125549FAA3125549FBBA0005BB0002800CBAB806BB000302142AB8
:2013200002195DC005C006C007C007C006C005747DC0E07419C0E07480C0E004C0E0E4C0F7
:20134000E090020C75F000788579947A01122095E58124FBF581900C9475F000788979193B
:201360007A00122095D005D006D007900C91E0FAA3E0FBA3E0FF8A828B838FF0C007C0067D
:20138000C005785F79957A011220957477C0E07419C0E07480C0E07487C0E0E4C0E0900165
:2013A000F775F00078EA79907A01122095E58124FBF5817428C0E0740EC0E07400C0E07443
:2013C00087C0E0E4C0E09001EC75F000784479C27A01122095E58124FBF581E4C0E0C0E028
:2013E0009001EC75F000783479C47A0112209515811581E4C0E004C0E090021B75F0007802
:20140000D279887A0112209515811581D005D006D007D007D006D0057C008D828E838FF06C
:2014200074B8124F4EA3E4124F4EEC602490021B75F000C007C006C005780C798A7A0112B3
:201440002095E5828583F0D005D006D00745F0700675820102196E9077CE75F080C007C089
:2014600006C00578BC79A97A01122095AA82AB83ACF0D005D006D007900227EAF0EBA3F080
:20148000ECA3F0EA4B700302193FC007C006C00574D2C0E07477C0E07480C0E0780E795421
:2014A0007A0012209515811581158175820278B579817A01122095900227E0FAA3E0FBA313
:2014C000E0FC74032AFAE43BFB8A828B838CF0125549FAA3125549FBA3125549FCC002C01C
:2014E00002C003C004900000D002D001D000122095AC82AB83D002D005D006D00790022532
:20150000ECF0EBA3F0BCFF06BBFF030216B8C005C006C007EC2438FAEB34FAFF8A828F8359
:20152000C004C003125219AA82AD83AEF0FFE4C0E0C0E07490C0E07440C0E08A828D838EE8
:20154000F0EF125486AA82AD83AEF0FFE58124FCF581D003D004C007C006C005C004C0034B
:20156000E4C0E0C0E074C8C0E07441C0E08A828D838EF0EF1250FCC8E58124EFC8A68208F6
:20158000A68308A6F008F6E58124FCF581D003D004D005D006D007E58124F8F890022AE645
:2015A000F008E6A3F008E6A3F008E6A3F0E58124F8F886820886830886F008E6C007C0062C
:2015C000C005C004C003125226C8E58124F7C8A68208A683D003D004D005D006D007E5813C
:2015E00024FCF890022EE6F008E6A3F0E58124FCF88682088683C004C003125219AA82AD48
:2016000083AEF0FFC002C005C006C007E58124F2F886820886830886F008E6124E3FAA82D2
:20162000AD83AEF0FFE58124FCF581900230EAF0EDA3F0EEA3F0EFA3F0C002C005C006C0B5
:201640000790000075F0C87442124E4AAA82AD83AEF0FFE58124FCF581D003D0048A828D31
:20166000838EF0EFC005C004C00312525AAE82AF83D003D004D005C007C006C005C004C0BC
:2016800003C006C007E58124F5F8E6C0E008E6C0E074E7C0E07477C0E07480C0E0780E7916
:2016A000547A00122095E58124F7F581D005D006D007D007D006D005900227E0FAA3E0FB89
:2016C000A3E0FC74032AFAE43BFB8A828B838CF0125549FAA3125549FBA3125549FCC00732
:2016E000C006C005C002C002C003C004900004D002D001D000122095AC82AB83D002D00583
:20170000D006D007900225ECF0EBA3F0BCFF06BBFF030218C5C005C006C0078C828B83C080
:2017200004C003125219AA82AD83AEF0FFC002C005C006C00790000075F0707440124E4A95
:20174000AA82AD83AEF0FFE58124FCF581D003D004C007C006C005C004C003E4C0E074E03C
:20176000C0E074FFC0E07444C0E08A828D838EF0EF125486C8E58124EFC8A68208A683087F
:20178000A6F008F6E58124FCF581D003D004D005D006D007E58124F8F890022AE6F008E696
:2017A000A3F008E6A3F008E6A3F0E58124F8F886820886830886F008E6C007C006C005C083
:2017C00004C003125226C8E58124F7C8A68208A683D003D004D005D006D007E58124FCF8A7
:2017E00090022EE6F008E6A3F0E58124FCF88682088683C004C003125219AA82AD83AEF03D
:20180000FFC002C005C006C007E58124F2F886820886830886F008E6124E3FAA82AD83AE13
:20182000F0FFE58124FCF581900230EAF0EDA3F0EEA3F0EFA3F0C002C005C006C0079000FA
:201840000075F0C87442124E4AAA82AD83AEF0FFE58124FCF581D003D0048A828D838EF0C5
:20186000EFC005C004C00312525AAE82AF83D003D004D005C007C006C005C004C003C006F2
:20188000C007E58124F5F8E6C0E008E6C0E074FFC0E07477C0E07480C0E0780E79547A00F7
:2018A000122095E58124F7F581D005D006D007900225E0FEA3E0FF90022EEEF0EFA3F0D0E1
:2018C00007D006D005C007C006C0057422C0E0E4C0E090781775F080783279B17A011220C5
:2018E000951581158190020C75F000781A79957A011220957421C0E0E4C0E090783975F0E3
:2019000080783279B17A01122095158115819002347401F0900235E4F07434C0E07402C0C1
:20192000E0E4C0E09001F775F000787F79917A01122095158115811581D005D006D007903F
:20194000021B75F000C007C006C005786079897A01122095D005D006D0070214188D828E4A
:20196000838FF0E4124F4EA3124F4E758203E58124FAF5810220A7E10F001410001E12007F
:201980000000009E0C00000000C082C083C0F005810581E58124FCF8740226FAE40836FB2B
:2019A0000886048A828B838CF0125549FFA3125549FEA88118A60708A606E58124FCF8746B
:2019C0000426FDE40836FE0886078D828E838FF0125549FDA3125549FEA3125549FFC00478
:2019E000C003C002E58124FCF8E6C0E008E6C0E0E4C0E08D828E838FF078FA79527A0012E4
:201A00002095158115811581D002D003D004E58124FCF886820886830886F0125549FEA370
:201A2000125549FF8A828B838CF0125549FAA3125549FBC002C0038E828F83124F69AE82C8
:201A4000AF8315811581E58124FCF8740726FBE40836FC0886058B828C838DF0125549FB19
:201A6000A3125549FCA3125549FDC006C007E4C0E08B828C838DF078FA79527A001220959F
:201A8000158115811581E58124FBF5810220A7C082C083C0F0E5812407F58124F7F87402FB
:201AA00026FAE40836FB088604A88118E4F608F68A828B838CF0125549FEA3125549FFA800
:201AC0008118E58124FAF9E6F70809E6F7E58124FAF8C3E69E08E69F4003021BCEC002C025
:201AE00003C004E58124F4F8740426FAE40836FB0886048A828B838CF0125549FAA3125518
:201B000049FBA3125549FCE58124FCF8E58124F9F9E62AF708E63B09F709A704E58124F9D1
:201B2000F886820886830886F0125549FFD004D003D002EF6003021BC20FE58124FCF886AA
:201B4000820886830886F0EF124F4EE58124F7F8740726FDE40836FE0886078D828E838F5B
:201B6000F0125549FDA3125549FEA3125549FFE58124FCF8A60508A60608A607E58124F712
:201B8000F886820886830886F0125549FEA3125549FFC006C007E58124F8F8868208868396
:201BA000124F69AE82AF8315811581E58124FCF8EE26FEEF0836FF0886058E828F838DF0DF
:201BC0008012A8811806B600020806021AB090000075F000E58124F6F5810220A7C082C0E4
:201BE00083C0F0E581240BF58124F3F8740726FAE40836FB0886048A828B838CF012554908
:201C0000FAA3125549FBA3125549FCA8811818A60208A60308A604E58124FCF8E4F608F673
:201C2000E58124F3F8E58124F6F9740226F7E4083609F70809E6F77A007F00E58124F6F8A2
:201C400086820886830886F0125549FDA3125549FE8A038F04C3EB9DEC9E4003021D53E560
:201C60008124EDF88604088605088606A8811818C004C005C00686820886830886F01236A2
:201C8000E01581158115816003021D20E58124F3F8E58124F9F9740426F7E4083609F70850
:201CA00009E6F7E58124F9F886820886830886F0125549FCA3125549FDA3125549FEE58179
:201CC00024FCF8E62CFC08E63DFD8C828D838EF0125549FBC374808BF063F08095F0500B8A
:201CE0001B8C828D838EF0EB124F4EE58124F9F886820886830886F0125549FCA312554982
:201D0000FDA3125549FEE58124FCF8E62CFC08E63DFD8C828D838EF0125549FCF58280364C
:201D2000E58124F3F886820886830886F0125549FDA3125549FEA8811818ED26F6EE08360B
:201D4000F60ABA00010FE58124FCF8A60208A607021C3B7582FFE58124F2F5810220A7C014
:201D600082C083C0F0E5812405F58124F3F88602088603088604E58124F9F8740726FDE432
:201D80000836FE0886078D828E838FF0E58124FCF8125549F6A312554908F6A31255490803
:201DA000F6E58124FCF88605088606088607C005C006C0078A828B838CF01236E015811540
:201DC00081158192005003021E68E58124FCF88605088606088607E58124FCF8A60508A676
:201DE0000608A607E58124F9F8740226FDE40836FE0886078D828E838FF0A88118125549CF
:201E0000F6A312554908F6E58124F9F886820886830886F0125549FEA3125549FFC004C0E5
:201E200003C002C006C007E58124FAF88682088683124F69AE82AF8315811581D002D003BE
:201E4000D004E58124FCF8EE26FEEF0836FF088605C006C007C0058A828B838CF01236E04F
:201E60001581158115814004C2008002D200A200E433FE7F008E828F83E58124F8F58102F4
:201E800020A7E5812407F581AD82AE83AFF074042DFAE43EFB8F048A828B838CF0E5812406
:201EA000FAF8125549F6A312554908F6A312554908F674022DFDE43EFEA88118E4F608F60F
:201EC000E58124FDF8E4F608F68D828E838FF0125549FAA3125549FCC005C006C007E5815B
:201EE00024FAF88603088607C3EB9AEF9CD007D006D0055036E58124FAF8E58124FDF9E7F0
:201F000026FA09E70836FB0886048A828B838CF01255497009A8811806B600020806E581B4
:201F200024FDF806B600020806809EA881188682088683E58124F9F5810220A720811B9036
:201F4000000A75F040787079C17A01122095AE82AF83EE4F6004C2008002D200A200E4339C
:201F6000FE7F008E828F830220A7AE82AF83BE8105BF00028006BE8210BF000D740255AB7A
:201F8000FF7E008F828E8380039000000220A7AE82AF83BE8005BF00028008BE8153BF0087
:201FA000508011438F02538CFE53F3FD53FDFD9000018040E58124FCF8E608466029E5ABE3
:201FC00020E129E4C0E0C0E090000A75F04078B179C07A01122095158115815389FDC2C544
:201FE00043AB02D2BD800553ABFDC2BD90000180039000000220A7C020C0E0C0F0C082C0C4
:2020000083C007C006C005C004C003C002C001C000C0D075D000C2AFE58930E14190000A81
:2020200075F040787079C17A01122095E5828583F045F060297410C0E0E4C0E090000A75C3
:20204000F04078B179C07A011220951581158190786C75F080788679A97A011220955389E9
:20206000FDC2C5D2AFD0D0D000D001D002D003D004D005D006D007D083D082D0F0D0E0D03A
:202080002032AFF0AE83E58290023EF0EEA3F0EFA3F00220A7C09FC8C0E0E9C0E0EA540F8E
:2020A000539FF0429FC822D09F22AE82AF83C2AF8E048F051EBEFF011FEC4D60030080F0E2
:2020C000D2AF0220A7AE82AF83C007C006780C79217A00122095AC82AD83D006D007C00796
:2020E000C006C005C004780C79217A00122095AA82AB83D004D005D006D007EAC39CFAEB54
:202100009DFBC3EA9EEB9F40D50220A7850F828510830220A7AC11AD127E007F008C828D69
:20212000838EF0EF0220A775C6C053C6BFE59E20E6FB43C630E5C6B59EFB900000E595F063
:20214000E4A3F0A3F0A3F0AC967D007E008E078D068C057C00900000E0F8A3E0F9A3E0FA0F
:20216000A3E0FB900000EC28F0ED39A3F0EE3AA3F0EF3BA3F0AC977D008D078C067C007D3D
:2021800000900000E0F8A3E0F9A3E0FAA3E0FB900000EC28F0ED39A3F0EE3AA3F0EF3BA38B
:2021A000F0900000E0FCA3E0FDA3E0FEA3E0FF900000ECF074012DA3F0E43EA3F0E43FA324
:2021C000F0900000E0A3E0A3E0FEA3E08E97900000E0A3E0FDA3E0A3E08D96900000E0FC6E
:2021E000A3E0FDA3E0FEA3E0FF8C95D2AD0220A7C0E0C082C083C007C006C005C004C003F5
:20220000C002C001C000C0D075D000C2AF900000E595F0E4A3F0A3F0A3F0AC967D007E0061
:202220008E078D068C057C00900000E0F8A3E0F9A3E0FAA3E0FB900000EC28F0ED39A3F03D
:20224000EE3AA3F0EF3BA3F0AC977D008D078C067C007D00900000E0F8A3E0F9A3E0FAA323
:20226000E0FB900000EC28F0ED39A3F0EE3AA3F0EF3BA3F0900000E0FCA3E0FDA3E0FEA3AE
:20228000E0FF900000ECF074012DA3F0E43EA3F0E43FA3F0900000E0A3E0A3E0FEA3E08ECE
:2022A00097900000E0A3E0FDA3E0A3E08D96900000E0FCA3E0A3E0A3E08C957401250FF5BA
:2022C0000FE43510F510AE0FAF10EE547F6002800B74012511F511E43512F51290050374A8
:2022E00001F0C2C7D2AFD0D0D000D001D002D003D004D005D006D007D083D082D0E03275AB
:20230000E40975AF0075E644C2DED2B90220A7AE82AF8353E6FB8EDC8FDD43E60475AF005C
:2023200043E6400220A7C020C0E0C0F0C082C083C007C006C005C004C003C002C001C0009A
:20234000C0D075D000C2B953AFFD53E6BF78DC798C7A01122095D2B9D0D0D000D001D002FD
:20236000D003D004D005D006D007D083D082D0F0D0E0D02032C082C083C0F0900D1BE0FA36
:20238000A3E0FBA3E0FC8A828B838CF0787479957A01122095AA82AB83ACF0EA4B606D7402
:2023A000032AFDE43BFE8C07C004C003C002E58124FBF8E6C0E008E6C0E008E6C0E08D82CC
:2023C0008E838FF078A979807A01122095AE82AF83158115811581D002D003D004EE4F60D7
:2023E000088A828B838CF080298A058B068C078D828E838FF0780D799B7A01122095AD823A
:20240000AE83AFF08D028E038F04808F90000075F0001581158115810220A7907969E493C1
:20242000FDA3E493FEA3E493FFC007C005C006C007D002D001D000122095AD82AE83D007E4
:202440008D048E07ED4E70037C01FF8C828F830220A7058105810581AD82AE83AFF0ED4E77
:20246000700302250374202DFAE43EFB8F048A828B838CF0125549FAA3125549FBA31255BC
:2024800049FC8A828B838CF0C007C006C005787479957A01122095AA82AB83ACF0D005D038
:2024A00006D007A8811818A60208A60308A604A8811818E60846604B90795DE493FAA3E445
:2024C00093FBA3E493FCC004C003C002E58124FBF8E6C0E008E6C0E008E6C0E0C005C00665
:2024E000C007C002C003C004902CEB75F000D002D001D000122095E58124FAF581D002D0EA
:2025000003D0041581158115810220A705810581AD82AE83AFF0741C2DFAE43EFB8F048A5D
:20252000828B838CF0125549FCBC040050068C037C0080047B047C00C005C006C0078BF076
:2025400005F07B017C008006EB2BFBEC33FCD5F0F71BBBFF011CC006C005C004C003781B89
:2025600079247A00122095AA82AF83D003D004D005D006C005C002C0078B828C83124F6999
:20258000AE82AF8315811581D005E58124FCF8A60608A607D007D006D005A88118E6084602
:2025A000603CC007C006C00578D379DA7A01122095AB82AC83E58124FCF8E6C0E008E6C03F
:2025C000E08B828C83125600AB82AC8315811581D005D006D007A88118A60308A6048D0262
:2025E0008E038F0474052DFDE43EFEC002C003C0047452C0E07424C0E07400C0E0E581246F
:20260000F9F8E6C0E008E6C0E08D828E838FF0788D79BA7A01122095E58124F8F58115810E
:2026200015810220A7C082C083C0F0058105810581E58124F5F8E608467003022867E5815F
:2026400024F5F8A9811919E6F70809E6F70809E6F7E58124FBF8742026FDE40836FE088672
:20266000078D828E838FF0125549FAA3125549FBA3125549FCC007C006C005E58124FBF89E
:20268000E6C0E008E6C0E008E6C0E08A828B838CF078DB79987A011220951581158115819A
:2026A000D005D006D007E58124F5F8A9811919E6F70809E6F70809E6F7A881181874032616
:2026C000FAE40836FB0886048A828B838CF0125549FAA3125549FBA3125549FC8A828B835A
:2026E0008CF0C007C006C00578F679F47A01122095D005D006D007A8811818740626FAE496
:202700000836FB0886048A828B838CF0125549FAA3125549FBA3125549FCC007C006C005BF
:20272000C002C003C004900D0E75F00078DD791B7A00122095158115811581D005D006D0D9
:2027400007E58124F5F88602088603088604C007C006C005C002C003C004900D0475F000AF
:2027600078DD791B7A00122095158115811581D005D006D0078D828E838FF0125549FDA3FC
:20278000125549FEA3125549FF8D828E838FF0787479957A01122095AD82AE83ED4E604D16
:2027A000E58124FBF8741B26FDE40836FE0886078D828E838FF0E4124F4EE58124FBF87412
:2027C0001C26FDE40836FE0886078D828E838FF0E4124F4EE58124FBF886820886830886AF
:2027E000F0780C79257A00122095022867E58124FBF8740526FDE40836FE0886078D828E8A
:20280000838FF0785679BD7A01122095E58124FBF88605088606088607900D1BE0FAA3E02A
:20282000FBA3E0FCC005C006C0078A828B838CF078DB79987A01122095158115811581E5E9
:202840008124FBF88605088606088607C005C006C007900CFA75F00078DD791B7A0012204A
:2028600095158115811581E58124FAF5810220A7C082C083E5812409F58124F0F886030813
:20288000860408860574062BFAE43CFE8D078A828E838FF0125549FAA3125549FEA3125529
:2028A00049FF8A828E838FF0A8811818125549F6A312554908F6A312554908F674032AFAF8
:2028C000E43EFE8A828E838FF0E58124FBF8125549F6A312554908F6A312554908F6E58111
:2028E00024EDF8E58124F8F9E6F70809E6F70809E6F7E58124F8F8741B26FAE40836FE084A
:2029000086078A828E838FF0125549FAC002E58124F5F8E6C0E008E6C0E0C003C004C0054B
:20292000E58124F2F886820886830886F0782579267A00122095E58124FBF5817F00C007CE
:20294000E58124F4F8E6C0E008E6C0E0E58124F7F8E6C0E008E6C0E008E6C0E0E58124F751
:20296000F886820886830886F0784C79DB7A01122095E58124F924F5F5810220A7AD82AEB6
:2029800083AFF0E58124FBF886820886830886F0C007C006C005780C79257A00122095D07C
:2029A00005D006D00774032DFDE43EFE8D828E838FF0125549FDA3125549FEA3125549FFB5
:2029C0008D828E838FF0780D79F47A011220950220A7C082C083C0F0E5812406F58124F804
:2029E000F8740626FAE40836FB0886048A828B838CF0125549FAA3125549FBA3125549FCB9
:202A0000A8811818A60208A60308A604E58124F2F88602088603088604E58124FBF8741C26
:202A20002AF6E43B08F608A604E58124FBF886820886830886F0125549FFE58124F0F8E68C
:202A40002FFEE58124FBF886820886830886F0EE124F4EE58124FBF886820886830886F084
:202A600012554924FA503BE58124FBF886820886830886F0E4124F4E741B2AFDE43BFE8CF7
:202A800007C002C003C0048D828E838FF0125549FC0C8D828E838FF0EC124F4ED004D003AE
:202AA000D002741B2AFDE43BFE8C078D828E838FF0125549FDC002C003C004E58124FBF8CC
:202AC000740626FCE40836FE0886078C828E838FF0125549FCC3ED9CD004D003D002402A2C
:202AE000C002C003C004E58124F5F8E6C0E008E6C0E008E6C0E0900001787079287A0012CE
:202B00002095E58124FAF5818022C002C003C004E58124F5F886820886830886F0787D799F
:202B2000297A00122095158115811581E58124F7F5810220A7C082C083C0F0E5812406F5EF
:202B40008124F8F8740626FAE40836FB0886048A828B838CF0125549FAA3125549FBA31254
:202B60005549FCA8811818A60208A60308A604E58124F2F88602088603088604741C2AFD81
:202B8000E43BFE8C078D828E838FF0E4124F4EE58124FBF8741B2AF6E43B08F608A604E573
:202BA0008124FBF886820886830886F0125549FFE58124F0F8E62FFEE58124FBF886820825
:202BC00086830886F0EE124F4EE58124FBF886820886830886F0E58124FBF9125549F7A8F0
:202BE000811818740626FDE40836FE0886078D828E838FF0125549FDE58124FBF8C3E69DC3
:202C0000402AC002C003C004E58124F5F8E6C0E008E6C0E008E6C0E0900002787079287A53
:202C200000122095E58124FAF5818022C002C003C004E58124F5F886820886830886F07862
:202C40007D79297A00122095158115811581E58124F7F5810220A7C082C083C0F0058105D2
:202C6000810581E58124F5F88602088603088604741C2AFDE43BFE8C078D828E838FF0E441
:202C8000124F4EA8811818741B2AF6E43B08F608A604A881181886820886830886F0125557
:202CA00049FFE58124F3F8E62FFEA881181886820886830886F0EE124F4EC002C003C0046E
:202CC000E58124F8F8E6C0E008E6C0E008E6C0E0900000787079287A00122095E58124FAFA
:202CE000F581E58124FAF5810220A7058105810581AD82AE83AFF0ED4E7003022F3874205F
:202D00002DFAE43EFB8F048A828B838CF0125549FAA3125549FBA3125549FC8A828B838C59
:202D2000F0C007C006C005787479957A01122095AA82AB83ACF0D005D006D007A881181844
:202D4000A60208A60308A604A8811818E608467003022E05C005C006C007E58124FBF874F0
:202D60000326FDE40836FE0886078D828E838FF0125549FDA3125549FEA3125549FFC005C4
:202D8000740AC0E08D828E838FF0782879F77A01122095AE82AF831581D00575820AC0078F
:202DA000C00678A679B67A01122095AC82AD83D006D007EEB5040CEFB50508D007D006D0D2
:202DC000058042D007D006D005A881181886020886030886048A828B838CF0C007C006C0C3
:202DE00005780D799B7A01122095AA82AB83ACF0D005D006D007A8811818A60208A60308C1
:202E0000A604022D48A8811818E608467003022F38A8811818740626FAE40836FB08860486
:202E20008A828B838CF0125549FAA3125549FBA3125549FCEA4B7003022F38E58124F9F829
:202E4000B6000608B60002802FE58124F9F8B6010708B60003022ED9E58124F9F8B602060B
:202E600008B600028043E58124F9F8B6030708B60003022F38022F09E58124F7F8E6C0E031
:202E800008E6C0E0C005C006C007E58124F9F886820886830886F07857792C7A001220958B
:202EA000E58124FBF581022F38E58124F7F8E6C0E008E6C0E0C005C006C007E58124F9F854
:202EC00086820886830886F07835792B7A00122095E58124FBF581805FE58124F7F8E6C0D0
:202EE000E008E6C0E0C005C006C007E58124F9F886820886830886F078D279297A00122068
:202F000095E58124FBF581802FC005C006C007E58124FBF8E6C0E008E6C0E008E6C0E0E51C
:202F20008124F3F88682088683787079287A00122095E58124FAF581158115811581022040
:202F4000A7C082C083C0F0E5812412F58175821B78FF79B67A01122095AA82AB83ACF0E5AE
:202F60008124FBF8A60208A60308A6049005DCE0701C9005DC7401F078D379DA7A011220B0
:202F800095E5828583F09005DDF0E5F0A3F09005DDE0FBA3E0FC9005DDE0F5F0A3E045F0B8
:202FA000700B9005DD74012BF0E43CA3F09005DDE0FBA3E0FC9005DD74012BF0E43CA3F060
:202FC000C003C00475820A788479B67A0112209515811581E58124FBF886820886830886AC
:202FE000F0787579237A00122095AA82AB83ACF0E58124F8F8A60208A60308A604E5812412
:20300000F8F8E60846600302312A900CFA75F000788F791A7A00122095AD82AE83AFF0E512
:203020008124F8F8A60508A60608A607E58124F8F8E60846700302312AE58124F8F8740378
:2030400026FDE40836FE088607E58124FBF8E6C0E008E6C0E008E6C0E08D828E838FF07862
:203060007179807A01122095158115811581E58124F8F8741B26FDE40836FE0886078D82F2
:203080008E838FF0E4124F4EE58124F8F8741C26FDE40836FE0886078D828E838FF0E41296
:2030A0004F4EE58124F8F8742026FDE40836FE088607E58124F8F8741D26FAE40836FB083D
:2030C00086048D828E838FF0EA124F4EA3EB124F4EA3EC124F4E8A828B838CF0E4124F4E8A
:2030E000A3124F4EA3124F4E8A828B838CF0785F79957A01122095E58124F8F886020886DF
:2031000003088604900D1BE0FDA3E0FEA3E0FFC002C003C0048D828E838FF0780B79967A8E
:2031200001122095158115811581E58124F8F8E6084670030235ACE58124F8F8742026FAD3
:20314000E40836FB0886048A828B838CF0125549FDA3125549FEA3125549FF8D828E838F2B
:20316000F0C004C003C0027820799A7A01122095AE82AF83D002D003D004C3EE9408EF64AE
:2031800080948040030235AC900D0475F000C004C003C002788F791A7A00122095AD82AE6E
:2031A00083AFF0D002D003D004E58124F5F8A60508A60608A607E58124F5F8E608467003CB
:2031C000023525E58124F5F8E58124EFF9740626F7E4083609F70809E6F7900D0E75F000F3
:2031E000C004C003C002788F791A7A00122095AD82AE83AFF0D002D003D004E58124EFF8C2
:2032000086820886830886F0ED124F4EA3EE124F4EA3EF124F4EED4E70030234F1E581249B
:20322000F5F8E58124F2F9740326F7E4083609F70809E6F7C004C003C00278A679F27A013B
:20324000122095AD82AE83AFF0D002D003D004E58124F2F886820886830886F0ED124F4E88
:20326000A3EE124F4EA3EF124F4EED4E70030234AFE58124EFF886820886830886F01255CB
:2032800049FDA3125549FEA3125549FFA8811818A60508A60608A607758209C004C003C091
:2032A0000278A679B67A01122095E5828583F0D002D003D00445F07029C002C003C004E5A9
:2032C0008124FBF8740626FAE40836FB0886048A828B838CF07408124F4ED004D003D002D3
:2032E0008044C002C003C004E58124FBF8740626FDE40836FE088607758209C007C006C0A5
:2033000005C00278A679B67A01122095AB82D002D005D006D0078D828E838FF0EB124F4E9D
:20332000D004D003D002A881181886820886830886F0E58124ECF9E7124F4EA309E7124F2B
:203340004EA309E7124F4EA8811818740326FDE40836FE0886078D828E838FF0E58124E626
:20336000F8E6124F4EA308E6124F4EA308E6124F4E75820DC004C003C00278A679B67A012B
:20338000122095AE82AF83D002D003D004BE015EBF005BE58124F5F8E58124F2F9E6F70883
:2033A00009E6F70809E6F78A828B838CF0125549FDA3125549FEA3125549FFC004C003C00C
:2033C00002E58124EFF8E6C0E008E6C0E008E6C0E08D828E838FF078F079967A0112209580
:2033E000158115811581D002D003D0048059E58124F5F8E58124F2F9E6F70809E6F70809F1
:20340000E6F78A828B838CF0125549FDA3125549FEA3125549FFC004C003C002E58124EF27
:20342000F8E6C0E008E6C0E008E6C0E08D828E838FF0780B79967A0112209515811581153E
:2034400081D002D003D0048A828B838CF0125549FDA3125549FEA3125549FF8D828E838FDD
:20346000F0787479957A01122095AC82AB83AAF0E58124F5F88605088606088607C005C07A
:2034800006C0078C828B838AF01236E015811581158160028016E58124F8F8868208868354
:2034A0000886F0780C79257A001220950235E6E58124EFF886820886830886F0125549FD59
:2034C000A3125549FEA3125549FFC004C003C002C005C006C007900D0E75F00078DD791BB5
:2034E0007A00122095158115811581D002D003D004E58124F5F88605088606088607C00461
:20350000C003C002C005C006C007900D0475F00078DD791B7A00122095158115811581D012
:2035200002D003D0048A828B838CF0125549FAA3125549FBA3125549FC8A828B838CF078F7
:2035400020799A7A01122095E5828583F045F0705BE58124F8F88602088603088604900DD5
:203560001BE0FDA3E0FEA3E0FFC002C003C0048D828E838FF078DB79987A0112209515812C
:2035800015811581E58124F8F88602088603088604C002C003C004900CFA75F00078DD79C8
:2035A0001B7A001220951581158115817401C0E0E4C0E07404C0E0E4C0E0E58124E2F8E66E
:2035C000C0E008E6C0E008E6C0E0E58124E5F886820886830886F0784C79DB7A01122095D7
:2035E000E58124F9F581E58124EBF5810220A790797DE493FDA3E493FEA3E493FFC007C06C
:2036000006C005C005C006C007D002D001D000122095D005D006D0070220A7907963E49325
:20362000FDA3E493FEA3E493FFC007C005C006C007D002D001D000122095AD82AE83D007D2
:203640008D828E830220A7AE82AF83907966E493FBA3E493FCA3E493FDC005C003C004C005
:20366000058E828F83D002D001D000122095AB82AC83D0058B828C830220A7907969E493EA
:20368000FDA3E493FEA3E493FFED4E601DC007C005C006C007D002D001D000122095AD82C2
:2036A000AE83D0078D828E8380039000000220A7900D0475F000788979197A00122095909C
:2036C0000D0E75F000788979197A00122095900CFA75F000788979197A001220950220A7FE
:2036E000E58124FCC3C8C0E0C082E608467006E5824583601218E58296F58208E5839642B8
:203700008208E5F0964582D082C8D0E0C822AF82BF02028005BF030C800575820280087577
:20372000820880037582000220A7900D33E0FEA3E0FF8E828F830220A7AF83E582900D3338
:20374000F0EFA3F00220A7C082C083C0F0058105810581A88118E4F608F6E4FAFCE58124EA
:20376000FBF8E608467003023AF4C002C004E58124F9F8740826FAE40836FB0886048A8227
:203780008B838CF0125549FABA02028007D004D002023A2BE58124F9F8740726FAE408366B
:2037A000FB0886048A828B838CF0E58124FCF8125549F6D004D002A8811818E6704FC0025C
:2037C000C004E58124F9F8740926FAE40836FB0886048A828B838CF0125549D004D0027002
:2037E0002CC002C004E58124F9F8740426FAE40836FB0886048A828B838CF0125549FABA5B
:203800000107D004D00202390AD004D002A8811818E66049C002C004E58124F9F874092683
:20382000FAE40836FB0886048A828B838CF0125549D004D0027026C002C004E58124F9F85C
:20384000740426FAE40836FB0886048A828B838CF0125549D004D002700302390AA881183C
:2038600018B60348C002C004E58124F9F8740926FAE40836FB0886048A828B838CF01255E5
:2038800049FABA03028006D004D002801FE58124F9F8740426FAE40836FB0886048A828B02
:2038A000838CF0125549D004D002605EA8811818B60223C002C004E58124F9F8740926FA23
:2038C000E40836FB0886048A828B838CF0125549D004D0027034A8811818E66031C002C057
:2038E00004E58124F9F8740926FAE40836FB0886048A828B838CF0125549FABA0202800679
:20390000D004D0028008D004D0027A017C00C002C004E58124F9F8740426FAE40836FB081E
:2039200086048A828B838CF0125549D004D0026003023AA4A8811818E6702CC002C004E588
:203940008124F9F8740926FAE40836FB0886048A828B838CF0125549FABA0307D004D002DB
:20396000023A21D004D002A8811818E6702CC002C004E58124F9F8740926FAE40836FB08A6
:2039800086048A828B838CF0125549FABA0207D004D002023A21D004D002A8811818E4B6FE
:2039A000020104FB602BC002C004E58124F9F8740926FAE40836FC0886078A828C838FF08F
:2039C000125549FABA0206D004D0028054D004D002EB601FE58124FBF8740926FDE40836B2
:2039E000FE0886078D828E838FF0125549FDBD0302802EA8811818B603028003023AA4E51C
:203A00008124FBF8740926FDE40836FE0886078D828E838FF0125549FDBD02028003023AED
:203A2000A4A8811876010876008079E58124FBF886820886830886F0125549FFBF020280AD
:203A400063E58124FBF8740426FDE40836FE0886078D828E838FF01255497026E58124FBCC
:203A6000F8740926FDE40836FE0886078D828E838FF0125549FD54036008A881187601082E
:203A80007600E58124FBF8740726FDE40836FE0886078D828E838FF0125549FD54036004D9
:203AA0007A017C00E58124F5F8E608466020E58124F5F886050886060886078D828E838F0A
:203AC000F0A88118E6124F4EA308E6124F4EE58124F2F8E60846601CE58124F2F8860508B5
:203AE00086060886078D828E838FF0EA124F4EA3EC124F4EE58124FAF5810220A7C082C06A
:203B000083C0F0E5812404F581A88118E4F608F6E58124FAF8E608467006900000023BCE94
:203B2000AC811C7B007A40E58124FAF8741026FDE40836FE088607C004C003C002E4C0E062
:203B4000C0E0C0E08D828E838FF0784779377A00122095E58124FAF581A88118E608466007
:203B60006AE58124FAF8741B26FDE40836FE0886078D828E838FF0E58124FDF8125549F634
:203B8000A312554908F6C007C006C005782A79377A00122095AA82AC83D005D006D007E52D
:203BA0008124FDF8E6B5020708E6B50402801C8D828E838FF0125549FDA3125549FEBDFF29
:203BC00005BEFF0280059000008003900001E58124F9F5810220A7AF82BF02067E027F003F
:203BE00080047E087F00C3E49E74808FF063F08095F050281EBEFF011FE58124FBF8EE2628
:203C0000FBEF0836FC0886058B828C838DF0125549FBBBFF0280CF900000800390000102F8
:203C200020A7C082C083C0F0058105810581E58124FBF8E608467006900000023E48E58151
:203C400024FBF8741026FAE40836FB08860474092AFDE43BFE8C078D828E838FF0A88118C6
:203C600018125549F6A8811818E66013A8811818B602067E027F00800A7E087F0080047E2D
:203C8000007F00A88118A60608A607EE4F6040E58124FBF8740826FDE40836FE088607C095
:203CA00004C003C002C005C006C007E58124F8F8868278D7793B7A00122095AE82AF8315EC
:203CC0008115811581D002D003D004EE4F6043E58124F5F8E608467003023D6CC004C0038E
:203CE000C002746AC0E07478C0E07480C0E0E58124EFF886820886830886F0787179807A00
:203D000001122095158115811581D002D003D004805AA88118B6020608B6000280069000F1
:203D200000023E48E58124F5F8E60846603EE58124FBF8740826FDE40836FE088607C0041D
:203D4000C003C002C005C006C007E58124EFF886820886830886F0787179807A0112209560
:203D6000158115811581D002D003D00474072AFAE43BFB8A828B838CF0125549FF600FBFDC
:203D800002067D027E00800A7D087E0080047D007E008D038E04ED4E6031C004C003E58137
:203DA00024F9F8E6C0E008E6C0E008E6C0E08F8278D7793B7A00122095AE82AF83158115EA
:203DC000811581D003D004EE4F6034E58124F2F8E608466070746AC0E07478C0E07480C01E
:203DE000E0E58124EFF886820886830886F0787179807A011220951581158115818046BB74
:203E00000205BC00028005900000803CE58124F2F8E60846602FE58124FBF8860508860639
:203E2000088607C005C006C007E58124EFF886820886830886F0787179807A01122095155A
:203E40008115811581900001E58124FAF5810220A7C082C083C0F0E581240AF58124EEF818
:203E600086020886030886047406C0E0E4C0E0C0E08A828B838CF078FA79527A0012209545
:203E8000158115811581E58124F4F8741026FAE40836FB08860474052AFDE43BFE8C078DBA
:203EA000828E838FF012554920E018E58124EEF886050886060886078D828E838FF07401F0
:203EC000124F4E74082AFDE43BFE8C078D828E838FF0125549FDBD02004003023F94740742
:203EE0002AFDE43BFE8C078D828E838FF0125549FD54037003023F8174092AFDE43BFE8CC6
:203F0000078D828E838FF0125549FD54036072C002C003C004E58124F1F8741D26FDE408C9
:203F200036FE0886078D828E838FF0125549FDA3125549FEE58124F1F8741B26FBE40836D6
:203F4000FC0886078B828C838FF0125549FBA3125549FCEDB50306EEB504028008D004D0BB
:203F600003D002801CD004D003D00274042AFDE43BFE8C078D828E838FF07401124F4E80C5
:203F80001374042AFDE43BFE8C078D828E838FF0E4124F4EAF811FE58124F7F8A60708769A
:203FA00000087640E58124FDFF7E007D40C004C003C002E58124F4F8E6C0E008E6C0E008A7
:203FC000E6C0E0C007C006C0058A828B838CF0784779377A00122095E58124FAF581D002F7
:203FE000D003D004E58124FDF8E60846601FE58124EEF8860508860608860774032DFDE43F
:204000003EFE8D828E838FF07402124F4EA88118E60846601DE58124EEF886050886060817
:2040200086070DBD00010E8D828E838FF07402124F4EE58124EEF8E58124F7F9E6F708097E
:20404000E6F70809E6F7E58124F7F8E58124FAF9740226F7E4083609F70809E6F774072A57
:20406000FDE43BFE8C078D828E838FF0125549FD5305038D82C004C003C002780E79377AE4
:2040800000122095AF82D002D003D004E58124FAF886820886830886F0EF124F4EE5812474
:2040A000F7F8740426FDE40836FE08860774092AFAE43BFB8A828B838CF0125549FA530271
:2040C000038A82C007C006C005780E79377A00122095AC82D005D006D0078D828E838FF0B9
:2040E000EC124F4EE58124F3F5810220A7E5812406F581AD82AE83AFF0E58124FBF9FA7B71
:20410000007C40C001C002C003C0048D828E838FF07851793E7A00122095158115811581B7
:20412000D00187077E0074022FFFE43EFEE904F886057C00ED2FFFEC3EFE740229F886058D
:204140007C00ED2FFFEC3EFE740329F886057C00ED2FFFEC3EFE740429F886057C00ED2F02
:20416000FFEC3EFE740529F987057C00ED2FFFEC3EFE8F828E83E58124FAF5810220A7C08D
:2041800082C083C0F00581E58124F7F88602088603088604E58124FDF886820886830886DA
:2041A000F0125549FFA88174075FF6E58124FDF8740126FDE40836FE0886078D828E838FEC
:2041C000F01255495401C40354F8A88146F6E58124FDF8740226FDE40836FE0886078D8296
:2041E0008E838FF01255495401C454F0A88146F6E58124FDF8740326FDE40836FE088607EF
:204200008D828E838FF01255495401C42354E0A88146F6E58124FDF8740426FDE40836FE40
:204220000886078D828E838FF01255495401030354C0FDA881E642058A828B838CF0ED1243
:204240004F4E0ABA00010BE58124FDF8740526FDE40836FE0886078D828E838FF0125549D2
:20426000FDA88174015DF6E58124FDF8740626FDE40836FE0886078D828E838FF012554930
:20428000540125E0A88146F6E58124FDF8740726FDE40836FE0886078D828E838FF0125587
:2042A00049540325E025E0A88146F6E58124FDF8740826FDE40836FE0886078D828E838F6D
:2042C000F01255495403C454F0A88146F6E58124FDF8740926FDE40836FE0886078D828E09
:2042E000838FF01255495403030354C0FDA881E642058A828B838CF0ED124F4EE58124FC90
:20430000F5810220A7C082C083C0F0E581240CF58124FBF9FA7B007C40C001C002C003C0CE
:2043200004E58124EEF886820886830886F07851793E7A00122095158115811581D001E539
:204340008124F2F8741026FAE40836FB088604C001E58124EBF8E6C0E008E6C0E008E6C08B
:20436000E08A828B838CF0787F79417A00122095158115811581D0017C028703BB014CC072
:20438000017C03E58124EBF8C001E58124F3F9740226F7E4083609F70809E6F7D001E5811F
:2043A00024F1F8741A26FDE40836FE0886078D828E838FF0125549FDE58124F4F8868208B8
:2043C00086830886F0ED124F4ED001E904F88607BF02028002807BC001EC04FFE58124EB12
:2043E000F8EC26FEE40836FD088602E58124F1F8C001E58124F6F9741B26F7E4083609F78B
:204400000809E6F7D001E58124F7F886820886830886F01255498E828D838AF0124F4EEFE5
:2044200004FCE58124EBF8EF26FBE40836FE088607E58124F7F886820886830886F01255D3
:2044400049A3125549FDFA8B828E838FF0124F4ED001740229F886078F067F008C05C3E43C
:204460009E74808FF063F08095F05053C001E58124EBF8C001E58124F6F9ED26F7E408369C
:2044800009F70809E6F7D0010D8E041CE58124F1F8EC26FCE40836FB0886028C828B838ACE
:2044A000F0125549FCE58124F7F886820886830886F0EC124F4E1EBEFF011FD001809FE5E5
:2044C0008124F8F8A605740329F88606BE02028003024551C001ED04FFE58124EBF8C001BC
:2044E000E58124F6F9ED26F7E4083609F70809E6F7D001E58124F1F8741D26FAE40836FD15
:204500000886068A828D838EF0125549FCE58124F7F886820886830886F0EC124F4E8F0483
:20452000E58124F7F8EF04F6E58124EBF8EC26FBE40836FC0886078A828D838EF0125549A2
:20454000A3125549FDFA8B828C838FF0124F4ED001E92404F987078F067F00E58124F2F8D6
:20456000E58124F5F9740826F7E4083609F70809E6F7E58124F8F88602C3E49E74808FF060
:2045800063F08095F0504CE58124ECF8E58124F8F9EA26F7E4083609F70809E6F70A8E058A
:2045A000ED14C8E58124F5C826FB08E436FC0886058B828C838DF0125549FBE58124F8F85B
:2045C00086820886830886F0EB124F4E1EBEFF011F80A67F008A828F83E58124F1F58102F9
:2045E00020A7E581240AF581AD82AE83AFF0E58124F7F98D828E838FF0125549FC74075C4F
:20460000F7E58124F7FC04F98D828E838FF0125549A2E3E433F774022CF98D828E838FF00D
:20462000125549C45401F774032CF98D828E838FF0125549A2E5E433F774042CF98D828E00
:20464000838FF012554923235401F774052CF90DBD00010E8D828E838FF0125549FB7401E0
:204660005BF774062CF98D828E838FF0125549035401F774072CF98D828E838FF0125549BC
:204680000303543FFB74035BF774082CF98D828E838FF0125549C4540FFB74035BF7740965
:2046A0002CF98D828E838FF012554923235403FD74035DF77F007E40E58124F1F8860208E1
:2046C0008603088605740AC0E0E4C0E0C004C007C0068A828B838DF0786579527A001220E0
:2046E00095E58124FBF581E58124F6F5810220A7C082C083C0F0E581241CF58124DDF8C35E
:20470000E6940208E6648094805006900000024DB2E58124F1FCFA7B007F40C004C002C05F
:2047200003C007E58124DEF886820886830886F078E279457A00122095158115811581D0CD
:20474000048C07E58124E8F8A607087600087640E58124DAF8E58124E5F9E6F70809E6F7E0
:204760000809E6F7E58124E5F8741026FAE40836FB088607C004740AC0E0E4C0E0E581249E
:20478000E5F8E6C0E008E6C0E008E6C0E08A828B838FF0786579527A00122095E58124FB93
:2047A000F581D004E58124E2F8E58124EEF9740226F7E4083609F70809E6F774052CF9E7B2
:2047C0007037C004E58124E4F8741A26FAE40836FB088604E58124EDF88682088683088695
:2047E000F0125549FFA31818A68208A6838A828B838CF0EF124F4ED004AF811FE58124E825
:20480000F8A607087600087640E58124FDFBE58124EBF8A6030876000876408C068E057E40
:20482000007F40C004E58124E7F8E6C0E008E6C0E008E6C0E0E58124E7F8E6C0E008E6C04D
:20484000E008E6C0E08D828E838FF0784779377A00122095E58124FAF581D00474072CF92D
:20486000E77003024A2BA88118E6084670030248E8C001E58124E4F8C001E58124E6F97488
:204880001B26F7E4083609F70809E6F7D001E58124EDF886820886830886F0125549FE7DCE
:2048A00000E58124EDF8740126FAE40836FB0886078A828B838FF0125549FFE42EFAEF3DC2
:2048C000FFE58124E7F886820886830886F0EA124F4EA3EF124F4EE58124EDF8740226F6FE
:2048E000E40836F6D001801EE58124E5F8741B26FDE40836FE0886078D828E838FF0E412CE
:204900004F4EA3124F4E8707BF020280030249A7E58124E5F88603088605088606C0047493
:204920006AC0E07478C0E07480C0E08B828D838EF0787179807A01122095158115811581CC
:20494000D004E58124EEF8740126FBE40836FD0886068B828D838EF0125549FBE58124E515
:20496000F886820886830886F0EB124F4EE58124E5F8740126FBE40836FD088606E58124D4
:20498000EEF886820886830886F0125549FA8B828D838EF0124F4EE58124EEF8740226F6A4
:2049A000E40836F6024A7BBF03028003024A7BE58124FBF8E4F608F6C004E58124E4F8E5A6
:2049C0008124FAF9E726FA09E70836FB088605E58124FAF87407C396FCE40896FFE5812425
:2049E000EDF8EC26FCEF0836FF0886068C828F838EF01255498A828B838DF0124F4EE5810A
:204A000024FAF806B600020806E58124FAF8C3E6940808E664809480D004409CE58124EEE5
:204A2000F8740826F6E40836F68050E58124E5F88605088606088607C004746AC0E07478B5
:204A4000C0E07480C0E08D828E838FF0787179807A01122095158115811581D004E581243F
:204A6000E5F8741B26FDE40836FE0886078D828E838FF0E4124F4EA3124F4E74092CF9E7E5
:204A80007003024CC4E58124FDF8E608467003024B3DC001E58124E4F8741D26FDE40836E4
:204AA000FE088607E58124EDF886820886830886F0125549FCE58124EAF8A604087600E538
:204AC0008124EDF8740126FAE40836FB0886048A828B838CF0125549FC7A00E58124EAF8E0
:204AE000EA26FAEC0836FC8D828E838FF0EA124F4EA3EC124F4EE58124EDF8740226F6E42B
:204B00000836F6D001A88118E60846706EE58124E5F8741B26FAE40836FB0886048D828EDB
:204B2000838FF0125549FDA3125549FE8A828B838CF0ED124F4EA3EE124F4E803EE58124BB
:204B4000E5F8741D26FDE40836FE088607E58124E5F8741B26FAE40836FB0886048A828BB3
:204B6000838CF0125549FAA3125549FB8D828E838FF0EA124F4EA3EB124F4E8707BF020278
:204B80008003024C2FE58124E5F8E58124EBF9740826F7E4083609F70809E6F7E58124EB22
:204BA000F88602088603088606746AC0E07478C0E07480C0E08A828B838EF0787179807ABE
:204BC00001122095158115811581E58124EEF8740126FCE40836FD0886068C828D838EF0F5
:204BE000125549FCE58124EBF886820886830886F0EC124F4EE58124E5F8740926FCE40878
:204C000036FD088606E58124EEF886820886830886F0125549FB8C828D838EF0124F4EE5EB
:204C20008124EEF8740226F6E40836F6024D13BF03028003024D13E58124E5F8740826FD2E
:204C4000E40836FE088607E58124FBF8E4F608F6E58124FBF8E62DFA08E63EFB8F04C00541
:204C6000C006C007E58124F8F87407C396FEE40896FFE58124EBF8EE26FEEF0836FF0886A1
:204C8000058E828F838DF01255498A828B838CF0124F4EE58124F8F806B600020806E581CF
:204CA00024F8F8C3E6940808E664809480D007D006D005409BE58124EEF8740826F6E40864
:204CC00036F6804FE58124E5F8740826FAE40836FB088604746AC0E07478C0E07480C0E089
:204CE0008A828B838CF0787179807A01122095158115811581E58124E5F8741D26FAE40834
:204D000036FB0886048A828B838CF0E4124F4EA3124F4EE58124EEF8E58124E2F9E6C39740
:204D2000FB08E60997FC8B078C06E58124E5F8E58124EBF9743426F7E4083609F70809E617
:204D4000F7E58124DDF8E6C39FFC08E69EFBE58124EBF886820886830886F0EC124F4EA3F0
:204D6000EB124F4EE58124E5F8743126FAE40836FB0886048A828B838CF0E58124EEF8E6D2
:204D8000124F4EA308E6124F4EA308E6124F4EE58124DDF8C3E69F08E664808EF063F0801A
:204DA00095F050067B007C0080048F038E048B828C83E58124E1F5810220A7758120125734
:204DC000E2E582600302006E79A8E94400601B7A01907997788D75930CE493F2A308B800EE
:204DE000020593D9F4DAF27593FFE478FFF6D8FD7800E84400600A7900759300E4F309D80C
:204E0000FC7889E8440C600C790D900004E4F0A3D8FCD9FA90022AE4F0A3F0A3F0A3F090E0
:204E200002CBE4F0E4F50FF510F511F512900000F0A3F0A3F0A3F09005DCE4F002006EA841
:204E4000811818C6B2E7C60250FC124EEDBC0003025387EF60FA30D502B2D1E583B4FF0355
:204E600002539DE582B4FF0302539D258340072482400B025387248314500302539DF582FE
:204E8000EA8DF0A4A8F0EA8EF0A428F8E435F0F9EB8DF0A428E935F0F9E433CA8FF0A429D9
:204EA000F9EA35F0FAEBF88EF0A429F9EA35F0FAE433FBEC8DF0A429F9EA35F0FAE43BFB5C
:204EC000E88FF0A42AFAEB35F0FBE433CCFD8EF0A42AFAEB35F0FBE43CFCED8FF0A42BFB15
:204EE000EC35F0FC20E703124F1B025366AA82AB83A2F73392D1F5826002D2F7ACF0E58137
:204F000024F9F8E6FD08E6FE0886F008E6A2F73392D5F5836002D2F7AFF0227804EC7011C1
:204F2000E58224F8500AF582E4C9CACBFCD8EF22EC7820058220E713D5820122C3E933F97F
:204F4000EA33FAEB33FBEC33FCD8EA15822220F71130F6138883A88220F509F6A8837583BE
:204F6000002280FEF280F5F022C013858113C082C083E5812405F581AF130FE5132403F8BA
:204F8000A607087600087640E51324FCFD7E007F40E5132406F9A813088604E51324FCF85E
:204FA00086038CF0EBA4F709A7F0E513240604F98704A81308860374012DFAE43EFE8A8208
:204FC0008E838FF01255498BF0A4FBE5132403F8740126FDE40836FE0886078D828E838F64
:204FE000F0125549FDE51324FCF886078DF0EFA42B2CF7E5132406F987060987078E828F3B
:2050000083851381D01322C013E581F5132406F581AD82AE83AFF0E51324F8F8E60846705F
:20502000069000000250F4E51324F8F886030886041BBBFF011CEB4C70030250C4C003C038
:2050400004A81308A60508A60608A607A8130886820886830886F0125549FAE51324FAF863
:20506000E5132404F9E6F70809E6F70809E6F7E5132404F886820886830886F0125549FC03
:20508000EAB504028006D004D0038038A81308740126FAE40836FB0886048A058B068C07CC
:2050A000E5132404F8740126FAE40836FB088604E51324FAF8A60208A60308A604D004D0D7
:2050C000030250318D828E838FF0125549FD7F00E51324FAF886030886040886068B828C29
:2050E000838EF0125549FB7E00EDC39BFDEF9EFF8D828F83851381D0130220A7124EED7906
:2051000000E583B58202800D5003125452E583C39582125744E5D0C465D020E117EA2DFA90
:20512000EB3EFBEC3FFC50097401125744EC4480FC025366C3EA9DFAEB9EFBEC9FFC500F94
:20514000C3E499F9E49AFAE49BFBE49CFCB2D1124F1B025366C01385811305810581058170
:20516000AD82AE83AFF0E51324F8F8E608467006900000025211E51324FAF886020886035E
:20518000088604E51324F8F8A91309E6F70809E6F7A8130816B6FF020816A81308E608463C
:2051A000604C8D828E838FF0E5132403F8125549F6E5132403F8E66035C005C006C0078A79
:2051C000828B838CF0125549FFE5132403F8E6B507028008D007D006D0058012D007D00610
:2051E000D0050DBD00010E0ABA00A60B80A38D828E838FF0125549FD7F008A828B838CF008
:20520000125549FA7E00EDC39AFDEF9EFF8D828F83851381D0130220A7AC83AB827A00795E
:2052200000748E0255DC125787700AE582458345F0700122E430D112F4700BE5F0F4700633
:20524000E58330E7012290800022700AE5F07006E58320E70122907FFF227F8E1274BFF5AC
:205260008385F08222C013E581F5132408F581AD82AE83AFF0E5132406F8A60508A606082F
:20528000A607E51324FAF8A91309E6F70809E6F70809E6F7E51324F8F8E5132404F9E6F7D3
:2052A0000809E6F7E5132404F88603088604E5132404F816B6FF020816EB4C6028A8130848
:2052C00086820886830886F0125549FCA31818A68208A6838D828E838FF0EC124F4EA3ADD5
:2052E00082AE8380BFE5132406F886820886830886F0851381D0130220A7C013858113C09A
:2053000082C083C0F005810581A813088602088603088604E51324FAF8E5132404F9E6F79A
:205320000809E6F7E5132404F88606088607E5132404F816B6FF020816EE4F60168A828BF9
:20534000838CF0E51324FCF8E6124F4EA3AA82AB8380D1A8130886820886830886F0851369
:2053600081D0130220A7B98003EA13B34010EA2401FAE43BFBE43CFC50047C800582BC00F2
:205380000EBB000BBA0008E4F5F0F583F58222A2D1E582138CF092F78B838A8222E4F58313
:2053A000F58275F080F4A2D11322E4F583F58275F0C0747F22C0138581137E008E83782ACB
:2053C00079807A02122095D0130220A7C013858113AD82AE83AFF0E51324FCF8E6C0E0C0A4
:2053E00005C006C007E4C0E0C0E0C0E09053B575F00078D179647A00122095AE82AF83E5AC
:205400008124F9F5818E828F83D0130220A7C013E581F51324FAFFC007E51324FAF8E6C0D1
:20542000E008E6C0E008E6C0E0E4C0E0C0E0C0E09053B575F00078D179647A00122095AE9A
:2054400082AF83E58124F9F5818E828F83D0130220A7E582C583F582A2D133A2D592D11318
:2054600092D5ECCFFCEBCEFBEACDFA22AA82AB831255496003A380F8C3E5829AF582E5835C
:205480009BF5830220A7124EED30D502B2D1BF0009BC00030253AA02539DBC000302538746
:2054A000E583B4FF0BE582B4FF030253AA025387E582B4FF0302539DC395835007247F40AA
:2054C0000B025387248014500302539DF582C3ED9AEE9BEF9C40111582C3EA33F9EB33FA3A
:2054E000EC33FBE433FC8005E4CCCBCAF9C08275F019C3E99DEA9EEB9FEC9400D5F00280DA
:205500002D400EE99DF9EA9EFAEB9FFBEC9400FCC3B3E833F8E58233F582E58333F583C39E
:20552000E933F9EA33FAEB33FBEC33FC80C4B3E4F938FAE43582FBE43583FCD0825004052C
:20554000827C80124F1B02537E20F71430F6148883A88220F507E6A88375830022E280F744
:20556000E49322E022C013858113AE82E583FF33E433FD6009C3E49EFBE49FFC80048E0389
:205580008F04E51324FCF808E630E70FE51324FCF8C3E496FE08E496FF800AE51324FCF8EE
:2055A0008606088607C005C006C0078B828C83125600AE82AF8315811581D005ED600DC374
:2055C000E49EFCE49FFD8C828D8380048E828F83D01322FCABF0AA83A982749EF582C2D1F9
:2055E000EC30E716D2D1E9F42401F9EAF43400FAEBF43400FBECF43400FC124F1B02536693
:20560000C013858113AE82AF837D007C00E51324FCF808E6235401FB702FE51324FCF8E63D
:2056200026F608E633F6E51324FCF8C3EE96EF08965011E51324FCF808E618C313C613C667
:2056400008F680050C8C0580C4E51324FCF8C3EE96EF0896400DE51324FCF8EEC396FEEF71
:205660000896FFE51324FCF808E618C313C613C608F68D041DEC70D18E828F83D01322C042
:2056800013858113AE82E583FF33E433FD6009C3E49EFBE49FFC80048E038F04E51324FC18
:2056A000F808E633E433FF600FE51324FCF8C3E496FA08E496FE800AE51324FCF88602085B
:2056C0008606C007C005C002C0068B828C831256F5AC82AE8315811581D005D007EF6D60BE
:2056E0000DC3E49CFDE49EFF8D828F8380048C828E83D01322C013858113AE82AF837C0049
:205700007D007B10EF235401FAEE2EFEEF33FFEC2CFCED33FDEA6003430401E51324FCF80F
:20572000C3EC96ED08964010E51324FCF8ECC396FCED0896FD430601EB14FB70C78E828F56
:2057400083D013226040F82582500274FFF582E824F8501ECCCBCAF9E4CC24F85014CBCAB5
:20576000F9E4CB24F8500BCAF9E4CA24F8500379002224086010F8C3EC13FCEB13FBEA1347
:20578000FAE913F9D8F1221257E6C3749E95824039790012574430D126E9F42401F582EACB
:2057A000F43400F583EBF43400F5F0ECF43400700AE582458345F0700122E430E70F22ECB4
:2057C00020E71489828A838BF02230D10AE4F582F583F5F074802274FFF582F583F5F07465
:2057E0007F2275820022AA82AB83A2F73392D1F5826002D2F7ACF022C013858113AF827475
:20580000302FFF24C6501074072FFFE51324FCF8E6600474202FFFE51324F6F8E6C0E00883
:20582000E6C0E008E6C0E0E51324F9F8E6C0E008E6C0E008E6C0E08F82D002D001D000120F
:205840002095158115811581D0130220A7C013858113E582FFC4540FFEC007E51324F6F8DD
:20586000E6C0E008E6C0E008E6C0E0E51324F9F8E6C0E008E6C0E008E6C0E0E51324FCF8C7
:20588000E6C0E08E8278F879577A00122095E58124F9F581D00753070FE51324F6F8E6C008
:2058A000E008E6C0E008E6C0E0E51324F9F8E6C0E008E6C0E008E6C0E0E51324FCF8E6C087
:2058C000E08F8278F879577A00122095E58124F9F581D0130220A7C013858113A98287040F
:2058E000098705098706098707191919740429F87B20C003E626FAEF235401FBEA4203A667
:2059000003EC2CFCED33FDEE33FEEF33FFC000E51324FCF8C3EB96D000D00340148602C0C0
:2059200000E51324FCF8EAC396FAD000A602430401EB14FAFB70BBA70409A70509A706091C
:20594000A707D0130220A7C013858113C8E5812428F581E5132407C8A68208A68308A6F02F
:2059600008F67B00C200E5132405F87680C003C020E4C0E0C0E0C0E0C0E0E5132407F88635
:20598000820886830886F008E61274E4AA82E58124FCF581D020D003EA6011D200E513246A
:2059A00007F8E608E608E608E6B2E7F6C003C020E5132407F8E6C0E008E6C0E008E6C0E049
:2059C00008E6C0E090FFFF75F07F744B1274E4AA82E58124FCF581D020D003EA7003025BF9
:2059E000837A00C003C002C020E4C0E0C0E07420C0E07441C0E0E5132407F8868208868364
:205A00000886F008E61274E4E58124FCF581D020D002D003E58224FF92014044C003C002F9
:205A2000C020E4C0E0C0E07420C0E07441C0E0E5132407F886820886830886F008E61254D3
:205A400086C8E5132407C8A68208A68308A6F008F6E58124FCF581D020D002D0030A80837A
:205A60008A07C007C003C020E4C0E0C0E07480C0E0743FC0E0E5132407F8868208868308E4
:205A800086F008E61274E4AA82E58124FCF581D020D003D007EA6044C007C003C020E51386
:205AA0002407F8E6C0E008E6C0E008E6C0E008E6C0E090000075F0207441124E4AC8E5135F
:205AC0002407C8A68208A68308A6F008F6E58124FCF581D020D003D0071F8086E513240502
:205AE000F8A60730003AC020E51324F1F8E6C0E008E6C0E008E6C0E0E51324F4F8E6C0E082
:205B000008E6C0E008E6C0E075822DD002D001D000122095158115811581D0207B0180401D
:205B2000E51324F8F8E66038C020E51324F1F8E6C0E008E6C0E008E6C0E0E51324F4F8E666
:205B4000C0E008E6C0E008E6C0E075822BD002D001D000122095158115811581D0207B01FF
:205B6000E51324FCF87600E51324FAF87600E51324F9F87600E51324F8F87600E51324F703
:205B8000F87600E51324FBF8B6FF07E51324FBF87606E5132410F8E4F608F608F608763F8A
:205BA000E51324FBF88605ED604BC003C005C020E4C0E0C0E07420C0E07441C0E0E5132482
:205BC00010F886820886830886F008E6125486AA82AB83AEF0FFE58124FCF581D020D00594
:205BE000E5132410F8A60208A60308A60608A6071DD00380B2C003C003C020E5132410F813
:205C0000E6C0E008E6C0E008E6C0E008E6C0E0E5132407F886820886830886F008E6125052
:205C2000FCA81308A68208A68308A6F008F6E58124FCF581D020A81308868208868308865A
:205C4000F008E6C0201274BDC8E5132407C8A68208A68308A6F008F6D020D003E5132407B5
:205C6000F886820886830886F008E6C0201276ACAA82AB83AEF0FFD020C003C020C002C087
:205C800003C006C007A8130886820886830886F008E6124E3FC8E513240BC8A68208A6837D
:205CA00008A6F008F6E58124FCF581D020D003E5132406F8E5132414F67A00D003E51324E0
:205CC00007F8E60846084608467003025D4C8A070AE5132406F8EF26F9C003C002C001C00E
:205CE00020740AC0E0E4C0E0C0E0C0E0E5132407F886820886830886F008E612755DAC82F0
:205D0000E58124FCF581D020D00174302CF7C020740AC0E0E4C0E0C0E0C0E0E5132407F822
:205D200086820886830886F008E612761FC8E5132407C8A68208A68308A6F008F6E5812405
:205D4000FCF581D020D002D003025CBDEAFF700DEA04FFE5132406F8EA26F87630E51324EA
:205D6000FBF8E513240FF9E6F7E5132406F8E5132407F9E6F7E5132428F8A607E513240F08
:205D8000F8E6700AE513240FF88602025E68C007C003C020E513240BF8E6C0E008E6C0E09B
:205DA00008E6C0E008E6C0E090000075F0207441124E4AAC82AD83AEF0FFE58124FCF5815C
:205DC000D020E5132424F8A60408A60508A60608A607E5132424F886820886830886F008FE
:205DE000E6C0201274BDAC82AD83AEF0FFD0208F02E5132407F8E5132428F9E726F9E513C8
:205E00002428F8068C0774302FF78C828D838EF0EAC0201276ACAC82AD83AEF0FFD020D086
:205E200003C007C003C020C004C005C006C007E5132424F886820886830886F008E6124EC2
:205E40003FC8E513240BC8A68208A68308A6F008F6E58124FCF581D020D003D007E51324A5
:205E60000FF816D007025D7C8F06E51324FBF8E6600EE51324FBF8E604FC3395E0FD80043D
:205E80007C007D00EC2EFCFE200010E51324F8F8E67008E51324F7F8E660010EE51324FAE5
:205EA000F8E66003026136E51324FCF8C3EA964003026136E51324F9F8E67003025FED30F5
:205EC0000042C007C006C003E51324F1F8E6C0E008E6C0E008E6C0E0E51324F4F8E6C0E0FB
:205EE00008E6C0E008E6C0E075822DD002D001D000122095158115811581D003D006D007E6
:205F00000B025F94E51324F8F8E66041C007C006C003E51324F1F8E6C0E008E6C0E008E697
:205F2000C0E0E51324F4F8E6C0E008E6C0E008E6C0E075822BD002D001D000122095158125
:205F400015811581D003D006D0070B8047E51324F7F8E6603FC007C006C003E51324F1F8DE
:205F6000E6C0E008E6C0E008E6C0E0E51324F4F8E6C0E008E6C0E008E6C0E0758220D002EC
:205F8000D001D000122095158115811581D003D006D0070B8B05E51324FCF886048C021C78
:205FA000C3EE9A400302620DC007C006C005C004E51324F1F8E6C0E008E6C0E008E6C0E025
:205FC000E51324F4F8E6C0E008E6C0E008E6C0E0758230D002D001D000122095158115818A
:205FE0001581D004D005D006D0070D80B08B02E51324FCF88605C0078D071DC3EE9FD007B1
:206000005049C007C006C005C002C020E51324F1F8E6C0E008E6C0E008E6C0E0E51324F43C
:20602000F8E6C0E008E6C0E008E6C0E0758220D002D001D000122095158115811581D020C3
:20604000D002D005D006D0070A80AB8A03E51324FCF8A605300044C007C006C002E5132490
:20606000F1F8E6C0E008E6C0E008E6C0E0E51324F4F8E6C0E008E6C0E008E6C0E075822DC7
:20608000D002D001D000122095158115811581D002D006D007EA04FB026216E51324F8F816
:2060A000E66044C007C006C002E51324F1F8E6C0E008E6C0E008E6C0E0E51324F4F8E6C0B2
:2060C000E008E6C0E008E6C0E075822BD002D001D000122095158115811581D002D006D02E
:2060E00007EA04FB026216E51324F7F8E67003026216C007C006C002E51324F1F8E6C0E07E
:2061000008E6C0E008E6C0E0E51324F4F8E6C0E008E6C0E008E6C0E0758220D002D001D02F
:2061200000122095158115811581D002D006D007EA04FB026216300042C007C006C003E54D
:206140001324F1F8E6C0E008E6C0E008E6C0E0E51324F4F8E6C0E008E6C0E008E6C0E0755E
:20616000822DD002D001D000122095158115811581D003D006D0070B026216E51324F8F863
:20618000E66041C007C006C003E51324F1F8E6C0E008E6C0E008E6C0E0E51324F4F8E6C0D3
:2061A000E008E6C0E008E6C0E075822BD002D001D000122095158115811581D003D006D04C
:2061C000070B8052E51324F7F8E6604AC007C006C003E51324F1F8E6C0E008E6C0E008E6E9
:2061E000C0E0E51324F4F8E6C0E008E6C0E008E6C0E0758220D002D001D00012209515816E
:2062000015811581D003D006D0070B80098D03E51324FCF8A6048F051DE5132406F886049F
:20622000E5132406F8ED26F98702C007C006C005C004C003E51324F1F8E6C0E008E6C0E0BD
:2062400008E6C0E0E51324F4F8E6C0E008E6C0E008E6C0E08A82D002D001D00012209515AB
:206260008115811581D003D004D005D006D0070B8D021DEA70AA8B05E51324FBF8E6700395
:20628000026325C007C006C004C003E51324F1F8E6C0E008E6C0E008E6C0E0E51324F4F8B1
:2062A000E6C0E008E6C0E008E6C0E075822ED002D001D000122095158115811581D003D078
:2062C00004D006D0070B8F05E51324FBF886028A071AEF604EED2CF90D8707C006C005C097
:2062E00004C003C002E51324F1F8E6C0E008E6C0E008E6C0E0E51324F4F8E6C0E008E6C032
:20630000E008E6C0E08F82D002D001D000122095158115811581D002D003D004D005D006DE
:206320000B80AC8B05E51324FAF8E6605CE51324FCF8C3EE9650528D07E51324FCF88604BF
:20634000C3EE9C50421CC007C006C004E51324F1F8E6C0E008E6C0E008E6C0E0E51324F43A
:20636000F8E6C0E008E6C0E008E6C0E0758220D002D001D000122095158115811581D0049C
:20638000D006D0070F80B98F05E5132405F8B680030264C7C005E51324F1F8E6C0E008E6B7
:2063A000C0E008E6C0E0E51324F4F8E6C0E008E6C0E008E6C0E0758265D002D001D0001224
:2063C0002095158115811581D005ED04FFE5132405F8E630E740C007E51324F1F8E6C0E0D9
:2063E00008E6C0E008E6C0E0E51324F4F8E6C0E008E6C0E008E6C0E075822DD002D001D040
:2064000000122095158115811581D0070FE5132405F8C3E496F6E5132405F8E6FA3395E020
:20642000FEC007C006C002740AC0E0E4C0E08A828E8312567FAB821581158174302BFBE561
:206440001324F1F8E6C0E008E6C0E008E6C0E0E51324F4F8E6C0E008E6C0E008E6C0E08B45
:2064600082D002D001D000122095158115811581D002D006D0070FC007740AC0E0E4C0E0A7
:206480008A828E83125565AC821581158174302CFCE51324F1F8E6C0E008E6C0E008E6C026
:2064A000E0E51324F4F8E6C0E008E6C0E008E6C0E08C82D002D001D00012209515811581DE
:2064C0001581D007EF04FD8D82851381D0130220A7C013858113C082C083C0F0E5812424BC
:2064E000F581E513240CF8E4F608F6E5132410F8E5132419F6E5132421C8E5132407C824CB
:2065000005F6E5132411F8E5132419F6E5132411F8E5132404F9740426F7E5132404F8E560
:20652000132405F9E6F7E5132404F8E5132406F9E6F7E51324F7F886020886060886078AF3
:20654000828E838FF0125549FDE51324F7F874012AF6E43E08F608A607EDFF70030274AB87
:20656000BF2502800302746EC200C201C202C203C204C205C206C207E513241EF8E4F6FD99
:20658000FEE513241FF876FF0876FFE51324F7F8E5132408F9E6F70809E6F70809E6F7E512
:2065A000132408F886820886830886F0E513240BF9125549F7A31818A68208A683E51324FE
:2065C00008F8E51324F7F9E6F70809E6F70809E6F7E513240BF8B62542E51324FAF8E6C006
:2065E000E008E6C0E008E6C0E0A81308E6C0E008E6C0E008E6C0E0E513240BF88682D00241
:20660000D001D000122095158115811581E513240CF806B600020806026532E513240BF8AC
:20662000B6300050030266BFE513240BF8E624C650030266BFE513241FF8B6FF3C08B6FFB0
:2066400038C020C005C00690000A124F69AA82AF8315811581D020E513240BF886037C0095
:20666000EB2AFAEC3FFFEA24D0FDEF34FFFE4D600302659FD20102659FC006C005C020E507
:2066800013241FF8E6C0E008E6C0E090000A124F69AC82AF8315811581D020D005D006E528
:2066A00013240BF886027B00EA2CFCEB3FFFE513241FF8EC24D0F6EF34FF08F602659FE54E
:2066C00013240BF8B62E1DE513241FF8B6FF0608B6FF02800302659FE513241FF8E4F60834
:2066E000F602659FE513240BF8B66100401CE513240BF8E624854012E513240BF8E654DFD4
:20670000F6E5132418F876018007E5132418F87600E513240BF8B620030267E3E513240B4C
:20672000F8B62B030267DEE513240BF8B62D030267D9E513240BF8B642030267E8E5132468
:206740000BF8B643030267F2E513240BF8B64403026D60E513240BF8B64603026D86E513E9
:20676000240BF8B6480302659FE513240BF8B64903026D60E513240BF8B64A0302659FE5EE
:2067800013240BF8B64C028064E513240BF8B64F03026D6BE513240BF8B65003026AFCE561
:2067A00013240BF8B65303026867E513240BF8B6540302659FE513240BF8B65503026D7480
:2067C000E513240BF8B65803026D7DE513240BF8B65A0302659F026D8AD20002659FD202C0
:2067E00002659FD20302659FD20502659FD20602659F300515E51324F6F8E614FCE5132497
:20680000F6F8A604A80486048014E51324F6F8E624FEFBE51324F6F8A603A8038604C0065B
:20682000C005C020E51324FAF8E6C0E008E6C0E008E6C0E0A81308E6C0E008E6C0E008E63E
:20684000C0E08C82D002D001D000122095158115811581D020D005D006E513240CF806B617
:2068600000020806026DE5E5132419FCE51324F6F8E624FDFBE51324F6F8A603A803860291
:20688000088603088607A804A60208A60308A6078A828B838FF0C006C005C004C020786C6C
:2068A00079547A00122095C8E5132408C8A68208A683D020D004D005D006E513241FF8B665
:2068C000FF1408B6FF10E5132408F8E513241FF9E6F70809E6F730000302697DE51324087E
:2068E000F8C3E69D08E69E400302697DE5132408F8E5132412F9EDC396F7EE089609F7E5B2
:2069000013240CF88606088605E5132412F88602088607E5132412F816B6FF020816EA4F90
:206920006047C006C005C004C020E51324FAF8E6C0E008E6C0E008E6C0E0A81308E6C0E088
