:020000040000FA
:04000000024DC232B9
:01000B0032C2
:0100130032BA
:01001B0032B2
:0100230032AA
:03002B000212F9C5
:01003300329A
:01003B003292
:0300430002366A18
:03004B0002142F6D
:01005300327A
:01005B003272
:01006300326A
:20006B000206FB0202E8C082C083E5812404F5817C007D00C374C89C74808DF063F0809590
:20008B00F0500B7490C39CFA74019DFB80048C028D03E58124FBF886078F82C007C005C097
:2000AB0004C003C002783E79937A011210DFD002D003D004D005D007E58124FDF8E4F608E8
:2000CB00F6E58124FDF8C3E69A08E664808BF063F08095F0501DE58124FDF8A98119E6F7AC
:2000EB000809E6F7E58124FDF8740126F6E40836F680CE8F82C005C004C003C0027854792D
:20010B00937A011210DFD002D003D004D005E58124FDF8E4F608F674C8C39AFEE49BFFE526
:20012B008124FDF8C3E69E08E664808FF063F08095F0501DE58124FDF8A98119E6F708090D
:20014B00E6F7E58124FDF8740126F6E40836F680CE0CBC00010DC3EC9490ED648094815062
:20016B000302007FE58124FAF58122E5812408F5817E0C7F78E58124F9FD7C07EC2DF98EA8
:20018B00828F83E0FBA3AE82AF83A7031CEC30E7EB74072DF987077E0074062DF987048CC8
:2001AB00037C00EF4204EE420389077E007A40C005C004C0037402C0E0E4C0E0C007C00612
:2001CB00C00290020E75F000786C79527A001210DFE58124FBF581D003D004D0059079148F
:2001EB00E493FAA3E493FEA3E493FFC007C006C005C004C003C00274F5C0E0C4C0E0C00288
:20020B00C006C007900002D002D001D0001210DF15811581D002D003D004D005D006D00719
:20022B00907914E493FAA3E493FEA3E493FFC007C006C005C002C004C003C002C006C0070A
:20024B00900003D002D001D0001210DF15811581D002D005D006D007907914E493FCA3E4F5
:20026B0093FEA3E493FFC007C006C005C0047419C0E0E4C0E0C004C006C007900001D0024E
:20028B00D001D0001210DF15811581D004D005D006D00790791AE493FCA3E493FEA3E49367
:2002AB00FF7B007A40C007C006C0047408C0E0E4C0E0C005C003C002C004C006C0079000E3
:2002CB000BD002D001D0001210DFE58124FBF581D004D006D007E58124F8F58122783079DD
:2002EB00127A001210DF787379E57A011210DF78D3799D7A011210DF78E479927A011210C0
:20030B00DF758207785479937A011210DF9000011200717829790D7A001210DF789E79E379
:20032B007A011210DF780379E07A011210DF90ACF075F001788679077A001210DF78217949
:20034B00AF7A011210DF9000021200719076C275F080781579C77A011210DF9076DF75F012
:20036B0080781579C77A011210DF90624AE0FFBF8D028042BF9502802CBFA5028005BFB51D
:20038B004480119076F075F080781579C77A011210DF80319076F775F080781579C77A017E
:2003AB001210DF80209076FE75F080781579C77A011210DF800F90770575F080781579C712
:2003CB007A011210DF90770C75F080781579C77A011210DF906277E0FF0F8F82784F79C7E6
:2003EB007A011210DF90771475F080781579C77A011210DF78A579927A011210DF900000F9
:20040B00783D79E37A011210DFE4C0E0C0E0C0E0900C9675F00078A579077A001210DF15BC
:20042B00811581158178BE79C27A011210DF783E79C87A011210DF120176E4C0E0C0E0C037
:20044B00E0900CB675F00078A579077A001210DF158115811581907875E493FDA3E493FE17
:20046B00A3E493FFC007C006C0057401C0E0E4C0E0C005C006C007900081D002D001D00097
:20048B001210DF15811581D005D006D007907863E493FDA3E493FEA3E493FFC007C006C045
:2004AB00057401C0E0E4C0E0C005C006C007900081D002D001D0001210DF15811581D005BB
:2004CB00D006D007781179C97A011210DF908BD575F08078F479107A001210DF78AB7992AA
:2004EB007A011210DF90000412007178B179927A011210DF9004DBE06057784E799C7A0152
:20050B001210DFE5828583F045F06040786C799C7A011210DFAE82AF83C007C00678157931
:20052B00127A001210DFAC82AD83D006D007EEC39CFEEF9DFF1EBEFF011FC374FF9E747F80
:20054B009F5009783479997A011210DF9004DBE4F07866790F7A001210DFAE82AF83EE707A
:20056B008A907908E493FDA3E493FEA3E493FFC007C005C006C007D002D001D0001210DFA3
:20058B00AD82AE83D0078D088E09E508450970030204F6788479B97A011210DF9078FFE4AE
:2005AB0093FDA3E493FEA3E493FFC007C006C005782379BD7A011210DFAA82AB83ACF0D00A
:2005CB0005D006D007C0077480C0E0E4C0E0C005C006C0078A828B838CF0D002D001D00024
:2005EB001210DFAD82AE8315811581D0078D088E09E508450970030204F685088285098396
:20060B00781579BD7A011210DF907963E493FDA3E493FEA3E493FFC007C006C005C005C0A8
:20062B0006C007D002D001D0001210DFD005D006D0070204F620811B90000A75F04078DF9E
:20064B0079C97A011210DFAE82AF83EE4F6004C2008002D200A200E433FE7F008E828F8360
:20066B000210F1AE82AF83BE8105BF00028006BE8210BF000D740255ABFF7E008F828E834E
:20068B0080039000000210F1AE82AF83BE8005BF00028008BE8153BF00508011438F0253F2
:2006AB008CFE53F3FD53FDFD9000018040E58124FCF8E608466029E5AB20E129E4C0E0C08B
:2006CB00E090000A75F040782079C97A011210DF158115815389FDC2C543AB02D2BD80050A
:1506EB0053ABFDC2BD90000180039000000210F1C020C0E0C099
:20070000F0C082C083C007C006C005C004C003C002C001C000C0D075D000C2AFE58930E183
:200720004190000A75F04078DF79C97A011210DFE5828583F045F060297410C0E0E4C0E05F
:2007400090000A75F040782079C97A011210DF1581158190786F75F08078F579B17A011258
:2007600010DF5389FDC2C5D2AFD0D0D000D001D002D003D004D005D006D007D083D082D0F8
:20078000F0D0E0D02032AFF0AE83E582900216F0EEA3F0EFA3F00210F1900326E0FF04F036
:2007A0008F820210F1C082C083C0F0900CAAE0FAA3E0FBA3E0FC8A058B068C07A8811818C7
:2007C000C005C006C00786820886830886F01227E9158115811581601AED4E60168D828E84
:2007E000838FF0125540FDA3125540FEA3125540FF80C9A8811818C005C006C007868208BE
:2008000086830886F01227E9158115811581600280030208A7A881181886820886830886D7
:20082000F0EA124F55A3EB124F55A3EC124F55A8811818900CAAE6F008E6A3F008E6A3F028
:20084000A8811818740826FDE40836FE0886078D828E838FF07401124F55A881181874064E
:2008600026FDE40836FE0886078D828E838FF0E4124F55A3124F55E58124F8F8E6C0E00806
:20088000E6C0E008E6C0E07481C0E0E58124FAF886820886830886F0782079107A001210DF
:2008A000DFE58124FCF5811581158115810210F1C082C083C0F0E5812406F581900CADE034
:2008C000FAA3E0FBA3E0FCA8811818A60208A60308A604900CAAE0FAA3E0FBA3E0FCE5813A
:2008E00024F8F8C002C003C00486820886830886F01227E9158115811581601AEA4B6016FB
:200900008A828B838CF0125540FAA3125540FBA3125540FC80C8EA4B7003020B90E58124FE
:20092000F8F886820886830886F078B679107A001210DFE5828583F045F07003020A95E571
:200940008124F8F8740826FAE40836FB0886048A828B838CF0E4124F55900CAAE0FAA3E0E4
:20096000FBA3E0FC8A078B068C05EF4E606CE58124F8F8C007C006C00586820886830886CE
:20098000F01227E91581158115816038E58124F8F88602088603088604C007C006C005C0B4
:2009A00002C003C0047487C0E08F828E838DF07899790B7A001210DFE58124FCF581D00593
:2009C000D006D0078F828E838DF0125540FFA3125540FEA3125540FD8090E58124F8F87498
:2009E0000326FAE40836FB0886048A828B838CF0125540FDA3125540FEA3125540FFED4E1F
:200A00007003020A95E58124F8F8E58124F2F9E7C0E009E7C0E009E7C0E08682088683080B
:200A200086F01227E91581158115816068E58124F8F8900CADE6F008E6A3F008E6A3F08A6F
:200A4000828B838CF0125540FAA3125540FBA3125540FCE58124F8F8740626FDE40836FE27
:200A6000088607C004C003C002E4C0E0C0E0C0E07483C0E0C002C003C0048D828E838FF055
:200A8000D002D001D0001210DFE58124FCF581D002D003D004900CAAE0FDA3E0FEA3E0FF47
:200AA000E58124F8F8C005C006C00786820886830886F01227E915811581158160028022EB
:200AC0008D828E838FF0125540FAA3125540FBA3125540FC900CAAEAF0EBA3F0ECA3F0022C
:200AE0000B7FE58124FBF8A60508A60608A607E58124FBF8E608467003020B7FE58124FBA6
:200B0000F886820886830886F0125540FAA3125540FBA3125540FCE58124F8F8C002C0031B
:200B2000C00486820886830886F01227E915811581158160028038E58124F8F8868208864C
:200B4000830886F0125540FDA3125540FEA3125540FFE58124FBF886820886830886F0ED5E
:200B6000124F55A3EE124F55A3EF124F558010E58124FBF8A60208A60308A604020AEFA875
:200B8000811818900CADE6F008E6A3F008E6A3F0E58124F7F5810210F1C082C083C0F0054F
:200BA0008105810581E58124FBF8740826FAE40836FB0886048A828B838CF0125540FF2084
:200BC000E003020CF4E58124FBF8A9811919740326F7E4083609F70809E6F7A881181886D4
:200BE000820886830886F0125540FDA3125540FEA3125540FFED4E7003020CF4E58124FB7A
:200C0000F8900CADE6F008E6A3F008E6A3F08A828B838CF07402124F55A881181886820890
:200C200086830886F0125540FDA3125540FEA3125540FFC002C003C004E58124F8F87406BB
:200C400026FAE40836FB088604C007C006C004C003C002E58124ECF8E6C0E008E6C0E00865
:200C6000E6C0E0E58124ECF8E6C0E0C005C006C0078A828B838CF0D002D001D0001210DF9E
:200C8000AD82E58124FCF581D002D003D004D006D007ED3395E0FFBD020BBF0008D004D03A
:200CA00003D0028016D004D003D002BD0305BF00028008E58124F7F8B6832EE58124FBF8E5
:200CC000E6C0E008E6C0E008E6C0E0E58124F8F886820886830886F078B079087A0012101C
:200CE000DF158115811581800B8A828B838CF07401124F55E58124FAF5810210F1AD82AE2D
:200D000083AFF0900CADE0C0E0A3E0C0E0A3E0C0E08D828E838FF078B079087A001210DFDF
:200D20001581158115810210F1900326748AF0900328E4F0900327F0900CAAF0A3F0A3F0B2
:200D4000900CADF0A3F0A3F00210F1058105810581900409E4F0900CAAE0FDA3E0FEA3E007
:200D6000FFA8811818A60508A60608A607A8811818E608467003020DFEA8811818740926FE
:200D8000FAE40836FB0886048A828B838CF0125540604AA8811818740826FDE40836FE08A3
:200DA00086078D828E838FF07401124F558A828B838CF0E4124F55C0E0C0E0C0E07482C016
:200DC000E0E58124FAF886820886830886F07899790B7A001210DFE58124FCF581A88118D3
:200DE0001886820886830886F01255401818F6A312554008F6A312554008F6020D6D1581D5
:200E0000158115810210F1E5812404F581900327E0FAE07003020F5D900328E0FE75F00745
:200E2000A4FCADF02429F582ED3403F583E58124FDF8E0F6EC2429FCED3403FD8C828D834C
:200E4000A3A8811818E0F6A3E008F6A3E008F68C828D83A3A3A3A3E0FCA3E0FDA3E0FF7BBB
:200E6000000EBE00010BC007C005C004C0027420C0E0E4C0E08E828B8312555CAB8215812C
:200E80001581D002D004D005D007900328EBF0EA14900327F0EC4D707C900CAAE0FAA3E064
:200EA000FBA3E0FEEA4B7003020F5D900409E06015C006C003C002784B790D7A001210DF9F
:200EC000D002D003D006C006C003C002E58124FBF8E6C0E008E6C0E008E6C0E0E58124F7AC
:200EE000F8E6C0E08A828B838EF07899790B7A001210DFE58124FCF581D002D003D0068ACB
:200F0000828B838EF0125540FAA3125540FBA3125540FE808FE58124FDF8B6811474082C14
:200F2000FAE43DFB8F068A828B838EF07401124F55A8811818E6C0E008E6C0E008E6C0E048
:200F4000E58124FAF8E6C0E08C828D838FF07899790B7A001210DFE58124FCF581E581245C
:200F6000FCF5810210F1900409E06009784B790D7A001210DF7807790E7A001210DF90033E
:200F800027E0FF7E00900409E0FD7C002FFFEC3EFE8F828E830210F1900327E0FF7E0090B5
:200FA0000409E0FD7C002FFFEC3EFE8F828E830210F1AD82AE83AFF0900327E0FCBC2005DA
:200FC0009000018058900328E02C541FFC75F007A42429F582740335F0F583E58124FDF80B
:200FE000E6F0EC75F007A42429FB740335F0FC8B828C83A3E58124FAF8E6F008E6A3F008A5
:20100000E6A3F08B828C83A3A3A3A3EDF0EEA3F0EFA3F0900327E02401F09000000210F18D
:20102000AD82AE83AFF0900CADE0FAA3E0FBA3E0FCC004C003C002E58124F7F8E6C0E00841
:20104000E6C0E008E6C0E0E58124F7F8E6C0E08D828E838FF07899790B7A001210DFE58168
:2010600024FCF581D002D003D004900CADEAF0EBA3F0ECA3F00210F1AD82AE83AFF0ED4E04
:20108000603174082DFAE43EFB8F048A828B838CF0125540FCBC01028003BC021674092D73
:2010A000FDE43EFE8D828E838FF07401124F55900409F00210F1AD82AE83AFF074082DFD14
:2010C000E43EFE8D828E838FF0125540FDB40100B39200E433FE7F008E828F830210F1C03A
:2010E0009FC8C0E0E9C0E0EA540F539FF0429FC822D09F22AD82AE83AFF07B007C00EB2DC7
:20110000F8EC3EF98F02888289838AF0125540F8A3125540F9A3125540FAE8496039C007DC
:20112000C006C005C004C003E4C0E0C0E0C0E0888289838AF078A579077A001210DF15819B
:2011400015811581D003D004D005D006D00774032BFBE43CFC80A70210F1AD82AE83AFF058
:201160007B007C00EB2DF8EC3EF98F02888289838AF0125540F8A3125540F9A3125540FAFE
:20118000E849602C888289838AF0C007C006C005C004C00378FD790C7A001210DFD003D011
:2011A00004D005D006D00774032BFBE43CFC80B40210F1AE82AF83C2AF8E048F051EBEFFE5
:2011C000011FEC4D60030080F0D2AF0210F1AE82AF83C007C006781579127A001210DFAC31
:2011E00082AD83D006D007C007C006C005C004781579127A001210DFAA82AB83D004D005E4
:20120000D006D007EAC39CFAEB9DFBC3EA9EEB9F40D50210F1850F828510830210F1AC1180
:20122000AD127E007F008C828D838EF0EF0210F175C6C053C6BFE59E20E6FB43C630E5C629
:20124000B59EFB900000E595F0E4A3F0A3F0A3F0AC967D007E008E078D068C057C009000A7
:2012600000E0F8A3E0F9A3E0FAA3E0FB900000EC28F0ED39A3F0EE3AA3F0EF3BA3F0AC9717
:201280007D008D078C067C007D00900000E0F8A3E0F9A3E0FAA3E0FB900000EC28F0ED3919
:2012A000A3F0EE3AA3F0EF3BA3F0900000E0FCA3E0FDA3E0FEA3E0FF900000ECF074012D26
:2012C000A3F0E43EA3F0E43FA3F0900000E0A3E0A3E0FEA3E08E97900000E0A3E0FDA3E081
:2012E000A3E08D96900000E0FCA3E0FDA3E0FEA3E0FF8C95D2AD0210F1C0E0C082C083C0D1
:2013000007C006C005C004C003C002C001C000C0D075D000C2AF900000E595F0E4A3F0A317
:20132000F0A3F0AC967D007E008E078D068C057C00900000E0F8A3E0F9A3E0FAA3E0FB9049
:201340000000EC28F0ED39A3F0EE3AA3F0EF3BA3F0AC977D008D078C067C007D00900000E9
:20136000E0F8A3E0F9A3E0FAA3E0FB900000EC28F0ED39A3F0EE3AA3F0EF3BA3F0900000C9
:20138000E0FCA3E0FDA3E0FEA3E0FF900000ECF074012DA3F0E43EA3F0E43FA3F090000052
:2013A000E0A3E0A3E0FEA3E08E97900000E0A3E0FDA3E0A3E08D96900000E0FCA3E0A3E016
:2013C000A3E08C957401250FF50FE43510F510AE0FAF10EE547F6002800B74012511F511B3
:2013E000E43512F5129004DB7401F0C2C7D2AFD0D0D000D001D002D003D004D005D006D0A8
:2014000007D083D082D0E03275E40975AF0075E644C2DED2B90210F1AE82AF8353E6FB8EC7
:20142000DC8FDD43E60475AF0043E6400210F1C020C0E0C0F0C082C083C007C006C005C0E0
:2014400004C003C002C001C000C0D075D000C2B953AFFD53E6BF7893799E7A011210DFD2CB
:20146000B9D0D0D000D001D002D003D004D005D006D007D083D082D0F0D0E0D02032C082FE
:20148000C083C0F0900D09E0FAA3E0FBA3E0FC8A828B838CF0782B79A77A011210DFAA82DB
:2014A000AB83ACF0EA4B606D74032AFDE43BFE8C07C004C003C002E58124FBF8E6C0E008BE
:2014C000E6C0E008E6C0E08D828E838FF0783679927A011210DFAE82AF8315811581158100
:2014E000D002D003D004EE4F60088A828B838CF080298A058B068C078D828E838FF078C401
:2015000079AC7A011210DFAD82AE83AFF08D028E038F04808F90000075F000158115811533
:20152000810210F190796CE493FDA3E493FEA3E493FFC007C005C006C007D002D001D00081
:201540001210DFAD82AE83D0078D048E07ED4E70037C01FF8C828F830210F10581058105CF
:2015600081AD82AE83AFF0ED4E700302160C74202DFAE43EFB8F048A828B838CF012554071
:20158000FAA3125540FBA3125540FC8A828B838CF0C007C006C005782B79A77A011210DF9F
:2015A000AA82AB83ACF0D005D006D007A8811818A60208A60308A604A8811818E608466062
:2015C0004B907960E493FAA3E493FBA3E493FCC004C003C002E58124FBF8E6C0E008E6C0C1
:2015E000E008E6C0E0C005C006C007C002C003C004901DF475F000D002D001D0001210DF68
:20160000E58124FAF581D002D003D0041581158115810210F105810581AD82AE83AFF07413
:201620001C2DFAE43EFB8F048A828B838CF0125540FCBC040050068C037C0080047B047CDE
:2016400000C005C006C0078BF005F07B017C008006EB2BFBEC33FCD5F0F71BBBFF011CC0B0
:2016600006C005C004C003782479157A001210DFAA82AF83D003D004D005D006C005C0023C
:20168000C0078B828C83124F70AE82AF8315811581D005E58124FCF8A60608A607D007D0AD
:2016A00006D005A88118E60846603CC007C006C005782579E37A011210DFAB82AC83E581B5
:2016C00024FCF8E6C0E008E6C0E08B828C831255F7AB82AC8315811581D005D006D007A8B2
:2016E0008118A60308A6048D028E038F0474052DFDE43EFEC002C003C004745BC0E074153F
:20170000C0E07400C0E0E58124F9F8E6C0E008E6C0E08D828E838FF078FC79C27A0112109B
:20172000DFE58124F8F581158115810210F1C082C083C0F0058105810581E58124F5F8E67F
:2017400008467003021970E58124F5F8A9811919E6F70809E6F70809E6F7E58124FBF874C0
:201760002026FDE40836FE0886078D828E838FF0125540FAA3125540FBA3125540FCC007DF
:20178000C006C005E58124FBF8E6C0E008E6C0E008E6C0E08A828B838CF0789279AA7A0161
:2017A0001210DF158115811581D005D006D007E58124F5F8A9811919E6F70809E6F7080935
:2017C000E6F7A8811818740326FAE40836FB0886048A828B838CF0125540FAA3125540FB11
:2017E000A3125540FC8A828B838CF0C007C006C005788279F07A011210DFD005D006D0075A
:20180000A8811818740626FAE40836FB0886048A828B838CF0125540FAA3125540FBA312F5
:201820005540FCC007C006C005C002C003C004900CFC75F000789F798E7A011210DF15814F
:2018400015811581D005D006D007E58124F5F88602088603088604C007C006C005C002C0E4
:2018600003C004900CF275F000789F798E7A011210DF158115811581D005D006D0078D82C1
:201880008E838FF0125540FDA3125540FEA3125540FF8D828E838FF0782B79A77A01121084
:2018A000DFAD82AE83ED4E604DE58124FBF8741B26FDE40836FE0886078D828E838FF0E49A
:2018C000124F55E58124FBF8741C26FDE40836FE0886078D828E838FF0E4124F55E58124AA
:2018E000FBF886820886830886F0781579167A001210DF021970E58124FBF8740526FDE43F
:201900000836FE0886078D828E838FF078C579C57A011210DFE58124FBF8860508860608BC
:201920008607900D09E0FAA3E0FBA3E0FCC005C006C0078A828B838CF0789279AA7A0112FB
:2019400010DF158115811581E58124FBF88605088606088607C005C006C007900CE875F06A
:2019600000789F798E7A011210DF158115811581E58124FAF5810210F1C082C083E58124FF
:2019800009F58124F0F8860308860408860574062BFAE43CFE8D078A828E838FF01255407A
:2019A000FAA3125540FEA3125540FF8A828E838FF0E58124FBF8125540F6A312554008F69E
:2019C000A312554008F674032AFAE43EFE8A828E838FF0A8811818125540F6A31255400820
:2019E000F6A312554008F6E58124EDF8E58124F8F9E6F70809E6F70809E6F7E58124F8F88C
:201A0000741B26FAE40836FE0886078A828E838FF0125540FAC002E58124F5F8E6C0E0085E
:201A2000E6C0E0C003C004C005E58124F2F886820886830886F0782E79177A001210DFE533
:201A40008124FBF5817F00C007E58124F4F8E6C0E008E6C0E0E58124FAF8E6C0E008E6C0F0
:201A6000E008E6C0E0E58124F4F886820886830886F0782079E57A011210DFE58124F924D2
:201A8000F5F5810210F1AD82AE83AFF0E58124FBF886820886830886F0C007C006C00578FB
:201AA0001579167A001210DFD005D006D00774032DFDE43EFE8D828E838FF0125540FDA3DE
:201AC000125540FEA3125540FF8D828E838FF0789979EF7A011210DF0210F1C082C083C03C
:201AE000F0E5812406F58124F8F8740626FAE40836FB0886048A828B838CF0125540FAA3B9
:201B0000125540FBA3125540FCA8811818A60208A60308A604E58124F2F8860208860308E4
:201B20008604E58124FBF8741C2AF6E43B08F608A604E58124FBF886820886830886F012F9
:201B40005540FFE58124F0F8E62FFEE58124FBF886820886830886F0EE124F55E58124FB2F
:201B6000F886820886830886F012554024FA503BE58124FBF886820886830886F0E4124F2D
:201B800055741B2AFDE43BFE8C07C002C003C0048D828E838FF0125540FC0C8D828E838F44
:201BA000F0EC124F55D004D003D002741B2AFDE43BFE8C078D828E838FF0125540FDC002AF
:201BC000C003C004E58124FBF8740626FCE40836FE0886078C828E838FF0125540FCC3EDBF
:201BE0009CD004D003D002402AC002C003C004E58124F5F8E6C0E008E6C0E008E6C0E09074
:201C00000001787979197A001210DFE58124FAF5818022C002C003C004E58124F5F8868261
:201C20000886830886F07886791A7A001210DF158115811581E58124F7F5810210F1C0820B
:201C4000C083C0F0E5812406F58124F8F8740626FAE40836FB0886048A828B838CF0125531
:201C600040FAA3125540FBA3125540FCA8811818A60208A60308A604E58124F2F886020837
:201C80008603088604741C2AFDE43BFE8C078D828E838FF0E4124F55E58124FBF8741B2A53
:201CA000F6E43B08F608A604E58124FBF886820886830886F0125540FFE58124F0F8E62F1E
:201CC000FEE58124FBF886820886830886F0EE124F55E58124FBF886820886830886F0E555
:201CE0008124FBF9125540F7A8811818740626FDE40836FE0886078D828E838FF0125540BC
:201D0000FDE58124FBF8C3E69D402AC002C003C004E58124F5F8E6C0E008E6C0E008E6C017
:201D2000E0900002787979197A001210DFE58124FAF5818022C002C003C004E58124F5F8D7
:201D400086820886830886F07886791A7A001210DF158115811581E58124F7F5810210F124
:201D6000C082C083C0F0058105810581E58124F5F88602088603088604741C2AFDE43BFEA6
:201D80008C078D828E838FF0E4124F55A8811818741B2AF6E43B08F608A604A881181886C1
:201DA000820886830886F0125540FFE58124F3F8E62FFEA881181886820886830886F0EE06
:201DC000124F55C002C003C004E58124F8F8E6C0E008E6C0E008E6C0E090000078797919D5
:201DE0007A001210DFE58124FAF581E58124FAF5810210F1058105810581AD82AE83AFF0E0
:201E0000ED4E700302204174202DFAE43EFB8F048A828B838CF0125540FAA3125540FBA327
:201E2000125540FC8A828B838CF0C007C006C005782B79A77A011210DFAA82AB83ACF0D012
:201E400005D006D007A8811818A60208A60308A604A8811818E608467003021F0EC005C0B8
:201E600006C007E58124FBF8740326FDE40836FE0886078D828E838FF0125540FDA312557C
:201E800040FEA3125540FFC005740AC0E08D828E838FF078B479F27A011210DFAE82AF83C4
:201EA0001581D00575820AC007C006781579BF7A011210DFAC82AD83D006D007EEB5040C2A
:201EC000EFB50508D007D006D0058042D007D006D005A881181886020886030886048A827B
:201EE0008B838CF0C007C006C00578C479AC7A011210DFAA82AB83ACF0D005D006D007A809
:201F0000811818A60208A60308A604021E51A8811818E608467003022041A881181874065E
:201F200026FAE40836FB0886048A828B838CF0125540FAA3125540FBA3125540FCEA4B706B
:201F400003022041E58124F9F8B6000608B60002802FE58124F9F8B6010708B60003021F5A
:201F6000E2E58124F9F8B6020608B600028043E58124F9F8B6030708B60003022041022042
:201F800012E58124F7F8E6C0E008E6C0E0C005C006C007E58124F9F886820886830886F03E
:201FA0007860791D7A001210DFE58124FBF581022041E58124F7F8E6C0E008E6C0E0C00588
:201FC000C006C007E58124F9F886820886830886F0783E791C7A001210DFE58124FBF581A1
:201FE000805FE58124F7F8E6C0E008E6C0E0C005C006C007E58124F9F88682088683088601
:20200000F078DB791A7A001210DFE58124FBF581802FC005C006C007E58124FBF8E6C0E070
:2020200008E6C0E008E6C0E0E58124F3F88682088683787979197A001210DFE58124FAF57F
:20204000811581158115810210F1C082C083C0F0E5812412F58175821B786E79BF7A011236
:2020600010DFAA82AB83ACF0E58124FBF8A60208A60308A6049005CBE0701C9005CB740152
:20208000F0782579E37A011210DFE5828583F09005CCF0E5F0A3F09005CCE0FBA3E0FC9078
:2020A00005CCE0F5F0A3E045F0700B9005CC74012BF0E43CA3F09005CCE0FBA3E0FC900563
:2020C000CC74012BF0E43CA3F0C003C00475820A78F379BE7A011210DF15811581E5812495
:2020E000FBF886820886830886F0787E79147A001210DFAA82AB83ACF0E58124F8F8A60240
:2021000008A60308A604E58124F8F8E608466003022233900CE875F0007851798D7A0112AF
:2021200010DFAD82AE83AFF0E58124F8F8A60508A60608A607E58124F8F8E6084670030200
:202140002233E58124F8F8740326FDE40836FE088607E58124FBF8E6C0E008E6C0E008E6E2
:20216000C0E08D828E838FF078FE79917A011210DF158115811581E58124F8F8741B26FD36
:20218000E40836FE0886078D828E838FF0E4124F55E58124F8F8741C26FDE40836FE088676
:2021A000078D828E838FF0E4124F55E58124F8F8742026FDE40836FE088607E58124F8F87F
:2021C000741D26FAE40836FB0886048D828E838FF0EA124F55A3EB124F55A3EC124F558A4D
:2021E000828B838CF0E4124F55A3124F55A3124F558A828B838CF0781679A77A011210DFC7
:20220000E58124F8F88602088603088604900D09E0FDA3E0FEA3E0FFC002C003C0048D82BB
:202220008E838FF078C279A77A011210DF158115811581E58124F8F8E6084670030226B578
:20224000E58124F8F8742026FAE40836FB0886048A828B838CF0125540FDA3125540FEA37C
:20226000125540FF8D828E838FF0C004C003C00278D779AB7A011210DFAE82AF83D002D0DD
:2022800003D004C3EE9408EF6480948040030226B5900CF275F000C004C003C00278517995
:2022A0008D7A011210DFAD82AE83AFF0D002D003D004E58124F5F8A60508A60608A607E52D
:2022C0008124F5F8E60846700302262EE58124F5F8E58124EFF9740626F7E4083609F708C5
:2022E00009E6F7900CFC75F000C004C003C0027851798D7A011210DFAD82AE83AFF0D00296
:20230000D003D004E58124EFF886820886830886F0ED124F55A3EE124F55A3EF124F55EDEF
:202320004E70030225FAE58124F5F8E58124F2F9740326F7E4083609F70809E6F7C004C0A7
:2023400003C002783279EE7A011210DFAD82AE83AFF0D002D003D004E58124F2F88682082F
:2023600086830886F0ED124F55A3EE124F55A3EF124F55ED4E70030225B8E58124EFF88620
:20238000820886830886F0125540FDA3125540FEA3125540FFA8811818A60508A60608A691
:2023A00007758209C004C003C002781579BF7A011210DFE5828583F0D002D003D00445F07F
:2023C0007029C002C003C004E58124FBF8740626FAE40836FB0886048A828B838CF0740843
:2023E000124F55D004D003D0028044C002C003C004E58124FBF8740626FDE40836FE0886D9
:2024000007758209C007C006C005C002781579BF7A011210DFAB82D002D005D006D0078D52
:20242000828E838FF0EB124F55D004D003D002A881181886820886830886F0E58124ECF911
:20244000E7124F55A309E7124F55A309E7124F55A8811818740326FDE40836FE0886078D18
:20246000828E838FF0E58124E6F8E6124F55A308E6124F55A308E6124F5575820DC004C030
:2024800003C002781579BF7A011210DFAE82AF83D002D003D004BE015EBF005BE58124F5A5
:2024A000F8E58124F2F9E6F70809E6F70809E6F78A828B838CF0125540FDA3125540FEA3D1
:2024C000125540FFC004C003C002E58124EFF8E6C0E008E6C0E008E6C0E08D828E838FF05B
:2024E00078A779A87A011210DF158115811581D002D003D0048059E58124F5F8E58124F219
:20250000F9E6F70809E6F70809E6F78A828B838CF0125540FDA3125540FEA3125540FFC07E
:2025200004C003C002E58124EFF8E6C0E008E6C0E008E6C0E08D828E838FF078C279A77A8C
:20254000011210DF158115811581D002D003D0048A828B838CF0125540FDA3125540FEA319
:20256000125540FF8D828E838FF0782B79A77A011210DFAC82AB83AAF0E58124F5F88605DF
:20258000088606088607C005C006C0078C828B838AF01227E915811581158160028016E569
:2025A0008124F8F886820886830886F0781579167A001210DF0226EFE58124EFF8868208C0
:2025C00086830886F0125540FDA3125540FEA3125540FFC004C003C002C005C006C0079014
:2025E0000CFC75F000789F798E7A011210DF158115811581D002D003D004E58124F5F8869C
:2026000005088606088607C004C003C002C005C006C007900CF275F000789F798E7A011253
:2026200010DF158115811581D002D003D0048A828B838CF0125540FAA3125540FBA31255EA
:2026400040FC8A828B838CF078D779AB7A011210DFE5828583F045F0705BE58124F8F8865A
:2026600002088603088604900D09E0FDA3E0FEA3E0FFC002C003C0048D828E838FF07892BD
:2026800079AA7A011210DF158115811581E58124F8F88602088603088604C002C003C0046B
:2026A000900CE875F000789F798E7A011210DF1581158115817401C0E0E4C0E07404C0E024
:2026C000E4C0E0E58124E2F8E6C0E008E6C0E008E6C0E0E58124E5F886820886830886F072
:2026E000782079E57A011210DFE58124F9F581E58124EBF5810210F1907980E493FDA3E4FD
:2027000093FEA3E493FFC007C006C005C005C006C007D002D001D0001210DFD005D006D07C
:20272000070210F1907966E493FDA3E493FEA3E493FFC007C005C006C007D002D001D000EF
:202740001210DFAD82AE83D0078D828E830210F1AE82AF83907969E493FBA3E493FCA3E43B
:2027600093FDC005C003C004C0058E828F83D002D001D0001210DFAB82AC83D0058B828C58
:20278000830210F190796CE493FDA3E493FEA3E493FFED4E601DC007C005C006C007D002F6
:2027A000D001D0001210DFAD82AE83D0078D828E8380039000000210F1900CF275F000789F
:2027C0004B798C7A011210DF900CFC75F000784B798C7A011210DF900CE875F000784B79C7
:2027E0008C7A011210DF0210F1E58124FCC3C8C0E0C082E608467006E5824583601218E593
:202800008296F58208E58396428208E5F0964582D082C8D0E0C822AD82AE83AFF0E58124E8
:20282000FCF886048D828E838FF0EC124F550DBD00010EE58124FCF80886048D828E838F41
:20284000F0EC124F550210F1AD82AE83AFF074012DFAE43EFB8F048A828B838CF01255405B
:20286000FC7A008D828E838FF0125540FD7F004202EF42048A828C830210F1AD82AE83AF7A
:20288000F0125540FB7C000DBD00010E8D828E838FF0125540FD7F004204EF4203E581248B
:2028A000FCF886078FF005F08006EC2CFCEB33FBD5F0F78B047B00E58124FAF8E62445F5EA
:2028C0008208E63479F583E4937E005204EE5203E58124FAF886077408C39FFF8FF005F07B
:2028E0008007C3EB13FBEC13FCD5F0F68C820210F1C082C083C0F0E5812407F58124EDF889
:20290000C3E6940808E6648094805048E58124EDF8E6C0E008E6C0E0E58124EDF8E6C0E07C
:2029200008E6C0E0E58124EDF886820886830886F0787B79287A001210DFAC82E58124FC40
:20294000F58124F7F886820886830886F0EC124F55022BB0E58124EFF8E608466003022AA4
:202960006D7408C0E0E4C0E0E58124EBF88682088683125676AB82AC8315811581E58124D4
:20298000FDF8E4F608F6E58124FDF8C3E69B08E664808CF063F08095F05052C003C004E5F3
:2029A0008124F5F8E58124FBF9E726FC09E70836FD088606E58124EFF8E58124FBF9E72643
:2029C000FA09E70836FB0886078A828B838FF0125540FA8C828D838EF0124F55E58124FB2E
:2029E000F806B600020806D004D0038099E58124EDF8740756FE7F004F7003022BB0E58191
:202A000024F7F8E58124FDF9E726C0E009E70836C0E008E6C0E0E58124F9F8D0E0F618D011
:202A2000E0F618D0E0F6E58124F1F8E58124FDF9E726FA09E70836FC088605C006C007E4DA
:202A4000C0E0C0E08A828C838DF0787B79287A001210DFAF82E58124FCF58124FAF8868244
:202A60000886830886F0EF124F55022BB07408C0E0E4C0E0E58124EBF886820886831256B7
:202A800076AE82AF8315811581E58124FDF8E4F608F6E58124FDF8C3E69E08E664808FF0C4
:202AA00063F08095F04003022B2AC006C007E58124F5F8E58124FBF9E726FA09E70836FB72
:202AC000088607E58124EFF8E58124FBF9E726FC09E70836FD088606C007C003C0027408E2
:202AE000C0E0E4C0E0E58124E8F8E6C0E008E6C0E08C828D838EF0787B79287A001210DF89
:202B0000AE82E58124FCF581D002D003D0078A828B838FF0EE124F55E58124FBF806B60097
:202B2000020806D007D006022A92E58124EDF8A98119740756F7097700A88118E60846604B
:202B40006FE58124F7F8E58124FDF9E726FB09E70836FC088605E58124F1F8E58124FDF955
:202B6000E726FA09E70836FE088607C005C004C003E58124FCF8E6C0E008E6C0E0E5812425
:202B8000EAF8E6C0E008E6C0E08A828E838FF0787B79287A001210DFAF82E58124FCF58167
:202BA000D003D004D0058B828C838DF0EF124F55E58124F6F5810210F105810581AD82AE79
:202BC00083AFF0A88118E4F608F68D828E838FF0125540602874012DFAE43EFB8F048A8294
:202BE0008B838CF0125540FA7C00A88118EA26F6EC0836F674022DFDE43EFE80CDA8811879
:202C00008682088683158115810210F1C082C083C0F0E58124F8F886037C00E58124F9F83D
:202C200086027410C39AFAE58124F6F88607EAC39FFA8AF005F08006EB2BFBEC33FCD5F000
:202C4000F7A881181886820886830886F0125540FF8C06EE4207A8811818868208868308A4
:202C600086F0EF124F55A8811818740126FDE40836FE0886078D828E838FF0125540FAEB68
:202C800042028D828E838FF0EA124F551581158115810210F1C082C083C0F0E5812404F534
:202CA0008124F0F8C3E6940808E6648094805050E58124F2F886020886030886048A828B06
:202CC000838CF0125540FAE58124F0F8E6C0E008E6C0E0C002E58124F2F8E6C0E008E6C064
:202CE000E0E58124F5F886820886830886F0780C792C7A001210DFE58124FBF581022F38DE
:202D0000E58124F5F8E608466003022E147408C0E0E4C0E0E58124EEF886820886831256D0
:202D200076AB82AC8315811581E58124FDF8E4F608F6E58124FDF8C3E69B08E664808CF02D
:202D400063F08095F05052C003C004E58124F8F8E58124FBF9E726FC09E70836FD08860632
:202D6000E58124F0F8E58124FBF9E726FA09E70836FB0886078A828B838FF0125540FA8CD8
:202D8000828D838EF0124F55E58124FBF806B600020806D004D0038099E58124F0F8740777
:202DA00056FE7F004F7003022F38E58124F2F8E58124FDF9E726FB09E70836FC0886058BD1
:202DC000828C838DF0125540FB8E057408C39DF5F005F0EB8002C313D5F0FBFBE58124FA78
:202DE000F8E58124FDF9E726FA09E70836FC088605C006C007C003E4C0E0C0E08A828C8308
:202E00008DF0780C792C7A001210DFE58124FBF581022F387408C0E0E4C0E0E58124EEF81D
:202E20008682088683125676AE82AF83158115817C007D00C3EC9EED64808FF063F080950F
:202E4000F05072C006C007E58124F0F8EC26FAED0836FB0886078A828B838FF0125540FAC0
:202E6000E58124F8F8EC26FBED0836FE088607C007C006C005C0047408C0E0E4C0E0C00295
:202E8000E58124ECF8E6C0E008E6C0E08B828E838FF0780C792C7A001210DFE58124FBF5F5
:202EA00081D004D005D006D0070CBC00010DD007D006022E34E58124F0F8A98119740756CE
:202EC000F7097700A88118E60846606CE58124F2F8EC26FAED0836FB0886078A828B838F56
:202EE000F0125540FAA8811886067408C39EFEE58124F5F8E62EF5F005F0EA8002C313D51D
:202F0000F0FBFAE58124FAF8EC26FCED0836FD088607A88118E6C0E008E6C0E0C002E4C0CA
:202F2000E0C0E08C828D838FF0780C792C7A001210DFE58124FBF581E58124F9F5810210CA
:202F4000F1C082C083C0F0E5812418F58124E6F8740826FAE40836FB0886048A828B838C40
:202F6000F0125540FA7C00C004C0027408C0E0E4C0E08A828C83125676AF82AE8315811518
:202F800081D002D0045302077C00EA4C7004FBFC80047B017C00EB2FFBEC3EFCE58124F15F
:202FA000F8A60308A604E58124F1F8740226FAE40836FF8A828F8378FF79BB7A011210DF4F
:202FC000E5828583F045F070069000000232EB784A79BD7A011210DFAA82AB83ACF0E58168
:202FE00024FCF8A60208A60308A604E58124E6F8740326FDE40836FE0886078D828E838F48
:20300000F0125540FCE58124FCF886820886830886F0EC124F55E58124FCF8740126FAE46F
:203020000836FB0886048D828E838FF0125540A31255408A828B838CF0124F55784A79BDF1
:203040007A011210DFAD82AE83AFF0E58124F9F874022DF6E43E08F608A607E58124F9F891
:203060008602088603088604E58124F1F8E6C0E008E6C0E0E4C0E08A828B838CF078017912
:20308000537A001210DF158115811581E58124F5F8E4F608F6E58124E6F8740526FAE40864
:2030A00036FE0886078A828E838FF0125540FDA3125540FEA3125540FFAA811AE58124E9BE
:2030C000F8A6028D828E838FF0E58124EBF8125540F6E58124EBF8E670030232E8C002748F
:2030E000012DFAE43EFB8F048A828B838CF0125540FAE58124F6F8A602087600C007C00696
:20310000C005C0027408C0E0E4C0E0E58124EEF88682088683125676AB82AC831581158199
:20312000D002D005D006D007E58124F2F8A60308A604E58124EAF8B61A00D00250030231D8
:20314000EAC002E58124EAF88682C007C006C005786E79BF7A011210DFAA82AB83ACF0D09D
:2031600005D006D007E58124EBF8A60208A60308A604E58124F4F8E58124EEF9740756F776
:20318000097700E58124F8F8E58124F2F9E726FA09E70836FB088604C007C006C005C002EA
:2031A000E58124F2F8E6C0E008E6C0E0E58124E5F8E6C0E008E6C0E008E6C0E0E58124E50F
:2031C000F8E6C0E008E6C0E08A828B838CF07895792C7A001210DFE58124F9F581D002D085
:2031E00005D006D007D0020232CCC005C006C007E58124E8F88682C007C006C005C00278FB
:203200001579BF7A011210DFAB82AC83D002D005D006D0078A057E007F40C007C006C00517
:20322000C002C003C0048D828E838FF0781779287A001210DF15811581D002D005D006D082
:2032400007E58124E6F8E58124E9F9E6F7097700097740E58124F2F8E58124ECF9740756C2
:20326000F7097700E58124F6F8E58124F0F9E726FB09E70836FC088607C007C006C005C013
:2032800002E58124F0F8E6C0E008E6C0E0E58124E3F8E6C0E008E6C0E008E6C0E0E5812415
:2032A000E3F8E6C0E008E6C0E08B828C838FF07895792C7A001210DFE58124F9F581D0028C
:2032C000D005D006D007D007D006D005E58124F5F8E58124F7F9E726F609E70836F674025C
:2032E0002DFDE43EFE0230C3900001E58124E5F5810210F1E5812414F581782379BD7A01B6
:203300001210DFAD82AE83AFF0900002C007C006C00578D279BC7A011210DFE5828583F06F
:20332000D005D006D00745F07008900000F5F002365F74012DFAE43EFB8F048A828B838C60
:20334000F0125540FC7A008D828E838FF01255407F002AFAEF3CFC8A828C83786E79B07AAC
:20336000011210DFAD82AE83AFF0E58124FCF8A60508A60608A607E58124FCF8E608467098
:2033800008900000F5F002365F782379BD7A011210DFAA82AB83ACF0E58124F9F8A60208AB
:2033A000A60308A604E58124FCF8740826FDE40836FE0886078D828E838FF0125540FD7F1E
:2033C00000C007C0057408C0E0E4C0E08D828F83125676AC82AB8315811581D005D007533B
:2033E00005077F00ED4F7004FEFF80047E017F00EE2CFEEF3BFF8E828F8378D279BC7A01B6
:203400001210DFE5828583F045F07008900000F5F002365FE4FEFFE58124FCF8740526FB9A
:20342000E40836FC0886058B828C838DF0E58124EFF8125540F6A312554008F6A3125540A2
:2034400008F6E58124EDF8A68116E58124EDF8E58124F2F9E6F7E58124EFF8868208868377
:203460000886F0125540FD7003023652E58124EFF8740126FAE40836FB0886048A828B835E
:203480008CF0125540FAE58124F7F8A602087600C007C006C0057408C0E0E4C0E08E828FDF
:2034A00083125676AB82AC8315811581D005D006D007E58124F5F8A60308A604BD1A0050A8
:2034C00003023573E58124F3F874075EF6087600C006C007E58124F7F8E58124F3F9E726F4
:2034E000FA09E70836FB088607E58124EBF886068E047D007E40C007C006E58124F3F8E666
:20350000C0E008E6C0E0E58124EDF8E6C0E008E6C0E0C002C003C0078C828D838EF078F1A9
:2035200079287A001210DFE58124F9F581D006D007E58124F0F886057E007F40E58124ED18
:20354000F886820886830886F0125540FCC007C006C005C006C0078C82783179BF7A0112DE
:2035600010DF158115811581D006D007D007D006023636A981197700E904F87600E5812433
:20358000F3F874075EF6087600C006C007E58124F7F8C001E58124F2F9E726FA09E7083682
:2035A000FB088607D00189068E047D007E40C007C006C001E58124F2F8E6C0E008E6C0E078
:2035C000E58124ECF8E6C0E008E6C0E0C002C003C0078C828D838EF078F179287A001210DB
:2035E000DFE58124F9F581D001D006D00789077E007D408F828E838DF0784879287A00121E
:2036000010DFAE82AF83E58124EDF886820886830886F0125540FDC007C006C006C0078D08
:203620008278F379BE7A011210DF15811581D006D007D007D006E58124F7F8E62EFE08E6EB
:203640003FFFE58124EFF8740226F6E40836F6023456E58124FCF886820886830886F0C8A8
:20366000E58124ECF581C80210F1C020C0E0C0F0C082C083C007C006C005C004C003C00243
:20368000C001C000C0D075D000C2AFC2C07F008FF005F07D017E008006ED2DFDEE33FED561
:2036A000F0F7ABD17C00EB5205EC5206ED4E60408F068EF005F07401800225E0D5F0FBF412
:2036C000F5D1EF75F003A424ECF582740435F0F583E0FCA3E0FDA3E0FEEC4D60138C828D69
:2036E000838EF0C007787879107A001210DFD0070FBF02004099D2AFD0D0D000D001D002FA
:20370000D003D004D005D006D007D083D082D0F0D0E0D02032AF82BF02028005BF030C8082
:2037200005758202800875820880037582000210F1900D21E0FEA3E0FF8E828F830210F144
:20374000AF83E582900D21F0EFA3F00210F1C082C083C0F0058105810581A88118E4F608B3
:20376000F6E4FAFCE58124FBF8E608467003023AFBC002C004E58124F9F8740826FAE40895
:2037800036FB0886048A828B838CF0125540FABA02028007D004D002023A32E58124F9F85B
:2037A000740726FAE40836FB0886048A828B838CF0E58124FCF8125540F6D004D002A8813F
:2037C0001818E6704FC002C004E58124F9F8740926FAE40836FB0886048A828B838CF0121F
:2037E0005540D004D002702CC002C004E58124F9F8740426FAE40836FB0886048A828B8390
:203800008CF0125540FABA0107D004D002023911D004D002A8811818E66049C002C004E5DE
:203820008124F9F8740926FAE40836FB0886048A828B838CF0125540D004D0027026C0026B
:20384000C004E58124F9F8740426FAE40836FB0886048A828B838CF0125540D004D002708F
:2038600003023911A8811818B60348C002C004E58124F9F8740926FAE40836FB0886048AC8
:20388000828B838CF0125540FABA03028006D004D002801FE58124F9F8740426FAE40836BC
:2038A000FB0886048A828B838CF0125540D004D002605EA8811818B60223C002C004E581BA
:2038C00024F9F8740926FAE40836FB0886048A828B838CF0125540D004D0027034A88118BF
:2038E00018E66031C002C004E58124F9F8740926FAE40836FB0886048A828B838CF01255EF
:2039000040FABA02028006D004D0028008D004D0027A017C00C002C004E58124F9F87404E5
:2039200026FAE40836FB0886048A828B838CF0125540D004D0026003023AABA8811818E64C
:20394000702CC002C004E58124F9F8740926FAE40836FB0886048A828B838CF0125540FA47
:20396000BA0307D004D002023A28D004D002A8811818E6702CC002C004E58124F9F874097A
:2039800026FAE40836FB0886048A828B838CF0125540FABA0207D004D002023A28D004D0B0
:2039A00002A8811818E4B6020104FB602BC002C004E58124F9F8740926FAE40836FC08863B
:2039C000078A828C838FF0125540FABA0206D004D0028054D004D002EB601FE58124FBF8DC
:2039E000740926FDE40836FE0886078D828E838FF0125540FDBD0302802EA8811818B603AD
:203A0000028003023AABE58124FBF8740926FDE40836FE0886078D828E838FF0125540FD25
:203A2000BD02028003023AABA8811876010876008079E58124FBF886820886830886F01206
:203A40005540FFBF02028063E58124FBF8740426FDE40836FE0886078D828E838FF0125559
:203A6000407026E58124FBF8740926FDE40836FE0886078D828E838FF0125540FD540360A4
:203A800008A881187601087600E58124FBF8740726FDE40836FE0886078D828E838FF01267
:203AA0005540FD540360047A017C00E58124F5F8E608466020E58124F5F8860508860608F9
:203AC00086078D828E838FF0A88118E6124F55A308E6124F55E58124F2F8E60846601CE58D
:203AE0008124F2F886050886060886078D828E838FF0EA124F55A3EC124F55E58124FAF586
:203B0000810210F1C082C083C0F0E5812404F581A88118E4F608F6E58124FAF8E6084670AF
:203B200006900000023BD5AC811C7B007A40E58124FAF8741026FDE40836FE088607C004C3
:203B4000C003C002E4C0E0C0E0C0E08D828E838FF0784E79377A001210DFE58124FAF58192
:203B6000A88118E60846606AE58124FAF8741B26FDE40836FE0886078D828E838FF0E5811E
:203B800024FDF8125540F6A312554008F6C007C006C005783179377A001210DFAA82AC83A6
:203BA000D005D006D007E58124FDF8E6B5020708E6B50402801C8D828E838FF0125540FDD8
:203BC000A3125540FEBDFF05BEFF0280059000008003900001E58124F9F5810210F1AF82C7
:203BE000BF02067E027F0080047E087F00C3E49E74808FF063F08095F050281EBEFF011FF3
:203C0000E58124FBF8EE26FBEF0836FC0886058B828C838DF0125540FBBBFF0280CF900086
:203C20000080039000010210F1C082C083C0F0058105810581E58124FBF8E60846700690EF
:203C40000000023E4FE58124FBF8741026FAE40836FB08860474092AFDE43BFE8C078D82A2
:203C60008E838FF0A8811818125540F6A8811818E66013A8811818B602067E027F00800A6C
:203C80007E087F0080047E007F00A88118A60608A607EE4F6040E58124FBF8740826FDE41F
:203CA0000836FE088607C004C003C002C005C006C007E58124F8F8868278DE793B7A001280
:203CC00010DFAE82AF83158115811581D002D003D004EE4F6043E58124F5F8E6084670035A
:203CE000023D73C004C003C002746DC0E07478C0E07480C0E0E58124EFF886820886830896
:203D000086F078FE79917A011210DF158115811581D002D003D004805AA88118B602060815
:203D2000B600028006900000023E4FE58124F5F8E60846603EE58124FBF8740826FDE408D5
:203D400036FE088607C004C003C002C005C006C007E58124EFF886820886830886F078FE81
:203D600079917A011210DF158115811581D002D003D00474072AFAE43BFB8A828B838CF033
:203D8000125540FF600FBF02067D027E00800A7D087E0080047D007E008D038E04ED4E6081
:203DA00031C004C003E58124F9F8E6C0E008E6C0E008E6C0E08F8278DE793B7A001210DF98
:203DC000AE82AF83158115811581D003D004EE4F6034E58124F2F8E608466070746DC0E04E
:203DE0007478C0E07480C0E0E58124EFF886820886830886F078FE79917A011210DF158109
:203E0000158115818046BB0205BC00028005900000803CE58124F2F8E60846602FE581249E
:203E2000FBF88605088606088607C005C006C007E58124EFF886820886830886F078FE7992
:203E4000917A011210DF158115811581900001E58124FAF5810210F1C082C083C0F0E5816A
:203E6000240AF58124EEF886020886030886047406C0E0E4C0E0C0E08A828B838CF078019C
:203E800079537A001210DF158115811581E58124F4F8741026FAE40836FB08860474052AAD
:203EA000FDE43BFE8C078D828E838FF012554020E018E58124EEF886050886060886078D46
:203EC000828E838FF07401124F5574082AFDE43BFE8C078D828E838FF0125540FDBD020050
:203EE0004003023F9B74072AFDE43BFE8C078D828E838FF0125540FD54037003023F887407
:203F0000092AFDE43BFE8C078D828E838FF0125540FD54036072C002C003C004E58124F191
:203F2000F8741D26FDE40836FE0886078D828E838FF0125540FDA3125540FEE58124F1F822
:203F4000741B26FBE40836FC0886078B828C838FF0125540FBA3125540FCEDB50306EEB52D
:203F600004028008D004D003D002801CD004D003D00274042AFDE43BFE8C078D828E838F27
:203F8000F07401124F55801374042AFDE43BFE8C078D828E838FF0E4124F55AF811FE58136
:203FA00024F7F8A607087600087640E58124FDFF7E007D40C004C003C002E58124F4F8E69F
:203FC000C0E008E6C0E008E6C0E0C007C006C0058A828B838CF0784E79377A001210DFE567
:203FE0008124FAF581D002D003D004E58124FDF8E60846601FE58124EEF88605088606086A
:20400000860774032DFDE43EFE8D828E838FF07402124F55A88118E60846601DE58124EE1D
:20402000F886050886060886070DBD00010E8D828E838FF07402124F55E58124EEF8E5815A
:2040400024F7F9E6F70809E6F70809E6F7E58124F7F8E58124FAF9740226F7E4083609F7E8
:204060000809E6F774072AFDE43BFE8C078D828E838FF0125540FD5305038D82C004C003CC
:20408000C002781579377A001210DFAF82D002D003D004E58124FAF886820886830886F0E9
:2040A000EF124F55E58124F7F8740426FDE40836FE08860774092AFAE43BFB8A828B838C31
:2040C000F0125540FA5302038A82C007C006C005781579377A001210DFAC82D005D006D038
:2040E000078D828E838FF0EC124F55E58124F3F5810210F1E5812406F581AD82AE83AFF07D
:20410000E58124FBF9FA7B007C40C001C002C003C0048D828E838FF07858793E7A00121024
:20412000DF158115811581D00187077E0074022FFFE43EFEE904F886057C00ED2FFFEC3E0C
:20414000FE740229F886057C00ED2FFFEC3EFE740329F886057C00ED2FFFEC3EFE740429FD
:20416000F886057C00ED2FFFEC3EFE740529F987057C00ED2FFFEC3EFE8F828E83E581246B
:20418000FAF5810210F1C082C083C0F00581E58124F7F88602088603088604E58124FDF84E
:2041A00086820886830886F0125540FFA88174075FF6E58124FDF8740126FDE40836FE088A
:2041C00086078D828E838FF01255405401C40354F8A88146F6E58124FDF8740226FDE4083B
:2041E00036FE0886078D828E838FF01255405401C454F0A88146F6E58124FDF8740326FDD5
:20420000E40836FE0886078D828E838FF01255405401C42354E0A88146F6E58124FDF874DB
:204220000426FDE40836FE0886078D828E838FF01255405401030354C0FDA881E642058A10
:20424000828B838CF0ED124F550ABA00010BE58124FDF8740526FDE40836FE0886078D8200
:204260008E838FF0125540FDA88174015DF6E58124FDF8740626FDE40836FE0886078D8239
:204280008E838FF0125540540125E0A88146F6E58124FDF8740726FDE40836FE0886078DC9
:2042A000828E838FF0125540540325E025E0A88146F6E58124FDF8740826FDE40836FE0839
:2042C00086078D828E838FF01255405403C454F0A88146F6E58124FDF8740926FDE4083606
:2042E000FE0886078D828E838FF01255405403030354C0FDA881E642058A828B838CF0ED9E
:20430000124F55E58124FCF5810210F1C082C083C0F0E581240CF58124FBF9FA7B007C405E
:20432000C001C002C003C004E58124EEF886820886830886F07858793E7A001210DF1581D4
:2043400015811581D001E58124F2F8741026FAE40836FB088604C001E58124EBF8E6C0E0E5
:2043600008E6C0E008E6C0E08A828B838CF0788679417A001210DF158115811581D0017C49
:20438000028703BB014CC0017C03E58124EBF8C001E58124F3F9740226F7E4083609F708E8
:2043A00009E6F7D001E58124F1F8741A26FDE40836FE0886078D828E838FF0125540FDE545
:2043C0008124F4F886820886830886F0ED124F55D001E904F88607BF02028002807BC001CE
:2043E000EC04FFE58124EBF8EC26FEE40836FD088602E58124F1F8C001E58124F6F9741B66
:2044000026F7E4083609F70809E6F7D001E58124F7F886820886830886F01255408E828D4A
:20442000838AF0124F55EF04FCE58124EBF8EF26FBE40836FE088607E58124F7F88682081F
:2044400086830886F0125540A3125540FDFA8B828E838FF0124F55D001740229F886078F16
:20446000067F008C05C3E49E74808FF063F08095F05053C001E58124EBF8C001E58124F604
:20448000F9ED26F7E4083609F70809E6F7D0010D8E041CE58124F1F8EC26FCE40836FB08D7
:2044A00086028C828B838AF0125540FCE58124F7F886820886830886F0EC124F551EBEFFAE
:2044C000011FD001809FE58124F8F8A605740329F88606BE02028003024558C001ED04FFEE
:2044E000E58124EBF8C001E58124F6F9ED26F7E4083609F70809E6F7D001E58124F1F87443
:204500001D26FAE40836FD0886068A828D838EF0125540FCE58124F7F8868208868308864E
:20452000F0EC124F558F04E58124F7F8EF04F6E58124EBF8EC26FBE40836FC0886078A82BB
:204540008D838EF0125540A3125540FDFA8B828C838FF0124F55D001E92404F987078F0696
:204560007F00E58124F2F8E58124F5F9740826F7E4083609F70809E6F7E58124F8F8860225
:20458000C3E49E74808FF063F08095F0504CE58124ECF8E58124F8F9EA26F7E4083609F75D
:2045A0000809E6F70A8E05ED14C8E58124F5C826FB08E436FC0886058B828C838DF012558E
:2045C00040FBE58124F8F886820886830886F0EB124F551EBEFF011F80A67F008A828F8330
:2045E000E58124F1F5810210F1E581240AF581AD82AE83AFF0E58124F7F98D828E838FF0A5
:20460000125540FC74075CF7E58124F7FC04F98D828E838FF0125540A2E3E433F774022C34
:20462000F98D828E838FF0125540C45401F774032CF98D828E838FF0125540A2E5E433F7B4
:2046400074042CF98D828E838FF012554023235401F774052CF90DBD00010E8D828E838FBF
:20466000F0125540FB74015BF774062CF98D828E838FF0125540035401F774072CF98D82FE
:204680008E838FF01255400303543FFB74035BF774082CF98D828E838FF0125540C4540F78
:2046A000FB74035BF774092CF98D828E838FF012554023235403FD74035DF77F007E40E5C7
:2046C0008124F1F88602088603088605740AC0E0E4C0E0C004C007C0068A828B838DF0789E
:2046E0006C79527A001210DFE58124FBF581E58124F6F5810210F1C082C083C0F0E5812455
:204700001CF58124DDF8C3E6940208E6648094805006900000024DB9E58124F1FCFA7B000F
:204720007F40C004C002C003C007E58124DEF886820886830886F078E979457A001210DF19
:20474000158115811581D0048C07E58124E8F8A607087600087640E58124DAF8E58124E512
:20476000F9E6F70809E6F70809E6F7E58124E5F8741026FAE40836FB088607C004740AC0C8
:20478000E0E4C0E0E58124E5F8E6C0E008E6C0E008E6C0E08A828B838FF0786C79527A00EA
:2047A0001210DFE58124FBF581D004E58124E2F8E58124EEF9740226F7E4083609F708098E
:2047C000E6F774052CF9E77037C004E58124E4F8741A26FAE40836FB088604E58124EDF8DA
:2047E00086820886830886F0125540FFA31818A68208A6838A828B838CF0EF124F55D00441
:20480000AF811FE58124E8F8A607087600087640E58124FDFBE58124EBF8A60308760008D8
:2048200076408C068E057E007F40C004E58124E7F8E6C0E008E6C0E008E6C0E0E58124E720
:20484000F8E6C0E008E6C0E008E6C0E08D828E838FF0784E79377A001210DFE58124FAF5B5
:2048600081D00474072CF9E77003024A32A88118E6084670030248EFC001E58124E4F8C063
:2048800001E58124E6F9741B26F7E4083609F70809E6F7D001E58124EDF886820886830891
:2048A00086F0125540FE7D00E58124EDF8740126FAE40836FB0886078A828B838FF01255AA
:2048C00040FFE42EFAEF3DFFE58124E7F886820886830886F0EA124F55A3EF124F55E58114
:2048E00024EDF8740226F6E40836F6D001801EE58124E5F8741B26FDE40836FE0886078D3B
:20490000828E838FF0E4124F55A3124F558707BF020280030249AEE58124E5F88603088647
:2049200005088606C004746DC0E07478C0E07480C0E08B828D838EF078FE79917A011210C1
:20494000DF158115811581D004E58124EEF8740126FBE40836FD0886068B828D838EF0127C
:204960005540FBE58124E5F886820886830886F0EB124F55E58124E5F8740126FBE40836E9
:20498000FD088606E58124EEF886820886830886F0125540FA8B828D838EF0124F55E58127
:2049A00024EEF8740226F6E40836F6024A82BF03028003024A82E58124FBF8E4F608F6C04B
:2049C00004E58124E4F8E58124FAF9E726FA09E70836FB088605E58124FAF87407C396FCE1
:2049E000E40896FFE58124EDF8EC26FCEF0836FF0886068C828F838EF01255408A828B839A
:204A00008DF0124F55E58124FAF806B600020806E58124FAF8C3E6940808E664809480D0A4
:204A200004409CE58124EEF8740826F6E40836F68050E58124E5F88605088606088607C0CB
:204A400004746DC0E07478C0E07480C0E08D828E838FF078FE79917A011210DF15811581EA
:204A60001581D004E58124E5F8741B26FDE40836FE0886078D828E838FF0E4124F55A31210
:204A80004F5574092CF9E77003024CCBE58124FDF8E608467003024B44C001E58124E4F87F
:204AA000741D26FDE40836FE088607E58124EDF886820886830886F0125540FCE58124EA70
:204AC000F8A604087600E58124EDF8740126FAE40836FB0886048A828B838CF0125540FCCA
:204AE0007A00E58124EAF8EA26FAEC0836FC8D828E838FF0EA124F55A3EC124F55E5812492
:204B0000EDF8740226F6E40836F6D001A88118E60846706EE58124E5F8741B26FAE40836AA
:204B2000FB0886048D828E838FF0125540FDA3125540FE8A828B838CF0ED124F55A3EE1281
:204B40004F55803EE58124E5F8741D26FDE40836FE088607E58124E5F8741B26FAE40836EB
:204B6000FB0886048A828B838CF0125540FAA3125540FB8D828E838FF0EA124F55A3EB124D
:204B80004F558707BF02028003024C36E58124E5F8E58124EBF9740826F7E4083609F70881
:204BA00009E6F7E58124EBF88602088603088606746DC0E07478C0E07480C0E08A828B833A
:204BC0008EF078FE79917A011210DF158115811581E58124EEF8740126FCE40836FD0886E5
:204BE000068C828D838EF0125540FCE58124EBF886820886830886F0EC124F55E58124E55B
:204C0000F8740926FCE40836FD088606E58124EEF886820886830886F0125540FB8C828D06
:204C2000838EF0124F55E58124EEF8740226F6E40836F6024D1ABF03028003024D1AE58124
:204C400024E5F8740826FDE40836FE088607E58124FBF8E4F608F6E58124FBF8E62DFA0818
:204C6000E63EFB8F04C005C006C007E58124F8F87407C396FEE40896FFE58124EBF8EE26E2
:204C8000FEEF0836FF0886058E828F838DF01255408A828B838CF0124F55E58124F8F80645
:204CA000B600020806E58124F8F8C3E6940808E664809480D007D006D005409BE58124EEB4
:204CC000F8740826F6E40836F6804FE58124E5F8740826FAE40836FB088604746DC0E074B6
:204CE00078C0E07480C0E08A828B838CF078FE79917A011210DF158115811581E58124E545
:204D0000F8741D26FAE40836FB0886048A828B838CF0E4124F55A3124F55E58124EEF8E55D
:204D20008124E2F9E6C397FB08E60997FC8B078C06E58124E5F8E58124EBF9743426F7E48C
:204D4000083609F70809E6F7E58124DDF8E6C39FFC08E69EFBE58124EBF88682088683086F
:204D600086F0EC124F55A3EB124F55E58124E5F8743126FAE40836FB0886048A828B838C56
:204D8000F0E58124EEF8E6124F55A308E6124F55A308E6124F55E58124DDF8C3E69F08E6F4
:204DA00064808EF063F08095F050067B007C0080048F038E048B828C83E58124E1F5810245
:204DC00010F17581201257D6E582600302006E79A7E94400601B7A0190799A787C75930C55
:204DE000E493F2A308B800020593D9F4DAF27593FFE478FFF6D8FD7800E84400600A790000
:204E0000759300E4F309D8FC7878E8440C600C790D900004E4F0A3D8FCD9FA900202E4F0A2
:204E2000A3F0A3F0A3F09002A3E4F0E4F50FF510F511F512900000F0A3F0A3F0A3F09005E8
:204E4000CBE4F002006EA8811818C6B2E7C6025103124EF4BC000302537EEF60FA30D50239
:204E6000B2D1E583B4FF03025394E582B4FF03025394258340072482400B02537E24831434
:204E80005003025394F582EA8DF0A4A8F0EA8EF0A428F8E435F0F9EB8DF0A428E935F0F953
:204EA000E433CA8FF0A429F9EA35F0FAEBF88EF0A429F9EA35F0FAE433FBEC8DF0A429F952
:204EC000EA35F0FAE43BFBE88FF0A42AFAEB35F0FBE433CCFD8EF0A42AFAEB35F0FBE43C24
:204EE000FCED8FF0A42BFBEC35F0FC20E703124F2202535DAA82AB83A2F73392D1F58260D4
:204F000002D2F7ACF0E58124F9F8E6FD08E6FE0886F008E6A2F73392D5F5836002D2F7AFEF
:204F2000F0227804EC7011E58224F8500AF582E4C9CACBFCD8EF22EC7820058220E713D501
:204F4000820122C3E933F9EA33FAEB33FBEC33FCD8EA15822220F71130F6138883A8822058
:204F6000F509F6A8837583002280FEF280F5F022C013858113C082C083E5812405F581AFDC
:204F8000130FE5132403F8A607087600087640E51324FCFD7E007F40E5132406F9A81308BF
:204FA0008604E51324FCF886038CF0EBA4F709A7F0E513240604F98704A8130886037401C1
:204FC0002DFAE43EFE8A828E838FF01255408BF0A4FBE5132403F8740126FDE40836FE0856
:204FE00086078D828E838FF0125540FDE51324FCF886078DF0EFA42B2CF7E5132406F98744
:20500000060987078E828F83851381D01322C013E581F5132406F581AD82AE83AFF0E513DB
:2050200024F8F8E6084670069000000250FBE51324F8F886030886041BBBFF011CEB4C7015
:20504000030250CBC003C004A81308A60508A60608A607A8130886820886830886F0125511
:2050600040FAE51324FAF8E5132404F9E6F70809E6F70809E6F7E5132404F88682088683E5
:205080000886F0125540FCEAB504028006D004D0038038A81308740126FAE40836FB088662
:2050A000048A058B068C07E5132404F8740126FAE40836FB088604E51324FAF8A60208A679
:2050C0000308A604D004D0030250388D828E838FF0125540FD7F00E51324FAF88603088603
:2050E000040886068B828C838EF0125540FB7E00EDC39BFDEF9EFF8D828F83851381D0136D
:205100000210F1124EF47900E583B58202800D5003125449E583C39582125738E5D0C465CE
:20512000D020E117EA2DFAEB3EFBEC3FFC50097401125738EC4480FC02535DC3EA9DFAEB2F
:205140009EFBEC9FFC500FC3E499F9E49AFAE49BFBE49CFCB2D1124F2202535DC013858198
:2051600013058105810581AD82AE83AFF0E51324F8F8E608467006900000025218E51324BD
:20518000FAF88602088603088604E51324F8F8A91309E6F70809E6F7A8130816B6FF02083E
:2051A00016A81308E60846604C8D828E838FF0E5132403F8125540F6E5132403F8E6603551
:2051C000C005C006C0078A828B838CF0125540FFE5132403F8E6B507028008D007D006D081
:2051E000058012D007D006D0050DBD00010E0ABA00A60B80A38D828E838FF0125540FD7F63
:20520000008A828B838CF0125540FA7E00EDC39AFDEF9EFF8D828F83851381D0130210F1E6
:20522000AC83AB827A007900748E0255D312577B700AE582458345F0700122E430D112F4B3
:20524000700BE5F0F47006E58330E7012290800022700AE5F07006E58320E70122907FFF5B
:20526000227F8E1274C5F58385F08222C013E581F5132408F581AD82AE83AFF0E51324061F
:20528000F8A60508A60608A607E51324FAF8A91309E6F70809E6F70809E6F7E51324F8F86A
:2052A000E5132404F9E6F70809E6F7E5132404F88603088604E5132404F816B6FF020816D4
:2052C000EB4C6028A8130886820886830886F0125540FCA31818A68208A6838D828E838F37
:2052E000F0EC124F55A3AD82AE8380BFE5132406F886820886830886F0851381D01302101B
:20530000F1C013858113C082C083C0F0E51324FAF88605088606E51324FAF8E60846602A82
:20532000A813088602088603088604E51324FCF886078A828B838CF0EF124F55A3AA82ABAD
:20534000831DBDFF011EED4E70E8A8130886820886830886F0851381D0130210F1B98003AA
:20536000EA13B34010EA2401FAE43BFBE43CFC50047C800582BC000EBB000BBA0008E4F5EC
:20538000F0F583F58222A2D1E582138CF092F78B838A8222E4F583F58275F080F4A2D113AC
:2053A00022E4F583F58275F0C0747F22C0138581137E008E83782E79DB7A011210DFD013EA
:2053C0000210F1C013858113AD82AE83AFF0E51324FCF8E6C0E0C005C006C007E4C0E0C0B3
:2053E000E0C0E09053AC75F00078D779647A001210DFAE82AF83E58124F9F5818E828F8315
:20540000D0130210F1C013E581F51324FAFFC007E51324FAF8E6C0E008E6C0E008E6C0E0D1
:20542000E4C0E0C0E0C0E09053AC75F00078D779647A001210DFAE82AF83E58124F9F581B2
:205440008E828F83D0130210F1E582C583F582A2D133A2D592D11392D5ECCFFCEBCEFBEACF
:20546000CDFA22AA82AB831255406003A380F8C3E5829AF582E5839BF5830210F1124EF4B7
:2054800030D502B2D1BF0009BC00030253A1025394BC000302537EE583B4FF0BE582B4FF4A
:2054A000030253A102537EE582B4FF03025394C395835007247F400B02537E24801450031C
:2054C000025394F582C3ED9AEE9BEF9C40111582C3EA33F9EB33FAEC33FBE433FC8005E49F
:2054E000CCCBCAF9C08275F019C3E99DEA9EEB9FEC9400D5F002802D400EE99DF9EA9EFAF4
:20550000EB9FFBEC9400FCC3B3E833F8E58233F582E58333F583C3E933F9EA33FAEB33FBD5
:20552000EC33FC80C4B3E4F938FAE43582FBE43583FCD082500405827C80124F22025375A6
:2055400020F71430F6148883A88220F507E6A88375830022E280F7E49322E022C01385819D
:2055600013AE82E583FF33E433FD6009C3E49EFBE49FFC80048E038F04E51324FCF808E66C
:2055800030E70FE51324FCF8C3E496FE08E496FF800AE51324FCF88606088607C005C006D3
:2055A000C0078B828C831255F7AE82AF8315811581D005ED600DC3E49EFCE49FFD8C828D91
:2055C0008380048E828F83D01322FCABF0AA83A982749EF582C2D1EC30E716D2D1E9F424D5
:2055E00001F9EAF43400FAEBF43400FBECF43400FC124F2202535DC013858113AE82AF8304
:205600007D007C00E51324FCF808E6235401FB702FE51324FCF8E626F608E633F6E513243C
:20562000FCF8C3EE96EF08965011E51324FCF808E618C313C613C608F680050C8C0580C452
:20564000E51324FCF8C3EE96EF0896400DE51324FCF8EEC396FEEF0896FFE51324FCF80820
:20566000E618C313C613C608F68D041DEC70D18E828F83D01322C013858113AE82E583FF34
:2056800033E433FD6009C3E49EFBE49FFC80048E038F04E51324FCF808E633E433FF600F3D
:2056A000E51324FCF8C3E496FA08E496FE800AE51324FCF88602088606C007C005C002C05F
:2056C000068B828C831256ECAC82AE8315811581D005D007EF6D600DC3E49CFDE49EFF8D06
:2056E000828F8380048C828E83D01322C013858113AE82AF837C007D007B10EF235401FA3B
:20570000EE2EFEEF33FFEC2CFCED33FDEA6003430401E51324FCF8C3EC96ED08964010E573
:205720001324FCF8ECC396FCED0896FD430601DBCA8E828F83D013226040F825825002745A
:20574000FFF582E824F8501ECCCBCAF9E4CC24F85014CBCAF9E4CB24F8500BCAF9E4CA248E
:20576000F8500379002224086010F8C3EC13FCEB13FBEA13FAE913F9D8F1221257DAC374A7
:205780009E95824039790012573830D126E9F42401F582EAF43400F583EBF43400F5F0ECB3
:2057A000F43400700AE582458345F0700122E430E70F22EC20E71489828A838BF02230D167
:2057C0000AE4F582F583F5F074802274FFF582F583F5F0747F2275820022AA82AB83A2F789
:2057E0003392D1F5826002D2F7ACF022C013858113AF8274302FFF24C6501074072FFFE5EC
:205800001324FCF8E6600474202FFFE51324F6F8E6C0E008E6C0E008E6C0E0E51324F9F898
:20582000E6C0E008E6C0E008E6C0E08F82D002D001D0001210DF158115811581D01302108A
:20584000F1C013858113E582FFC4540FFEC007E51324F6F8E6C0E008E6C0E008E6C0E0E588
:205860001324F9F8E6C0E008E6C0E008E6C0E0E51324FCF8E6C0E08E8278EC79577A0012F8
:2058800010DFE58124F9F581D00753070FE51324F6F8E6C0E008E6C0E008E6C0E0E5132418
:2058A000F9F8E6C0E008E6C0E008E6C0E0E51324FCF8E6C0E08F8278EC79577A001210DFFF
:2058C000E58124F9F581D0130210F1C0138581130581A982870409870509870609870719E6
:2058E0001919740429F8C000A813087620D000C001E626FAEF235401FB4202A602EC2CFCCB
:20590000ED33FDEE33FEEF33FFC000E51324FCF8C3EA96D000D00140148603C000E51324BD
:20592000FCF8EBC396FBD000A603430401C000A8130816A81308E6D00070B4A70409A705DD
:2059400009A70609A7071581D0130210F1C013858113C8E5812428F581E5132407C8A6826F
:2059600008A68308A6F008F67B00C200E5132405F87680C003C020E4C0E0C0E0C0E0C0E007
:20598000E5132407F886820886830886F008E61274EAAA82E58124FCF581D020D003EA60C2
:2059A00011D200E5132407F8E608E608E608E6B2E7F6C003C020E5132407F8E6C0E008E678
:2059C000C0E008E6C0E008E6C0E090FFFF75F07F744B1274EAAA82E58124FCF581D020D082
:2059E00003EA7003025B897A00C003C002C020E4C0E0C0E07420C0E07441C0E0E5132407B2
:205A0000F886820886830886F008E61274EAE58124FCF581D020D002D003E58224FF9201EB
:205A20004044C003C002C020E4C0E0C0E07420C0E07441C0E0E5132407F886820886830894
:205A400086F008E612547DC8E5132407C8A68208A68308A6F008F6E58124FCF581D020D09B
:205A600002D0030A80838A07C007C003C020E4C0E0C0E07480C0E0743FC0E0E5132407F823
:205A800086820886830886F008E61274EAAA82E58124FCF581D020D003D007EA6044C007FA
:205AA000C003C020E5132407F8E6C0E008E6C0E008E6C0E008E6C0E090000075F02074412E
:205AC000124E51C8E5132407C8A68208A68308A6F008F6E58124FCF581D020D003D0071FB8
:205AE0008086E5132405F8A60730003AC020E51324F1F8E6C0E008E6C0E008E6C0E0E513F1
:205B000024F4F8E6C0E008E6C0E008E6C0E075822DD002D001D0001210DF15811581158179
:205B2000D0207B018040E51324F8F8E66038C020E51324F1F8E6C0E008E6C0E008E6C0E028
:205B4000E51324F4F8E6C0E008E6C0E008E6C0E075822BD002D001D0001210DF15811581D9
:205B60001581D0207B01E51324FCF87600E51324FAF87600E51324F9F87600E51324F8F88A
:205B80007600E51324F7F87600E51324FBF8B6FF07E51324FBF87606E5132420F8E4F608A2
:205BA000F608F608763FE51324FBF88605ED604BC003C005C020E4C0E0C0E07420C0E074CE
:205BC00041C0E0E5132420F886820886830886F008E612547DAA82AB83AEF0FFE58124FCCB
:205BE000F581D020D005E5132420F8A60208A60308A60608A6071DD00380B2C003C003C00C
:205C000020E5132420F8E6C0E008E6C0E008E6C0E008E6C0E0E5132407F8868208868308C4
:205C200086F008E6125103A81308A68208A68308A6F008F6E58124FCF581D020A8130886AD
:205C4000820886830886F008E6C0201274C3C8E5132407C8A68208A68308A6F008F6D02084
:205C6000D003E5132407F886820886830886F008E6C0201276AFAA82AB83AEF0FFD020C0F3
:205C800003C020C002C003C006C007A8130886820886830886F008E6124E46C8E513240B32
:205CA000C8A68208A68308A6F008F6E58124FCF581D020D003E5132406F8E5132410F67AB2
:205CC00000D003E5132407F8E60846084608467003025D528A070AE5132406F8EF26F9C05F
:205CE00003C002C001C020740AC0E0E4C0E0C0E0C0E0E5132407F886820886830886F008A2
:205D0000E6127563AC82E58124FCF581D020D00174302CF7C020740AC0E0E4C0E0C0E0C01F
:205D2000E0E5132407F886820886830886F008E6127625C8E5132407C8A68208A68308A67C
:205D4000F008F6E58124FCF581D020D002D003025CC3EAFF700DEA04FFE5132406F8EA2626
:205D6000F87630E51324FBF8E513240FF9E6F7E5132406F8E5132407F9E6F7E5132428F826
:205D8000A607E513240FF8E6700AE513240FF88602025E6EC007C003C020E513240BF8E6EB
:205DA000C0E008E6C0E008E6C0E008E6C0E090000075F0207441124E51AC82AD83AEF0FF23
:205DC000E58124FCF581D020E5132424F8A60408A60508A60608A607E5132424F886820891
:205DE00086830886F008E6C0201274C3AC82AD83AEF0FFD0208F02E5132407F8E51324282A
:205E0000F9E726F9E5132428F8068C0774302FF78C828D838EF0EAC0201276AFAC82AD83E9
:205E2000AEF0FFD020D003C007C003C020C004C005C006C007E5132424F886820886830829
:205E400086F008E6124E46C8E513240BC8A68208A68308A6F008F6E58124FCF581D020D0D0
:205E600003D007E513240FF816D007025D828F06E51324FBF8E6600EE51324FBF8E604FC6A
:205E80003395E0FD80047C007D00EC2EFCFE200010E51324F8F8E67008E51324F7F8E660E1
:205EA000010EE51324FAF8E6600302613CE51324FCF8C3EA96400302613CE51324F9F8E6B5
:205EC0007003025FF3300042C007C006C003E51324F1F8E6C0E008E6C0E008E6C0E0E5139A
:205EE00024F4F8E6C0E008E6C0E008E6C0E075822DD002D001D0001210DF15811581158196
:205F0000D003D006D0070B025F9AE51324F8F8E66041C007C006C003E51324F1F8E6C0E08D
:205F200008E6C0E008E6C0E0E51324F4F8E6C0E008E6C0E008E6C0E075822BD002D001D006
:205F4000001210DF158115811581D003D006D0070B8047E51324F7F8E6603FC007C006C04F
:205F600003E51324F1F8E6C0E008E6C0E008E6C0E0E51324F4F8E6C0E008E6C0E008E6C0AD
:205F8000E0758220D002D001D0001210DF158115811581D003D006D0070B8B05E51324FCA1
:205FA000F886048C021CC3EE9A4003026213C007C006C005C004E51324F1F8E6C0E008E621
:205FC000C0E008E6C0E0E51324F4F8E6C0E008E6C0E008E6C0E0758230D002D001D000123D
:205FE00010DF158115811581D004D005D006D0070D80B08B02E51324FCF88605C0078D07DA
:206000001DC3EE9FD0075049C007C006C005C002C020E51324F1F8E6C0E008E6C0E008E6A8
:20602000C0E0E51324F4F8E6C0E008E6C0E008E6C0E0758220D002D001D0001210DF1581F5
:2060400015811581D020D002D005D006D0070A80AB8A03E51324FCF8A605300044C007C058
:2060600006C002E51324F1F8E6C0E008E6C0E008E6C0E0E51324F4F8E6C0E008E6C0E0088D
:20608000E6C0E075822DD002D001D0001210DF158115811581D002D006D007EA04FB026254
:2060A0001CE51324F8F8E66044C007C006C002E51324F1F8E6C0E008E6C0E008E6C0E0E553
:2060C0001324F4F8E6C0E008E6C0E008E6C0E075822BD002D001D0001210DF158115811524
:2060E00081D002D006D007EA04FB02621CE51324F7F8E6700302621CC007C006C002E5130C
:2061000024F1F8E6C0E008E6C0E008E6C0E0E51324F4F8E6C0E008E6C0E008E6C0E075822F
:2061200020D002D001D0001210DF158115811581D002D006D007EA04FB02621C300042C0EF
:2061400007C006C003E51324F1F8E6C0E008E6C0E008E6C0E0E51324F4F8E6C0E008E6C0CC
:20616000E008E6C0E075822DD002D001D0001210DF158115811581D003D006D0070B026268
:206180001CE51324F8F8E66041C007C006C003E51324F1F8E6C0E008E6C0E008E6C0E0E574
:2061A0001324F4F8E6C0E008E6C0E008E6C0E075822BD002D001D0001210DF158115811543
:2061C00081D003D006D0070B8052E51324F7F8E6604AC007C006C003E51324F1F8E6C0E06B
:2061E00008E6C0E008E6C0E0E51324F4F8E6C0E008E6C0E008E6C0E0758220D002D001D04F
:20620000001210DF158115811581D003D006D0070B80098D03E51324FCF8A6048F051DE5C7
:20622000132406F88604E5132406F8ED26F98702C007C006C005C004C003E51324F1F8E62C
:20624000C0E008E6C0E008E6C0E0E51324F4F8E6C0E008E6C0E008E6C0E08A82D002D00129
:20626000D0001210DF158115811581D003D004D005D006D0070B8D021DEA70AA8B05E5131F
:2062800024FBF8E6700302632BC007C006C004C003E51324F1F8E6C0E008E6C0E008E6C023
:2062A000E0E51324F4F8E6C0E008E6C0E008E6C0E075822ED002D001D0001210DF15811510
:2062C000811581D003D004D006D0070B8F05E51324FBF886028A071AEF604EED2CF90D872F
:2062E00007C006C005C004C003C002E51324F1F8E6C0E008E6C0E008E6C0E0E51324F4F814
:20630000E6C0E008E6C0E008E6C0E08F82D002D001D0001210DF158115811581D002D003EF
:20632000D004D005D0060B80AC8B05E51324FAF8E6605CE51324FCF8C3EE9650528D07E5F5
:206340001324FCF88604C3EE9C50421CC007C006C004E51324F1F8E6C0E008E6C0E008E635
:20636000C0E0E51324F4F8E6C0E008E6C0E008E6C0E0758220D002D001D0001210DF1581B2
:2063800015811581D004D006D0070F80B98F05E5132405F8B680030264CDC005E51324F11D
:2063A000F8E6C0E008E6C0E008E6C0E0E51324F4F8E6C0E008E6C0E008E6C0E0758265D06D
:2063C00002D001D0001210DF158115811581D005ED04FFE5132405F8E630E740C007E5137D
:2063E00024F1F8E6C0E008E6C0E008E6C0E0E51324F4F8E6C0E008E6C0E008E6C0E075824D
:206400002DD002D001D0001210DF158115811581D0070FE5132405F8C3E496F6E5132405C6
:20642000F8E6FA3395E0FEC007C006C002740AC0E0E4C0E08A828E83125676AB821581151A
:206440008174302BFBE51324F1F8E6C0E008E6C0E008E6C0E0E51324F4F8E6C0E008E6C00E
:20646000E008E6C0E08B82D002D001D0001210DF158115811581D002D006D0070FC00774A2
:206480000AC0E0E4C0E08A828E8312555CAC821581158174302CFCE51324F1F8E6C0E00835
:2064A000E6C0E008E6C0E0E51324F4F8E6C0E008E6C0E008E6C0E08C82D002D001D000128B
:2064C00010DF158115811581D007EF04FD8D82851381D0130210F1C013858113C082C083C5
:2064E000C0F0E5812424F581E513240CF8E4F608F6E5132410F8E5132419F6E5132421C87C
:20650000E5132407C82405F6E5132411F8E5132419F6E5132411F8E5132404F9740426F74E
:20652000E5132404F8E5132405F9E6F7E5132404F8E5132406F9E6F7E51324F7F8860208A1
:2065400086060886078A828E838FF0125540FDE51324F7F874012AF6E43E08F608A607ED78
:20656000FF70030274B1BF25028003027474C200C201C202C203C204C205C206C207E5130B
:20658000241EF8E4F6FDFEE513241FF876FF0876FFE51324F7F8E5132408F9E6F70809E6CB
:2065A000F70809E6F7E5132408F886820886830886F0E513240BF9125540F7A31818A6828A
:2065C00008A683E5132408F8E51324F7F9E6F70809E6F70809E6F7E513240BF8B62542E588
:2065E0001324FAF8E6C0E008E6C0E008E6C0E0A81308E6C0E008E6C0E008E6C0E0E513244F
:206600000BF88682D002D001D0001210DF158115811581E513240CF806B6000208060265E6
:2066200038E513240BF8B6300050030266C5E513240BF8E624C650030266C5E513241FF8FB
:20664000B6FF3C08B6FF38C020C005C00690000A124F70AA82AF8315811581D020E51324E8
:206660000BF886037C00EB2AFAEC3FFFEA24D0FDEF34FFFE4D60030265A5D2010265A5C083
:2066800006C005C020E513241FF8E6C0E008E6C0E090000A124F70AC82AF8315811581D041
:2066A00020D005D006E513240BF886027B00EA2CFCEB3FFFE513241FF8EC24D0F6EF34FF87
:2066C00008F60265A5E513240BF8B62E1DE513241FF8B6FF0608B6FF0280030265A5E5135C
:2066E000241FF8E4F608F60265A5E513240BF8B66100401CE513240BF8E624854012E513F1
:20670000240BF8E654DFF6E5132418F876018007E5132418F87600E513240BF8B62003027D
:2067200067E9E513240BF8B62B030267E4E513240BF8B62D030267DFE513240BF8B6420352
:206740000267EEE513240BF8B643030267F8E513240BF8B64403026D66E513240BF8B6465A
:2067600003026D8CE513240BF8B648030265A5E513240BF8B64903026D66E513240BF8B624
:206780004A030265A5E513240BF8B64C028064E513240BF8B64F03026D71E513240BF8B6BD
:2067A0005003026B02E513240BF8B6530302686DE513240BF8B654030265A5E513240BF8BE
:2067C000B65503026D7AE513240BF8B65803026D83E513240BF8B65A030265A5026D90D291
:2067E000000265A5D2020265A5D2030265A5D2050265A5D2060265A5300515E51324F6F8B1
:20680000E614FCE51324F6F8A604A80486048014E51324F6F8E624FEFBE51324F6F8A60344
:20682000A8038604C006C005C020E51324FAF8E6C0E008E6C0E008E6C0E0A81308E6C0E0BF
:2068400008E6C0E008E6C0E08C82D002D001D0001210DF158115811581D020D005D006E558
:2068600013240CF806B600020806026DEBE5132419FCE51324F6F8E624FDFBE51324F6F870
:20688000A603A8038602088603088607A804A60208A60308A6078A828B838FF0C006C00518
:2068A000C004C020786379547A001210DFC8E5132408C8A68208A683D020D004D005D00695
:2068C000E513241FF8B6FF1408B6FF10E5132408F8E513241FF9E6F70809E6F7300003029F
:2068E0006983E5132408F8C3E69D08E69E4003026983E5132408F8E5132412F9EDC396F70D
:20690000EE089609F7E513240CF88606088605E5132412F88602088607E5132412F816B677
:20692000FF020816EA4F6047C006C005C004C020E51324FAF8E6C0E008E6C0E008E6C0E079
