:020000040000FA
:04000000024DBD32BE
:01000B0032C2
:0100130032BA
:01001B0032B2
:0100230032AA
:03002B0002139F1E
:01003300329A
:01003B003292
:01004300328A
:03004B000214D5C7
:01005300327A
:01005B003272
:01006300326A
:20006B000211A60202DAC082C083E5812404F5817C007D00C374C89C74808DF063F08095E8
:20008B00F0500B7490C39CFA74019DFB80048C028D03E58124FBF886078F82C007C005C097
:2000AB0004C003C00278DB79937A01121244D002D003D004D005D007E58124FDF8E4F608E4
:2000CB00F6E58124FDF8C3E69A08E664808BF063F08095F0501DE58124FDF8A98119E6F7AC
:2000EB000809E6F7E58124FDF8740126F6E40836F680CE8F82C005C004C003C00278F17990
:20010B00937A01121244D002D003D004D005E58124FDF8E4F608F674C8C39AFEE49BFFE5BF
:20012B008124FDF8C3E69E08E664808FF063F08095F0501DE58124FDF8A98119E6F708090D
:20014B00E6F7E58124FDF8740126F6E40836F680CE0CBC00010DC3EC9490ED648094815062
:20016B000302007FE58124FAF58122E5812408F5817E0C7F78E58124F9FD7C07EC2DF98EA8
:20018B00828F83E0FBA3AE82AF83A7031CEC30E7EB74072DF987077E0074062DF987048CC8
:2001AB0003E44207EB420689047B007A40C007C006C0057402C0E0E4C0E0C004C003C002DA
:2001CB0090020E75F000786779527A00121244E58124FBF581907913E493FAA3E493FBA343
:2001EB00E493FCC004C003C00274F5C0E0C4C0E0C002C003C004900002D002D001D000126B
:20020B00124415811581D002D003D004D005D006D007907913E493FAA3E493FBA3E493FC9E
:20022B00C005C004C003C002C007C006C002C003C004900003D002D001D0001212441581CB
:20024B001581D002D003D004D005907913E493FCA3E493FEA3E493FFC007C006C005C004D9
:20026B007419C0E0E4C0E0C004C006C007900001D002D001D00012124415811581D004D035
:20028B0005D006D007907919E493FCA3E493FEA3E493FF7B007A40C007C006C0047408C019
:2002AB00E0E4C0E0C005C003C002C004C006C00790000BD002D001D000121244E58124FB39
:2002CB00F581D004D006D007E58124F8F5812278D679127A00121244783D79E47A01121296
:2002EB0044781F79947A01121244788179937A0112124475820778F179937A01121244905A
:20030B000001120071784079AB7A01121244784F79E07A0112124490A33C75F00178317995
:20032B00127A00121244786D79A57A011212449000021200719076C175F08078A979C67A3D
:20034B00011212449076DE75F08078A979C67A0112124490624AE0FFBF8D028042BF95029C
:20036B00802CBFA5028005BFB54480119076EF75F08078A979C67A0112124480319076F6C8
:20038B0075F08078A979C67A0112124480209076FD75F08078A979C67A01121244800F9040
:2003AB00770475F08078A979C67A0112124490770B75F08078A979C67A01121244906277EC
:2003CB00E0FF0F8F8278E379C67A0112124490771375F08078A979C67A0112124478427921
:2003EB00937A01121244900000788979E37A01121244E4C0E0C0E0C0E0900C7F75F00078F0
:20040B00BC79A57A01121244158115811581785279C27A0112124478D279C77A01121244FD
:20042B00120176E4C0E0C0E0C0E0900C9F75F00078BC79A57A01121244158115811581903D
:20044B007874E493FDA3E493FEA3E493FFC007C006C0057401C0E0E4C0E0C005C006C007C3
:20046B00900081D002D001D00012124415811581D005D006D007907862E493FDA3E493FEE1
:20048B00A3E493FFC007C006C0057401C0E0E4C0E0C005C006C007900081D002D001D00077
:2004AB0012124415811581D005D006D00778A579C87A01121244908CE275F08078B879DA74
:2004CB007A01121244784879937A01121244900004120071784E79937A011212449004DB44
:2004EB00E060577866790F7A00121244E5828583F045F060407884790F7A00121244AE8248
:20050B00AF83C007C00678BB79127A00121244AC82AD83D006D007EEC39CFEEF9DFF1EBEB4
:20052B00FF011FC374FF9E747F9F5009784C790C7A001212449004DBE4F0787D79AD7A01CE
:20054B00121244AE82AF83EE708A907907E493FDA3E493FEA3E493FFC007C005C006C00710
:20056B00D002D001D000121244AD82AE83D0078D088E09E508450970030204DF781879B9DD
:20058B007A011212449078FEE493FDA3E493FEA3E493FFC007C006C00578B779BC7A01127F
:2005AB001244AA82AB83ACF0D005D006D007C0077480C0E0E4C0E0C005C006C0078A828B9A
:2005CB00838CF0D002D001D000121244AD82AE8315811581D0078D088E09E50845097003F9
:2005EB000204DF85088285098378A979BC7A01121244907962E493FDA3E493FEA3E493FFA2
:20060B00C007C006C005C005C006C007D002D001D000121244D005D006D0070204DFAE82B9
:20062B00AF83C28DBE0005BF00028008BE040DBF000A80047F3E80097F3F800590FFFF806F
:20064B00288FB6108D0280FBAEBA7F00ACBB8C05E4FC4206ED4207EFC4CEC4540F6ECE5493
:20066B000FCE6ECEFF8E828F83021256900001021256AE82AF83BE8010BF000D9061BD7432
:20068B0001F090624BF075F200900001021256E5812409F581900211E0F5F0A3E045F07036
:2006AB000A900214E4F0A3F002080778BB79127A00121244AE82AF83E58124FCF8A60608D3
:2006CB00A607900211E0FBA3E0FCA3E0FD8B828C838DF0E58124F8F812554BF6A312554BD5
:1506EB0008F674022BFAE43CFE8D078A828E838FF012554BFA67
:20070000A312554BFEE58124F8F8EA26FAEE0836FEE58124FCF8EAC396FAEE0896FEE5812D
:2007200024FAF8A60208A60674042BFBE43CFC8B828C838DF0A881181812554BF6A31255E9
:200740004B08F6A312554B08F6A8811818E6084670030207F1A88118188682088683088603
:20076000F012554BFFA312554BFAA8811818740226FDE40836FC0886068D828C838EF01237
:20078000554BFDA312554BFEED2FFBEE3AFCE58124FCF8EBC396FBEC0896FCE58124FAF86F
:2007A000C3EB96EC0896501DED2FFFEE3AFAE58124FCF8EFC396FFEA0896FAE58124FAF8FE
:2007C000A60708A602A8811818740426FFE40836FE0886058F828E838DF0A88118181255B4
:2007E0004BF6A312554B08F6A312554B08F6020749E58124FCF8E58124FAF9900214E72612
:20080000F009E70836A3F0E58124F7F581021256E581240FF581AD82AE83AFF07C011255D4
:200820004BFAA312554BFBBA0005BB0002800BBA5905BB0002801E020C32900211E4F0A34F
:20084000F0A3F07C008D828E838FF07459124F50A3E4124F50EC7006758201020C43E58133
:2008600024EEF8B687028003020A14E58124EBF8A9811919E6F70809E6F70809E6F7900278
:2008800011E0FAA3E0FBA3E0FCEA4B6078C005C006C00774072AFDE43BFE8C078D828E839F
:2008A0008FF012554BFDA312554BFEA312554BFFE58124FBF8C005C006C00786820886837B
:2008C0000886F012288F1581158115816008D007D006D005802FD007D006D00574042AFA58
:2008E000E43BFB8A828B838CF012554BFAA312554BFBA312554BFC900211EAF0EBA3F0EC14
:20090000A3F002087E900211E0FAA3E0FBA3E0FC900211E0F5F0A3E045F07003020843E57D
:200920008124F2F874042AF6E43B08F608A604E58124F2F886820886830886F0E58124F537
:20094000F912554BF7A312554B09F7A312554B09F7E58124F5F8E608467003020843C0051B
:20096000C006C007E58124F2F8740726FDE40836FE0886078D828E838FF012554BFDA31220
:20098000554BFEA312554BFFE58124FBF8C005C006C00786820886830886F012288F1581A0
:2009A000158115816008D007D006D0058048E58124F2F8740426FDE40836FE0886078D8286
:2009C0008E838FF012554BFDA312554BFEA312554BFFE58124EFF886820886830886F0ED3C
:2009E000124F50A3EE124F50A3EF124F50D007D006D00502091FE58124F2F8868208868388
:200A00000886F012554BFAA312554BFBA312554BFC02091FE58124EEF8B6820280030208AA
:200A200043E58124FBF8E4F608F6087600900211E0FAA3E0FBA3E0FCE58124F8F8A60208FC
:200A4000A60308A604E58124F8F8E608467003020843E58124F8F886820886830886F0C0FC
:200A600007C006C005787379C97A01121244E5828583F0D005D006D00745F07003020BF04E
:200A8000C005C006C007E58124F5F88605088606088607E58124F5F8E58124F2F97407264C
:200AA000F7E4083609F70809E6F7E58124F2F886820886830886F012554BFAA312554BFB28
:200AC000A312554BFCC005C005C006C0077488C0E08A828B838CF078C979AD7A0112124432
:200AE000AE82AF83E58124FCF581D005EE4FD007D006D0056003020BDBE58124F5F886823A
:200B00000886830886F0E4124F50A3124F50A3124F50E58124FBF8E608466056C005C00617
:200B2000C007E58124F8F8740426FAE40836FB088604E58124F5F8740426FDE40836FE08F3
:200B400086078D828E838FF012554BFDA312554BFEA312554BFF8A828B838CF0ED124F50DF
:200B6000A3EE124F50A3EF124F50D007D006D005802FE58124F8F8740426FAE40836FB0888
:200B800086048A828B838CF012554BFAA312554BFBA312554BFC900211EAF0EBA3F0ECA35E
:200BA000F0E58124F8F8740426FAE40836FB0886048A828B838CF0E4124F50A3124F50A362
:200BC000124F50C007C006C005789A79067A00121244D005D006D007020A21C007C006C0A3
:200BE00005784C790C7A00121244D005D006D007E58124F8F8E58124FBF9E6F70809E6F780
:200C00000809E6F7E58124F8F8740426FAE40836FB0886048A828B838CF0E58124F8F81203
:200C2000554BF6A312554B08F6A312554B08F6020A458D828E838FF0E4124F50A3124F509F
:200C4000758203E58124F1F581021256900C7F75F000789179AE7A01121244021256C08200
:200C6000C083C0F0058105810581784C790C7A00121244E58124FBF8A9811919740726F753
:200C8000E4083609F70809E6F7A881181886820886830886F012554BFDA312554BFEA3129D
:200CA000554BFFED4E7003020D29900211E0FDA3E0FEA3E0FFED4E6070E58124FBF8C005DF
:200CC000C006C00786820886830886F012288F15811581158160028031900C96E0FAA3E0C3
:200CE000FBA3E0FCA881181886820886830886F0EA124F50A3EB124F50A3EC124F50789A5E
:200D000079067A00121244020D9874042DFAE43EFB8F048A828B838CF012554BFDA312552D
:200D20004BFEA312554BFF808C900C96E0FDA3E0FEA3E0FFA881181886820886830886F008
:200D4000ED124F50A3EE124F50A3EF124F50E58124FBF8740426FDE40836FE088607900211
:200D600011E0FAA3E0FBA3E0FC8D828E838FF0EA124F50A3EB124F50A3EC124F50E5812448
:200D8000FBF8900211E6F008E6A3F008E6A3F0789A79067A00121244E58124FAF581021264
:200DA00056AD82AE83AFF0C007C006C005E58124F9F8E6C0E008E6C0E08D828E838FF078E6
:200DC000B479C87A0112124415811581D005D006D0078D828E838FF0785E790C7A001212F5
:200DE00044021256AD82AE83AFF0C007C006C005780379C97A01121244D005D006D007745E
:200E0000022DFAE43EFB8F048A828B838CF0E58124FCF8E6124F50A308E6124F508D828E6F
:200E2000838FF0785E790C7A00121244021256AD82AE83AFF0C007C006C005780379C97A81
:200E400001121244D005D006D0078D828E838FF0785E790C7A00121244021256AD82AE8301
:200E6000AFF0C007C006C005784279C97A01121244D005D006D0078D828E838FF0785E7932
:200E80000C7A00121244021256C082C083C0F0A881181886820886830886F012554BFBA385
:200EA00012554BFCE58124F9F88602088607EA2BFBEF3CFCA881181886820886830886F0C5
:200EC000EB124F50A3EC124F50789A79067A00121244158115811581021256AD82AE83AF88
:200EE000F074072DFDE43EFE8D828E838FF012554BFDA312554BFEA312554BFFE4C0E0C004
:200F0000E0C0E08D828E838FF012288F1581158115817003048001E4FD7F008D828F8302AC
:200F20001256AD82AE83AFF012554BFBA312554BFC74022DFDE43EFE8D828E838FF0125586
:200F40004BFDA312554BFEED2BFBEE3CFC8B828C83021256AFF012554BFDA312554BFE8D09
:200F6000828E83021256900211E0FDA3E0FEA3E0ED4EB40100B39200E433FE7F008E828F88
:200F8000830212567866790F7A00121244E5828583F045F0600A900214E0FEA3E0FF800494
:200FA0007E007F008E828F83021256C082C083C0F0900211E0FAA3E0FBA3E0FCA8811818A0
:200FC000C002C003C00486820886830886F012288F1581158115816002803474042AFDE40D
:200FE0003BFE8C078D828E838FF012554BFDA312554BFEA312554BFF900211EDF0EEA3F02F
:20100000EFA3F0789A79067A001212440210A0EA4B604274042AFDE43BFE8C078D828E83E3
:201020008FF012554BFDA312554BFEA312554BFFA8811818C005C006C0078682088683080F
:2010400086F012288F15811581158160088D028E038F0480BAEA4B604774042AFAE43BFBA8
:20106000A8811818740426FDE40836FE0886078D828E838FF012554BFDA312554BFEA31271
:20108000554BFF8A828B838CF0ED124F50A3EE124F50A3EF124F50789A79067A0012124485
:2010A000A8811818740426FDE40836FE0886078D828E838FF0E4124F50A3124F50A3124FFB
:2010C00050A8811818740726FDE40836FE0886078D828E838FF0E4124F50A3124F50A312D7
:2010E0004F5015811581158102125620811B90000A75F040787379C97A01121244AE82AF3B
:2011000083EE4F6004C2008002D200A200E433FE7F008E828F83021256AE82AF83BE81052D
:20112000BF00028006BE8210BF000D740255ABFF7E008F828E838003900000021256AE828A
:20114000AF83BE8005BF00028008BE8153BF00508011438F02538CFE53F3FD53FDFD9000CE
:20116000018040E58124FCF8E608466029E5AB20E129E4C0E0C0E090000A75F04078B479B1
:20118000C87A01121244158115815389FDC2C543AB02D2BD800553ABFDC2BD900001800386
:2011A000900000021256C020C0E0C0F0C082C083C007C006C005C004C003C002C001C00064
:2011C000C0D075D000C2AFE58930E14190000A75F040787379C97A01121244E5828583F05B
:2011E00045F060297410C0E0E4C0E090000A75F04078B479C87A01121244158115819078C6
:201200006E75F080788979B17A011212445389FDC2C5D2AFD0D0D000D001D002D003D004D2
:20122000D005D006D007D083D082D0F0D0E0D02032AFF0AE83E582900216F0EEA3F0EFA313
:20124000F0021256C09FC8C0E0E9C0E0EA540F539FF0429FC822D09F22AE82AF83C2AF8EF8
:20126000048F051EBEFF011FEC4D60030080F0D2AF021256AE82AF83C007C00678BB791237
:201280007A00121244AC82AD83D006D007C007C006C005C00478BB79127A00121244AA827F
:2012A000AB83D004D005D006D007EAC39CFAEB9DFBC3EA9EEB9F40D5021256850F828510E5
:2012C00083021256AC11AD127E007F008C828D838EF0EF02125675C6C053C6BFE59E20E657
:2012E000FB43C630E5C6B59EFB900000E595F0E4A3F0A3F0A3F0AC967D007E008E078D06C5
:201300008C057C00900000E0F8A3E0F9A3E0FAA3E0FB900000EC28F0ED39A3F0EE3AA3F0D9
:20132000EF3BA3F0AC977D008D078C067C007D00900000E0F8A3E0F9A3E0FAA3E0FB9000A2
:2013400000EC28F0ED39A3F0EE3AA3F0EF3BA3F0900000E0FCA3E0FDA3E0FEA3E0FF9000D9
:2013600000ECF074012DA3F0E43EA3F0E43FA3F0900000E0A3E0A3E0FEA3E08E9790000045
:20138000E0A3E0FDA3E0A3E08D96900000E0FCA3E0FDA3E0FEA3E0FF8C95D2AD021256C00B
:2013A000E0C082C083C007C006C005C004C003C002C001C000C0D075D000C2AF900000E5F1
:2013C00095F0E4A3F0A3F0A3F0AC967D007E008E078D068C057C00900000E0F8A3E0F9A3F2
:2013E000E0FAA3E0FB900000EC28F0ED39A3F0EE3AA3F0EF3BA3F0AC977D008D078C067C6E
:20140000007D00900000E0F8A3E0F9A3E0FAA3E0FB900000EC28F0ED39A3F0EE3AA3F0EF79
:201420003BA3F0900000E0FCA3E0FDA3E0FEA3E0FF900000ECF074012DA3F0E43EA3F0E4B5
:201440003FA3F0900000E0A3E0A3E0FEA3E08E97900000E0A3E0FDA3E0A3E08D96900000F5
:20146000E0FCA3E0A3E0A3E08C957401250FF50FE43510F510AE0FAF10EE547F6002800BE1
:2014800074012511F511E43512F5129004DB7401F0C2C7D2AFD0D0D000D001D002D003D0D5
:2014A00004D005D006D007D083D082D0E03275E40975AF0075E644C2DED2B9021256AE8235
:2014C000AF8353E6FB8EDC8FDD43E60475AF0043E640021256C020C0E0C0F0C082C083C037
:2014E00007C006C005C004C003C002C001C000C0D075D000C2B953AFFD53E6BF78DF7994E5
:201500007A01121244D2B9D0D0D000D001D002D003D004D005D006D007D083D082D0F0D0EC
:20152000E0D02032C082C083C0F0900CF2E0FAA3E0FBA3E0FC8A828B838CF07877799D7AFA
:2015400001121244AA82AB83ACF0EA4B606D74032AFDE43BFE8C07C004C003C002E5812409
:20156000FBF8E6C0E008E6C0E008E6C0E08D828E838FF078D379927A01121244AE82AF839C
:20158000158115811581D002D003D004EE4F60088A828B838CF080298A058B068C078D826A
:2015A0008E838FF0781079A37A01121244AD82AE83AFF08D028E038F04808F90000075F05E
:2015C0000015811581158102125690796BE493FDA3E493FEA3E493FFC007C005C006C007AD
:2015E000D002D001D000121244AD82AE83D0078D048E07ED4E70037C01FF8C828F83021255
:2016000056058105810581AD82AE83AFF0ED4E70030216B274202DFAE43EFB8F048A828B69
:20162000838CF012554BFAA312554BFBA312554BFC8A828B838CF0C007C006C0057877790E
:201640009D7A01121244AA82AB83ACF0D005D006D007A8811818A60208A60308A604A88105
:201660001818E60846604B90795FE493FAA3E493FBA3E493FCC004C003C002E58124FBF891
:20168000E6C0E008E6C0E008E6C0E0C005C006C007C002C003C004901E9A75F000D002D0BE
:2016A00001D000121244E58124FAF581D002D003D00415811581158102125605810581AD99
:2016C00082AE83AFF0741C2DFAE43EFB8F048A828B838CF012554BFCBC040050068C037CEC
:2016E0000080047B047C00C005C006C0078BF005F07B017C008006EB2BFBEC33FCD5F0F743
:201700001BBBFF011CC006C005C004C00378CA79157A00121244AA82AF83D003D004D00539
:20172000D006C005C002C0078B828C83124F6BAE82AF8315811581D005E58124FCF8A60610
:2017400008A607D007D006D005A88118E60846603CC007C006C005787179E37A01121244C7
:20176000AB82AC83E58124FCF8E6C0E008E6C0E08B828C83125602AB82AC8315811581D09D
:2017800005D006D007A88118A60308A6048D028E038F0474052DFDE43EFEC002C003C0043C
:2017A0007401C0E07416C0E07400C0E0E58124F9F8E6C0E008E6C0E08D828E838FF07890A0
:2017C00079C27A01121244E58124F8F58115811581021256C082C083C0F005810581058196
:2017E000E58124F5F8E608467003021A16E58124F5F8A9811919E6F70809E6F70809E6F70D
:20180000E58124FBF8742026FDE40836FE0886078D828E838FF012554BFAA312554BFBA3A1
:2018200012554BFCC007C006C005E58124FBF8E6C0E008E6C0E008E6C0E08A828B838CF0F3
:2018400078DE79A07A01121244158115811581D005D006D007E58124F5F8A9811919E6F742
:201860000809E6F70809E6F7A8811818740326FAE40836FB0886048A828B838CF012554BA5
:20188000FAA312554BFBA312554BFC8A828B838CF0C007C006C005784C79EF7A01121244B6
:2018A000D005D006D007A8811818740626FAE40836FB0886048A828B838CF012554BFAA31F
:2018C00012554BFBA312554BFCC007C006C005C002C003C004900CE575F000783C798F7A53
:2018E00001121244158115811581D005D006D007E58124F5F88602088603088604C007C092
:2019000006C005C002C003C004900CDB75F000783C798F7A01121244158115811581D005A1
:20192000D006D0078D828E838FF012554BFDA312554BFEA312554BFF8D828E838FF0787777
:20194000799D7A01121244AD82AE83ED4E604DE58124FBF8741B26FDE40836FE0886078DD5
:20196000828E838FF0E4124F50E58124FBF8741C26FDE40836FE0886078D828E838FF0E458
:20198000124F50E58124FBF886820886830886F078BB79167A00121244021A16E58124FB27
:2019A000F8740526FDE40836FE0886078D828E838FF0785979C57A01121244E58124FBF8D0
:2019C0008605088606088607900CF2E0FAA3E0FBA3E0FCC005C006C0078A828B838CF0788E
:2019E000DE79A07A01121244158115811581E58124FBF88605088606088607C005C006C0CF
:201A000007900CD175F000783C798F7A01121244158115811581E58124FAF581021256C068
:201A200082C083E5812409F58124F0F8860308860408860574062BFAE43CFE8D078A828E33
:201A4000838FF012554BFAA312554BFEA312554BFF8A828E838FF0A881181812554BF6A3F1
:201A600012554B08F6A312554B08F674032AFAE43EFE8A828E838FF0E58124FBF812554BDD
:201A8000F6A312554B08F6A312554B08F6E58124EDF8E58124F8F9E6F70809E6F70809E6FE
:201AA000F7E58124F8F8741B26FAE40836FE0886078A828E838FF012554BFAC002E58124BD
:201AC000F5F8E6C0E008E6C0E0C003C004C005E58124F2F886820886830886F078D47917D2
:201AE0007A00121244E58124FBF5817F00C007E58124F4F8E6C0E008E6C0E0E58124F7F8C0
:201B0000E6C0E008E6C0E008E6C0E0E58124F7F886820886830886F078EA79E37A011212B6
:201B200044E58124F924F5F581021256AD82AE83AFF0E58124FBF886820886830886F0C012
:201B400007C006C00578BB79167A00121244D005D006D00774032DFDE43EFE8D828E838F5D
:201B6000F012554BFDA312554BFEA312554BFF8D828E838FF0786379EE7A01121244021247
:201B800056C082C083C0F0E5812406F58124F8F8740626FAE40836FB0886048A828B838CB1
:201BA000F012554BFAA312554BFBA312554BFCA8811818A60208A60308A604E58124F2F810
:201BC0008602088603088604E58124FBF8741C2AF6E43B08F608A604E58124FBF8868208D1
:201BE00086830886F012554BFFE58124F0F8E62FFEE58124FBF886820886830886F0EE1214
:201C00004F50E58124FBF886820886830886F012554B24FA503BE58124FBF8868208868320
:201C20000886F0E4124F50741B2AFDE43BFE8C07C002C003C0048D828E838FF012554BFC95
:201C40000C8D828E838FF0EC124F50D004D003D002741B2AFDE43BFE8C078D828E838FF0BE
:201C600012554BFDC002C003C004E58124FBF8740626FCE40836FE0886078C828E838FF000
:201C800012554BFCC3ED9CD004D003D002402AC002C003C004E58124F5F8E6C0E008E6C073
:201CA000E008E6C0E0900001781F791A7A00121244E58124FAF5818022C002C003C004E54F
:201CC0008124F5F886820886830886F0782C791B7A00121244158115811581E58124F7F589
:201CE00081021256C082C083C0F0E5812406F58124F8F8740626FAE40836FB0886048A8255
:201D00008B838CF012554BFAA312554BFBA312554BFCA8811818A60208A60308A604E58122
:201D200024F2F88602088603088604741C2AFDE43BFE8C078D828E838FF0E4124F50E581E9
:201D400024FBF8741B2AF6E43B08F608A604E58124FBF886820886830886F012554BFFE544
:201D60008124F0F8E62FFEE58124FBF886820886830886F0EE124F50E58124FBF886820883
:201D800086830886F0E58124FBF912554BF7A8811818740626FDE40836FE0886078D828E4D
:201DA000838FF012554BFDE58124FBF8C3E69D402AC002C003C004E58124F5F8E6C0E008F7
:201DC000E6C0E008E6C0E0900002781F791A7A00121244E58124FAF5818022C002C003C070
:201DE00004E58124F5F886820886830886F0782C791B7A00121244158115811581E581246B
:201E0000F7F581021256C082C083C0F0058105810581E58124F5F88602088603088604748E
:201E20001C2AFDE43BFE8C078D828E838FF0E4124F50A8811818741B2AF6E43B08F608A6A8
:201E400004A881181886820886830886F012554BFFE58124F3F8E62FFEA8811818868208EC
:201E600086830886F0EE124F50C002C003C004E58124F8F8E6C0E008E6C0E008E6C0E09047
:201E80000000781F791A7A00121244E58124FAF581E58124FAF58102125605810581058146
:201EA000AD82AE83AFF0ED4E70030220E774202DFAE43EFB8F048A828B838CF012554BFABF
:201EC000A312554BFBA312554BFC8A828B838CF0C007C006C0057877799D7A01121244AAE7
:201EE00082AB83ACF0D005D006D007A8811818A60208A60308A604A8811818E608467003B0
:201F0000021FB4C005C006C007E58124FBF8740326FDE40836FE0886078D828E838FF0121D
:201F2000554BFDA312554BFEA312554BFFC005740AC0E08D828E838FF0787E79F17A0112EE
:201F40001244AE82AF831581D00575820AC007C00678A979BE7A01121244AC82AD83D00661
:201F6000D007EEB5040CEFB50508D007D006D0058042D007D006D005A881181886020886F1
:201F8000030886048A828B838CF0C007C006C005781079A37A01121244AA82AB83ACF0D077
:201FA00005D006D007A8811818A60208A60308A604021EF7A8811818E6084670030220E7EB
:201FC000A8811818740626FAE40836FB0886048A828B838CF012554BFAA312554BFBA31218
:201FE000554BFCEA4B70030220E7E58124F9F8B6000608B60002802FE58124F9F8B60107B5
:2020000008B60003022088E58124F9F8B6020608B600028043E58124F9F8B6030708B600A0
:20202000030220E70220B8E58124F7F8E6C0E008E6C0E0C005C006C007E58124F9F8868258
:202040000886830886F07806791E7A00121244E58124FBF5810220E7E58124F7F8E6C0E0F7
:2020600008E6C0E0C005C006C007E58124F9F886820886830886F078E4791C7A001212449B
:20208000E58124FBF581805FE58124F7F8E6C0E008E6C0E0C005C006C007E58124F9F88686
:2020A000820886830886F07881791B7A00121244E58124FBF581802FC005C006C007E5813E
:2020C00024FBF8E6C0E008E6C0E008E6C0E0E58124F3F88682088683781F791A7A001212F1
:2020E00044E58124FAF581158115811581021256C082C083C0F0E5812412F58175821B78A5
:202100000279BF7A01121244AA82AB83ACF0E58124FBF8A60208A60308A6049005B4E0708B
:202120001C9005B47401F0787179E37A01121244E5828583F09005B5F0E5F0A3F09005B562
:20214000E0FBA3E0FC9005B5E0F5F0A3E045F0700B9005B574012BF0E43CA3F09005B5E02C
:20216000FBA3E0FC9005B574012BF0E43CA3F0C003C00475820A788779BE7A0112124415A2
:20218000811581E58124FBF886820886830886F0782479157A00121244AA82AB83ACF0E52D
:2021A0008124F8F8A60208A60308A604E58124F8F8E6084660030222D9900CD175F0007827
:2021C000EE798D7A01121244AD82AE83AFF0E58124F8F8A60508A60608A607E58124F8F821
:2021E000E6084670030222D9E58124F8F8740326FDE40836FE088607E58124FBF8E6C0E06F
:2022000008E6C0E008E6C0E08D828E838FF0789B79927A01121244158115811581E58124B6
:20222000F8F8741B26FDE40836FE0886078D828E838FF0E4124F50E58124F8F8741C26FDE6
:20224000E40836FE0886078D828E838FF0E4124F50E58124F8F8742026FDE40836FE0886B6
:2022600007E58124F8F8741D26FAE40836FB0886048D828E838FF0EA124F50A3EB124F5004
:20228000A3EC124F508A828B838CF0E4124F50A3124F50A3124F508A828B838CF078627942
:2022A0009D7A01121244E58124F8F88602088603088604900CF2E0FDA3E0FEA3E0FFC00249
:2022C000C003C0048D828E838FF0780E799E7A01121244158115811581E58124F8F8E6082E
:2022E00046700302275BE58124F8F8742026FAE40836FB0886048A828B838CF012554BFD7F
:20230000A312554BFEA312554BFF8D828E838FF0C004C003C002782379A27A01121244AEE7
:2023200082AF83D002D003D004C3EE9408EF64809480400302275B900CDB75F000C004C015
:2023400003C00278EE798D7A01121244AD82AE83AFF0D002D003D004E58124F5F8A60508C7
:20236000A60608A607E58124F5F8E6084670030226D4E58124F5F8E58124EFF9740626F762
:20238000E4083609F70809E6F7900CE575F000C004C003C00278EE798D7A01121244AD8280
:2023A000AE83AFF0D002D003D004E58124EFF886820886830886F0ED124F50A3EE124F50EC
:2023C000A3EF124F50ED4E70030226A0E58124F5F8E58124F2F9740326F7E4083609F7089A
:2023E00009E6F7C004C003C00278FC79EC7A01121244AD82AE83AFF0D002D003D004E58114
:2024000024F2F886820886830886F0ED124F50A3EE124F50A3EF124F50ED4E700302265EC0
:20242000E58124EFF886820886830886F012554BFDA312554BFEA312554BFFA8811818A63F
:202440000508A60608A607758209C004C003C00278A979BE7A01121244E5828583F0D00259
:20246000D003D00445F07029C002C003C004E58124FBF8740626FAE40836FB0886048A82CC
:202480008B838CF07408124F50D004D003D0028044C002C003C004E58124FBF8740626FDE5
:2024A000E40836FE088607758209C007C006C005C00278A979BE7A01121244AB82D002D049
:2024C00005D006D0078D828E838FF0EB124F50D004D003D002A88118188682088683088696
:2024E000F0E58124ECF9E7124F50A309E7124F50A309E7124F50A8811818740326FDE4087E
:2025000036FE0886078D828E838FF0E58124E6F8E6124F50A308E6124F50A308E6124F50D0
:2025200075820DC004C003C00278A979BE7A01121244AE82AF83D002D003D004BE015EBF5C
:20254000005BE58124F5F8E58124F2F9E6F70809E6F70809E6F78A828B838CF012554BFD36
:20256000A312554BFEA312554BFFC004C003C002E58124EFF8E6C0E008E6C0E008E6C0E058
:202580008D828E838FF078F3799E7A01121244158115811581D002D003D0048059E5812499
:2025A000F5F8E58124F2F9E6F70809E6F70809E6F78A828B838CF012554BFDA312554BFE68
:2025C000A312554BFFC004C003C002E58124EFF8E6C0E008E6C0E008E6C0E08D828E838F9C
:2025E000F0780E799E7A01121244158115811581D002D003D0048A828B838CF012554BFDEB
:20260000A312554BFEA312554BFF8D828E838FF07877799D7A01121244AC82AB83AAF0E5B1
:202620008124F5F88605088606088607C005C006C0078C828B838AF012288F158115811562
:202640008160028016E58124F8F886820886830886F078BB79167A00121244022795E58128
:2026600024EFF886820886830886F012554BFDA312554BFEA312554BFFC004C003C002C059
:2026800005C006C007900CE575F000783C798F7A01121244158115811581D002D003D004E8
:2026A000E58124F5F88605088606088607C004C003C002C005C006C007900CDB75F0007800
:2026C0003C798F7A01121244158115811581D002D003D0048A828B838CF012554BFAA312A1
:2026E000554BFBA312554BFC8A828B838CF0782379A27A01121244E5828583F045F0705B60
:20270000E58124F8F88602088603088604900CF2E0FDA3E0FEA3E0FFC002C003C0048D82CE
:202720008E838FF078DE79A07A01121244158115811581E58124F8F88602088603088604D0
:20274000C002C003C004900CD175F000783C798F7A011212441581158115817401C0E0E404
:20276000C0E07404C0E0E4C0E0E58124E2F8E6C0E008E6C0E008E6C0E0E58124E5F88682A8
:202780000886830886F078EA79E37A01121244E58124F9F581E58124EBF5810212569079B2
:2027A0007FE493FDA3E493FEA3E493FFC007C006C005C005C006C007D002D001D0001212BA
:2027C00044D005D006D007021256907965E493FDA3E493FEA3E493FFC007C005C006C0079D
:2027E000D002D001D000121244AD82AE83D0078D828E83021256AE82AF83907968E493FBF8
:20280000A3E493FCA3E493FDC005C003C004C0058E828F83D002D001D000121244AB82ACA4
:2028200083D0058B828C8302125690796BE493FDA3E493FEA3E493FFED4E601DC007C0055D
:20284000C006C007D002D001D000121244AD82AE83D0078D828E83800390000002125690AC
:202860000CDB75F00078E8798C7A01121244900CE575F00078E8798C7A01121244900CD129
:2028800075F00078E8798C7A01121244021256E58124FCC3C8C0E0C082E608467006E5821D
:2028A0004583601218E58296F58208E58396428208E5F0964582D082C8D0E0C822AD82AEBD
:2028C00083AFF0E58124FCF886048D828E838FF0EC124F500DBD00010EE58124FCF80886AD
:2028E000048D828E838FF0EC124F50021256AD82AE83AFF074012DFAE43EFB8F048A828B4C
:20290000838CF012554BFC7A008D828E838FF012554BFD7F004202EF42048A828C8302121B
:2029200056AD82AE83AFF012554BFB7C000DBD00010E8D828E838FF012554BFD7F0042042D
:20294000EF4203E58124FCF886078FF005F08006EC2CFCEB33FBD5F0F78B047B00E58124C1
:20296000FAF8E62444F58208E63479F583E4937E005204EE5203E58124FAF886077408C3B7
:202980009FFF8FF005F08007C3EB13FBEC13FCD5F0F68C82021256C082C083C0F0E58124F5
:2029A00007F58124EDF8C3E6940808E6648094805048E58124EDF8E6C0E008E6C0E0E581E5
:2029C00024EDF8E6C0E008E6C0E0E58124EDF886820886830886F0782179297A00121244B7
:2029E000AC82E58124FCF58124F7F886820886830886F0EC124F50022C56E58124EFF8E68B
:202A000008466003022B137408C0E0E4C0E0E58124EBF88682088683125681AB82AC831545
:202A2000811581E58124FDF8E4F608F6E58124FDF8C3E69B08E664808CF063F08095F0506F
:202A400052C003C004E58124F5F8E58124FBF9E726FC09E70836FD088606E58124EFF8E58A
:202A60008124FBF9E726FA09E70836FB0886078A828B838FF012554BFA8C828D838EF01205
:202A80004F50E58124FBF806B600020806D004D0038099E58124EDF8740756FE7F004F7012
:202AA00003022C56E58124F7F8E58124FDF9E726C0E009E70836C0E008E6C0E0E58124F90A
:202AC000F8D0E0F618D0E0F618D0E0F6E58124F1F8E58124FDF9E726FA09E70836FC08862A
:202AE00005C006C007E4C0E0C0E08A828C838DF0782179297A00121244AF82E58124FCF5BF
:202B00008124FAF886820886830886F0EF124F50022C567408C0E0E4C0E0E58124EBF886D0
:202B200082088683125681AE82AF8315811581E58124FDF8E4F608F6E58124FDF8C3E69E6E
:202B400008E664808FF063F08095F04003022BD0C006C007E58124F5F8E58124FBF9E726FD
:202B6000FA09E70836FB088607E58124EFF8E58124FBF9E726FC09E70836FD088606C0071F
:202B8000C003C0027408C0E0E4C0E0E58124E8F8E6C0E008E6C0E08C828D838EF0782179E4
:202BA000297A00121244AE82E58124FCF581D002D003D0078A828B838FF0EE124F50E581C4
:202BC00024FBF806B600020806D007D006022B38E58124EDF8A98119740756F7097700A85E
:202BE0008118E60846606FE58124F7F8E58124FDF9E726FB09E70836FC088605E58124F100
:202C0000F8E58124FDF9E726FA09E70836FE088607C005C004C003E58124FCF8E6C0E0081C
:202C2000E6C0E0E58124EAF8E6C0E008E6C0E08A828E838FF0782179297A00121244AF82A4
:202C4000E58124FCF581D003D004D0058B828C838DF0EF124F50E58124F6F581021256055E
:202C6000810581AD82AE83AFF0A88118E4F608F68D828E838FF012554B602874012DFAE4DC
:202C80003EFB8F048A828B838CF012554BFA7C00A88118EA26F6EC0836F674022DFDE43E81
:202CA000FE80CDA88118868208868315811581021256C082C083C0F0E58124F8F886037C25
:202CC00000E58124F9F886027410C39AFAE58124F6F88607EAC39FFA8AF005F08006EB2BC0
:202CE000FBEC33FCD5F0F7A881181886820886830886F012554BFF8C06EE4207A88118183F
:202D000086820886830886F0EF124F50A8811818740126FDE40836FE0886078D828E838F27
:202D2000F012554BFAEB42028D828E838FF0EA124F50158115811581021256C082C083C01D
:202D4000F0E5812404F58124F0F8C3E6940808E6648094805050E58124F2F886020886031B
:202D60000886048A828B838CF012554BFAE58124F0F8E6C0E008E6C0E0C002E58124F2F8C3
:202D8000E6C0E008E6C0E0E58124F5F886820886830886F078B2792C7A00121244E58124D6
:202DA000FBF581022FDEE58124F5F8E608466003022EBA7408C0E0E4C0E0E58124EEF88605
:202DC00082088683125681AB82AC8315811581E58124FDF8E4F608F6E58124FDF8C3E69BD5
:202DE00008E664808CF063F08095F05052C003C004E58124F8F8E58124FBF9E726FC09E713
:202E00000836FD088606E58124F0F8E58124FBF9E726FA09E70836FB0886078A828B838F85
:202E2000F012554BFA8C828D838EF0124F50E58124FBF806B600020806D004D0038099E5BB
:202E40008124F0F8740756FE7F004F7003022FDEE58124F2F8E58124FDF9E726FB09E708D2
:202E600036FC0886058B828C838DF012554BFB8E057408C39DF5F005F0EB8002C313D5F0F6
:202E8000FBFBE58124FAF8E58124FDF9E726FA09E70836FC088605C006C007C003E4C0E0A8
:202EA000C0E08A828C838DF078B2792C7A00121244E58124FBF581022FDE7408C0E0E4C05F
:202EC000E0E58124EEF88682088683125681AE82AF83158115817C007D00C3EC9EED6480FB
:202EE0008FF063F08095F05072C006C007E58124F0F8EC26FAED0836FB0886078A828B8359
:202F00008FF012554BFAE58124F8F8EC26FBED0836FE088607C007C006C005C0047408C0EF
:202F2000E0E4C0E0C002E58124ECF8E6C0E008E6C0E08B828E838FF078B2792C7A001212DF
:202F400044E58124FBF581D004D005D006D0070CBC00010DD007D006022EDAE58124F0F8DD
:202F6000A98119740756F7097700A88118E60846606CE58124F2F8EC26FAED0836FB088651
:202F8000078A828B838FF012554BFAA8811886067408C39EFEE58124F5F8E62EF5F005F0D8
:202FA000EA8002C313D5F0FBFAE58124FAF8EC26FCED0836FD088607A88118E6C0E008E619
:202FC000C0E0C002E4C0E0C0E08C828D838FF078B2792C7A00121244E58124FBF581E581BC
:202FE00024F9F581021256C082C083C0F0E5812418F58124E6F8740826FAE40836FB08863E
:20300000048A828B838CF012554BFA7C00C004C0027408C0E0E4C0E08A828C83125681AF15
:2030200082AE8315811581D002D0045302077C00EA4C7004FBFC80047B017C00EB2FFBEC15
:203040003EFCE58124F1F8A60308A604E58124F1F8740226FAE40836FF8A828F837893799C
:20306000BB7A01121244E5828583F045F0700690000002339178DE79BC7A01121244AA82B8
:20308000AB83ACF0E58124FCF8A60208A60308A604E58124E6F8740326FDE40836FE08862D
:2030A000078D828E838FF012554BFCE58124FCF886820886830886F0EC124F50E58124FC84
:2030C000F8740126FAE40836FB0886048D828E838FF012554BA312554B8A828B838CF01266
:2030E0004F5078DE79BC7A01121244AD82AE83AFF0E58124F9F874022DF6E43E08F608A6E2
:2031000007E58124F9F88602088603088604E58124F1F8E6C0E008E6C0E0E4C0E08A828BE0
:20312000838CF078FC79527A00121244158115811581E58124F5F8E4F608F6E58124E6F8F6
:20314000740526FAE40836FE0886078A828E838FF012554BFDA312554BFEA312554BFFAA85
:20316000811AE58124E9F8A6028D828E838FF0E58124EBF812554BF6E58124EBF8E6700327
:2031800002338EC00274012DFAE43EFB8F048A828B838CF012554BFAE58124F6F8A60208F4
:2031A0007600C007C006C005C0027408C0E0E4C0E0E58124EEF88682088683125681AB8246
:2031C000AC8315811581D002D005D006D007E58124F2F8A60308A604E58124EAF8B61A0035
:2031E000D0025003023290C002E58124EAF88682C007C006C005780279BF7A01121244AA1F
:2032000082AB83ACF0D005D006D007E58124EBF8A60208A60308A604E58124F4F8E5812468
:20322000EEF9740756F7097700E58124F8F8E58124F2F9E726FA09E70836FB088604C007E7
:20324000C006C005C002E58124F2F8E6C0E008E6C0E0E58124E5F8E6C0E008E6C0E008E630
:20326000C0E0E58124E5F8E6C0E008E6C0E08A828B838CF0783B792D7A00121244E58124D8
:20328000F9F581D002D005D006D007D002023372C005C006C007E58124E8F88682C007C0A7
:2032A00006C005C00278A979BE7A01121244AB82AC83D002D005D006D0078A057E007F40CA
:2032C000C007C006C005C002C003C0048D828E838FF078BD79287A0012124415811581D000
:2032E00002D005D006D007E58124E6F8E58124E9F9E6F7097700097740E58124F2F8E5817F
:2033000024ECF9740756F7097700E58124F6F8E58124F0F9E726FB09E70836FC088607C0EA
:2033200007C006C005C002E58124F0F8E6C0E008E6C0E0E58124E3F8E6C0E008E6C0E00832
:20334000E6C0E0E58124E3F8E6C0E008E6C0E08B828C838FF0783B792D7A00121244E58132
:2033600024F9F581D002D005D006D007D007D006D005E58124F5F8E58124F7F9E726F609E7
:20338000E70836F674022DFDE43EFE023169900001E58124E5F581021256E5812414F581C2
:2033A00078B779BC7A01121244AD82AE83AFF0900002C007C006C005786679BC7A01121231
:2033C00044E5828583F0D005D006D00745F07008900000F5F002370574012DFAE43EFB8F20
:2033E000048A828B838CF012554BFC7A008D828E838FF012554B7F002AFAEF3CFC8A828C58
:2034000083780279B07A01121244AD82AE83AFF0E58124FCF8A60508A60608A607E5812488
:20342000FCF8E608467008900000F5F002370578B779BC7A01121244AA82AB83ACF0E58196
:2034400024F9F8A60208A60308A604E58124FCF8740826FDE40836FE0886078D828E838FCB
:20346000F012554BFD7F00C007C0057408C0E0E4C0E08D828F83125681AC82AB83158115F1
:2034800081D005D0075305077F00ED4F7004FEFF80047E017F00EE2CFEEF3BFF8E828F838F
:2034A000786679BC7A01121244E5828583F045F07008900000F5F0023705E4FEFFE58124EC
:2034C000FCF8740526FBE40836FC0886058B828C838DF0E58124EFF812554BF6A312554BA6
:2034E00008F6A312554B08F6E58124EDF8A68116E58124EDF8E58124F2F9E6F7E58124EF95
:20350000F886820886830886F012554BFD70030236F8E58124EFF8740126FAE40836FB089F
:2035200086048A828B838CF012554BFAE58124F7F8A602087600C007C006C0057408C0E0B2
:20354000E4C0E08E828F83125681AB82AC8315811581D005D006D007E58124F5F8A60308AA
:20356000A604BD1A005003023619E58124F3F874075EF6087600C006C007E58124F7F8E579
:203580008124F3F9E726FA09E70836FB088607E58124EBF886068E047D007E40C007C00682
:2035A000E58124F3F8E6C0E008E6C0E0E58124EDF8E6C0E008E6C0E0C002C003C0078C82A5
:2035C0008D838EF0789779297A00121244E58124F9F581D006D007E58124F0F886057E00A9
:2035E0007F40E58124EDF886820886830886F012554BFCC007C006C005C006C0078C8278F3
:20360000C579BE7A01121244158115811581D006D007D007D0060236DCA981197700E904F4
:20362000F87600E58124F3F874075EF6087600C006C007E58124F7F8C001E58124F2F9E737
:2036400026FA09E70836FB088607D00189068E047D007E40C007C006C001E58124F2F8E6B7
:20366000C0E008E6C0E0E58124ECF8E6C0E008E6C0E0C002C003C0078C828D838EF07897A3
:2036800079297A00121244E58124F9F581D001D006D00789077E007D408F828E838DF0784D
:2036A000EE79287A00121244AE82AF83E58124EDF886820886830886F012554BFDC007C0FB
:2036C00006C006C0078D82788779BE7A0112124415811581D006D007D007D006E58124F728
:2036E000F8E62EFE08E63FFFE58124EFF8740226F6E40836F60234FCE58124FCF8868208B9
:2037000086830886F0C8E58124ECF581C8021256AF82BF02028005BF030C800575820280F7
:20372000087582088003758200021256900D0AE0FEA3E0FF8E828F83021256AF83E58290E2
:203740000D0AF0EFA3F0021256C082C083C0F0058105810581A88118E4F608F6E4FAFCE5D7
:203760008124FBF8E608467003023AF6C002C004E58124F9F8740826FAE40836FB0886048C
:203780008A828B838CF012554BFABA02028007D004D002023A2DE58124F9F8740726FAE499
:2037A0000836FB0886048A828B838CF0E58124FCF812554BF6D004D002A8811818E6704FDE
:2037C000C002C004E58124F9F8740926FAE40836FB0886048A828B838CF012554BD004D0B0
:2037E00002702CC002C004E58124F9F8740426FAE40836FB0886048A828B838CF012554B9B
:20380000FABA0107D004D00202390CD004D002A8811818E66049C002C004E58124F9F874FC
:203820000926FAE40836FB0886048A828B838CF012554BD004D0027026C002C004E581241C
:20384000F9F8740426FAE40836FB0886048A828B838CF012554BD004D002700302390CA8E0
:20386000811818B60348C002C004E58124F9F8740926FAE40836FB0886048A828B838CF0B3
:2038800012554BFABA03028006D004D002801FE58124F9F8740426FAE40836FB0886048AA6
:2038A000828B838CF012554BD004D002605EA8811818B60223C002C004E58124F9F8740934
:2038C00026FAE40836FB0886048A828B838CF012554BD004D0027034A8811818E66031C0F7
:2038E00002C004E58124F9F8740926FAE40836FB0886048A828B838CF012554BFABA02023B
:203900008006D004D0028008D004D0027A017C00C002C004E58124F9F8740426FAE408369B
:20392000FB0886048A828B838CF012554BD004D0026003023AA6A8811818E6702CC002C06A
:2039400004E58124F9F8740926FAE40836FB0886048A828B838CF012554BFABA0307D004C2
:20396000D002023A23D004D002A8811818E6702CC002C004E58124F9F8740926FAE40836D5
:20398000FB0886048A828B838CF012554BFABA0207D004D002023A23D004D002A881181891
:2039A000E4B6020104FB602BC002C004E58124F9F8740926FAE40836FC0886078A828C8374
:2039C0008FF012554BFABA0206D004D0028054D004D002EB601FE58124FBF8740926FDE46F
:2039E0000836FE0886078D828E838FF012554BFDBD0302802EA8811818B603028003023A65
:203A0000A6E58124FBF8740926FDE40836FE0886078D828E838FF012554BFDBD020280039C
:203A2000023AA6A8811876010876008079E58124FBF886820886830886F012554BFFBF02EF
:203A4000028063E58124FBF8740426FDE40836FE0886078D828E838FF012554B7026E58167
:203A600024FBF8740926FDE40836FE0886078D828E838FF012554BFD54036008A881187616
:203A800001087600E58124FBF8740726FDE40836FE0886078D828E838FF012554BFD540332
:203AA00060047A017C00E58124F5F8E608466020E58124F5F886050886060886078D828EB8
:203AC000838FF0A88118E6124F50A308E6124F50E58124F2F8E60846601CE58124F2F886AC
:203AE000050886060886078D828E838FF0EA124F50A3EC124F50E58124FAF581021256C0FA
:203B000082C083C0F0E5812404F581A88118E4F608F6E58124FAF8E608467006900000025B
:203B20003BD0AC811C7B007A40E58124FAF8741026FDE40836FE088607C004C003C002E4F7
:203B4000C0E0C0E0C0E08D828E838FF0784979377A00121244E58124FAF581A88118E6086A
:203B600046606AE58124FAF8741B26FDE40836FE0886078D828E838FF0E58124FDF81255CD
:203B80004BF6A312554B08F6C007C006C005782C79377A00121244AA82AC83D005D006D033
:203BA00007E58124FDF8E6B5020708E6B50402801C8D828E838FF012554BFDA312554BFEF5
:203BC000BDFF05BEFF0280059000008003900001E58124F9F581021256AF82BF02067E0261
:203BE0007F0080047E087F00C3E49E74808FF063F08095F050281EBEFF011FE58124FBF8BD
:203C0000EE26FBEF0836FC0886058B828C838DF012554BFBBBFF0280CF90000080039000E5
:203C200001021256C082C083C0F0058105810581E58124FBF8E608467006900000023E4A11
:203C4000E58124FBF8741026FAE40836FB08860474092AFDE43BFE8C078D828E838FF0A8F9
:203C600081181812554BF6A8811818E66013A8811818B602067E027F00800A7E087F008014
:203C8000047E007F00A88118A60608A607EE4F6040E58124FBF8740826FDE40836FE0886DA
:203CA00007C004C003C002C005C006C007E58124F8F8868278D9793B7A00121244AE82AF1A
:203CC00083158115811581D002D003D004EE4F6043E58124F5F8E608467003023D6EC004B7
:203CE000C003C002746CC0E07478C0E07480C0E0E58124EFF886820886830886F0789B790B
:203D0000927A01121244158115811581D002D003D004805AA88118B6020608B600028006D4
:203D2000900000023E4AE58124F5F8E60846603EE58124FBF8740826FDE40836FE0886074F
:203D4000C004C003C002C005C006C007E58124EFF886820886830886F0789B79927A011215
:203D60001244158115811581D002D003D00474072AFAE43BFB8A828B838CF012554BFF6052
:203D80000FBF02067D027E00800A7D087E0080047D007E008D038E04ED4E6031C004C003CF
:203DA000E58124F9F8E6C0E008E6C0E008E6C0E08F8278D9793B7A00121244AE82AF831577
:203DC0008115811581D003D004EE4F6034E58124F2F8E608466070746CC0E07478C0E074C6
:203DE00080C0E0E58124EFF886820886830886F0789B79927A011212441581158115818058
:203E000046BB0205BC00028005900000803CE58124F2F8E60846602FE58124FBF8860508C4
:203E20008606088607C005C006C007E58124EFF886820886830886F0789B79927A0112124A
:203E400044158115811581900001E58124FAF581021256C082C083C0F0E581240AF5812404
:203E6000EEF886020886030886047406C0E0E4C0E0C0E08A828B838CF078FC79527A001212
:203E80001244158115811581E58124F4F8741026FAE40836FB08860474052AFDE43BFE8CF8
:203EA000078D828E838FF012554B20E018E58124EEF886050886060886078D828E838FF0CF
:203EC0007401124F5074082AFDE43BFE8C078D828E838FF012554BFDBD02004003023F9642
:203EE00074072AFDE43BFE8C078D828E838FF012554BFD54037003023F8374092AFDE43BD1
:203F0000FE8C078D828E838FF012554BFD54036072C002C003C004E58124F1F8741D26FD29
:203F2000E40836FE0886078D828E838FF012554BFDA312554BFEE58124F1F8741B26FBE424
:203F40000836FC0886078B828C838FF012554BFBA312554BFCEDB50306EEB504028008D04D
:203F600004D003D002801CD004D003D00274042AFDE43BFE8C078D828E838FF07401124FBF
:203F800050801374042AFDE43BFE8C078D828E838FF0E4124F50AF811FE58124F7F8A60746
:203FA000087600087640E58124FDFF7E007D40C004C003C002E58124F4F8E6C0E008E6C011
:203FC000E008E6C0E0C007C006C0058A828B838CF0784979377A00121244E58124FAF5813E
:203FE000D002D003D004E58124FDF8E60846601FE58124EEF8860508860608860774032D4E
:20400000FDE43EFE8D828E838FF07402124F50A88118E60846601DE58124EEF88605088642
:20402000060886070DBD00010E8D828E838FF07402124F50E58124EEF8E58124F7F9E6F77F
:204040000809E6F70809E6F7E58124F7F8E58124FAF9740226F7E4083609F70809E6F77477
:20406000072AFDE43BFE8C078D828E838FF012554BFD5305038D82C004C003C00278107960
:20408000377A00121244AF82D002D003D004E58124FAF886820886830886F0EF124F50E5C5
:2040A0008124F7F8740426FDE40836FE08860774092AFAE43BFB8A828B838CF012554BFA1F
:2040C0005302038A82C007C006C005781079377A00121244AC82D005D006D0078D828E8340
:2040E0008FF0EC124F50E58124F3F581021256E5812406F581AD82AE83AFF0E58124FBF9C4
:20410000FA7B007C40C001C002C003C0048D828E838FF07853793E7A001212441581158135
:204120001581D00187077E0074022FFFE43EFEE904F886057C00ED2FFFEC3EFE740229F882
:2041400086057C00ED2FFFEC3EFE740329F886057C00ED2FFFEC3EFE740429F886057C0093
:20416000ED2FFFEC3EFE740529F987057C00ED2FFFEC3EFE8F828E83E58124FAF5810212E6
:2041800056C082C083C0F00581E58124F7F88602088603088604E58124FDF8868208868352
:2041A0000886F012554BFFA88174075FF6E58124FDF8740126FDE40836FE0886078D828E6E
:2041C000838FF012554B5401C40354F8A88146F6E58124FDF8740226FDE40836FE08860791
:2041E0008D828E838FF012554B5401C454F0A88146F6E58124FDF8740326FDE40836FE086B
:2042000086078D828E838FF012554B5401C42354E0A88146F6E58124FDF8740426FDE408E5
:2042200036FE0886078D828E838FF012554B5401030354C0FDA881E642058A828B838CF00C
:20424000ED124F500ABA00010BE58124FDF8740526FDE40836FE0886078D828E838FF0126F
:20426000554BFDA88174015DF6E58124FDF8740626FDE40836FE0886078D828E838FF0122E
:20428000554B540125E0A88146F6E58124FDF8740726FDE40836FE0886078D828E838FF04E
:2042A00012554B540325E025E0A88146F6E58124FDF8740826FDE40836FE0886078D828E16
:2042C000838FF012554B5403C454F0A88146F6E58124FDF8740926FDE40836FE0886078D05
:2042E000828E838FF012554B5403030354C0FDA881E642058A828B838CF0ED124F50E5819C
:2043000024FCF581021256C082C083C0F0E581240CF58124FBF9FA7B007C40C001C002C0D0
:2043200003C004E58124EEF886820886830886F07853793E7A00121244158115811581D0B9
:2043400001E58124F2F8741026FAE40836FB088604C001E58124EBF8E6C0E008E6C0E0084B
:20436000E6C0E08A828B838CF0788179417A00121244158115811581D0017C028703BB0135
:204380004CC0017C03E58124EBF8C001E58124F3F9740226F7E4083609F70809E6F7D00179
:2043A000E58124F1F8741A26FDE40836FE0886078D828E838FF012554BFDE58124F4F886DA
:2043C000820886830886F0ED124F50D001E904F88607BF02028002807BC001EC04FFE58195
:2043E00024EBF8EC26FEE40836FD088602E58124F1F8C001E58124F6F9741B26F7E408367C
:2044000009F70809E6F7D001E58124F7F886820886830886F012554B8E828D838AF0124F20
:2044200050EF04FCE58124EBF8EF26FBE40836FE088607E58124F7F886820886830886F0FB
:2044400012554BA312554BFDFA8B828E838FF0124F50D001740229F886078F067F008C0576
:20446000C3E49E74808FF063F08095F05053C001E58124EBF8C001E58124F6F9ED26F7E433
:20448000083609F70809E6F7D0010D8E041CE58124F1F8EC26FCE40836FB0886028C828B9D
:2044A000838AF012554BFCE58124F7F886820886830886F0EC124F501EBEFF011FD0018058
:2044C0009FE58124F8F8A605740329F88606BE02028003024553C001ED04FFE58124EBF8F7
:2044E000C001E58124F6F9ED26F7E4083609F70809E6F7D001E58124F1F8741D26FAE40887
:2045000036FD0886068A828D838EF012554BFCE58124F7F886820886830886F0EC124F50DF
:204520008F04E58124F7F8EF04F6E58124EBF8EC26FBE40836FC0886078A828D838EF012AD
:20454000554BA312554BFDFA8B828C838FF0124F50D001E92404F987078F067F00E581241C
:20456000F2F8E58124F5F9740826F7E4083609F70809E6F7E58124F8F88602C3E49E7480F5
:204580008FF063F08095F0504CE58124ECF8E58124F8F9EA26F7E4083609F70809E6F70A9E
:2045A0008E05ED14C8E58124F5C826FB08E436FC0886058B828C838DF012554BFBE58124B6
:2045C000F8F886820886830886F0EB124F501EBEFF011F80A67F008A828F83E58124F1F58A
:2045E00081021256E581240AF581AD82AE83AFF0E58124F7F98D828E838FF012554BFC748C
:20460000075CF7E58124F7FC04F98D828E838FF012554BA2E3E433F774022CF98D828E8327
:204620008FF012554BC45401F774032CF98D828E838FF012554BA2E5E433F774042CF98D8D
:20464000828E838FF012554B23235401F774052CF90DBD00010E8D828E838FF012554BFB41
:2046600074015BF774062CF98D828E838FF012554B035401F774072CF98D828E838FF012E3
:20468000554B0303543FFB74035BF774082CF98D828E838FF012554BC4540FFB74035BF740
:2046A00074092CF98D828E838FF012554B23235403FD74035DF77F007E40E58124F1F8866C
:2046C00002088603088605740AC0E0E4C0E0C004C007C0068A828B838DF0786779527A0006
:2046E000121244E58124FBF581E58124F6F581021256C082C083C0F0E581241CF58124DDA5
:20470000F8C3E6940208E6648094805006900000024DB4E58124F1FCFA7B007F40C004C064
:2047200002C003C007E58124DEF886820886830886F078E479457A001212441581158115B9
:2047400081D0048C07E58124E8F8A607087600087640E58124DAF8E58124E5F9E6F708096C
:20476000E6F70809E6F7E58124E5F8741026FAE40836FB088607C004740AC0E0E4C0E0E566
:204780008124E5F8E6C0E008E6C0E008E6C0E08A828B838FF0786779527A00121244E5816A
:2047A00024FBF581D004E58124E2F8E58124EEF9740226F7E4083609F70809E6F774052C73
:2047C000F9E77037C004E58124E4F8741A26FAE40836FB088604E58124EDF8868208868343
:2047E0000886F012554BFFA31818A68208A6838A828B838CF0EF124F50D004AF811FE5819F
:2048000024E8F8A607087600087640E58124FDFBE58124EBF8A6030876000876408C068EB7
:20482000057E007F40C004E58124E7F8E6C0E008E6C0E008E6C0E0E58124E7F8E6C0E00870
:20484000E6C0E008E6C0E08D828E838FF0784979377A00121244E58124FAF581D004740709
:204860002CF9E77003024A2DA88118E6084670030248EAC001E58124E4F8C001E58124E6CC
:20488000F9741B26F7E4083609F70809E6F7D001E58124EDF886820886830886F012554BDA
:2048A000FE7D00E58124EDF8740126FAE40836FB0886078A828B838FF012554BFFE42EFA71
:2048C000EF3DFFE58124E7F886820886830886F0EA124F50A3EF124F50E58124EDF87402EA
:2048E00026F6E40836F6D001801EE58124E5F8741B26FDE40836FE0886078D828E838FF0A8
:20490000E4124F50A3124F508707BF020280030249A9E58124E5F88603088605088606C00F
:2049200004746CC0E07478C0E07480C0E08B828D838EF0789B79927A01121244158115810B
:204940001581D004E58124EEF8740126FBE40836FD0886068B828D838EF012554BFBE58186
:2049600024E5F886820886830886F0EB124F50E58124E5F8740126FBE40836FD088606E56E
:204980008124EEF886820886830886F012554BFA8B828D838EF0124F50E58124EEF8740217
:2049A00026F6E40836F6024A7DBF03028003024A7DE58124FBF8E4F608F6C004E58124E463
:2049C000F8E58124FAF9E726FA09E70836FB088605E58124FAF87407C396FCE40896FFE5ED
:2049E0008124EDF8EC26FCEF0836FF0886068C828F838EF012554B8A828B838DF0124F50C7
:204A0000E58124FAF806B600020806E58124FAF8C3E6940808E664809480D004409CE58191
:204A200024EEF8740826F6E40836F68050E58124E5F88605088606088607C004746CC0E08D
:204A40007478C0E07480C0E08D828E838FF0789B79927A01121244158115811581D004E51B
:204A60008124E5F8741B26FDE40836FE0886078D828E838FF0E4124F50A3124F5074092C1C
:204A8000F9E77003024CC6E58124FDF8E608467003024B3FC001E58124E4F8741D26FDE43E
:204AA0000836FE088607E58124EDF886820886830886F012554BFCE58124EAF8A6040876DD
:204AC00000E58124EDF8740126FAE40836FB0886048A828B838CF012554BFC7A00E58124DB
:204AE000EAF8EA26FAEC0836FC8D828E838FF0EA124F50A3EC124F50E58124EDF87402261F
:204B0000F6E40836F6D001A88118E60846706EE58124E5F8741B26FAE40836FB0886048D11
:204B2000828E838FF012554BFDA312554BFE8A828B838CF0ED124F50A3EE124F50803EE548
:204B40008124E5F8741D26FDE40836FE088607E58124E5F8741B26FAE40836FB0886048A1B
:204B6000828B838CF012554BFAA312554BFB8D828E838FF0EA124F50A3EB124F508707BF67
:204B800002028003024C31E58124E5F8E58124EBF9740826F7E4083609F70809E6F7E5812B
:204BA00024EBF88602088603088606746CC0E07478C0E07480C0E08A828B838EF0789B797D
:204BC000927A01121244158115811581E58124EEF8740126FCE40836FD0886068C828D83C6
:204BE0008EF012554BFCE58124EBF886820886830886F0EC124F50E58124E5F8740926FCE2
:204C0000E40836FD088606E58124EEF886820886830886F012554BFB8C828D838EF0124F30
:204C200050E58124EEF8740226F6E40836F6024D15BF03028003024D15E58124E5F8740818
:204C400026FDE40836FE088607E58124FBF8E4F608F6E58124FBF8E62DFA08E63EFB8F04E3
:204C6000C005C006C007E58124F8F87407C396FEE40896FFE58124EBF8EE26FEEF0836FF6A
:204C80000886058E828F838DF012554B8A828B838CF0124F50E58124F8F806B600020806A3
:204CA000E58124F8F8C3E6940808E664809480D007D006D005409BE58124EEF8740826F6EA
:204CC000E40836F6804FE58124E5F8740826FAE40836FB088604746CC0E07478C0E074803B
:204CE000C0E08A828B838CF0789B79927A01121244158115811581E58124E5F8741D26FAA3
:204D0000E40836FB0886048A828B838CF0E4124F50A3124F50E58124EEF8E58124E2F9E6AA
:204D2000C397FB08E60997FC8B078C06E58124E5F8E58124EBF9743426F7E4083609F708AC
:204D400009E6F7E58124DDF8E6C39FFC08E69EFBE58124EBF886820886830886F0EC124FF2
:204D600050A3EB124F50E58124E5F8743126FAE40836FB0886048A828B838CF0E58124EEBB
:204D8000F8E6124F50A308E6124F50A308E6124F50E58124DDF8C3E69F08E664808EF063A6
:204DA000F08095F050067B007C0080048F038E048B828C83E58124E1F5810212567581208C
:204DC0001257E4E582600302006E79A7E94400601B7A01907999786575930CE493F2A30862
:204DE000B800020593D9F4DAF27593FFE478FFF6D8FD7800E84400600A7900759300E4F335
:204E000009D8FC7861E8440C600C790D900004E4F0A3D8FCD9FA900202E4F0A3F0A3F0A3CF
:204E2000F09002A3E4F0E4F50FF510F511F512900000F0A3F0A3F0A3F09005B4E4F0020027
:204E40006EA8811818C6B2E7C60250FE124EEFBC0003025389EF60FA30D502B2D1E583B43B
:204E6000FF0302539FE582B4FF0302539F258340072482400B025389248314500302539F6B
:204E8000F582EA8DF0A4A8F0EA8EF0A428F8E435F0F9EB8DF0A428E935F0F9E433CA8FF02F
:204EA000A429F9EA35F0FAEBF88EF0A429F9EA35F0FAE433FBEC8DF0A429F9EA35F0FAE4C5
:204EC0003BFBE88FF0A42AFAEB35F0FBE433CCFD8EF0A42AFAEB35F0FBE43CFCED8FF0A405
:204EE0002BFBEC35F0FC20E703124F1D025368AA82AB83A2F73392D1F5826002D2F7ACF073
:204F0000E58124F9F8E6FD08E6FE0886F008E6A2F73392D5F5836002D2F7AFF0227804ECDC
:204F20007011E58224F8500AF582E4C9CACBFCD8EF22EC7820058220E713D5820122C3E92A
:204F400033F9EA33FAEB33FBEC33FCD8EA15822220F71130F6138883A88220F509F6A8838A
:204F60007583002280FEF280F5F022C013858113C082C083E5812405F581AF130FE51324BD
:204F800003F8A607087600087640E51324FCFD7E007F40E5132406F9A813088604E5132457
:204FA000FCF886038CF0EBA4F709A7F0E513240604F98704A81308860374012DFAE43EFE20
:204FC0008A828E838FF012554B8BF0A4FBE5132403F8740126FDE40836FE0886078D828E68
:204FE000838FF012554BFDE51324FCF886078DF0EFA42B2CF7E5132406F987060987078E38
:20500000828F83851381D01322C013E581F5132406F581AD82AE83AFF0E51324F8F8E60804
:205020004670069000000250F6E51324F8F886030886041BBBFF011CEB4C70030250C6C041
:2050400003C004A81308A60508A60608A607A8130886820886830886F012554BFAE5132490
:20506000FAF8E5132404F9E6F70809E6F70809E6F7E5132404F886820886830886F0125556
:205080004BFCEAB504028006D004D0038038A81308740126FAE40836FB0886048A058B0618
:2050A0008C07E5132404F8740126FAE40836FB088604E51324FAF8A60208A60308A604D018
:2050C00004D0030250338D828E838FF012554BFD7F00E51324FAF886030886040886068B5F
:2050E000828C838EF012554BFB7E00EDC39BFDEF9EFF8D828F83851381D013021256124EBB
:20510000EF7900E583B58202800D5003125454E583C39582125746E5D0C465D020E117EA4B
:205120002DFAEB3EFBEC3FFC50097401125746EC4480FC025368C3EA9DFAEB9EFBEC9FFCC8
:20514000500FC3E499F9E49AFAE49BFBE49CFCB2D1124F1D025368C0138581130581058193
:205160000581AD82AE83AFF0E51324F8F8E608467006900000025213E51324FAF88602085F
:205180008603088604E51324F8F8A91309E6F70809E6F7A8130816B6FF020816A81308E601
:2051A0000846604C8D828E838FF0E5132403F812554BF6E5132403F8E66035C005C006C0BA
:2051C000078A828B838CF012554BFFE5132403F8E6B507028008D007D006D0058012D00753
:2051E000D006D0050DBD00010E0ABA00A60B80A38D828E838FF012554BFD7F008A828B83AC
:205200008CF012554BFA7E00EDC39AFDEF9EFF8D828F83851381D013021256AC83AB827AB8
:20522000007900748E0255DE125789700AE582458345F0700122E430D112F4700BE5F0F42C
:205240007006E58330E7012290800022700AE5F07006E58320E70122907FFF227F8E1274EA
:20526000C1F58385F08222C013E581F5132408F581AD82AE83AFF0E5132406F8A60508A687
:205280000608A607E51324FAF8A91309E6F70809E6F70809E6F7E51324F8F8E5132404F9A2
:2052A000E6F70809E6F7E5132404F88603088604E5132404F816B6FF020816EB4C6028A886
:2052C000130886820886830886F012554BFCA31818A68208A6838D828E838FF0EC124F5006
:2052E000A3AD82AE8380BFE5132406F886820886830886F0851381D013021256C01385817C
:2053000013C082C083C0F005810581A813088602088603088604E51324FAF8E5132404F9A4
:20532000E6F70809E6F7E5132404F88606088607E5132404F816B6FF020816EE4F60168A29
:20534000828B838CF0E51324FCF8E6124F50A3AA82AB8380D1A8130886820886830886F0F2
:20536000851381D013021256B98003EA13B34010EA2401FAE43BFBE43CFC50047C80058275
:20538000BC000EBB000BBA0008E4F5F0F583F58222A2D1E582138CF092F78B838A8222E4CF
:2053A000F583F58275F080F4A2D11322E4F583F58275F0C0747F22C0138581137E008E83F5
:2053C000787779DB7A01121244D013021256C013858113AD82AE83AFF0E51324FCF8E6C0B9
:2053E000E0C005C006C007E4C0E0C0E0C0E09053B775F00078D379647A00121244AE82AFCF
:2054000083E58124F9F5818E828F83D013021256C013E581F51324FAFFC007E51324FAF86E
:20542000E6C0E008E6C0E008E6C0E0E4C0E0C0E0C0E09053B775F00078D379647A00121241
:2054400044AE82AF83E58124F9F5818E828F83D013021256E582C583F582A2D133A2D59269
:20546000D11392D5ECCFFCEBCEFBEACDFA22AA82AB8312554B6003A380F8C3E5829AF582DE
:20548000E5839BF583021256124EEF30D502B2D1BF0009BC00030253AC02539FBC00030211
:2054A0005389E583B4FF0BE582B4FF030253AC025389E582B4FF0302539FC3958350072487
:2054C0007F400B025389248014500302539FF582C3ED9AEE9BEF9C40111582C3EA33F9EBA4
:2054E00033FAEC33FBE433FC8005E4CCCBCAF9C08275F019C3E99DEA9EEB9FEC9400D5F02F
:2055000002802D400EE99DF9EA9EFAEB9FFBEC9400FCC3B3E833F8E58233F582E58333F562
:2055200083C3E933F9EA33FAEB33FBEC33FC80C4B3E4F938FAE43582FBE43583FCD08250EF
:205540000405827C80124F1D02538020F71430F6148883A88220F507E6A88375830022E2AE
:2055600080F7E49322E022C013858113AE82E583FF33E433FD6009C3E49EFBE49FFC8004A3
:205580008E038F04E51324FCF808E630E70FE51324FCF8C3E496FE08E496FF800AE5132451
:2055A000FCF88606088607C005C006C0078B828C83125602AE82AF8315811581D005ED604E
:2055C0000DC3E49EFCE49FFD8C828D8380048E828F83D01322FCABF0AA83A982749EF582BC
:2055E000C2D1EC30E716D2D1E9F42401F9EAF43400FAEBF43400FBECF43400FC124F1D02B7
:205600005368C013858113AE82AF837D007C00E51324FCF808E6235401FB702FE51324FC60
:20562000F8E626F608E633F6E51324FCF8C3EE96EF08965011E51324FCF808E618C313C662
:2056400013C608F680050C8C0580C4E51324FCF8C3EE96EF0896400DE51324FCF8EEC39685
:20566000FEEF0896FFE51324FCF808E618C313C613C608F68D041DEC70D18E828F83D01337
:2056800022C013858113AE82E583FF33E433FD6009C3E49EFBE49FFC80048E038F04E51356
:2056A00024FCF808E633E433FF600FE51324FCF8C3E496FA08E496FE800AE51324FCF88645
:2056C00002088606C007C005C002C0068B828C831256F7AC82AE8315811581D005D007EF7F
:2056E0006D600DC3E49CFDE49EFF8D828F8380048C828E83D01322C013858113AE82AF83F8
:205700007C007D007B10EF235401FAEE2EFEEF33FFEC2CFCED33FDEA6003430401E5132487
:20572000FCF8C3EC96ED08964010E51324FCF8ECC396FCED0896FD430601EB14FB70C78E73
:20574000828F83D013226040F82582500274FFF582E824F8501ECCCBCAF9E4CC24F8501439
:20576000CBCAF9E4CB24F8500BCAF9E4CA24F8500379002224086010F8C3EC13FCEB13FBAF
:20578000EA13FAE913F9D8F1221257E8C3749E95824039790012574630D126E9F42401F536
:2057A00082EAF43400F583EBF43400F5F0ECF43400700AE582458345F0700122E430E70F56
:2057C00022EC20E71489828A838BF02230D10AE4F582F583F5F074802274FFF582F583F5BB
:2057E000F0747F2275820022AA82AB83A2F73392D1F5826002D2F7ACF022C013858113AF07
:205800008274302FFF24C6501074072FFFE51324FCF8E6600474202FFFE51324F6F8E6C075
:20582000E008E6C0E008E6C0E0E51324F9F8E6C0E008E6C0E008E6C0E08F82D002D001D039
:2058400000121244158115811581D013021256C013858113E582FFC4540FFEC007E5132477
:20586000F6F8E6C0E008E6C0E008E6C0E0E51324F9F8E6C0E008E6C0E008E6C0E0E51324CD
:20588000FCF8E6C0E08E8278FA79577A00121244E58124F9F581D00753070FE51324F6F817
:2058A000E6C0E008E6C0E008E6C0E0E51324F9F8E6C0E008E6C0E008E6C0E0E51324FCF887
:2058C000E6C0E08F8278FA79577A00121244E58124F9F581D013021256C013858113A982B0
:2058E0008704098705098706098707191919740429F87B20C003E626FAEF235401FBEA4285
:2059000003A603EC2CFCED33FDEE33FEEF33FFC000E51324FCF8C3EB96D000D003401486D9
:2059200002C000E51324FCF8EAC396FAD000A602430401EB14FAFB70BBA70409A70509A769
:205940000609A707D013021256C013858113C8E5812428F581E5132407C8A68208A6830815
:20596000A6F008F67B00C200E5132405F87680C003C020E4C0E0C0E0C0E0C0E0E51324071D
:20598000F886820886830886F008E61274E6AA82E58124FCF581D020D003EA6011D200E521
:2059A000132407F8E608E608E608E6B2E7F6C003C020E5132407F8E6C0E008E6C0E008E6B2
:2059C000C0E008E6C0E090FFFF75F07F744B1274E6AA82E58124FCF581D020D003EA7003B4
:2059E000025B857A00C003C002C020E4C0E0C0E07420C0E07441C0E0E5132407F88682080E
:205A000086830886F008E61274E6E58124FCF581D020D002D003E58224FF92014044C003B0
:205A2000C002C020E4C0E0C0E07420C0E07441C0E0E5132407F886820886830886F008E677
:205A4000125488C8E5132407C8A68208A68308A6F008F6E58124FCF581D020D002D0030A15
:205A600080838A07C007C003C020E4C0E0C0E07480C0E0743FC0E0E5132407F8868208866C
:205A8000830886F008E61274E6AA82E58124FCF581D020D003D007EA6044C007C003C020F1
:205AA000E5132407F8E6C0E008E6C0E008E6C0E008E6C0E090000075F0207441124E4CC85D
:205AC000E5132407C8A68208A68308A6F008F6E58124FCF581D020D003D0071F8086E51333
:205AE0002405F8A60730003AC020E51324F1F8E6C0E008E6C0E008E6C0E0E51324F4F8E6F9
:205B0000C0E008E6C0E008E6C0E075822DD002D001D000121244158115811581D0207B019C
:205B20008040E51324F8F8E66038C020E51324F1F8E6C0E008E6C0E008E6C0E0E51324F484
:205B4000F8E6C0E008E6C0E008E6C0E075822BD002D001D000121244158115811581D020FC
:205B60007B01E51324FCF87600E51324FAF87600E51324F9F87600E51324F8F87600E513A2
:205B800024F7F87600E51324FBF8B6FF07E51324FBF87606E5132410F8E4F608F608F60824
:205BA000763FE51324FBF88605ED604BC003C005C020E4C0E0C0E07420C0E07441C0E0E504
:205BC000132410F886820886830886F008E6125488AA82AB83AEF0FFE58124FCF581D02030
:205BE000D005E5132410F8A60208A60308A60608A6071DD00380B2C003C003C020E5132446
:205C000010F8E6C0E008E6C0E008E6C0E008E6C0E0E5132407F886820886830886F008E6AC
:205C20001250FEA81308A68208A68308A6F008F6E58124FCF581D020A81308868208868384
:205C40000886F008E6C0201274BFC8E5132407C8A68208A68308A6F008F6D020D003E51350
:205C60002407F886820886830886F008E6C0201276AEAA82AB83AEF0FFD020C003C020C01C
:205C800002C003C006C007A8130886820886830886F008E6124E41C8E513240BC8A68208E2
:205CA000A68308A6F008F6E58124FCF581D020D003E5132406F8E5132414F67A00D003E5EE
:205CC000132407F8E60846084608467003025D4E8A070AE5132406F8EF26F9C003C002C096
:205CE00001C020740AC0E0E4C0E0C0E0C0E0E5132407F886820886830886F008E612755F5B
:205D0000AC82E58124FCF581D020D00174302CF7C020740AC0E0E4C0E0C0E0C0E0E51324F3
:205D200007F886820886830886F008E6127621C8E5132407C8A68208A68308A6F008F6E5A9
:205D40008124FCF581D020D002D003025CBFEAFF700DEA04FFE5132406F8EA26F87630E57A
:205D60001324FBF8E513240FF9E6F7E5132406F8E5132407F9E6F7E5132428F8A607E51304
:205D8000240FF8E6700AE513240FF88602025E6AC007C003C020E513240BF8E6C0E008E606
:205DA000C0E008E6C0E008E6C0E090000075F0207441124E4CAC82AD83AEF0FFE58124FC30
:205DC000F581D020E5132424F8A60408A60508A60608A607E5132424F88682088683088680
:205DE000F008E6C0201274BFAC82AD83AEF0FFD0208F02E5132407F8E5132428F9E726F9C6
:205E0000E5132428F8068C0774302FF78C828D838EF0EAC0201276AEAC82AD83AEF0FFD07C
:205E200020D003C007C003C020C004C005C006C007E5132424F886820886830886F008E632
:205E4000124E41C8E513240BC8A68208A68308A6F008F6E58124FCF581D020D003D007E57A
:205E600013240FF816D007025D7E8F06E51324FBF8E6600EE51324FBF8E604FC3395E0FD88
:205E800080047C007D00EC2EFCFE200010E51324F8F8E67008E51324F7F8E660010EE5137F
:205EA00024FAF8E66003026138E51324FCF8C3EA964003026138E51324F9F8E67003025FF0
:205EC000EF300042C007C006C003E51324F1F8E6C0E008E6C0E008E6C0E0E51324F4F8E67C
:205EE000C0E008E6C0E008E6C0E075822DD002D001D000121244158115811581D003D0067C
:205F0000D0070B025F96E51324F8F8E66041C007C006C003E51324F1F8E6C0E008E6C0E0AC
:205F200008E6C0E0E51324F4F8E6C0E008E6C0E008E6C0E075822BD002D001D0001212442C
:205F4000158115811581D003D006D0070B8047E51324F7F8E6603FC007C006C003E5132431
:205F6000F1F8E6C0E008E6C0E008E6C0E0E51324F4F8E6C0E008E6C0E008E6C0E0758220D5
:205F8000D002D001D000121244158115811581D003D006D0070B8B05E51324FCF886048C23
:205FA000021CC3EE9A400302620FC007C006C005C004E51324F1F8E6C0E008E6C0E008E6A5
:205FC000C0E0E51324F4F8E6C0E008E6C0E008E6C0E0758230D002D001D0001212441581DF
:205FE00015811581D004D005D006D0070D80B08B02E51324FCF88605C0078D071DC3EE9FF2
:20600000D0075049C007C006C005C002C020E51324F1F8E6C0E008E6C0E008E6C0E0E5137D
:2060200024F4F8E6C0E008E6C0E008E6C0E0758220D002D001D000121244158115811581FA
:20604000D020D002D005D006D0070A80AB8A03E51324FCF8A605300044C007C006C002E5D7
:206060001324F1F8E6C0E008E6C0E008E6C0E0E51324F4F8E6C0E008E6C0E008E6C0E0753F
:20608000822DD002D001D000121244158115811581D002D006D007EA04FB026218E51324B4
:2060A000F8F8E66044C007C006C002E51324F1F8E6C0E008E6C0E008E6C0E0E51324F4F868
:2060C000E6C0E008E6C0E008E6C0E075822BD002D001D000121244158115811581D002D0BD
:2060E00006D007EA04FB026218E51324F7F8E67003026218C007C006C002E51324F1F8E644
:20610000C0E008E6C0E008E6C0E0E51324F4F8E6C0E008E6C0E008E6C0E0758220D002D060
:2061200001D000121244158115811581D002D006D007EA04FB026218300042C007C006C0C1
:2061400003E51324F1F8E6C0E008E6C0E008E6C0E0E51324F4F8E6C0E008E6C0E008E6C0CB
:20616000E075822DD002D001D000121244158115811581D003D006D0070B026218E513245B
:20618000F8F8E66041C007C006C003E51324F1F8E6C0E008E6C0E008E6C0E0E51324F4F889
:2061A000E6C0E008E6C0E008E6C0E075822BD002D001D000121244158115811581D003D0DB
:2061C00006D0070B8052E51324F7F8E6604AC007C006C003E51324F1F8E6C0E008E6C0E001
:2061E00008E6C0E0E51324F4F8E6C0E008E6C0E008E6C0E0758220D002D001D00012124475
:20620000158115811581D003D006D0070B80098D03E51324FCF8A6048F051DE5132406F893
:206220008604E5132406F8ED26F98702C007C006C005C004C003E51324F1F8E6C0E008E6D3
:20624000C0E008E6C0E0E51324F4F8E6C0E008E6C0E008E6C0E08A82D002D001D0001212C3
:2062600044158115811581D003D004D005D006D0070B8D021DEA70AA8B05E51324FBF8E6AF
:206280007003026327C007C006C004C003E51324F1F8E6C0E008E6C0E008E6C0E0E5132428
:2062A000F4F8E6C0E008E6C0E008E6C0E075822ED002D001D000121244158115811581D0BE
:2062C00003D004D006D0070B8F05E51324FBF886028A071AEF604EED2CF90D8707C006C089
:2062E00005C004C003C002E51324F1F8E6C0E008E6C0E008E6C0E0E51324F4F8E6C0E00813
:20630000E6C0E008E6C0E08F82D002D001D000121244158115811581D002D003D004D0056D
:20632000D0060B80AC8B05E51324FAF8E6605CE51324FCF8C3EE9650528D07E51324FCF873
:206340008604C3EE9C50421CC007C006C004E51324F1F8E6C0E008E6C0E008E6C0E0E513C8
:2063600024F4F8E6C0E008E6C0E008E6C0E0758220D002D001D000121244158115811581B7
:20638000D004D006D0070F80B98F05E5132405F8B680030264C9C005E51324F1F8E6C0E0CF
:2063A00008E6C0E008E6C0E0E51324F4F8E6C0E008E6C0E008E6C0E0758265D002D001D048
:2063C00000121244158115811581D005ED04FFE5132405F8E630E740C007E51324F1F8E6C6
:2063E000C0E008E6C0E008E6C0E0E51324F4F8E6C0E008E6C0E008E6C0E075822DD002D071
:2064000001D000121244158115811581D0070FE5132405F8C3E496F6E5132405F8E6FA3323
:2064200095E0FEC007C006C002740AC0E0E4C0E08A828E83125681AB821581158174302BCA
:20644000FBE51324F1F8E6C0E008E6C0E008E6C0E0E51324F4F8E6C0E008E6C0E008E6C0D0
:20646000E08B82D002D001D000121244158115811581D002D006D0070FC007740AC0E0E43B
:20648000C0E08A828E83125567AC821581158174302CFCE51324F1F8E6C0E008E6C0E0082A
:2064A000E6C0E0E51324F4F8E6C0E008E6C0E008E6C0E08C82D002D001D00012124415812D
:2064C00015811581D007EF04FD8D82851381D013021256C013858113C082C083C0F0E581CD
:2064E0002424F581E513240CF8E4F608F6E5132410F8E5132419F6E5132421C8E51324076F
:20650000C82405F6E5132411F8E5132419F6E5132411F8E5132404F9740426F7E513240451
:20652000F8E5132405F9E6F7E5132404F8E5132406F9E6F7E51324F7F886020886060886A7
:20654000078A828E838FF012554BFDE51324F7F874012AF6E43E08F608A607EDFF70030213
:2065600074ADBF25028003027470C200C201C202C203C204C205C206C207E513241EF8E469
:20658000F6FDFEE513241FF876FF0876FFE51324F7F8E5132408F9E6F70809E6F70809E6FB
:2065A000F7E5132408F886820886830886F0E513240BF912554BF7A31818A68208A683E557
:2065C000132408F8E51324F7F9E6F70809E6F70809E6F7E513240BF8B62542E51324FAF875
:2065E000E6C0E008E6C0E008E6C0E0A81308E6C0E008E6C0E008E6C0E0E513240BF886826D
:20660000D002D001D000121244158115811581E513240CF806B600020806026534E513243A
:206620000BF8B6300050030266C1E513240BF8E624C650030266C1E513241FF8B6FF3C085E
:20664000B6FF38C020C005C00690000A124F6BAA82AF8315811581D020E513240BF886035A
:206660007C00EB2AFAEC3FFFEA24D0FDEF34FFFE4D60030265A1D2010265A1C006C005C08C
:2066800020E513241FF8E6C0E008E6C0E090000A124F6BAC82AF8315811581D020D005D00C
:2066A00006E513240BF886027B00EA2CFCEB3FFFE513241FF8EC24D0F6EF34FF08F60265E7
:2066C000A1E513240BF8B62E1DE513241FF8B6FF0608B6FF0280030265A1E513241FF8E4AA
:2066E000F608F60265A1E513240BF8B66100401CE513240BF8E624854012E513240BF8E607
:2067000054DFF6E5132418F876018007E5132418F87600E513240BF8B620030267E5E51346
:20672000240BF8B62B030267E0E513240BF8B62D030267DBE513240BF8B642030267EAE56A
:2067400013240BF8B643030267F4E513240BF8B64403026D62E513240BF8B64603026D88A4
:20676000E513240BF8B648030265A1E513240BF8B64903026D62E513240BF8B64A03026576
:20678000A1E513240BF8B64C028064E513240BF8B64F03026D6DE513240BF8B65003026ABA
:2067A000FEE513240BF8B65303026869E513240BF8B654030265A1E513240BF8B65503027A
:2067C0006D76E513240BF8B65803026D7FE513240BF8B65A030265A1026D8CD2000265A1A9
:2067E000D2020265A1D2030265A1D2050265A1D2060265A1300515E51324F6F8E614FCE5F2
:206800001324F6F8A604A80486048014E51324F6F8E624FEFBE51324F6F8A603A8038604EA
:20682000C006C005C020E51324FAF8E6C0E008E6C0E008E6C0E0A81308E6C0E008E6C0E066
:2068400008E6C0E08C82D002D001D000121244158115811581D020D005D006E513240CF844
:2068600006B600020806026DE7E5132419FCE51324F6F8E624FDFBE51324F6F8A603A8035B
:206880008602088603088607A804A60208A60308A6078A828B838FF0C006C005C004C020C8
:2068A000786E79547A00121244C8E5132408C8A68208A683D020D004D005D006E513241F8C
:2068C000F8B6FF1408B6FF10E5132408F8E513241FF9E6F70809E6F730000302697FE513FA
:2068E0002408F8C3E69D08E69E400302697FE5132408F8E5132412F9EDC396F7EE08960960
:20690000F7E513240CF88606088605E5132412F88602088607E5132412F816B6FF020816ED
:20692000EA4F6047C006C005C004C020E51324FAF8E6C0E008E6C0E008E6C0E0A81308E6EF
